:07306E008F828E83EDF0223A
:0A3075003098FDAA99C2988A8222C1
:0E307F00AAF0AB83E582900003F0A3EBF0A370
:0E308D00EAF0900001E0FAA3E0FBC3E49A74BD
:0E309B00808BF063F08095F040079000007588
:0330A900F0002212
:0C30AC00900006E4F0A3F0900003E0F5B3
:0830B80008A3E0F509A3E0F50F
:0630C0000A1ABAFF011B11
:0430C6007F0078000F
:0E30CA00C3EF9AE864808BF063F08095F050BD
:0E30D8006DC002C003C007C000123075A9828F
:0E30E600D000D007D003D0028982C002C00300
:0E30F400C007C000C001123F04D001D000D0C0
:0A31020007D003D002B90A028003CF
:03310C00B90D0BEF
:0B310F00B90D3475820A123F04802CB9
:0A311A00C002C003EF2508FAE835F3
:0A31240009FBAC0A8A828B838CF051
:09312E00E91248F30FBF0001088B
:0D313700900006EFF0A3E8F0D003D00202F4
:0231440030CA8F
:0E314600900003E0FAA3E0FBA3E0FC9000067B
:0E315400E0FDA3E0FEED2AFDEE3BFE8C078DB4
:0E316200828E838FF0E41248F38A828B838C76
:02317000F0224B
:0E31720090031A7440F0A37406F090000C0253
:023180004736D0
:0330000002300398
:07305C00E4F50FF510E4F5A7
:0530630011F512E4F577
:0330680013F51449
:03306B00023182AD
:0531820012318780FE00
:083187001233D71233DDE4F529
:04318F000FF510F533
:0431930011F512F52B
:0431970013F5149088
:07319B00031074ADF0A374F2
:0C31A20054F0A37480F0900313740FF03D
:0D31AE00E4A3F090020875F0001246C01274
:0631BB0037E27A007B0000
:0E31C100C3EB64809481501E8A04EBCC25E0A1
:0A31CF00CC33FDEC2408F582ED344A
:0C31D90000F583E4F0A3F00ABA00DD0B5F
:0231E50080DA8E
:0931E700E513B43204E5146002A2
:0231F000801A43
:0A31F20074BCC0E07454C0E07480A7
:0D31FC00C0E0124BD3158115811581E4F55B
:0332090013F514A6
:0A320C00123075AA82BA080280038E
:033216000232B1D0
:0A321900C3E4950F74808510F06384
:0B322300F08095F05057150F74FFB5B8
:04322E000F02151066
:0C323200900217E0FBA3E0FCE50F2BF579
:0C323E0082E5103CF583E0FBC2D575F082
:09324A0002EB30E704B2D5F404F4
:0E325300A430D50AF42401C5F0F43400C5F00F
:0A3261002408FB740035F0FC8B829A
:0C326B008C83E0FDA3E0FE1DBDFF011EF2
:093277008B828C83EDF0A3EEF0D4
:0A328000C3E4951374808514F06315
:09328A00F08095F040030231E7E9
:0E329300758208123F04758220123F04758276
:0932A10008123F04151374FFB577
:0432AA0013021514E2
:0332AE000231E703
:0C32B1008A82C002123F04D00274012582
:0532BD0011F511E435DC
:0632C20012F51274012553
:0532C80013F513E435CD
:0A32CD0014F514C2D575F002EA30C2
:0632D700E704B2D5F40487
:0E32DD00A430D50AF42401C5F0F43400C5F085
:0A32EB002408FB740035F0FC8B8210
:0C32F5008C83E0FDA3E0FE0DBD00010E87
:0E3301008B828C83EDF0A3EEF0C3EA6480941F
:0E330F00B0400B74B98AF063F08095F0502640
:0E331D00C3EA648094E1400B74FA8AF063F016
:05332B008095F0501335
:0E333000C3EA648094C1404C74DA8AF063F002
:05333E008095F0404104
:05334300AB0FAC10E52A
:0A334800103395E0FDFEC3EB950B7A
:0A335200EC950CED950DEE648085FE
:0C335C000EF063F08095F0501F900217F7
:0B336800E0FBA3E0FCE50F2BF582E585
:0A337300103CF583EAF07401250F09
:06337D00F50FE43510F528
:013383001039
:0D338400BA3F0EC002123837D002C002124C
:0433910037E2D0024D
:05339500BA3D028003B7
:03339A000231E716
:0E339D00900217E0FAA3E0FB7C0090029EE590
:0A33AB000FF0A3E510F08A828B8377
:0A33B5008CF012359974BCC0E0746E
:0C33BF0054C0E07480C0E0124BD31581B4
:0A33CB0015811581E4F513F51402D5
:0233D50031E7DE
:0633D700438E0C0231726E
:0A33DD0074C1C0E07454C0E07480B5
:0E33E700C0E0124BD3158115811581900001B5
:0D33F5007480F0E4A3F090021B75F000124C
:06340200307F9002D0743F
:0A3408009BF0A37402F0A37400F01F
:0E34120090021B75F000123F97AA82AB838ACE
:083420000BEBF50C3395E0F510
:043428000DF50E9000
:0E342C00021BE0601790029BE0FAA3E0FBA3F6
:0E343A00E0FC8A828B838CF0125470FA6018CA
:0A3448007407C0E07455C0E0748002
:0E345200C0E0124BD31581158115810233DDC8
:0A346000C3E50B9418E50C9400E599
:0A346A000D9400E50E64809480408C
:0A347400177440950B7406950CE4E4
:0A347E00950D7480850EF063F08058
:0434880095F050204B
:05348C00C00BC00CC0E4
:043491000DC00E74E8
:0A3495001CC0E07455C0E07480C054
:0D349F00E0124BD3E58124F9F5810233DD05
:0E34AC009002E27408F0E4A3F0A3F0A3F08510
:0634BA000B82850C8385E6
:0534C0000DF0E50E1205
:0E34C5004217AA82AB83ACF0FDBA000BBB002D
:0934D30008BC0005BD00028020C8
:0534DC00C00BC00CC094
:0434E1000DC00E7498
:0A34E5003CC0E07455C0E07480C0E4
:0D34EF00E0124BD3E58124F9F5810233DDB5
:0934FC00AA0BAB0C8A828B83122F
:0E35050047B7E5828583F0900217F0A3E5F04A
:0E351300F09002FC7404F0E4A3F0A3F0A3F027
:07352100850B82850C8385F8
:053528000DF0E50E129C
:0E352D0044E9AA82AB83ACF0FD1247B7AA8234
:0E353B00AB83900219EAF0A3EBF0900217E0C8
:0B354900FCA3E0FD4C6004EA4B704462
:0E355400900217E0FAA3E0FB4A600B7C008AAD
:08356200828B838CF012434DB3
:0E356A00900219E0FAA3E0FB4A600B7C008A95
:08357800828B838CF012434D9D
:0A358000745CC0E07455C0E0748074
:0E358A00C0E0124BD31581158115810233DD8F
:013598002210
:0E359900AAF0AB83E5829002A0F0A3EBF0A3B2
:0A35A700EAF07472C0E07455C0E051
:0E35B1007480C0E0124BD31581158115817A0C
:0335BF00377B0057
:0E35C20075822DC002C003123F04D003D00258
:0535D0001ABAFF011B07
:0C35D500EA4B70E975822B123F047476FB
:0B35E100C0E07455C0E07480C0E01230
:0C35EC004BD3158115811581747AC0E065
:0C35F8007455C0E07480C0E0124BD31585
:0E36040081158115819002A0E0FAA3E0FBA3DE
:07361200E0FC8A178B188C05
:0B3619001990029EE0F8A3E0F9E4F530
:0336240015F51683
:0A362700C3E51598E516648089F0EC
:0A36310063F08095F0400302378D2E
:0C363B0090032B7410F0E4A3F0851582BE
:0C364700851683C002C003C004C000C090
:0E36530001124958E5828583F0D001D000D0E5
:0C36610004D003D00245F06003023721C2
:0E366D00C000C0019002CD7439F0E4A3F075E6
:0D367B00827CC002C003C004C000C0011268
:0E3688003F40D001D000D004D003D002C002D9
:0C369600C003C004C000C0017476C0E096
:0C36A2007455C0E07480C0E0124BD315DA
:0E36AE008115811581D001D000D004D003D049
:0A36BC0002E5152AF8E5163BF98C2B
:0E36C600059002A37410F0E4A3F09002A57426
:0E36D40004F0E4A3F088828983C002C003C022
:0E36E20004C000C001123D69D001D000D00428
:0E36F000D003D002C002C003C004C000C0015D
:0A36FE0074B0C0E07455C0E07480A1
:0E370800C0E0124BD3158115811581D001D080
:0B37160000D004D003D002D001D0008E
:06372100E5152517FDE58A
:05372700163518FEAF8D
:0C372C00198D828E838FF0125470FD33D3
:0D37380095E0FE9002A37410F0E4A3F09061
:0E37450002A57402F0E4A3F08D828E83C00210
:0E375300C003C004C000C001123D69D001D007
:0E37610000D004D003D002758220C002C00345
:0E376F00C004C000C001123F04D001D000D041
:0A377D0004D003D0020515E4B515D1
:0337870002051622
:03378A00023627DD
:0D378D009002CD7439F0E4A3F075827C1237
:07379A003F4074B3C0E0746E
:0C37A10055C0E07480C0E0124BD31581CD
:0837AD00158115817A377B00BC
:0E37B50075822DC002C003123F04D003D00263
:0537C3001ABAFF011B12
:0A37C800EA4B70E974B6C0E07455D6
:0E37D200C0E07480C0E0124BD3158115811544
:0237E000812244
:0A37E20074B9C0E07455C0E07480B3
:0C37EC00C0E0124BD315811581158174CB
:0A37F800D9C0E07455C0E07480C031
:0C380200E0124BD315811581158174F97B
:0B380E00C0E07455C0E07480C0E01200
:0C3819004BD315811581158174BCC0E0F3
:0C3825007454C0E07480C0E0124BD31556
:06383100811581158122C2
:0A3837007472C0E07455C0E07480A4
:0E384100C0E0124BD31581158115817A347BBE
:01384F000078
:0E38500075822DC002C003123F04D003D002C7
:05385E001ABAFF011B76
:0A386300EA4B70E9741AC0E07456D5
:0E386D00C0E07480C0E0124BD31581158115A8
:0A387B0081741FC0E07456C0E074B1
:0D38850080C0E0124BD31581158115819094
:0E38920002A3740AF0E4A3F09002A5E4F0A3F0
:0838A000F085118285128312EC
:0738A8003D697429C0E074C2
:0C38AF0056C0E07480C0E0124BD31581BD
:0E38BB00158115819002CD7436F0E4A3F075EE
:0A38C900827C123F407476C0E07468
:0C38D30055C0E07480C0E0124BD315819A
:0E38DF00158115819002CD7436F0E4A3F075CA
:0A38ED00827C123F407476C0E07444
:0C38F70055C0E07480C0E0124BD3158176
:0A390300158115817447C0E0745669
:0E390D00C0E07480C0E0124BD3158115811507
:0E391B00819002A3740AF0E4A3F09002A5E4E8
:0A392900F0A3F0850F8285108312D1
:073933003D69744FC0E07410
:0C393A0056C0E07480C0E0124BD3158131
:0939460015811581AA0FAB10E5F3
:0A394F00103395E0FCFDE50BC39A70
:0A395900FAE50C9BFBE50D9CFCE574
:0C3963000E9DFD9002A3740AF0E4A3F096
:0E396F009002A5E4F0A3F08A828B83123D69DA
:0A397D00746DC0E07456C0E0748061
:0E398700C0E0124BD31581158115819002CD41
:0D3995007436F0E4A3F075827C123F40749C
:0A39A20076C0E07455C0E07480C0E8
:0C39AC00E0124BD3158115811581747356
:0B39B800C0E07456C0E07480C0E01254
:0B39C3004BD3158115811581AA0BABB9
:0B39CE000C9002A3740AF0E4A3F09038
:0E39D90002A5E4F0A3F08A828B83123D69748C
:0A39E7007EC0E07456C0E07480C09A
:0E39F100E0124BD3158115811581900217E06D
:0E39FF00FAA3E0FB9002A37410F0E4A3F09092
:0D3A0D0002A57404F0E4A3F08A828B8312FA
:0E3A1A003D699002CD7436F0E4A3F075827C15
:083A2800123F407476C0E07407
:0C3A300055C0E07480C0E0124BD315813B
:0A3A3C00158115817489C0E07456ED
:0E3A4600C0E07480C0E0124BD31581158115CD
:0E3A5400819002FC7404F0E4A3F0A3F0A3F050
:073A6200850B82850C8385B2
:053A69000DF0E50E1256
:0E3A6E0044E9AA82AB83ACF0FD9002A3740A77
:0E3A7C00F0E4A3F09002A5E4F0A3F08A828BA0
:093A8A0083123D69747EC0E074F2
:0C3A930056C0E07480C0E0124BD31581D7
:0D3A9F0015811581900219E0FAA3E0FB905B
:0E3AAC0002A37410F0E4A3F09002A57404F0DD
:0E3ABA00E4A3F08A828B83123D699002CD74E2
:0C3AC80036F0E4A3F075827C123F4074DD
:0A3AD40076C0E07455C0E07480C0B5
:0E3ADE00E0124BD31581158115817A007B0013
:0E3AEC00C3EA940EEB648094804003023C1603
:0E3AFA0090032B740CF0E4A3F08A828B83C03F
:0E3B080002C003124958E5828583F0D003D035
:0E3B16000245F070349002CD7436F0E4A3F056
:0E3B240075827CC002C003123F40D003D00265
:0A3B3200C002C0037476C0E07455B1
:0E3B3C00C0E07480C0E0124BD31581158115D6
:053B4A0081D003D00250
:0A3B4F00EA2408F582EB3402F58346
:0E3B5900E0FCF582C002C003123F04D003D08E
:0E3B67000275822DC002C003123F04D003D0AD
:0A3B750002EA2408F582EB3402F5A1
:0E3B7F0083E0FCC2D575F002EC30E704B2D54D
:023B8D00F4043E
:0E3B8F00A430D50AF42401C5F0F43400C5F0CA
:0A3B9D002408F582740035F0F5836A
:0E3BA700E0FCA3E0FD9002A3740AF0E4A3F09A
:0E3BB5009002A5E4F0A3F08C828D83C002C0C4
:0E3BC30003123D69D003D002758220C002C0FB
:0C3BD10003123F04D003D002EA2408F5E0
:0C3BDD0082EB3402F583E0FCC2D575F0E9
:093BE90002EC30E704B2D5F4044B
:0E3BF200A430D50AF42401C5F0F43400C5F067
:0A3C00002408F582740035F0F58306
:093C0A00E4F0A3F00ABA00010B7A
:033C1300023AEC86
:0D3C16009002CD7436F0E4A3F075827C12AC
:073C23003F407476C0E0741D
:0C3C2A0055C0E07480C0E0124BD315813F
:0E3C3600158115819002CD7436F0E4A3F0756F
:0A3C4400827C123F407476C0E074E9
:0C3C4E0055C0E07480C0E0124BD315811B
:0A3C5A00158115817494C0E07456C2
:0E3C6400C0E07480C0E0124BD31581158115AD
:053C7200817A007B00D7
:0A3C7700C3EA950FEB64808510F09E
:0A3C810063F08095F04003023D0758
:0E3C8B0090032B7432F0E4A3F08A828B83C086
:0E3C990002C003124958E5828583F0D003D0A3
:0E3CA7000245F070349002CD7436F0E4A3F0C4
:0E3CB50075827CC002C003123F40D003D002D3
:0A3CC300C002C0037476C0E074551F
:0E3CCD00C0E07480C0E0124BD3158115811544
:053CDB0081D003D002BE
:0E3CE000900217E0FCA3E0FDEA2CF582EB3D1C
:0E3CEE00F583E0FCF582C002C003123F04D053
:083CFC0003D0020ABA00010B1B
:033D0400023C7707
:0D3D07009002CD7436F0E4A3F075827C12BA
:073D14003F4074B3C0E074EE
:0C3D1B0055C0E07480C0E0124BD315814D
:083D2700158115817A347B003F
:0E3D2F0075822DC002C003123F04D003D002E3
:053D3D001ABAFF011B92
:0A3D4200EA4B70E974B6C0E0745556
:0E3D4C00C0E07480C0E0124BD31581158115C4
:073D5A0081E4F50FF510F5FF
:043D610011F512F551
:043D650013F514221C
:0E54AD003031323334353637383946454D41CB
:0154BB0000F0
:0554BC000A3E3E200045
:0E54C100456E74657220796F75722062756693
:0E54CF006665722073697A652028696E207404
:0E54DD0068652072616E6765205B3234203195
:0E54EB003630305D20616E642061206D756C7E
:0E54F9007469706C65206F662038293A2000B7
:0E5507000A4E6F6E2D696E74656765722069BD
:075515006E7075742E0A0090
:0E551C000A56616C7565206F7574206F6620ED
:0E552A0072616E6765205B323420313630309E
:045538005D2E0A00DA
:0E553C000A56616C7565206D7573742062658A
:0E554A0020646976697369626C65206279205D
:04555800382E0A00DF
:0E555C000A416C6C6F636174696F6E2066614A
:08556A00696C7572652E0A00E0
:045572000A0A2B00F6
:045576000A7C20008B
:0E557A002020202020202B30202B31202B320F
:0E558800202B33202B34202B35202B36202BCC
:0E55960037202B38202B39202B41202B422090
:0C55A4002B43202B44202B45202B4600DD
:0355B0003A20009E
:0355B3000A2B00C0
:0355B6002B0A00BD
:0E55B9000A456E7465722063686172616374E6
:0E55C70065727320666F722073746F72616775
:0455D500652E0A0035
:0E55D900093D096865782064756D70206F6665
:0E55E7002062756666657220636F6E74656E75
:0455F50074730A00C1
:0E55F900093F097072696E74207374617473D7
:0E56070020616E6420636C65617220627566BE
:055615006665720A0049
:05561A002B0A7C2000BA
:0A561F00526563696576656420003A
:0E562900206368617261637465727320736937
:0E5637006E6365206C61737420666C75736819
:025645002E0035
:0856470053746F7265642000CA
:0E564F00206368617261637465727320696E16
:0E565D0020627566666572302C20776974686D
:02566B0020001D
:06566D0020667265650075
:0B56730042756666657220303A200028
:0B567E002062797465732061742000C5
:0B56890042756666657220313A200011
:0E569400466C757368696E67206275666665A0
:0556A200722E2E2E0007
:0E3D6900AA83E5829002A7F0A3EAF07A007B1D
:013D7700004B
:0D3D7800C3EA9420EB648094805014EA2488
:0A3D8500A9F582EB3402F5837430D7
:083D8F00F00ABA00E40B80E128
:0E3D97009002A7E0FAA3E0FB30E70675822D4C
:033DA500123F04C6
:0C3DA8009002A3E0FAA3E0FB7C007D0089
:0E3DB4009002A7E0FEA3E0FF4E7003023E6AFD
:0E3DC20090032BEAF0A3EBF08E828F83C002F9
:0E3DD000C003C004C005124958AE82AF83D0B4
:0E3DDE0005D004D003D0028E828F83C002C0B5
:0E3DEC0003C004C00512490CAE82AF83D0059F
:0E3DFA00D004D003D002C374898EF063F08031
:0C3E080095F040089002C97430F080066C
:063E14009002C97437F0B2
:093E1A00EC24A9FFED3402F8903C
:0E3E230002C9E0F92EFE8F828883F09002A77C
:0E3E3100E0FEA3E0FF900334EAF0A3EBF08E76
:0E3E3F00828F83C002C003C004C005124A7403
:0E3E4D00E5828583F0D005D004D003D002902A
:0C3E5B0002A7F0A3E5F0F00CBC00010D84
:033E6700023DB465
:0E3E6A009002CAECF0A3EDF09002A5E0FAA3DE
:0E3E7800E0FB4A701AEC4D7016758230C002E5
:0E3E8600C003C004C005123F04D005D004D014
:033E940003D00256
:0E3E9700C3E49A74808BF063F08095F0501DA8
:0E3EA500C3EA9CEB64808DF063F08095F050D2
:033EB30002800486
:043EB6008A048B05EA
:083EBA009002CAECF0A3EDF048
:0D3EC2009002CAE0FAA3E0FB1ABAFF011B50
:0E3ECF009002CAEAF0A3EBF09002CAE0FAA358
:023EDD00E0FB08
:0B3EDF00EB20E720EA24A9F582EB3479
:0C3EEA0002F583E0FCF582C002C0031268
:0D3EF6003F04D003D0021ABAFFDF1B80DCAE
:013F0300229B
:0E3F0400E5829002CCF09002CCE0FABA0A0FEF
:053F120010990280FB84
:0A3F170075990D90036CE4F0A3F01F
:053F210010990280FB75
:0E3F26009002CCE0F59990036CE0FAA3E0FB6A
:0C3F340090036C74012AF0E43BA3F0221F
:0E3F4000E5829002CFF090036CE0FAA3E0FB64
:0E3F4E009002CDE0FCA3E0FDECC39AFAED9BDF
:053F5C00FB7C007D006C
:0E3F6100C3EC9AED64808BF063F08095F05015
:0D3F6F001D758220C002C003C004C00512F1
:0E3F7C003F04D005D004D003D0020CBC00D707
:033F8A000D80D4D3
:0A3F8D009002CFE0FAF582023F0433
:0256B2000000F6
:0E3F9700AAF0AB83E5829002D3F0A3EBF0A377
:0E3FA500EAF09002D6E4F0A3F09002D8E4F027
:0E3FB300A3F09002D3E0FAA3E0FBA3E0FC8AA7
:0D3FC100828B838CF012541DAA82AB83907A
:0C3FCE0002DAEAF0A3EBF09002D3E0F579
:083FDA001AA3E0F51BA3E0F5BA
:053FE2001C851A828518
:063FE7001B83851CF01293
:0E3FED005470FFBF2D5D9002D87401F0E4A364
:0A3FFB00F07401251AFFE4351BF8ED
:0C400500A91C8F82888389F0125470700F
:0E401100269002D0E0FCA3E0FDA3E0FE8C822E
:0B401F008D838EF0E51A1248F3A3E534
:06402A001B1248F3A3E5A0
:084030001C1248F3900000226D
:0E4038009002D3EFF0A3E8F0A3E9F01ABAFF6C
:02404600011B5C
:084048009002DAEAF0A3EBF0AC
:0E4050009002DAE0FAA3E0FB9002D3E0FCA3BA
:09405E00E0FDA3E0FE7F00780004
:0E406700C002C003EF2CF9E83DFA8E038982F7
:0E4075008A838BF0125470F9D003D002E970E8
:0440830003024131C2
:0B408700C3E9648094B0500302413193
:0D409200C374B989F063F08095F05003020B
:02409F004131AD
:0E40A100C004C005C006E93395E0FCE924D058
:0E40AF00F9EC34FFFCEAC39FFDEB98FE1DBD4B
:0340BD00FF011EE2
:0E40C0009002DCEDF0A3EEF090000AC002C00A
:0E40CE0003C004C007C000C00112417FAD82D4
:0E40DC00AE83D001D000D007D004D003D002B4
:0E40EA00900329EDF0A3EEF089828C83C002D2
:0E40F800C003C006C007C000124938AC82AD3C
:0E41060083D000D007D006D003D0029002D69E
:0E411400E0FEA3E0F99002D6EC2EF0ED39A308
:06412200F00FBF000108D0
:09412800D006D005D00402406766
:0E4131009002D0E0FAA3E0FBA3E0FC9002D3E2
:0E413F00E0FDA3E0FEA3E0F9EF2DFDE83EFE5B
:0D414D008A828B838CF0ED1248F3A3EE12F2
:08415A0048F3A3E91248F390B9
:0E41620002D8E0FAA3E0FB4A60079002D6E420
:03417000F0A3F0C9
:0C4173009002D6E0FAA3E08A82F58322D5
:0E417F00AA83E5829002DEF0A3EAF09002E04F
:06418D007401F0E4A3F050
:0E4193009002DCE0FAA3E0FB4A606DEA30E047
:0E41A1002C9002DEE0FAA3E0FB9002E0E0FCCE
:0E41AF00A3E0FD900329EAF0A3EBF08C828DD3
:0E41BD0083124938E5828583F09002E0F0A37A
:0341CB00E5F0F02C
:0E41CE009002DCE0FAA3E0FBA2E713CA13CADA
:0E41DC00FB9002DCEAF0A3EBF09002DEE0FACA
:0E41EA00A3E0FB900329EAF0A3EBF08A828B9E
:0E41F80083124938E5828583F09002DEF0A341
:05420600E5F0F08088E6
:0C420B009002E0E0FAA3E08A82F5832232
:0E421700AA82AB83ACF0FD9002E6EAF0A3EBC6
:0E422500F0A3ECF0A3EDF09002E6E0FAA3E0C7
:0E423300FBA3E0FCA3E0FD30E70FC3E49AFE1E
:0B424100E49BFFE49CF8E49DF980087A
:08424C008A068B078C008D012E
:0E4254008E028F03880489059002E2E0FEA32B
:0E426200E0FFA3E0F8A3E0F930E713C3E49E09
:09427000F522E49FF523E498F522
:0742790024E499F5258008FB
:054280008E228F23884F
:0342850024892564
:084288009002F3E522F0A3E52A
:0842900023F0A3E524F0A3E5EF
:0C42980025F08A828B838CF0ED1243A08D
:0E42A400AA82AB83ACF0FD9002E6E0FEA3E040
:0E42B200FFA3E0F8A3E0F930E714C3E49AFE9E
:0E42C000E49BFFE49CF8E49DF98E828F8388D6
:0242CE00F022DC
:0842D0008A828B838CF0ED2241
:0E42D800AA83E5829002ECF0A3EAF09002ECDB
:0C42E600E0FAA3E0FB4A70049000002204
:0E42F200EA24FCFAEB34FFFB900318E0FCA377
:0E430000E0FD9002EEECF0A3EDF09002EAE496
:03430E00F0A3F029
:0E4311009002EEE0FCA3E0FD4C6025EAB5044E
:07431F0006EBB50502801B4F
:0E4326009002EAECF0A3EDF08C828D83E0FCB7
:0D433400A3E0FD9002EEECF0A3EDF080D0D0
:0C4341009002EEE0FAA3E08A82F58322ED
:0E434D00AAF0AB83E5829002F0F0A3EBF0A3A0
:0E435B00EAF09002F0E0FAA3E0FBA3E0FC8A97
:0E436900828B831242D8AA82AB83EA4B602873
:0E4377009002EAE0FCA3E0FD4C700B8A828B02
:0843850083A3A3E4F0A3F022DE
:0E438D008A828B83E0FAA3E0FB8C828D83EAA8
:04439B00F0A3EBF0B0
:01439F0022FB
:0E43A000AA82AB83ACF0FD9002F7EAF0A3EB2B
:0D43AE00F0A3ECF0A3EDF09002FBE4F09022
:0E43BB0002F7E0FAA3E0FBA3E0FCA3E0FD7E26
:0143C90000F3
:0943CA009002F3E0F530A3E0F5E8
:0843D30031A3E0F532A3E0F58F
:0A43DB0033E533235401FF7078C06E
:0A43E50006E53025E0FFE53133F86E
:0943EF00E53233F9E53333FE90A9
:0E43F80002F3EFF0A3E8F0A3E9F0A3EEF090DB
:0844060002F3E0F530A3E0F53C
:08440E0031A3E0F532A3E0F553
:0744160033C3EA9530EB957A
:06441D0031EC9532ED9533
:0A44230033E433D0066029E533C30B
:07442D0013F533E53213F52E
:0544340032E53113F533
:0544390031E53013F530
:05443E00309002F3E5DF
:0844430030F0A3E531F0A3E520
:08444B0032F0A3E533F0800913
:094453000E9002FBEEF00243CAD8
:05445C009002FBE0FAF4
:0E4461009002F7E0FBA3E0FCA3E0FDA3E0FE69
:09446F009002F3E0F530A3E0F542
:0844780031A3E0F532A3E0F5E9
:0744800033C3EB9530EC950E
:0644870031ED9532EE95C7
:09448D003340179002F7EBC395D0
:0944960030F0EC9531A3F0ED9536
:08449F0032A3F0EE9533A3F007
:0E44A7009002F3E0FBA3E0FCA3E0FDA3E0FE27
:0D44B500C313FEED13FDEC13FCEB13FB90A5
:0E44C20002F3F0A3ECF0A3EDF0A3EEF08A03FA
:0E44D0001AEB708D9002F7E0FAA3E0FBA3E078
:0B44DE00FCA3E0FD8A828B838CF0229F
:0E44E900AA82AB83ACF0FD900300EAF0A3EBD7
:0E44F700F0A3ECF0A3EDF0900300E0FAA3E0D8
:0E450500FBA3E0FCA3E0FD30E70FC3E49AFE49
:0B451300E49BFFE49CF8E49DF98008A5
:08451E008A068B078C008D0159
:0E4526008E028F03880489059002FCE0FEA33C
:0C453400E0FFA3E0F8A3E0F933E433F566
:0945400026E5266013C3E49EF594
:0845490027E49FF528E498F532
:0745510029E499F52A800816
:054558008E278F28886A
:03455D0029892A7F
:08456000900304E527F0A3E538
:0845680028F0A3E529F0A3E50A
:0C4570002AF08A828B838CF0ED1245B497
:0E457C00AA82AB83ACF0FD900300E0FEA3E04A
:0C458A00FFA3E0F8A3E0F933E43365265A
:0E4596006014C3E49AFEE49BFFE49CF8E49DED
:0845A400F98E828F8388F0225A
:0845AC008A828B838CF0ED2262
:0E45B400AA82AB83ACF0FD900308EAF0A3EB03
:0E45C200F0A3ECF0A3EDF090030CE4F0A3F0F6
:0E45D000A3F0A3F0900304E0FAA3E0FBA3E045
:0745DE00FCA3E0FD75302095
:0E45E500900308E0FFA3E0F8A3E0F9A3E0FED6
:0C45F300339200EF2FFFE833F8E933F9B2
:0E45FF00EE33FE900308EFF0A3E8F0A3E9F01E
:0E460D00A3EEF090030CE0FEA3E0FFA3E0F8A4
:0E461B00A3E0F9EE2EFEEF33FFE833F8E933AB
:0E462900F990030CEEF0A3EFF0A3E8F0A3E984
:0C463700F030001E90030CE0FFA3E0F840
:0E464300A3E0F9A3E0FE90030C74014FF0A376
:08465100E8F0A3E9F0A3EEF08C
:0E46590090030CE0FEA3E0FFA3E0F8A3E0F95D
:0E466700C3EE9AEF9BE89CE99D403190030C56
:0E467500EEC39AF0EF9BA3F0E89CA3F0E99D42
:0E468300A3F0900308E0FEA3E0FFA3E0F8A37D
:0E469100E0F990030874014EF0A3EFF0A3E8E7
:04469F00F0A3E9F0AB
:0546A300D53002800388
:0346A8000245E5E3
:0E46AB00900308E0FAA3E0FBA3E0FCA3E0FD0F
:0746B9008A828B838CF02242
:06303200E478FFF6D8FD72
:0E46C000AAF0AB83E582900315F0A3EBF0A304
:0B46CE00EAF0900315E0F533A3E0F5DF
:0646D90034A3E0F535906A
:0C46DF000310E0FDA3E0FEA3E0FF853324
:0346EB00308534E3
:0346EE00318535DE
:0946F10032900313E0F8A3E0F994
:0946FA008802890318B8FF0119B8
:0E470300EA4B60258D828E838FF0125470FA7F
:0A471100A3AD82AE838530828531AE
:0B471B00838532F0EA1248F3A3858288
:064726003085833180CED6
:07472C00853382853483858B
:0347330035F0223C
:083010007902E94400601B7A1B
:05301800019056B278A2
:03301D006C75A02F
:0A30200003E493F2A308B8000205D0
:08302A00A0D9F4DAF275A0FF51
:0E473600AA83E58290031CF0A3EAF090031C16
:0E474400E0FAA3E0FB90031EEAF0A3EBF0EA1C
:0E4752004B702090031E74012AF0E43BA3F08C
:0D47600090031AE0FAA3E0FB1ABAFF011B58
:08476D0090031AEAF0A3EBF03F
:0E47750090031EE0FAA3E0FB900318EAF0A305
:0E478300EBF090031AE0FCA3E0FDEC2AFCED45
:0E4791003BFDEC24FEFCED34FFFD8A828B83A1
:0E479F00ECF0A3EDF08C828D83E4F0A3F08AA1
:0A47AD00828B83A3A3E4F0A3F022A3
:0E47B700AA83E582900320F0A3EAF09003208D
:0E47C500E0FAA3E0FBC374FB9A74FF9B500460
:0447D3009000002230
:0E47D70090032074042AF0E43BA3F090031832
:0E47E500E0FAA3E0FB900322EAF0A3EBF090D1
:0847F3000320E0F530A3E0F51E
:0147FB00318C
:0E47FC00900322E0FCA3E0FD8C828D83E0FEA2
:0E480A00A3E0FF8E008F018C028D03E8C39A9D
:0E481800F8E99BF98C828D83A3A3E0FAA3E05C
:0C482600FBE8C39AF8E99BF9C3E8953061
:0C483200E99531400D90032474042CF033
:06483E00E43DA3F080231D
:0E484400900322EEF0A3EFF0900322E0FAA31F
:0E485200E0FB8A828B83E0FAA3E0FB4A709CB5
:07486000900324E4F0A3F033
:0E486700900324E0FAA3E0FB4A70030248E746
:0E487500900322E0FAA3E0FB74022AFCE43B6D
:0E488300FD8C828D83E0FEA3E0FF4E7013904B
:0E4891000320E0F8A3E0F98C828D83E8F0A309
:04489F00E9F0804478
:0E48A300EE2AFEEF3BFF8A828B83E0FCA3E04F
:0E48B100FD8E828F83ECF0A3EDF08A828B8364
:0D48BF00EEF0A3EFF074022EFAE43FFB9040
:0E48CC000320E0FCA3E0FD8A828B83ECF0A3C6
:0D48DA00EDF090032474042EF0E43FA3F0F1
:0C48E700900324E0FAA3E08A82F583220B
:0E48F30020F71030F6118883A88220F507F612
:05490100A8837583008E
:01490600228E
:03490700F280F744
:02490A00F02299
:0E490C00AA83E582900327F0A3EAF090032728
:0E491A00E0FAA3E0FB33B3E433FC60068A044A
:044928008B05800774
:07492C00C3E49AFCE49BFDCB
:054933008C828D83223F
:0E493800AA83AB828BF0900329E0A4F8A9F0CB
:0E4946008AF0E0A429F98BF0A3E0A429F58300
:044954008882222211
:0E495800AA83E58290032DF0A3EAF090032DD0
:0E496600E0FAA3E0FB30E709C3E49AFCE49B0F
:03497400FD8004BF
:044977008A048B051E
:0E497B008C028D0390032BE0FCA3E0FD30E7DF
:0A49890009C3E49CFEE49DFF8004D6
:044993008C068D07FA
:0D49970090032FEEF0A3EFF08A828B8312C5
:0E49A40049C6AA82AB8390032DE0FCA3E0FD80
:0E49B20030E70CC3E49AFCE49BFD8C828D83FD
:0149C00022D4
:0549C1008A828B8322B5
:0E49C600AA83E582900331F0A3EAF090033358
:0C49D400E4F0900331E0FAA3E0FB7C006B
:0E49E00090032FE0FDA3E0FE235401FF70378B
:0E49EE00EECD25E0CD33FE90032FEDF0A3EECD
:0E49FC00F090032FE0FDA3E0FEC3EA9DEB9ECA
:0E4A0A005011EEC313CD13CDFE90032FEDF02F
:054A1800A3EEF0800890
:084A1D000C900333ECF080BBA8
:054A2500900333E0FAEC
:0E4A2A00900331E0FBA3E0FC90032FE0FDA31E
:0E4A3800E0FEC3EB9DEC9E400B900331EBC300
:064A46009DF0EC9EA3F0C0
:0E4A4C0090032FE0FBA3E0FCC313CB13CBFCC5
:0E4A5A0090032FEBF0A3ECF08A031AEB70C26E
:0C4A6800900331E0FAA3E08A82F583227B
:0E4A7400AA83E582900336F0A3EAF0900336A1
:0E4A8200E0FAA3E0FB30E709C3E49AFCE49BF2
:034A9000FD8004A2
:044A93008A048B0501
:0E4A97008C028D03900334E0FCA3E0FD33E4B9
:0D4AA50033FE6009C3E49CFFE49DF880042B
:044AB2008C078D00E0
:0E4AB600900338EFF0A3E8F08A828B83C006ED
:0E4AC400124AECAA82AB83D006900336E0FCC7
:0E4AD200A3E0FD33E4336E600CC3E49AFCE411
:074AE0009BFD8C828D8322F7
:054AE7008A828B83228E
:083038007800E84400600A7909
:033040000075A078
:0630430000E4F309D8FCD3
:08304900786CE84403600C7987
:0B30510004900000E4F0A3D8FCD9FAC2
:0E4AEC00AA83E58290033AF0A3EAF090033C1F
:0E4AFA00E4F0A3F0900338E0FAA3E0FB7C1098
:0C4B080090033AE0FDA3E0FE339201EEC2
:0E4B1400CD25E0CD33FE90033AEDF0A3EEF098
:0E4B220090033CE0FDA3E0FECD25E0CD33FE88
:0C4B300090033CEDF0A3EEF03001129079
:0E4B3C00033CE0FDA3E0FE90033C74014DF04D
:034B4A00A3EEF0E7
:0E4B4D0090033CE0FDA3E0FEC3ED9AEE9B401A
:0D4B5B001D90033CEDC39AF0EE9BA3F0907B
:0E4B6800033AE0FDA3E0FE90033A74014DF025
:034B7600A3EEF0BB
:0E4B7900DC8D90033AE0FAA3E08A82F58322F5
:084B8700C01D85811DAA8212E8
:054B8F003F04D01D22CF
:0E4B9400AAF0AB83E58290033FF0A3EBF0A301
:0E4BA200EAF090033FE0FAA3E0FBA3E0FC90F2
:0E4BB000033EE0FD900352E4F0A3F0A3F0906A
:0E4BBE000355EAF0A3EBF0A3ECF0900358EDE2
:074BCC00F0904B87024CEC56
:064BD300C01D85811DE5F7
:0C4BD9001D24FBFA900352E4F0A3F0A3AB
:0C4BE500F0E51D24FBF8900355E6F008F5
:0D4BF100A3E6F008A3E6F0900358EAF09068
:0A4BFE004B87124CECAA82AB83D067
:024C08001D226B
:0C4C0A00E58290034EF090034EE0FA901B
:0E4C16000344E0C0E0A3E0C0E0A3E0C0E0740F
:084C240038C0E0744CC0E090C0
:0C4C2C000342E0C0E0A3E0C0E08A822266
:0E4C380015811581158190034CE0FAA3E0FB75
:0C4C460090034C74012AF0E43BA3F02220
:0E4C5200E58290034FF090034FE0FA74302A91
:0C4C6000FA24C6500A74072AFA30020336
:034C6C00430220E0
:054C6F008A82024C0ADC
:0E4C7400E582900350F0900350E0FAC4540F14
:0E4C8200FBF582C002124C52D00253020F8A80
:044C900082024C52FE
:0E4C9400E582900351F0900347E0FAA3E0FBA5
:0E4CA200A3E0FCA3E0FD90034BE0FE90035165
:044CB000E0FF782089
:0E4CB400EE2EFEED235401F94206EA2AFAEB39
:0E4CC20033FBEC33FCED33FDC3EE9F4007EEF9
:064CD000C39FFE43020138
:0E4CD600D8DC900347EAF0A3EBF0A3ECF0A3C8
:084CE400EDF090034BEEF0220D
:0E4CEC00AA83E582900359F0A3EAF0900359E1
:0E4CFA00E0FAA3E0FB900342EAF0A3EBF09097
:0E4D08000352E0FAA3E0FBA3E0FC900344EAB0
:0E4D1600F0A3EBF0A3ECF090034CE4F0A3F05C
:0E4D2400900355E0FAA3E0FBA3E0FC8A828B2B
:0E4D3200838CF0125470FD90035574012AF02A
:0D4D4000E43BA3F0A3ECF0ED70030254116E
:054D4D00BD25028003FA
:034D5200025409FF
:054D5500C203C204C20C
:044D5A0005C206C2C6
:044D5E0007C208C2BE
:044D620009C20A90E8
:094D6600035BE4F090035CF090A3
:0E4D6F00035DF0900355E0FAA3E0FBA3E0FC27
:0E4D7D008A828B838CF0125470FEA3AA82AB44
:0D4D8B0083900355EAF0A3EBF0A3ECF09049
:0D4D9800035FEEF0BE25088E82124C0A0269
:024DA5004D249B
:054DA7008E07BF300083
:0E4DAC00404A8E07EF24C6404390035DE0FFAF
:044DBA0060028029EA
:0E4DBE00C002C003C00490035CE0FA75F00A66
:0E4DCC00A4FAEE24D090035C2AF090035CE081
:0C4DDA00FAD004D003D002709AD20480FA
:014DE6009636
:0E4DE700EF75F00AA4FFEE24D090035D2FF0CC
:034DF500024D7DEF
:0E4DF80090035FE0FEBE2E0890035DE4F00223
:024E06004D7DE0
:0E4E08008E82C002C003C004C006125490E5A2
:0C4E16008224FF9202D006D004D003D00A
:094E22000230020590035FE4F088
:0A4E2B0090035FE0FEBE20028055F8
:054E3500BE2B02804BC2
:054E3A00BE2D028041C5
:054E3F00BE4202804BA1
:054E4400BE4302805096
:064E4900BE440302507E8E
:064E4F00BE46030250A064
:064E5500BE490302507E7D
:054E5B00BE4C02803492
:064E6000BE4F0302508862
:064E6600BE5003024FE004
:054E6C00BE530280426C
:064E7100BE550302509043
:064E7700BE580302509832
:034E7D000250A43C
:054E8000D203024D7D8C
:054E8500D205024D7D85
:054E8A00D206024D7D7F
:054E8F00D208024D7D78
:054E9400D209024D7D72
:0E4E9900900358E0FA24FEF8900358F08602C9
:0C4EA700088603188A82124C0A0250B0E0
:0E4EB300900358E0FA24FDF8900358F08602B0
:0E4EC1000886030886041818900347EAF0A339
:0E4ECF00EBF0A3ECF0900347E0FAA3E0FBA3A6
:0E4EDD00E0FC8A828B838CF012541DAA82ABFB
:0A4EEB008390035DE0FB6002800588
:054EF50090035DEAF0EE
:0C4EFA0020033890035CE0FBC3EA9B50EF
:0D4F06002E90035CEBC39AF090035CE0FB7F
:0D4F13008B041B90035CEBF0BC00028010CF
:0E4F2000758220C002C003124C0AD003D002DA
:024F2E0080E31E
:054F300090035CEBF0B2
:054F350090035DE0FDAA
:0E4F3A00C002900347E0FCA3E0FFA3E0FA8C66
:0E4F4800828F838AF0125470D00260538D0461
:0E4F56001DC374808CF063F08095F05044C051
:0A4F640002900347E0F52BA3E0F5EF
:084F6E002CA3E0F52D740125D0
:074F76002BFBE4352CFAAC23
:0C4F7D002D900347EBF0A3EAF0A3ECF04A
:074F8900852B82852C838536
:0C4F90002DF0125470FAF582C002C0052A
:0B4F9C00124C0AD005D002D002809316
:064FA7002003030250B0DC
:0D4FAD0090035CE0FBC3EA9B40030250B0A0
:0C4FBA0090035CEBC39AF090035CE0FAFB
:0E4FC6008A031A90035CEAF0BB00030250ABB2
:0C4FD400758220C002124C0AD00280E658
:0E4FE000900358E0FB24FDF8900358F0860380
:0E4FEE000886040886071818900347EBF0A306
:0E4FFC00ECF0A3EFF0900349E0FB247F500897
:08500A0090035F7443F0802065
:0D501200EB249F500890035F7450F0801352
:0D501F00EB24BF500890035F7449F0800639
:06502C0090035F7458F0D0
:0E50320090035FE0FBF582C003124C0AD0032E
:0E50400075823AC003124C0AD003758230C04C
:0E504E0003124C0AD003758278C003124C0A7C
:07505C00D003BB4902800FE5
:05506300BB5002800AB1
:0A506800900348E0FBF582124C743F
:0C507200900347E0FBF582124C74803282
:0A507E00D20790035B740AF080284B
:0850880090035B7408F0802026
:0850900090035B740AF0801824
:0850980090035B7410F080101E
:0450A000D20A800CA4
:0750A4008E82124C0A800508
:0550AB0090035CEAF037
:0C50B000300A6B900358E0FA24FCF890E2
:0E50BC000358F086020886030886040886065C
:0E50CA00181818900347EAF0A3EBF0A3ECF0DF
:0B50D800A3EEF090034774A7F0A37450
:0650E30056F0A37480F0FA
:0E50E900900347E0FBA3E0FCA3E0FD74012B65
:0E50F700FEE43CFF8D02900347EEF0A3EFF0C5
:0E510500A3EAF08B828C838DF0125470FA7046
:0451130003024D2422
:075117008A82124C0A80CBD2
:0B511E0090035BE0FABA0003024D248E
:085129009003667465F0A374A5
:0651310003F030084C9071
:0E5137000358E0FA14F8900358F08602EA33A9
:0E51450095E0FBFCFE900347EAF0A3EBF0A31D
:0B515300ECF0A3EEF03007030251F86F
:0E515E00900347E0FAA3E0FBA3E0FCA3E0FE11
:0E516C007B007C007E00900347EAF0A3EBF08E
:08517A00A3ECF0A3EEF0807637
:0C51820030092A900358E0FA24FCF89051
:0E518E000358F0860208860308860408860689
:0E519C00181818900347EAF0A3EBF0A3ECF00C
:0551AA00A3EEF08049B6
:0E51AF00900358E0FA24FEF8900358F08602B0
:0E51BD0008860318EB3395E0FCFE900347EAEA
:0C51CB00F0A3EBF0A3ECF0A3EEF0200743
:0E51D70020900347E0FAA3E0FBA3E0FCA3E076
:0E51E500FE7C007E00900347EAF0A3EBF0A3EF
:0551F300ECF0A3EEF05A
:0C51F80030073E900347E0FAA3E0FBA361
:0E520400E0FCA3E0FE30E72B900347E0FAA3A6
:0E521200E0FBA3E0FCA3E0FEC3E49AFAE49BF9
:0E522000FBE49CFCE49EFE900347EAF0A3EB47
:09522E00F0A3ECF0A3EEF0800205
:02523700C207AC
:08523900D20B90035BE0FC7551
:035241002E657562
:045244002F037D00B7
:0E52480090034BE4F08C82C004C005124C941D
:0C525600D005D004200B32C00490034BA4
:0A526200E0FFC4FF852E82852F8334
:0A526C00E0FA4207852E82852F83A9
:0A527600EFF0152E74FFB52E02159F
:015280002FFE
:08528100900366E52EF0A3E5A1
:065289002FF0D004800CA0
:09528F0090034BE0FF852E82859F
:035298002F83F071
:09529B000D90035EEDF0B20B90E2
:0E52A4000347E0FFA3E0FAA3E0FEA3E0FBEF68
:0C52B2004A4E4B7091900366E52EF0A36D
:0952BE00E52FF090035EEDF09085
:0C52C700035CE0FA700690035C7401F0D8
:0A52D30020042720032474012DFAA3
:0552DD0090035CE0FB02
:0D52E200C3EA9B5011758220C002C0031268
:0952EF004C0AD003D0021B80EA36
:0552F80090035CEBF0E7
:0A52FD0030071275822D124C0A9042
:0B530700035CE0FA1490035CF0802FC0
:0C53120090035EE0FA60283005127582FE
:0B531E002B124C0A90035CE0FA149084
:05532900035CF080139D
:0A532E00300610758220124C0A9020
:09533800035CE0FA1490035CF040
:0953410020032F90035EE0FA90B6
:04534A00035CE0FB25
:0E534E008B041B90035CEBF0C3EA9C503630DE
:06535C0004047C30800215
:025362007C20AD
:0E5364008C82C002C003124C0AD003D002801B
:01537200DB5F
:0E53730090035CE0FA90035EE0FCC39A5009E0
:0953810090035CEAC39CF0800C6F
:07538A0090035CE4F08005D4
:0553910090035CEBF04D
:0D539600900366E0FAA3E0FB90035EE0FCEC
:0A53A3008C061CEE6040B20B200BDC
:0653AD00150ABA00010B15
:0E53B3008A828B83E0FEC4540FFE90034BF001
:0253C100800E5C
:0E53C3008A828B83E0FE53060F90034BEEF0C0
:0E53D10090034BE0FEF582C002C003C0041240
:0A53DF004C52D004D003D00280BA73
:0653E900200303024D2425
:0553EF0090035CE0FAF0
:0953F4008A031AEB7003024D2438
:0C53FD00758220C002124C0AD00280EB26
:085409008D82124C0A024D24B1
:0C54110090034CE0FAA3E08A82F58322AD
:0B56A7003C4E4F20464C4F41543E004B
:0E541D00AAF0AB83E582900368F0A3EBF0A346
:0E542B00EAF07A007B00900368E0FCA3E0FD4D
:03543900A3E0FEEF
:0E543C008C828D838EF0125470FFA3AC82AD73
:0E544A0083900368ECF0A3EDF0A3EEF0EF60AA
:08545800070ABA00DF0B80DC3B
:0E546000900368ECF0A3EDF0A3EEF08A828BCF
:02546E00832297
:033003007581359F
:0A30060012548CE58260030231824F
:0E54700020F71430F6148883A88220F507E692
:06547E00A88375830022E3
:03548400E280F7CC
:03548700E4932289
:02548A00E0221E
:04548C007582002203
:0E549000E58290036BF090036BE0FABA6100C6
:0B549E004009EA2485400475820122C9
:0454A90075820022E6
:00000001FF
