:0E305F003098FDAA99C2988A82C002123116DA
:05306D00D0028A82225E
:0E30720090102374A0F0A3740FF090000002E1
:023080003138E5
:0330000002300398
:03305C00023082BD
:0530820012308780FE02
:0A308700741BC0E0743CC0E07480CC
:0C309100C0E012334115811581158174D7
:0A309D0029C0E0743CC0E07480C05C
:0E30A700E01233411581158115817A007B00FE
:0E30B500C3EA947FEB648094805025C002C073
:0E30C3000312305FAC82D003D002BC0A028040
:0130D10013EB
:0A30D200EA24A0F582EB340FF58329
:0930DC00ECF00ABA00D30B80D01D
:0A30E500EA24A0F582EB340FF58316
:0A30EF00E4F074A0C0E0740FC0E02C
:0A30F900E4C0E07456C0E0743CC06F
:0E310300E07480C0E0123341E58124FAF581CA
:0231110080FE3E
:0331130002307215
:0E3C1B0048692C2077656C636F6D65210A0087
:0E3C2900456E746572206120737472696E6757
:0E3C370020287472756E636174657320616677
:0E3C4500746572203132382063686172732911
:033C53003A200014
:0E3C5600596F7520656E746572656420257364
:033C6400210A0032
:0E311600E582901020F0901020E0FABA0A082E
:0531240010990280FB80
:0331290075990D88
:05312C0010990280FB78
:07313100901020E0F5992247
:06303200E478FFF6D8FD72
:083010007900E94400601B7A1D
:0530180000903C7278FD
:03301D005D75A03E
:0A30200010E493F2A308B8000205C3
:08302A00A0D9F4DAF275A0FF51
:0E313800AA83E582901025F0A3EAF0901025FE
:0E314600E0FAA3E0FB901027EAF0A3EBF0EA1A
:0E3154004B702090102774012AF0E43BA3F08A
:0D316200901023E0FAA3E0FB1ABAFF011B56
:08316F00901023EAF0A3EBF03D
:0E317700901027E0FAA3E0FB901021EAF0A3ED
:0E318500EBF0901023E0FCA3E0FDEC2AFCED43
:0E3193003BFDEC24FEFCED34FFFD8A828B83B5
:0E31A100ECF0A3EDF08C828D83E4F0A3F08AB5
:0A31AF00828B83A3A3E4F0A3F022B7
:0E31B900AA83E582901029F0A3EAF090102975
:0E31C700E0FAA3E0FBC374FB9A74FF9B500474
:0431D5009000002244
:0E31D90090102974042AF0E43BA3F09010211A
:0E31E700E0FAA3E0FB90102BEAF0A3EBF090CF
:0831F5001029E0F50EA3E0F53E
:0131FD000FC2
:0E31FE0090102BE0FCA3E0FD8C828D83E0FEA0
:0E320C00A3E0FF8E008F018C028D03E8C39AB1
:0E321A00F8E99BF98C828D83A3A3E0FAA3E070
:0C322800FBE8C39AF8E99BF9C3E8950E97
:0C323400E9950F400D90102D74042CF053
:06324000E43DA3F0802331
:0E32460090102BEEF0A3EFF090102BE0FAA307
:0E325400E0FB8A828B83E0FAA3E0FB4A709CC9
:0732620090102DE4F0A3F031
:0E32690090102DE0FAA3E0FB4A70030232E958
:0E32770090102BE0FAA3E0FB74022AFCE43B6B
:0E328500FD8C828D83E0FEA3E0FF4E7013905F
:0E3293001029E0F8A3E0F98C828D83E8F0A307
:0432A100E9F080448C
:0E32A500EE2AFEEF3BFF8A828B83E0FCA3E063
:0E32B300FD8E828F83ECF0A3EDF08A828B8378
:0D32C100EEF0A3EFF074022EFAE43FFB9054
:0E32CE001029E0FCA3E0FD8A828B83ECF0A3C4
:0D32DC00EDF090102D74042EF0E43FA3F0EF
:0C32E90090102DE0FAA3E08A82F5832209
:083038007800E84400600A7909
:033040000075A078
:0630430000E4F309D8FCD3
:08304900785DE84410600C7989
:0B30510011900000E4F0A3D8FCD9FAB5
:0832F500C00D85810DAA8212B3
:0532FD003116D00D2286
:0E330200AAF0AB83E582901030F0A3EBF0A3AD
:0E331000EAF0901030E0FAA3E0FBA3E0FC909E
:0E331E00102FE0FD901043E4F0A3F0A3F09018
:0E332C001046EAF0A3EBF0A3ECF0901049ED90
:07333A00F09032F502345A55
:06334100C00D85810DE5C1
:0C3347000D24FBFA901043E4F0A3F0A367
:0C335300F0E50D24FBF8901046E6F008B1
:0D335F00A3E6F008A3E6F0901049EAF09014
:0A336C0032F512345AAA82AB83D066
:023376000D2226
:0C337800E58290103FF090103FE0FA90CA
:0E3384001035E0C0E0A3E0C0E0A3E0C0E074BC
:08339200A6C0E07433C0E09016
:0C339A001033E0C0E0A3E0C0E08A822213
:0E33A60015811581158190103DE0FAA3E0FB22
:0C33B40090103D74012AF0E43BA3F022CD
:0E33C000E582901040F0901040E0FA74302A40
:0C33CE00FA24C6500A74072AFA300003E3
:0333DA004302208B
:0533DD008A8202337832
:0E33E200E582901041F0901041E0FAC4540FC3
:0E33F000FBF582C0021233C0D00253020F8AD6
:0433FE00820233C054
:0E340200E582901042F0901038E0FAA3E0FB53
:0E341000A3E0FCA3E0FD90103CE0FE90104213
:04341E00E0FF782033
:0E342200EE2EFEED235401F94206EA2AFAEBE3
:0E34300033FBEC33FCED33FDC3EE9F4007EEA3
:06343E00C39FFE430201E2
:0E344400D8DC901038EAF0A3EBF0A3ECF0A374
:08345200EDF090103CEEF022B9
:0E345A00AA83E58290104AF0A3EAF090104A8F
:0E346800E0FAA3E0FB901033EAF0A3EBF09043
:0E3476001043E0FAA3E0FBA3E0FC901035EA5F
:0E348400F0A3EBF0A3ECF090103DE4F0A3F009
:0E349200901046E0FAA3E0FBA3E0FC8A828BD8
:0E34A000838CF0123BDEFD90104674012AF082
:0D34AE00E43BA3F0A3ECF0ED7003023B7FC4
:0534BB00BD25028003A5
:0334C000023B7755
:0534C300C201C202C2BB
:0434C80003C204C275
:0434CC0005C206C26D
:0434D00007C2089097
:0934D400104CE4F090104DF09052
:0E34DD00104EF0901046E0FAA3E0FBA3E0FCD6
:0E34EB008A828B838CF0123BDEFEA3AA82AB9A
:0D34F90083901046EAF0A3EBF0A3ECF090F6
:0D3506001050EEF0BE25088E8212337802C0
:023513003492F0
:053515008E07BF30002D
:0E351A00404A8E07EF24C6404390104EE0FF5B
:043528006002802994
:0E352C00C002C003C00490104DE0FA75F00A12
:0E353A00A4FAEE24D090104D2AF090104DE02F
:0C354800FAD004D003D002709AD20280A6
:0135540096E0
:0E355500EF75F00AA4FFEE24D090104E2FF078
:033563000234EB44
:0E356600901050E0FEBE2E0890104EE4F002D1
:0235740034EB36
:0E3576008E82C002C003C004C006123BFEE5F8
:0C3584008224FF9200D006D004D003D0B7
:0935900002300005901050E4F037
:0A359900901050E0FEBE20028055A5
:0535A300BE2B02804B6D
:0535A800BE2D02804170
:0535AD00BE4202804B4C
:0535B200BE4302805041
:0635B700BE44030237ECE4
:0635BD00BE460302380EB9
:0635C300BE49030237ECD3
:0535C900BE4C0280343D
:0635CE00BE4F030237F6B8
:0635D400BE500302374E59
:0535DA00BE5302804217
:0635DF00BE55030237FE99
:0635E500BE580302380687
:0335EB0002381291
:0535EE00D2010234EBE4
:0535F300D2030234EBDD
:0535F800D2040234EBD7
:0535FD00D2060234EBD0
:05360200D2070234EBC9
:0E360700901049E0FA24FEF8901049F0860277
:0C361500088603188A8212337802381EDF
:0E362100901049E0FA24FDF8901049F086025E
:0E362F000886030886041818901038EAF0A3E5
:0E363D00EBF0A3ECF0901038E0FAA3E0FBA352
:0E364B00E0FC8A828B838CF0123B8BAA82AB50
:0A3659008390104EE0FB6002800534
:0536630090104EEAF09A
:0C36680020013890104DE0FBC3EA9B509D
:0D3674002E90104DEBC39AF090104DE0FB2E
:0D3681008B041B90104DEBF0BC000280107C
:0E368E00758220C002C003123378D003D00230
:02369C0080E3C9
:05369E0090104DEBF05F
:0536A30090104EE0FD57
:0E36A800C002901038E0FCA3E0FFA3E0FA8C13
:0E36B600828F838AF0123BDED00260538D04B7
:0E36C4001DC374808CF063F08095F05044C0FC
:0A36D20002901038E0F508A3E0F5BF
:0836DC0009A3E0F50A740125C1
:0736E40008FBE43509FAAC14
:0C36EB000A901038EBF0A3EAF0A3ECF01A
:0736F7008508828509838527
:0C36FE000AF0123BDEFAF582C002C005A3
:0B370A00123378D005D002D00280936B
:0637150020010302381E32
:0D371B0090104DE0FBC3EA9B400302381EF6
:0C37280090104DEBC39AF090104DE0FAA9
:0E3734008A031A90104DEAF0BB000302381908
:0C374200758220C002123378D00280E6AD
:0E374E00901049E0FB24FDF8901049F086032E
:0E375C000886040886071818901038EBF0A3B2
:0E376A00ECF0A3EFF090103AE0FB247F500843
:083778009010507443F0802012
:0D378000EB249F50089010507450F08013FF
:0D378D00EB24BF50089010507449F08006E6
:06379A009010507458F07D
:0E37A000901050E0FBF582C003123378D00386
:0E37AE0075823AC003123378D003758230C0A2
:0E37BC0003123378D003758278C0031233787D
:0737CA00D003BB4902800F90
:0537D100BB5002800A5C
:0A37D600901039E0FBF5821233E297
:0C37E000901038E0FBF5821233E28032DA
:0A37EC00D20590104C740AF08028FA
:0837F60090104C7408F08020D3
:0837FE0090104C740AF08018D1
:0838060090104C7410F08010CA
:04380E00D208800C50
:073812008E8212337880055D
:0538190090104DEAF0E3
:0C381E0030086B901049E0FA24FCF89090
:0E382A001049F0860208860308860408860608
:0E383800181818901038EAF0A3EBF0A3ECF08B
:0B384600A3EEF09010387467F0A3743C
:063851003CF0A37480F0BE
:0E385700901038E0FBA3E0FCA3E0FD74012B11
:0E386500FEE43CFF8D02901038EEF0A3EFF071
:0E387300A3EAF08B828C838DF0123BDEFA709C
:043881000302349278
:073885008A8212337880CB28
:0B388C0090104CE0FABA0003023492E6
:083897009010577456F0A37461
:06389F0010F030064C9011
:0E38A5001049E0FA14F8901049F08602EA3358
:0E38B30095E0FBFCFE901038EAF0A3EBF0A3CA
:0B38C100ECF0A3EEF0300503023966C6
:0E38CC00901038E0FAA3E0FBA3E0FCA3E0FEBE
:0E38DA007B007C007E00901038EAF0A3EBF03B
:0838E800A3ECF0A3EEF08076E2
:0C38F00030072A901049E0FA24FCF89000
:0E38FC001049F0860208860308860408860636
:0E390A00181818901038EAF0A3EBF0A3ECF0B8
:05391800A3EEF0804960
:0E391D00901049E0FA24FEF8901049F086025E
:0E392B0008860318EB3395E0FCFE901038EA96
:0C393900F0A3EBF0A3ECF0A3EEF02005EF
:0E39450020901038E0FAA3E0FBA3E0FCA3E022
:0E395300FE7C007E00901038EAF0A3EBF0A39B
:05396100ECF0A3EEF004
:0C39660030053E901038E0FAA3E0FBA30F
:0E397200E0FCA3E0FE30E72B901038E0FAA353
:0E398000E0FBA3E0FCA3E0FEC3E49AFAE49BA4
:0E398E00FBE49CFCE49EFE901038EAF0A3EBF4
:09399C00F0A3ECF0A3EEF08002B0
:0239A500C20559
:0839A700D20990104CE0FC7500
:0339AF000B56753F
:0439B2000C107D0078
:0E39B60090103CE4F08C82C004C00512340274
:0C39C400D005D004200932C00490103C53
:0A39D000E0FFC4FF850B82850C8325
:0A39DA00E0FA4207850B82850C839A
:0A39E400EFF0150B74FFB50B021590
:0139EE000CCC
:0839EF00901057E50BF0A3E571
:0639F7000CF0D004800C6E
:0939FD0090103CE0FF850B82856F
:033A06000C83F03E
:093A09000D90104FEDF0B2099090
:0E3A12001038E0FFA3E0FAA3E0FEA3E0FBEF14
:0C3A20004A4E4B7091901057E50BF0A33C
:093A2C00E50CF090104FEDF09054
:0C3A3500104DE0FA700690104D7401F086
:0A3A410020022720012474012DFA51
:053A4B0090104DE0FBAE
:0D3A5000C3EA9B5011758220C002C0031212
:093A5D003378D003D0021B80EA8B
:053A660090104DEBF093
:0A3A6B0030051275822D1233789099
:0B3A7500104DE0FA1490104DF0802F6F
:0C3A800090104FE0FA60283003127582AD
:0B3A8C002B12337890104DE0FA1490DC
:053A9700104DF080134A
:0A3A9C003004107582201233789078
:093AA600104DE0FA1490104DF0EF
:093AAF0020012F90104FE0FA9065
:043AB800104DE0FBD2
:0E3ABC008B041B90104DEBF0C3EA9C5036308B
:063ACA0002047C308002C2
:023AD0007C2058
:0E3AD2008C82C002C003123378D003D0028071
:013AE000DB0A
:0E3AE10090104DE0FA90104FE0FCC39A50098F
:093AEF0090104DEAC39CF0800C1C
:073AF80090104DE4F0800581
:053AFF0090104DEBF0FA
:0D3B0400901057E0FAA3E0FB90104FE0FC9A
:0A3B11008C061CEE6040B20920098A
:063B1B00150ABA00010BBF
:0E3B21008A828B83E0FEC4540FFE90103CF0AD
:023B2F00800E06
:0E3B31008A828B83E0FE53060F90103CEEF06C
:0E3B3F0090103CE0FEF582C002C003C00412EC
:0A3B4D0033C0D004D003D00280BAC8
:063B57002001030234927C
:053B5D0090104DE0FA9C
:093B62008A031AEB70030234928D
:0C3B6B00758220C002123378D00280EB7B
:083B77008D82123378023492B2
:0C3B7F0090103DE0FAA3E08A82F583225A
:0B3C67003C4E4F20464C4F41543E00A5
:0E3B8B00AAF0AB83E582901059F0A3EBF0A3F3
:0E3B9900EAF07A007B00901059E0FCA3E0FDFA
:033BA700A3E0FE9A
:0E3BAA008C828D838EF0123BDEFFA3AC82ADC9
:0E3BB80083901059ECF0A3EDF0A3EEF0EF6057
:083BC600070ABA00DF0B80DCE6
:0E3BCE00901059ECF0A3EDF0A3EEF08A828B7C
:023BDC00832242
:03300300758121B3
:0A300600123BFAE5826003023082FB
:0E3BDE0020F71430F6148883A88220F507E63D
:063BEC00A883758300228E
:033BF200E280F777
:033BF500E4932234
:023BF800E022C9
:043BFA0075820022AE
:0E3BFE00E58290105CF090105CE0FABA610075
:0B3C0C004009EA248540047582012273
:043C17007582002290
:00000001FF
