:0E305F00900FA474A0F0A3740FF09000000274
:02306D0030BF72
:0330000002300398
:03305C0002306FD0
:05306F0012307480FE28
:0A30740074A2C0E0743BC0E0748059
:0B307E00C0E01232C8158115811581D9
:0230890080FEC7
:03308B0002305FB1
:0E3BA20048692C2077656C636F6D65210A0001
:0E308E00AA83E582900FA0F0A3EAF0900FA0B5
:0B309C00E0FAA3E0FBBA0A0BBB00083F
:0530A70010990280FBFE
:0330AC0075990D06
:0530AF0010990280FBF6
:0B30B400900FA0E0FAA3E0FB8A992235
:06303200E478FFF6D8FD72
:083010007900E94400601B7A1D
:0530180000903BBB78B5
:03301D00DE75A0BD
:0A3020000FE493F2A308B8000205C4
:08302A00A0D9F4DAF275A0FF51
:0E30BF00AA83E582900FA6F0A3EAF0900FA678
:0E30CD00E0FAA3E0FB900FA8EAF0A3EBF0EA14
:0E30DB004B7020900FA874012AF0E43BA3F084
:0D30E900900FA4E0FAA3E0FB1ABAFF011B50
:0830F600900FA4EAF0A3EBF037
:0E30FE00900FA8E0FAA3E0FB900FA2EAF0A367
:0E310C00EBF0900FA4E0FCA3E0FDEC2AFCED3C
:0E311A003BFDEC24FEFCED34FFFD8A828B832E
:0E312800ECF0A3EDF08C828D83E4F0A3F08A2E
:0A313600828B83A3A3E4F0A3F02230
:0E314000AA83E582900FAAF0A3EAF0900FAAEE
:0E314E00E0FAA3E0FBC374FB9A74FF9B5004ED
:04315C0090000022BD
:0E316000900FAA74042AF0E43BA3F0900FA293
:0E316E00E0FAA3E0FB900FACEAF0A3EBF090C8
:08317C000FAAE0F50EA3E0F537
:013184000F3B
:0E318500900FACE0FCA3E0FD8C828D83E0FE99
:0E319300A3E0FF8E008F018C028D03E8C39A2B
:0E31A100F8E99BF98C828D83A3A3E0FAA3E0EA
:0C31AF00FBE8C39AF8E99BF9C3E8950E11
:0C31BB00E9950F400D900FAE74042CF04D
:0631C700E43DA3F08023AB
:0E31CD00900FACEEF0A3EFF0900FACE0FAA381
:0E31DB00E0FB8A828B83E0FAA3E0FB4A709C43
:0731E900900FAEE4F0A3F02B
:0E31F000900FAEE0FAA3E0FB4A7003023270CB
:0E31FE00900FACE0FAA3E0FB74022AFCE43B65
:0E320C00FD8C828D83E0FEA3E0FF4E701390D8
:0E321A000FAAE0F8A3E0F98C828D83E8F0A300
:04322800E9F0804405
:0E322C00EE2AFEEF3BFF8A828B83E0FCA3E0DC
:0E323A00FD8E828F83ECF0A3EDF08A828B83F1
:0D324800EEF0A3EFF074022EFAE43FFB90CD
:0E3255000FAAE0FCA3E0FD8A828B83ECF0A3BD
:0D326300EDF0900FAE74042EF0E43FA3F0E8
:0C327000900FAEE0FAA3E08A82F5832202
:083038007800E84400600A7909
:033040000075A078
:0630430000E4F309D8FCD3
:0830490078DEE8440F600C7909
:0B30510010900000E4F0A3D8FCD9FAB6
:08327C00C00D85810DAA82122C
:05328400308ED00D2288
:0E328900AAF0AB83E582900FB1F0A3EBF0A3A7
:0E329700EAF0900FB1E0FAA3E0FBA3E0FC9098
:0E32A5000FB0E0FD900FC4E4F0A3F0A3F09092
:0E32B3000FC7EAF0A3EBF0A3ECF0900FCAED0A
:0732C100F090327C0233E1C2
:0632C800C00D85810DE53B
:0C32CE000D24FBFA900FC4E4F0A3F0A361
:0C32DA00F0E50D24FBF8900FC7E6F008AB
:0D32E600A3E6F008A3E6F0900FCAEAF0900E
:0A32F300327C1233E1AA82AB83D0D3
:0232FD000D22A0
:0C32FF00E582900FC0F0900FC0E0FA9044
:0E330B000FB6E0C0E0A3E0C0E0A3E0C0E074B5
:083319002DC0E07433C0E09008
:0C3321000FB4E0C0E0A3E0C0E08A82220C
:0E332D00158115811581900FBEE0FAA3E0FB1B
:0C333B00900FBE74012AF0E43BA3F022C6
:0E334700E582900FC1F0900FC1E0FA74302AB9
:0C335500FA24C6500A74072AFA3000035C
:0333610043022004
:053364008A820232FF25
:0E336900E582900FC2F0900FC2E0FAC4540F3C
:0E337700FBF582C002123347D00253020F8AC8
:043385008202334746
:0E338900E582900FC3F0900FB9E0FAA3E0FBCD
:0E339700A3E0FCA3E0FD900FBDE0FE900FC38D
:0433A500E0FF7820AD
:0E33A900EE2EFEED235401F94206EA2AFAEB5D
:0E33B70033FBEC33FCED33FDC3EE9F4007EE1D
:0633C500C39FFE4302015C
:0E33CB00D8DC900FB9EAF0A3EBF0A3ECF0A36E
:0833D900EDF0900FBDEEF022B3
:0E33E100AA83E582900FCBF0A3EAF0900FCB09
:0E33EF00E0FAA3E0FB900FB4EAF0A3EBF0903D
:0E33FD000FC4E0FAA3E0FBA3E0FC900FB6EAD9
:0E340B00F0A3EBF0A3ECF0900FBEE4F0A3F002
:0E341900900FC7E0FAA3E0FBA3E0FC8A828BD1
:0E342700838CF0123B65FD900FC774012AF0F4
:0D343500E43BA3F0A3ECF0ED7003023B06B6
:05344200BD250280031E
:03344700023AFE48
:05344A00C201C202C234
:04344F0003C204C2EE
:0434530005C206C2E6
:0434570007C2089010
:09345B000FCDE4F0900FCEF090CB
:0E3464000FCFF0900FC7E0FAA3E0FBA3E0FC4F
:0E3472008A828B838CF0123B65FEA3AA82AB8C
:0D34800083900FC7EAF0A3EBF0A3ECF090EF
:0D348D000FD1EEF0BE25088E821232FF0234
:02349A003419E3
:05349C008E07BF3000A7
:0E34A100404A8E07EF24C64043900FCFE0FF55
:0434AF00600280290E
:0E34B300C002C003C004900FCEE0FA75F00A0C
:0E34C100A4FAEE24D0900FCE2AF0900FCEE0A9
:0C34CF00FAD004D003D002709AD2028020
:0134DB00965A
:0E34DC00EF75F00AA4FFEE24D0900FCF2FF072
:0334EA0002347237
:0E34ED00900FD1E0FEBE2E08900FCFE4F0024B
:0234FB00347229
:0E34FD008E82C002C003C004C006123B85E5EB
:0C350B008224FF9200D006D004D003D030
:0935170002300005900FD1E4F030
:0A352000900FD1E0FEBE200280559E
:05352A00BE2B02804BE6
:05352F00BE2D028041E9
:05353400BE4202804BC5
:05353900BE43028050BA
:06353E00BE4403023773D6
:06354400BE4603023795AC
:06354A00BE4903023773C5
:05355000BE4C028034B6
:06355500BE4F0302377DAA
:06355B00BE50030236D54C
:05356100BE5302804290
:06356600BE55030237858B
:06356C00BE580302378D7A
:0335720002379984
:05357500D201023472D6
:05357A00D203023472CF
:05357F00D204023472C9
:05358400D206023472C2
:05358900D207023472BC
:0E358E00900FCAE0FA24FEF8900FCAF08602F1
:0C359C00088603188A821232FF0237A54D
:0E35A800900FCAE0FA24FDF8900FCAF08602D8
:0E35B6000886030886041818900FB9EAF0A3DF
:0E35C400EBF0A3ECF0900FB9E0FAA3E0FBA34C
:0E35D200E0FC8A828B838CF0123B12AA82AB43
:0A35E00083900FCFE0FB600280052E
:0535EA00900FCFEAF094
:0C35EF00200138900FCEE0FBC3EA9B5097
:0D35FB002E900FCEEBC39AF0900FCEE0FBA8
:0D3608008B041B900FCEEBF0BC0002801075
:0E361500758220C002C0031232FFD003D00223
:0236230080E342
:05362500900FCEEBF058
:05362A00900FCFE0FD50
:0E362F00C002900FB9E0FCA3E0FFA3E0FA8C0C
:0E363D00828F838AF0123B65D00260538D04A9
:0E364B001DC374808CF063F08095F05044C075
:0A36590002900FB9E0F508A3E0F5B8
:0836630009A3E0F50A7401253A
:07366B0008FBE43509FAAC8D
:0C3672000A900FB9EBF0A3EAF0A3ECF013
:07367E0085088285098385A0
:0C3685000AF0123B65FAF582C002C00595
:0B3691001232FFD005D002D00280935F
:06369C002001030237A526
:0D36A200900FCEE0FBC3EA9B40030237A56A
:0C36AF00900FCEEBC39AF0900FCEE0FA23
:0E36BB008A031A900FCEEAF0BB00030237A07C
:0C36C900758220C0021232FFD00280E6A1
:0E36D500900FCAE0FB24FDF8900FCAF08603A8
:0E36E3000886040886071818900FB9EBF0A3AC
:0E36F100ECF0A3EFF0900FBBE0FB247F50083D
:0836FF00900FD17443F080200C
:0D370700EB249F5008900FD17450F08013F8
:0D371400EB24BF5008900FD17449F08006DF
:06372100900FD17458F076
:0E372700900FD1E0FBF582C0031232FFD003F9
:0E37350075823AC0031232FFD003758230C095
:0E374300031232FFD003758278C0031232FFEA
:07375100D003BB4902800F09
:05375800BB5002800AD5
:0A375D00900FBAE0FBF58212336909
:0C376700900FB9E0FBF58212336980324C
:0A377300D205900FCD740AF08028F3
:08377D00900FCD7408F08020CC
:08378500900FCD740AF08018CA
:08378D00900FCD7410F08010C4
:04379500D208800CCA
:073799008E821232FF800551
:0537A000900FCEEAF0DD
:0C37A50030086B900FCAE0FA24FCF8908A
:0E37B1000FCAF0860208860308860408860602
:0E37BF00181818900FB9EAF0A3EBF0A3ECF085
:0B37CD00A3EEF0900FB974B0F0A374ED
:0637D8003BF0A37480F039
:0E37DE00900FB9E0FBA3E0FCA3E0FD74012B0B
:0E37EC00FEE43CFF8D02900FB9EEF0A3EFF06B
:0E37FA00A3EAF08B828C838DF0123B65FA708F
:04380800030234196A
:07380C008A821232FF80CB1B
:0B381300900FCDE0FABA000302341958
:08381E00900FD874D7F0A374D9
:063826000FF030064C908B
:0E382C000FCAE0FA14F8900FCAF08602EA33D1
:0E383A0095E0FBFCFE900FB9EAF0A3EBF0A3C3
:0B384800ECF0A3EEF03005030238EDB9
:0E385300900FB9E0FAA3E0FBA3E0FCA3E0FEB7
:0E3861007B007C007E00900FB9EAF0A3EBF034
:08386F00A3ECF0A3EEF080765B
:0C38770030072A900FCAE0FA24FCF890F9
:0E3883000FCAF086020886030886040886062F
:0E389100181818900FB9EAF0A3EBF0A3ECF0B2
:05389F00A3EEF08049DA
:0E38A400900FCAE0FA24FEF8900FCAF08602D8
:0E38B20008860318EB3395E0FCFE900FB9EA90
:0C38C000F0A3EBF0A3ECF0A3EEF0200569
:0E38CC0020900FB9E0FAA3E0FBA3E0FCA3E01C
:0E38DA00FE7C007E00900FB9EAF0A3EBF0A395
:0538E800ECF0A3EEF07E
:0C38ED0030053E900FB9E0FAA3E0FBA309
:0E38F900E0FCA3E0FE30E72B900FB9E0FAA34D
:0E390700E0FBA3E0FCA3E0FEC3E49AFAE49B1D
:0E391500FBE49CFCE49EFE900FB9EAF0A3EBED
:09392300F0A3ECF0A3EEF0800229
:02392C00C205D2
:08392E00D209900FCDE0FC75F9
:033936000BD77537
:043939000C0F7D00F2
:0E393D00900FBDE4F08C82C004C005123389E7
:0C394B00D005D004200932C004900FBD4C
:0A395700E0FFC4FF850B82850C839E
:0A396100E0FA4207850B82850C8313
:0A396B00EFF0150B74FFB50B021509
:013975000C45
:08397600900FD8E50BF0A3E56A
:06397E000CF0D004800CE7
:09398400900FBDE0FF850B828568
:03398D000C83F0B8
:093990000D900FD0EDF0B209908A
:0E3999000FB9E0FFA3E0FAA3E0FEA3E0FBEF0E
:0C39A7004A4E4B7091900FD8E50BF0A336
:0939B300E50CF0900FD0EDF0904E
:0C39BC000FCEE0FA7006900FCE7401F000
:0A39C80020022720012474012DFACB
:0539D200900FCEE0FBA8
:0D39D700C3EA9B5011758220C002C003128C
:0939E40032FFD003D0021B80EA7F
:0539ED00900FCEEBF08D
:0A39F20030051275822D1232FF908D
:0B39FC000FCEE0FA14900FCEF0802FE9
:0C3A0700900FD0E0FA60283003127582A6
:0B3A13002B1232FF900FCEE0FA14904F
:053A1E000FCEF0801343
:0A3A23003004107582201232FF906B
:093A2D000FCEE0FA14900FCEF068
:093A360020012F900FD0E0FA905E
:043A3F000FCEE0FBCB
:0E3A43008B041B900FCEEBF0C3EA9C50363084
:063A510002047C3080023B
:023A57007C20D1
:0E3A59008C82C002C0031232FFD003D0028064
:013A6700DB83
:0E3A6800900FCEE0FA900FD0E0FCC39A500908
:093A7600900FCEEAC39CF0800C15
:073A7F00900FCEE4F080057A
:053A8600900FCEEBF0F3
:0D3A8B00900FD8E0FAA3E0FB900FD0E0FC14
:0A3A98008C061CEE6040B209200904
:063AA200150ABA00010B39
:0E3AA8008A828B83E0FEC4540FFE900FBDF0A7
:023AB600800E80
:0E3AB8008A828B83E0FE53060F900FBDEEF066
:0E3AC600900FBDE0FEF582C002C003C00412E6
:0A3AD4003347D004D003D00280BABB
:063ADE002001030234196F
:053AE400900FCEE0FA96
:093AE9008A031AEB700302341980
:0C3AF200758220C0021232FFD00280EB6F
:083AFE008D821232FF0234191F
:0C3B0600900FBEE0FAA3E08A82F5832253
:0B3BB0003C4E4F20464C4F41543E005D
:0E3B1200AAF0AB83E582900FDAF0A3EBF0A3EC
:0E3B2000EAF07A007B00900FDAE0FCA3E0FDF3
:033B2E00A3E0FE13
:0E3B31008C828D838EF0123B65FFA3AC82ADBB
:0E3B3F0083900FDAECF0A3EDF0A3EEF0EF6050
:083B4D00070ABA00DF0B80DC5F
:0E3B5500900FDAECF0A3EDF0A3EEF08A828B75
:023B63008322BB
:03300300758121B3
:0A300600123B81E582600302306F87
:0E3B650020F71430F6148883A88220F507E6B6
:063B7300A8837583002207
:033B7900E280F7F0
:033B7C00E49322AD
:023B7F00E02242
:043B81007582002227
:0E3B8500E582900FDDF0900FDDE0FABA6100EE
:0B3B93004009EA2485400475820122ED
:043B9E00758200220A
:00000001FF
