:0E306E00AA83E582900001F0A3EAF090000131
:0E307C00E0FAA3E0FB900000E0FC8A828B8368
:02308A00F02232
:0A308C003098FDAA99C2988A8222AA
:0E309600AAF0AB83E582900005F0A3EBF0A357
:0E30A400EAF0900003E0FAA3E0FBC3E49A74A4
:0E30B200808BF063F08095F040079000007571
:0330C000F00022FB
:0C30C300900008E4F0A3F0900005E0F598
:0830CF0008A3E0F509A3E0F5F8
:0630D7000A1ABAFF011BFA
:0430DD007F007800F8
:0E30E100C3EF9AE864808BF063F08095F050A6
:0E30EF006DC002C003C007C00012308CA98261
:0E30FD00D000D007D003D0028982C002C003E9
:0E310B00C007C000C0011240D6D001D000D0D5
:0A31190007D003D002B90A028003B8
:03312300B90D0BD8
:0B312600B90D3475820A1240D6802CCF
:0A313100C002C003EF2508FAE835DC
:0A313B0009FBAC0A8A828B838CF03A
:09314500E9124AC50FBF000108A0
:0D314E00900008EFF0A3E8F0D003D00202DB
:02315B0030E161
:0E315D00900005E0FAA3E0FBA3E0FC90000860
:0E316B00E0FDA3E0FEED2AFDEE3BFE8C078D9D
:0E317900828E838FF0E4124AC58A828B838C8B
:02318700F02234
:0E31890090011C7440F0A37406F090000C023C
:023197004908E5
:0330000002300398
:07305C00E4F50FF510E4F5A7
:0530630011F512E4F577
:0330680013F51449
:03306B0002319996
:0531990012319E80FED2
:0D319E009000007465F090FFFF12306E127B
:0C31AB0035799000007469F090FFFF126D
:0631B700306E12357C9021
:0D31BD0000007461F090FFFF12306EE4F529
:0431CA000FF510F5F8
:0431CE0011F512F5F0
:0431D20013F514904D
:0731D6000112747FF0A374E5
:0C31DD0056F0A37480F0900115740FF000
:0D31E900E4A3F090000A75F0001248927403
:0A31F6008EC0E07456C0E07480C083
:0C320000E0124DA5158115811581749D0B
:0B320C00C0E07456C0E07480C0E01207
:0C3217004DA51581158115817A0F7B00F3
:0E3223009000A57410F0E4A3F09000A7E4F072
:0D323100A3F08A828B83123F3B75820A1244
:07323E0040D674A9C0E07442
:0C32450056C0E07480C0E0124DA5158159
:0C325100158115817A117B009000A57496
:0E325D0010F0E4A3F09000A7E4F0A3F08A8242
:0C326B008B83123F3B75820A1240D67420
:0A327700B4C0E07456C0E07480C0DB
:0C328100E0124DA51581158115817A130E
:0E328D007B009000A57410F0E4A3F09000A761
:0E329B00E4F0A3F08A828B83123F3B75820A17
:0832A9001240D674C2C0E074AB
:0C32B10056C0E07480C0E0124DA51581ED
:0D32BD0015811581900019E0FAA3E0FB9047
:0E32CA0000A57410F0E4A3F09000A7E4F0A3B8
:0E32D800F08A828B83123F3B75820A1240D629
:0A32E60074CDC0E07456C0E074809F
:0E32F000C0E0124DA515811581158190001BBF
:0E32FE00E0FAA3E0FB9000A57410F0E4A3F04A
:0E330C009000A7E4F0A3F08A828B83123F3B6F
:0B331A0075820A1240D674D8C0E0741F
:0C33250056C0E07480C0E0124DA5158178
:0E333100158115817A4A7B069000A57410F074
:0E333F00E4A3F09000A7E4F0A3F08A828B8351
:0D334D00123F3B75820A1240D675820A12AB
:09335A0040D61239987A007B007C
:0E336300C3EB64809481501E8A04EBCC25E0FD
:0E337100CC33FDEC244AF582ED3406F583E4FE
:0A337F00F0A3F00ABA00DD0B80DABB
:09338900E513B43204E5146002FE
:02339200801A9F
:0A33940074E4C0E07456C0E07480D9
:0D339E00C0E0124DA5158115811581E4F5E3
:0333AB0013F51403
:0A33AE0012308CAA82BA08028003D4
:0333B80002345389
:0A33BB00C3E4950F74808510F063E1
:0B33C500F08095F05057150F74FFB515
:0433D0000F021510C3
:0C33D400900019E0FBA3E0FCE50F2BF5D6
:0C33E00082E5103CF583E0FBC2D575F0DF
:0933EC0002EB30E704B2D5F40451
:0E33F500A430D50AF42401C5F0F43400C5F06C
:0E340300244AFB740635F0FC8B828C83E0FDBE
:08341100A3E0FE1DBDFF011E3A
:093419008B828C83EDF0A3EEF030
:0A342200C3E4951374808514F06371
:09342C00F08095F04003023389A1
:0E3435007582081240D67582201240D675822C
:09344300081240D6151374FFB500
:04344C00130215143E
:03345000023389BB
:0C3453008A82C0021240D6D0027401250B
:05345F0011F511E43538
:0634640012F512740125AF
:05346A0013F513E43529
:0A346F0014F514C2D575F002EA301E
:06347900E704B2D5F404E3
:0E347F00A430D50AF42401C5F0F43400C5F0E1
:0E348D00244AFB740635F0FC8B828C83E0FD34
:08349B00A3E0FE0DBD00010ECF
:0E34A3008B828C83EDF0A3EEF0C3EA6480947C
:0E34B100B0400B74B98AF063F08095F050269D
:0E34BF00C3EA648094E1400B74FA8AF063F073
:0534CD008095F0501392
:0E34D200C3EA648094C1404C74DA8AF063F05F
:0534E0008095F0404161
:0534E500AB0FAC10E587
:0A34EA00103395E0FDFEC3EB950BD7
:0A34F400EC950CED950DEE6480855B
:0C34FE000EF063F08095F0501F90001954
:0B350A00E0FBA3E0FCE50F2BF582E5E1
:0A351500103CF583EAF07401250F65
:06351F00F50FE43510F584
:013525001095
:0D352600BA3F0EC0021239F2D002C00212EC
:043533003998D002F1
:05353700BA3D02800313
:03353C00023389CE
:0E353F00900019E0FAA3E0FB7C009000A0E5EC
:0A354D000FF0A3E510F08A828B83D3
:0A3557008CF012373874E4C0E07401
:0C35610056C0E07480C0E0124DA515813A
:0A356D0015811581E4F513F5140231
:02357700338996
:0335790002318993
:0A357C0074E9C0E07456C0E07480EA
:0E358600C0E0124DA51581158115819000033E
:0D3594007480F0E4A3F090001D75F00012AB
:0635A10030969000D27488
:0A35A7009DF0A37400F0A37400F07F
:0E35B10090001D75F000124169AA82AB838A5A
:0835BF000BEBF50C3395E0F570
:0435C7000DF50E9060
:0E35CB00001DE0601790009DE0FAA3E0FBA356
:0E35D900E0FC8A828B838CF0125642FA601856
:0A35E700742FC0E07457C0E0748038
:0E35F100C0E0124DA515811581158102357CB3
:0A35FF00C3E50B9418E50C9400E5F9
:0A3609000D9400E50E6480948040EB
:0A361300177440950B7406950CE443
:0A361D00950D7480850EF063F080B7
:0436270095F05020AA
:05362B00C00BC00CC043
:043630000DC00E7447
:0A36340044C0E07457C0E07480C089
:0D363E00E0124DA5E58124F9F58102357CEF
:0E364B009000E47408F0E4A3F0A3F0A3F0856F
:063659000B82850C838545
:05365F000DF0E50E1264
:0E36640043E9AA82AB83ACF0FDBA000BBB00B9
:0936720008BC0005BD0002802027
:05367B00C00BC00CC0F3
:043680000DC00E74F7
:0A36840064C0E07457C0E07480C019
:0D368E00E0124DA5E58124F9F58102357C9F
:09369B00AA0BAB0C8A828B83128E
:0E36A4004989E5828583F0900019F0A3E5F0D6
:0E36B200F09000FE7404F0E4A3F0A3F0A3F087
:0736C000850B82850C838558
:0536C7000DF0E50E12FC
:0E36CC0046BBAA82AB83ACF0FD124989AA82EC
:0E36DA00AB8390001BEAF0A3EBF0900019E028
:0B36E800FCA3E0FD4C6004EA4B7044C2
:0E36F300900019E0FAA3E0FB4A600B7C008A0D
:08370100828B838CF012451F3E
:0E37090090001BE0FAA3E0FB4A600B7C008AF4
:08371700828B838CF012451F28
:0A371F007484C0E07457C0E07480A9
:0E372900C0E0124DA515811581158102357C79
:01373700226F
:0E373800AAF0AB83E5829000A2F0A3EBF0A311
:0E374600EAF09000007468F090FFFF12306E01
:0A375400749AC0E07457C0E074805E
:0E375E00C0E0124DA51581158115817A377BCB
:01376C00005C
:0E376D0075822DC002C0031240D6D003D002D8
:05377B001ABAFF011B5A
:0C378000EA4B70E975822B1240D6749E53
:0B378C00C0E07457C0E07480C0E01281
:0C3797004DA515811581158174A2C0E0BC
:0C37A3007457C0E07480C0E0124DA51502
:0E37AF0081158115819000A2E0FAA3E0FBA332
:0737BD00E0FC8A178B188C59
:0B37C400199000A0E0F8A3E0F9E4F584
:0337CF0015F516D7
:0A37D200C3E51598E516648089F040
:0A37DC0063F08095F04003023938D5
:0C37E60090012D7410F0E4A3F085158212
:0C37F200851683C002C003C004C000C0E4
:0E37FE0001124B2AE5828583F0D001D000D065
:0C380C0004D003D00245F060030238CC69
:0E381800C000C0019000CF7439F0E4A3F07539
:0D382600827CC002C003C004C000C00112BB
:0E3833004112D001D000D004D003D002C00258
:0C384100C003C004C000C001749EC0E0C1
:0C384D007457C0E07480C0E0124DA51557
:0E3859008115811581D001D000D004D003D09C
:0A38670002E5152AF8E5163BF98C7E
:0E387100059000A57410F0E4A3F09000A77479
:0E387F0004F0E4A3F088828983C002C003C075
:0E388D0004C000C001123F3BD001D000D004A7
:0E389B00D003D002C002C003C004C000C001B0
:0A38A90074D8C0E07457C0E07480CA
:0E38B300C0E0124DA5158115811581D001D000
:0B38C10000D004D003D002D001D000E2
:0638CC00E5152517FDE5DE
:0538D200163518FEAFE1
:0C38D700198D828E838FF0125642FD3353
:0D38E30095E0FE9000A57410F0E4A3F090B5
:0E38F00000A77402F0E4A3F08D828E83C00264
:0E38FE00C003C004C000C001123F3BD001D087
:0E390C0000D004D003D002758220C002C00398
:0E391A00C004C000C0011240D6D001D000D0C1
:0A39280004D003D0020515E4B51524
:0339320002051675
:033935000237D284
:0D3938009000CF7439F0E4A3F075827C128A
:07394500411274DBC0E074C5
:0C394C0057C0E07480C0E0124DA515814A
:08395800158115817A377B000F
:0E39600075822DC002C0031240D6D003D002E3
:05396E001ABAFF011B65
:0A397300EA4B70E974DEC0E07457FF
:0E397D00C0E07480C0E0124DA51581158115C3
:0D398B00819000007464F090FFFF02306E28
:0A39980074E1C0E07457C0E07480D1
:0C39A200C0E0124DA5158115811581743F
:0A39AE0001C0E07458C0E07480C04E
:0C39B800E0124DA51581158115817421C8
:0B39C400C0E07458C0E07480C0E01246
:0C39CF004DA515811581158174E4C0E040
:0C39DB007456C0E07480C0E0124DA515C9
:0A39E7008115811581E4F513F51434
:0139F10022B3
:0D39F2009000007466F090FFFF12306E74BC
:0A39FF009AC0E07457C0E07480C065
:0E3A0900E0124DA51581158115817A377B00DD
:0E3A170075822DC002C0031240D6D003D0022B
:053A25001ABAFF011BAD
:0A3A2A00EA4B70E97442C0E07458E2
:0E3A3400C0E07480C0E0124DA515811581150B
:0A3A4200817447C0E07458C0E074BE
:0D3A4C0080C0E0124DA515811581158190F7
:0E3A590000A5740AF0E4A3F09000A7E4F0A327
:083A6700F08511828512831223
:073A6F003F3B7451C0E074FD
:0C3A760058C0E07480C0E0124DA515811E
:0E3A8200158115819000CF7439F0E4A3F07522
:0A3A9000827C124112749EC0E074A3
:0C3A9A0057C0E07480C0E0124DA51581FB
:0E3AA600158115819000CF7439F0E4A3F075FE
:0A3AB400827C124112749EC0E0747F
:0C3ABE0057C0E07480C0E0124DA51581D7
:0A3ACA0015811581746FC0E0745877
:0E3AD400C0E07480C0E0124DA515811581156B
:0E3AE200819000A5740AF0E4A3F09000A7E420
:0A3AF000F0A3F0850F828510831209
:073AFA003F3B7477C0E0744C
:0C3B010058C0E07480C0E0124DA5158192
:093B0D0015811581AA0FAB10E52A
:0A3B1600103395E0FCFDE50BC39AA7
:0A3B2000FAE50C9BFBE50D9CFCE5AB
:0C3B2A000E9DFD9000A5740AF0E4A3F0CD
:0E3B36009000A7E4F0A3F08A828B83123F3B3D
:0A3B44007495C0E07458C0E074806E
:0E3B4E00C0E0124DA51581158115819000CFA4
:0D3B5C007439F0E4A3F075827C12411274FC
:0A3B69009EC0E07457C0E07480C0F5
:0C3B7300E0124DA5158115811581749B91
:0B3B7F00C0E07458C0E07480C0E01289
:0B3B8A004DA5158115811581AA0BAB1C
:0B3B95000C9000A5740AF0E4A3F0906F
:0E3BA00000A7E4F0A3F08A828B83123F3B74EF
:0A3BAE00A6C0E07458C0E07480C0A7
:0E3BB800E0124DA5158115811581900019E0D0
:0E3BC600FAA3E0FB9000A57410F0E4A3F090C9
:0D3BD40000A77404F0E4A3F08A828B831232
:0E3BE1003F3B9000CF7439F0E4A3F075827C76
:083BEF00124112749EC0E07443
:0C3BF70057C0E07480C0E0124DA515819D
:0A3C03001581158174B1C0E07458FA
:0E3C0D00C0E07480C0E0124DA5158115811530
:0E3C1B00819000FE7404F0E4A3F0A3F0A3F087
:073C2900850B82850C8385E9
:053C30000DF0E50E128D
:0E3C350046BBAA82AB83ACF0FD9000A5740ADA
:0E3C4300F0E4A3F09000A7E4F0A3F08A828BD7
:093C510083123F3B74A6C0E0742D
:0C3C5A0058C0E07480C0E0124DA5158138
:0D3C66001581158190001BE0FAA3E0FB9092
:0E3C730000A57410F0E4A3F09000A77404F014
:0E3C8100E4A3F08A828B83123F3B9000CF7445
:0C3C8F0039F0E4A3F075827C124112743D
:0A3C9B009EC0E07457C0E07480C0C2
:0E3CA500E0124DA51581158115817A007B0076
:0E3CB300C3EA940EEB648094804003023DDD72
:0E3CC10090012D7408F0E4A3F08A828B83C07A
:0E3CCF0002C003124B2AE5828583F0D003D099
:0E3CDD000245F070349000CF7439F0E4A3F08B
:0E3CEB0075827CC002C003124112D003D002C9
:0A3CF900C002C003749EC0E07457BF
:0E3D0300C0E07480C0E0124DA5158115811539
:053D110081D003D00287
:0A3D1600EA240AF582EB3400F5837D
:0E3D2000E0FCF582C002C0031240D6D003D0F2
:0E3D2E000275822DC002C0031240D6D003D011
:0A3D3C0002EA240AF582EB3400F5D8
:0E3D460083E0FCC2D575F002EC30E704B2D584
:023D5400F40475
:0E3D5600A430D50AF42401C5F0F43400C5F001
:0E3D6400244AF582740635F0F583E0FCA3E0F6
:0E3D7200FD9000A5740AF0E4A3F09000A7E411
:0E3D8000F0A3F08C828D83C002C003123F3B83
:0E3D8E00D003D002758220C002C0031240D6BE
:0B3D9C00D003D002EA240AF582EB34C9
:0C3DA70000F583E0FCC2D575F002EC30A2
:063DB300E704B2D5F404A0
:0E3DB900A430D50AF42401C5F0F43400C5F09E
:0E3DC700244AF582740635F0F583E4F0A3F08B
:053DD5000ABA00010B19
:033DDA00023CB3F5
:0D3DDD009000CF7439F0E4A3F075827C12E1
:073DEA004112749EC0E07459
:0C3DF10057C0E07480C0E0124DA51581A1
:0E3DFD00158115819000CF7439F0E4A3F075A4
:0A3E0B00827C124112749EC0E07424
:0C3E150057C0E07480C0E0124DA515817C
:0A3E21001581158174BCC0E07458CF
:0E3E2B00C0E07480C0E0124DA5158115811510
:053E3900817A007B000E
:0A3E3E00C3EA950FEB64808510F0D5
:0A3E480063F08095F04003023ECEC7
:0E3E520090012D7432F0E4A3F08A828B83C0BD
:0E3E600002C003124B2AE5828583F0D003D006
:0E3E6E000245F070349000CF7439F0E4A3F0F8
:0E3E7C0075827CC002C003124112D003D00236
:0A3E8A00C002C003749EC0E074572C
:0E3E9400C0E07480C0E0124DA51581158115A7
:053EA20081D003D002F5
:0E3EA700900019E0FCA3E0FDEA2CF582EB3D53
:0E3EB500F583E0FCF582C002C0031240D6D0B7
:083EC30003D0020ABA00010B52
:033ECB00023E3E76
:0D3ECE009000CF7439F0E4A3F075827C12EF
:073EDB00411274DBC0E0742A
:0C3EE20057C0E07480C0E0124DA51581AF
:083EEE00158115817A377B0074
:0E3EF60075822DC002C0031240D6D003D00248
:053F04001ABAFF011BC9
:0A3F0900EA4B70E974DEC0E0745763
:0E3F1300C0E07480C0E0124DA5158115811527
:073F210081E4F50FF510F536
:043F280011F512F588
:043F2C0013F51490E5
:0B3F300000007464F090FFFF02306E90
:0E567F003031323334353637383946454D41F7
:01568D00001C
:0E568E00496E697469616C20496E666F3A0A54
:01569C00000D
:0C569D00266E5F73746F7265643A09003A
:0B56A900266E5F63686172733A0900AF
:0E56B400266E5F617470726F6D70743A09003B
:0B56C20026627566666572303A0900CA
:0B56CD0026627566666572313A0900BE
:0C56D800266E756D6265726F663A0900FF
:0556E4000A3E3E20001B
:0E56E900456E74657220796F75722062756669
:0E56F7006665722073697A652028696E2074DA
:0E57050068652072616E6765205B323420316A
:0E5713003630305D20616E642061206D756C53
:0E5721007469706C65206F662038293A20008C
:0E572F000A4E6F6E2D696E7465676572206993
:07573D006E7075742E0A0066
:0E5744000A56616C7565206F7574206F6620C3
:0E57520072616E6765205B3234203136303074
:045760005D2E0A00B0
:0E5764000A56616C7565206D75737420626560
:0E57720020646976697369626C652062792033
:04578000382E0A00B5
:0E5784000A416C6C6F636174696F6E20666120
:08579200696C7572652E0A00B6
:04579A000A0A2B00CC
:04579E000A7C200061
:0E57A2002020202020202B30202B31202B32E5
:0E57B000202B33202B34202B35202B36202BA2
:0E57BE0037202B38202B39202B41202B422066
:0C57CC002B43202B44202B45202B4600B3
:0357D8003A200074
:0357DB000A2B0096
:0357DE002B0A0093
:0E57E1000A456E7465722063686172616374BC
:0E57EF0065727320666F722073746F7261674B
:0457FD00652E0A000B
:0E580100093D096865782064756D70206F663A
:0E580F002062756666657220636F6E74656E4A
:04581D0074730A0096
:0E582100093F097072696E74207374617473AC
:0E582F0020616E6420636C6561722062756694
:05583D006665720A001F
:055842002B0A7C200090
:0A5847005265636965766564200010
:0E58510020636861726163746572732073690D
:0E585F006E6365206C61737420666C757368EF
:02586D002E000B
:08586F0053746F7265642000A0
:0E587700206368617261637465727320696EEC
:0E58850020627566666572302C207769746843
:025893002000F3
:065895002066726565004B
:0B589B0042756666657220303A2000FE
:0B58A60020627974657320617420009B
:0B58B10042756666657220313A2000E7
:0E58BC00466C757368696E6720627566666576
:0558CA00722E2E2E00DD
:0E3F3B00AA83E5829000A9F0A3EAF07A007B49
:013F49000077
:0D3F4A00C3EA9420EB648094805014EA24B4
:0A3F5700ABF582EB3400F583743003
:083F6100F00ABA00E40B80E154
:0E3F69009000A9E0FAA3E0FB30E70675822D78
:033F77001240D61F
:0C3F7A009000A5E0FAA3E0FB7C007D00B5
:0E3F86009000A9E0FEA3E0FF4E700302403C55
:0E3F940090012DEAF0A3EBF08E828F83C00225
:0E3FA200C003C004C005124B2AAE82AF83D00C
:0E3FB00005D004D003D0028E828F83C002C0E1
:0E3FBE0003C004C005124ADEAE82AF83D005F8
:0E3FCC00D004D003D002C374898EF063F0805D
:0C3FDA0095F040089000CB7430F0800699
:063FE6009000CB7437F0DF
:093FEC00EC24ABFFED3400F89069
:0E3FF50000CBE0F92EFE8F828883F09000A9A9
:0E400300E0FEA3E0FF900136EAF0A3EBF08EA2
:0E401100828F83C002C003C004C005124C465B
:0E401F00E5828583F0D005D004D003D0029056
:0C402D0000A9F0A3E5F0F00CBC00010DB0
:03403900023F86BD
:0E403C009000CCECF0A3EDF09000A7E0FAA30A
:0E404A00E0FB4A701AEC4D7016758230C00211
:0E405800C003C004C0051240D6D005D004D06D
:0340660003D00282
:0E406900C3E49A74808BF063F08095F0501DD4
:0E407700C3EA9CEB64808DF063F08095F050FE
:03408500028004B2
:044088008A048B0516
:08408C009000CCECF0A3EDF074
:0D4094009000CCE0FAA3E0FB1ABAFF011B7C
:0E40A1009000CCEAF0A3EBF09000CCE0FAA384
:0240AF00E0FB34
:0B40B100EB20E720EA24ABF582EB34A3
:0C40BC0000F583E0FCF582C002C0031296
:0D40C80040D6D003D0021ABAFFDF1B80DC07
:0140D50022C8
:0E40D600E5829000CEF09000CEE0FABA0A0F1C
:0540E40010990280FBB1
:0A40E90075990D90016EE4F0A3F04C
:0540F30010990280FBA2
:0E40F8009000CEE0F59990016EE0FAA3E0FB97
:0C41060090016E74012AF0E43BA3F0224B
:0E411200E5829000D1F090016EE0FAA3E0FB90
:0E4120009000CFE0FCA3E0FDECC39AFAED9B0B
:05412E00FB7C007D0098
:0E413300C3EC9AED64808BF063F08095F05041
:0D4141001D758220C002C003C004C005121D
:0E414E0040D6D005D004D003D0020CBC00D760
:03415C000D80D4FF
:0A415F009000D1E0FAF5820240D68C
:0258DA000000CC
:0E416900AAF0AB83E5829000D5F0A3EBF0A3A3
:0E417700EAF09000D8E4F0A3F09000DAE4F053
:0E418500A3F09000D5E0FAA3E0FBA3E0FC8AD3
:0D419300828B838CF01255EFAA82AB8390D3
:0C41A00000DCEAF0A3EBF09000D5E0F5A5
:0841AC001AA3E0F51BA3E0F5E6
:0541B4001C851A828544
:0641B9001B83851CF012BF
:0E41BF005642FFBF2D5D9000DA7401F0E4A3BC
:0A41CD00F07401251AFFE4351BF819
:0C41D700A91C8F82888389F01256427068
:0E41E300269000D2E0FCA3E0FDA3E0FE8C825B
:0B41F1008D838EF0E51A124AC5A3E58D
:0641FC001B124AC5A3E5F9
:084202001C124AC590000022C5
:0E420A009000D5EFF0A3E8F0A3E9F01ABAFF98
:02421800011B88
:08421A009000DCEAF0A3EBF0D8
:0E4222009000DCE0FAA3E0FB9000D5E0FCA3E6
:09423000E0FDA3E0FE7F00780030
:0E423900C002C003EF2CF9E83DFA8E03898223
:0E4247008A838BF0125642F9D003D002E97040
:04425500030243031A
:0B425900C3E9648094B05003024303EB
:0D426400C374B989F063F08095F050030237
:02427100430305
:0E427300C004C005C006E93395E0FCE924D084
:0E428100F9EC34FFFCEAC39FFDEB98FE1DBD77
:03428F00FF011E0E
:0E4292009000DEEDF0A3EEF090000AC002C036
:0E42A00003C004C007C000C001124351AD822C
:0E42AE00AE83D001D000D007D004D003D002E0
:0E42BC0090012BEDF0A3EEF089828C83C002FE
:0E42CA00C003C006C007C000124B0AAC82AD94
:0E42D80083D000D007D006D003D0029000D8CB
:0E42E600E0FEA3E0F99000D8EC2EF0ED39A335
:0642F400F00FBF000108FD
:0942FA00D006D005D004024239BF
:0E4303009000D2E0FAA3E0FBA3E0FC9000D50E
:0E431100E0FDA3E0FEA3E0F9EF2DFDE83EFE87
:0D431F008A828B838CF0ED124AC5A3EE124A
:08432C004AC5A3E9124AC5903D
:0E43340000DAE0FAA3E0FB4A60079000D8E44C
:03434200F0A3F0F5
:0C4345009000D8E0FAA3E08A82F5832201
:0E435100AA83E5829000E0F0A3EAF09000E27B
:06435F007401F0E4A3F07C
:0E4365009000DEE0FAA3E0FB4A606DEA30E073
:0E4373002C9000E0E0FAA3E0FB9000E2E0FCFA
:0E438100A3E0FD90012BEAF0A3EBF08C828DFF
:0E438F0083124B0AE5828583F09000E2F0A3D2
:03439D00E5F0F058
:0E43A0009000DEE0FAA3E0FBA2E713CA13CA06
:0E43AE00FB9000DEEAF0A3EBF09000E0E0FAF6
:0E43BC00A3E0FB90012BEAF0A3EBF08A828BCA
:0E43CA0083124B0AE5828583F09000E0F0A399
:0543D800E5F0F0808813
:0C43DD009000E2E0FAA3E08A82F583225F
:0E43E900AA82AB83ACF0FD9000E8EAF0A3EBF3
:0E43F700F0A3ECF0A3EDF09000E8E0FAA3E0F4
:0E440500FBA3E0FCA3E0FD30E70FC3E49AFE4A
:0B441300E49BFFE49CF8E49DF98008A6
:08441E008A068B078C008D015A
:0E4426008E028F03880489059000E4E0FEA357
:0E443400E0FFA3E0F8A3E0F930E713C3E49E35
:09444200F522E49FF523E498F54E
:07444B0024E499F525800827
:054452008E228F23887B
:0344570024892590
:08445A009000F5E522F0A3E556
:0844620023F0A3E524F0A3E51B
:0C446A0025F08A828B838CF0ED124572E5
:0E447600AA82AB83ACF0FD9000E8E0FEA3E06C
:0E448400FFA3E0F8A3E0F930E714C3E49AFECA
:0E449200E49BFFE49CF8E49DF98E828F838802
:0244A000F02208
:0844A2008A828B838CF0ED226D
:0E44AA00AA83E5829000EEF0A3EAF09000EE07
:0C44B800E0FAA3E0FB4A70049000002230
:0E44C400EA24FCFAEB34FFFB90011AE0FCA3A3
:0E44D200E0FD9000F0ECF0A3EDF09000ECE4C3
:0344E000F0A3F056
:0E44E3009000F0E0FCA3E0FD4C6025EAB5047B
:0744F10006EBB50502801B7C
:0E44F8009000ECECF0A3EDF08C828D83E0FCE4
:0D450600A3E0FD9000F0ECF0A3EDF080D0FC
:0C4513009000F0E0FAA3E08A82F5832219
:0E451F00AAF0AB83E5829000F2F0A3EBF0A3CC
:0E452D00EAF09000F2E0FAA3E0FBA3E0FC8AC3
:0E453B00828B831244AAAA82AB83EA4B6028CB
:0E4549009000ECE0FCA3E0FD4C700B8A828B2E
:0845570083A3A3E4F0A3F0220A
:0E455F008A828B83E0FAA3E0FB8C828D83EAD4
:04456D00F0A3EBF0DC
:014571002227
:0E457200AA82AB83ACF0FD9000F9EAF0A3EB57
:0D458000F0A3ECF0A3EDF09000FDE4F0904E
:0E458D0000F9E0FAA3E0FBA3E0FCA3E0FD7E52
:01459B00001F
:09459C009000F5E0F530A3E0F514
:0845A50031A3E0F532A3E0F5BB
:0A45AD0033E533235401FF7078C09A
:0A45B70006E53025E0FFE53133F89A
:0945C100E53233F9E53333FE90D5
:0E45CA0000F5EFF0A3E8F0A3E9F0A3EEF09007
:0845D80000F5E0F530A3E0F569
:0845E00031A3E0F532A3E0F580
:0745E80033C3EA9530EB95A7
:0645EF0031EC9532ED9560
:0A45F50033E433D0066029E533C338
:0745FF0013F533E53213F55B
:0546060032E53113F55F
:05460B0031E53013F55C
:05461000309000F5E50B
:0846150030F0A3E531F0A3E54C
:08461D0032F0A3E533F080093F
:094625000E9000FDEEF002459C30
:05462E009000FDE0FA20
:0E4633009000F9E0FBA3E0FCA3E0FDA3E0FE95
:094641009000F5E0F530A3E0F56E
:08464A0031A3E0F532A3E0F515
:0746520033C3EB9530EC953A
:0646590031ED9532EE95F3
:09465F003340179000F9EBC395FC
:0946680030F0EC9531A3F0ED9562
:0846710032A3F0EE9533A3F033
:0E4679009000F5E0FBA3E0FCA3E0FDA3E0FE53
:0D468700C313FEED13FDEC13FCEB13FB90D1
:0E46940000F5F0A3ECF0A3EDF0A3EEF08A0326
:0E46A2001AEB708D9000F9E0FAA3E0FBA3E0A4
:0B46B000FCA3E0FD8A828B838CF022CB
:0E46BB00AA82AB83ACF0FD900102EAF0A3EB03
:0E46C900F0A3ECF0A3EDF0900102E0FAA3E004
:0E46D700FBA3E0FCA3E0FD30E70FC3E49AFE76
:0B46E500E49BFFE49CF8E49DF98008D2
:0846F0008A068B078C008D0186
:0E46F8008E028F03880489059000FEE0FEA369
:0C470600E0FFA3E0F8A3E0F933E433F592
:0947120026E5266013C3E49EF5C0
:08471B0027E49FF528E498F55E
:0747230029E499F52A800842
:05472A008E278F288896
:03472F0029892AAB
:08473200900106E527F0A3E564
:08473A0028F0A3E529F0A3E536
:0C4742002AF08A828B838CF0ED124786EF
:0E474E00AA82AB83ACF0FD900102E0FEA3E076
:0C475C00FFA3E0F8A3E0F933E433652686
:0E4768006014C3E49AFEE49BFFE49CF8E49D19
:08477600F98E828F8388F02286
:08477E008A828B838CF0ED228E
:0E478600AA82AB83ACF0FD90010AEAF0A3EB2F
:0E479400F0A3ECF0A3EDF090010EE4F0A3F022
:0E47A200A3F0A3F0900106E0FAA3E0FBA3E071
:0747B000FCA3E0FD753020C1
:0E47B70090010AE0FFA3E0F8A3E0F9A3E0FE02
:0C47C500339200EF2FFFE833F8E933F9DE
:0E47D100EE33FE90010AEFF0A3E8F0A3E9F04A
:0E47DF00A3EEF090010EE0FEA3E0FFA3E0F8D1
:0E47ED00A3E0F9EE2EFEEF33FFE833F8E933D8
:0E47FB00F990010EEEF0A3EFF0A3E8F0A3E9B1
:0C480900F030001E90010EE0FFA3E0F86C
:0E481500A3E0F9A3E0FE90010E74014FF0A3A2
:08482300E8F0A3E9F0A3EEF0B8
:0E482B0090010EE0FEA3E0FFA3E0F8A3E0F989
:0E483900C3EE9AEF9BE89CE99D403190010E82
:0E484700EEC39AF0EF9BA3F0E89CA3F0E99D6E
:0E485500A3F090010AE0FEA3E0FFA3E0F8A3A9
:0E486300E0F990010A74014EF0A3EFF0A3E813
:04487100F0A3E9F0D7
:05487500D530028003B4
:03487A000247B73B
:0E487D0090010AE0FAA3E0FBA3E0FCA3E0FD3B
:07488B008A828B838CF0226E
:06303200E478FFF6D8FD72
:0E489200AAF0AB83E582900117F0A3EBF0A330
:0B48A000EAF0900117E0F533A3E0F50B
:0648AB0034A3E0F5359096
:0C48B1000112E0FDA3E0FEA3E0FF853350
:0348BD003085340F
:0348C0003185350A
:0948C30032900115E0F8A3E0F9C0
:0948CC008802890318B8FF0119E4
:0E48D500EA4B60258D828E838FF0125642FAD8
:0A48E300A3AD82AE838530828531DB
:0B48ED00838532F0EA124AC5A38582E1
:0648F8003085833180CE03
:0748FE0085338285348385B8
:0349050035F02268
:083010007902E94400601B7A1B
:05301800019058DA7878
:03301D006E75A02D
:0A30200001E493F2A308B8000205D2
:08302A00A0D9F4DAF275A0FF51
:0E490800AA83E58290011EF0A3EAF090011E42
:0E491600E0FAA3E0FB900120EAF0A3EBF0EA48
:0E4924004B702090012074012AF0E43BA3F0B8
:0D49320090011CE0FAA3E0FB1ABAFF011B84
:08493F0090011CEAF0A3EBF06B
:0E494700900120E0FAA3E0FB90011AEAF0A331
:0E495500EBF090011CE0FCA3E0FDEC2AFCED71
:0E4963003BFDEC24FEFCED34FFFD8A828B83CD
:0E497100ECF0A3EDF08C828D83E4F0A3F08ACD
:0A497F00828B83A3A3E4F0A3F022CF
:0E498900AA83E582900122F0A3EAF0900122B9
:0E499700E0FAA3E0FBC374FB9A74FF9B50048C
:0449A500900000225C
:0E49A90090012274042AF0E43BA3F090011A5E
:0E49B700E0FAA3E0FB900124EAF0A3EBF090FD
:0849C5000122E0F530A3E0F54A
:0149CD0031B8
:0E49CE00900124E0FCA3E0FD8C828D83E0FECE
:0E49DC00A3E0FF8E008F018C028D03E8C39ACA
:0E49EA00F8E99BF98C828D83A3A3E0FAA3E089
:0C49F800FBE8C39AF8E99BF9C3E895308E
:0C4A0400E99531400D90012674042CF05F
:064A1000E43DA3F0802349
:0E4A1600900124EEF0A3EFF0900124E0FAA34B
:0E4A2400E0FB8A828B83E0FAA3E0FB4A709CE1
:074A3200900126E4F0A3F05F
:0E4A3900900126E0FAA3E0FB4A7003024AB99E
:0E4A4700900124E0FAA3E0FB74022AFCE43B99
:0E4A5500FD8C828D83E0FEA3E0FF4E70139077
:0E4A63000122E0F8A3E0F98C828D83E8F0A335
:044A7100E9F08044A4
:0E4A7500EE2AFEEF3BFF8A828B83E0FCA3E07B
:0E4A8300FD8E828F83ECF0A3EDF08A828B8390
:0D4A9100EEF0A3EFF074022EFAE43FFB906C
:0E4A9E000122E0FCA3E0FD8A828B83ECF0A3F2
:0D4AAC00EDF090012674042EF0E43FA3F01D
:0C4AB900900126E0FAA3E08A82F5832237
:0E4AC50020F71030F6118883A88220F507F63E
:054AD300A883758300BB
:014AD80022BB
:034AD900F280F771
:024ADC00F022C6
:0E4ADE00AA83E582900129F0A3EAF090012955
:0E4AEC00E0FAA3E0FB33B3E433FC60068A0477
:044AFA008B058007A1
:074AFE00C3E49AFCE49BFDF8
:054B05008C828D83226B
:0E4B0A00AA83AB828BF090012BE0A4F8A9F0F7
:0E4B18008AF0E0A429F98BF0A3E0A429F5832C
:044B2600888222223D
:0E4B2A00AA83E58290012FF0A3EAF090012FFC
:0E4B3800E0FAA3E0FB30E709C3E49AFCE49B3B
:034B4600FD8004EB
:044B49008A048B054A
:0E4B4D008C028D0390012DE0FCA3E0FD30E70B
:0A4B5B0009C3E49CFEE49DFF800402
:044B65008C068D0726
:0D4B6900900131EEF0A3EFF08A828B8312F1
:0E4B76004B98AA82AB8390012FE0FCA3E0FDD8
:0E4B840030E70CC3E49AFCE49BFD8C828D8329
:014B92002200
:054B93008A828B8322E1
:0E4B9800AA83E582900133F0A3EAF090013584
:0C4BA600E4F0900133E0FAA3E0FB7C0097
:0E4BB200900131E0FDA3E0FE235401FF7037B7
:0E4BC000EECD25E0CD33FE900131EDF0A3EEF9
:0E4BCE00F0900131E0FDA3E0FEC3EA9DEB9EF6
:0E4BDC005011EEC313CD13CDFE900131EDF05C
:054BEA00A3EEF08008BD
:084BEF000C900135ECF080BBD5
:054BF700900135E0FA19
:0E4BFC00900133E0FBA3E0FC900131E0FDA34B
:0E4C0A00E0FEC3EB9DEC9E400B900133EBC32C
:064C18009DF0EC9EA3F0EC
:0E4C1E00900131E0FBA3E0FCC313CB13CBFCF1
:0E4C2C00900131EBF0A3ECF08A031AEB70C29A
:0C4C3A00900133E0FAA3E08A82F58322A7
:0E4C4600AA83E582900138F0A3EAF0900138CD
:0E4C5400E0FAA3E0FB30E709C3E49AFCE49B1E
:034C6200FD8004CE
:044C65008A048B052D
:0E4C69008C028D03900136E0FCA3E0FD33E4E5
:0D4C770033FE6009C3E49CFFE49DF8800457
:044C84008C078D000C
:0E4C880090013AEFF0A3E8F08A828B83C00619
:0E4C9600124CBEAA82AB83D006900138E0FC1F
:0E4CA400A3E0FD33E4336E600CC3E49AFCE43D
:074CB2009BFD8C828D832223
:054CB9008A828B8322BA
:083038007800E84400600A7909
:033040000075A078
:0630430000E4F309D8FCD3
:08304900786EE84401600C7987
:0B30510002900000E4F0A3D8FCD9FAC4
:0E4CBE00AA83E58290013CF0A3EAF090013E4B
:0E4CCC00E4F0A3F090013AE0FAA3E0FB7C10C4
:0C4CDA0090013CE0FDA3E0FE339201EEEF
:0E4CE600CD25E0CD33FE90013CEDF0A3EEF0C5
:0E4CF40090013EE0FDA3E0FECD25E0CD33FEB5
:0C4D020090013EEDF0A3EEF030011290A5
:0E4D0E00013EE0FDA3E0FE90013E74014DF079
:034D1C00A3EEF013
:0E4D1F0090013EE0FDA3E0FEC3ED9AEE9B4046
:0D4D2D001D90013EEDC39AF0EE9BA3F090A7
:0E4D3A00013CE0FDA3E0FE90013C74014DF051
:034D4800A3EEF0E7
:0E4D4B00DC8D90013CE0FAA3E08A82F5832221
:084D5900C01D85811DAA821214
:054D610040D6D01D2228
:0E4D6600AAF0AB83E582900141F0A3EBF0A32D
:0E4D7400EAF0900141E0FAA3E0FBA3E0FC901E
:0E4D82000140E0FD900154E4F0A3F0A3F09096
:0E4D90000157EAF0A3EBF0A3ECF090015AED0E
:074D9E00F0904D59024EBEDA
:064DA500C01D85811DE523
:0C4DAB001D24FBFA900154E4F0A3F0A3D7
:0C4DB700F0E51D24FBF8900157E6F00821
:0D4DC300A3E6F008A3E6F090015AEAF09094
:0A4DD0004D59124EBEAA82AB83D0EB
:024DDA001D2298
:0C4DDC00E582900150F0900150E0FA9048
:0E4DE8000146E0C0E0A3E0C0E0A3E0C0E0743C
:084DF6000AC0E0744EC0E09019
:0C4DFE000144E0C0E0A3E0C0E08A822293
:0E4E0A0015811581158190014EE0FAA3E0FBA1
:0C4E180090014E74012AF0E43BA3F0224C
:0E4E2400E582900151F0900151E0FA74302ABD
:0C4E3200FA24C6500A74072AFA30020362
:034E3E004302200C
:054E41008A82024DDC35
:0E4E4600E582900152F0900152E0FAC4540F40
:0E4E5400FBF582C002124E24D00253020F8AD8
:044E620082024E2456
:0E4E6600E582900153F0900149E0FAA3E0FBD1
:0E4E7400A3E0FCA3E0FD90014DE0FE90015391
:044E8200E0FF7820B5
:0E4E8600EE2EFEED235401F94206EA2AFAEB65
:0E4E940033FBEC33FCED33FDC3EE9F4007EE25
:064EA200C39FFE43020164
:0E4EA800D8DC900149EAF0A3EBF0A3ECF0A3F4
:084EB600EDF090014DEEF02239
:0E4EBE00AA83E58290015BF0A3EAF090015B0D
:0E4ECC00E0FAA3E0FB900144EAF0A3EBF090C3
:0E4EDA000154E0FAA3E0FBA3E0FC900146EADD
:0E4EE800F0A3EBF0A3ECF090014EE4F0A3F089
:0E4EF600900157E0FAA3E0FBA3E0FC8A828B58
:0E4F0400838CF0125642FD90015774012AF082
:0D4F1200E43BA3F0A3ECF0ED70030255E3C7
:054F1F00BD2502800326
:034F24000255DB58
:054F2700C203C204C238
:044F2C0005C206C2F2
:044F300007C208C2EA
:044F340009C20A9014
:094F3800015DE4F090015EF090CF
:0E4F4100015FF0900157E0FAA3E0FBA3E0FC53
:0E4F4F008A828B838CF0125642FEA3AA82AB9C
:0D4F5D0083900157EAF0A3EBF0A3ECF09075
:0D4F6A000161EEF0BE25088E82124DDC02C2
:024F77004EF6F4
:054F79008E07BF3000AF
:0E4F7E00404A8E07EF24C6404390015FE0FFDB
:044F8C006002802916
:0E4F9000C002C003C00490015EE0FA75F00A92
:0E4F9E00A4FAEE24D090015E2AF090015EE0AD
:0C4FAC00FAD004D003D002709AD2048026
:014FB8009662
:0E4FB900EF75F00AA4FFEE24D090015F2FF0F8
:034FC700024F4F47
:0E4FCA00900161E0FEBE2E0890015FE4F0024F
:024FD8004F4F39
:0E4FDA008E82C002C003C004C006125662E5FB
:0C4FE8008224FF9202D006D004D003D037
:094FF40002300205900161E4F0B5
:0A4FFD00900161E0FEBE2002805525
:05500700BE2B02804BEE
:05500C00BE2D028041F1
:05501100BE4202804BCD
:05501600BE43028050C2
:06501B00BE4403025250E6
:06502100BE4603025272BC
:06502700BE4903025250D5
:05502D00BE4C028034BE
:06503200BE4F0302525ABA
:06503800BE50030251B25C
:05503E00BE5302804298
:06504300BE55030252629B
:06504900BE580302526A8A
:03504F0002527694
:05505200D203024F4FE4
:05505700D205024F4FDD
:05505C00D206024F4FD7
:05506100D208024F4FD0
:05506600D209024F4FCA
:0E506B0090015AE0FA24FEF890015AF08602F5
:0C507900088603188A82124DDC02528265
:0E50850090015AE0FA24FDF890015AF08602DC
:0E5093000886030886041818900149EAF0A365
:0E50A100EBF0A3ECF0900149E0FAA3E0FBA3D2
:0E50AF00E0FC8A828B838CF01255EFAA82AB54
:0A50BD008390015FE0FB60028005B4
:0550C70090015FEAF01A
:0C50CC0020033890015EE0FBC3EA9B501B
:0D50D8002E90015EEBC39AF090015EE0FBAC
:0D50E5008B041B90015EEBF0BC00028010FC
:0E50F200758220C002C003124DDCD003D00234
:0251000080E34A
:0551020090015EEBF0DE
:0551070090015FE0FDD6
:0E510C00C002900149E0FCA3E0FFA3E0FA8C92
:0E511A00828F838AF0125642D00260538D04B9
:0E5128001DC374808CF063F08095F05044C07D
:0A51360002900149E0F52BA3E0F51B
:085140002CA3E0F52D740125FC
:075148002BFBE4352CFAAC4F
:0C514F002D900149EBF0A3EAF0A3ECF076
:07515B00852B82852C838562
:0C5162002DF0125642FAF582C002C00582
:0B516E00124DDCD005D002D00280936F
:0651790020030302528234
:0D517F0090015EE0FBC3EA9B4003025282F8
:0C518C0090015EEBC39AF090015EE0FA27
:0E5198008A031A90015EEAF0BB000302527D0A
:0C51A600758220C002124DDCD00280E6B1
:0E51B20090015AE0FB24FDF890015AF08603AC
:0E51C0000886040886071818900149EBF0A332
:0E51CE00ECF0A3EFF090014BE0FB247F5008C3
:0851DC009001617443F0802092
:0D51E400EB249F50089001617450F080137F
:0D51F100EB24BF50089001617449F0800666
:0651FE009001617458F0FD
:0E520400900161E0FBF582C003124DDCD00387
:0E52120075823AC003124DDCD003758230C0A5
:0E52200003124DDCD003758278C003124DDC02
:07522E00D003BB4902800F11
:05523500BB5002800ADD
:0A523A0090014AE0FBF582124E4697
:0C524400900149E0FBF582124E468032DA
:0A525000D20790015D740AF0802877
:08525A0090015D7408F0802052
:0852620090015D740AF0801850
:08526A0090015D7410F080104A
:04527200D20A800CD0
:075276008E82124DDC800561
:05527D0090015EEAF063
:0C528200300A6B90015AE0FA24FCF8900E
:0E528E00015AF0860208860308860408860688
:0E529C00181818900149EAF0A3EBF0A3ECF00B
:0B52AA00A3EEF090014974CFF0A37454
:0652B50058F0A37480F024
:0E52BB00900149E0FBA3E0FCA3E0FD74012B91
:0E52C900FEE43CFF8D02900149EEF0A3EFF0F1
:0E52D700A3EAF08B828C838DF0125642FA709F
:0452E50003024EF67C
:0752E9008A82124DDC80CB2C
:0B52F00090015DE0FABA0003024EF6E8
:0852FB009001687467F0A374D0
:0653030001F030084C909F
:0E530900015AE0FA14F890015AF08602EA33D5
:0E53170095E0FBFCFE900149EAF0A3EBF0A349
:0B532500ECF0A3EEF03007030253CAC7
:0E533000900149E0FAA3E0FBA3E0FCA3E0FE3D
:0E533E007B007C007E00900149EAF0A3EBF0BA
:08534C00A3ECF0A3EEF0807663
:0C53540030092A90015AE0FA24FCF8907D
:0E536000015AF08602088603088604088606B5
:0E536E00181818900149EAF0A3EBF0A3ECF038
:05537C00A3EEF08049E2
:0E53810090015AE0FA24FEF890015AF08602DC
:0E538F0008860318EB3395E0FCFE900149EA16
:0C539D00F0A3EBF0A3ECF0A3EEF020076F
:0E53A90020900149E0FAA3E0FBA3E0FCA3E0A2
:0E53B700FE7C007E00900149EAF0A3EBF0A31B
:0553C500ECF0A3EEF086
:0C53CA0030073E900149E0FAA3E0FBA38D
:0E53D600E0FCA3E0FE30E72B900149E0FAA3D3
:0E53E400E0FBA3E0FCA3E0FEC3E49AFAE49B26
:0E53F200FBE49CFCE49EFE900149EAF0A3EB74
:09540000F0A3ECF0A3EEF0800231
:02540900C207D8
:08540B00D20B90015DE0FC757D
:035413002E67758C
:045416002F017D00E5
:0E541A0090014DE4F08C82C004C005124E6675
:0C542800D005D004200B32C00490014DD0
:0A543400E0FFC4FF852E82852F8360
:0A543E00E0FA4207852E82852F83D5
:0A544800EFF0152E74FFB52E0215CB
:015452002F2A
:08545300900168E52EF0A3E5CD
:06545B002FF0D004800CCC
:0954610090014DE0FF852E8285CB
:03546A002F83F09D
:09546D000D900160EDF0B20B900E
:0E5476000149E0FFA3E0FAA3E0FEA3E0FBEF94
:0C5484004A4E4B7091900168E52EF0A399
:09549000E52FF0900160EDF090B1
:0C549900015EE0FA700690015E7401F004
:0A54A50020042720032474012DFACF
:0554AF0090015EE0FB2E
:0D54B400C3EA9B5011758220C002C0031294
:0954C1004DDCD003D0021B80EA8F
:0554CA0090015EEBF013
:0A54CF0030071275822D124DDC909B
:0B54D900015EE0FA1490015EF0802FED
:0C54E400900160E0FA602830051275822B
:0B54F0002B124DDC90015EE0FA1490DE
:0554FB00015EF08013CA
:0A550000300610758220124DDC9079
:09550A00015EE0FA1490015EF06C
:0955130020032F900160E0FA90E2
:04551C00015EE0FB51
:0E5520008B041B90015EEBF0C3EA9C5036300A
:06552E0004047C30800241
:025534007C20D9
:0E5536008C82C002C003124DDCD003D0028074
:01554400DB8B
:0E55450090015EE0FA900160E0FCC39A50090C
:0955530090015EEAC39CF0800C9B
:07555C0090015EE4F0800500
:0555630090015EEBF079
:0D556800900168E0FAA3E0FB900160E0FC18
:0A5575008C061CEE6040B20B200B08
:06557F00150ABA00010B41
:0E5585008A828B83E0FEC4540FFE90014DF02D
:02559300800E88
:0E5595008A828B83E0FE53060F90014DEEF0EC
:0E55A30090014DE0FEF582C002C003C004126C
:0A55B1004E24D004D003D00280BACB
:0655BB00200303024EF67E
:0555C10090015EE0FA1C
:0955C6008A031AEB7003024EF691
:0C55CF00758220C002124DDCD00280EB7F
:0855DB008D82124DDC024EF638
:0C55E30090014EE0FAA3E08A82F58322DA
:0B58CF003C4E4F20464C4F41543E0021
:0E55EF00AAF0AB83E58290016AF0A3EBF0A373
:0E55FD00EAF07A007B0090016AE0FCA3E0FD7A
:03560B00A3E0FE1B
:0E560E008C828D838EF0125642FFA3AC82ADCB
:0E561C008390016AECF0A3EDF0A3EEF0EF60D6
:08562A00070ABA00DF0B80DC67
:0E56320090016AECF0A3EDF0A3EEF08A828BFB
:025640008322C3
:033003007581359F
:0A30060012565EE582600302319964
:0E56420020F71430F6148883A88220F507E6BE
:06565000A883758300220F
:03565600E280F7F8
:03565900E49322B5
:02565C00E0224A
:04565E00758200222F
:0E566200E58290016DF090016DE0FABA6100F2
:0B5670004009EA2485400475820122F5
:04567B007582002212
:00000001FF
