:0E305F003098FDAA99C2988A82C0021231519F
:05306D00D0028A82225E
:0E30720090102574A0F0A3740FF090000002DF
:023080003173AA
:0330000002300398
:03305C00023082BD
:0530820012308780FE02
:0A3087007456C0E0743CC0E0748091
:0C309100C0E012337C158115811581749C
:0A309D0064C0E0743CC0E07480C021
:0E30A700E012337C158115811581901020E414
:0730B500F0A3F07A007B009C
:0E30BC00C3EA947FEB648094805038C002C059
:0E30CA000312305FAC82D003D002BC0A028039
:0130D80003F4
:0330D900BC0D0823
:0830DC0075820A123151801BBC
:0A30E400EA24A0F582EB340FF58317
:0730EE00ECF00ABA00010B2F
:0A30F500901020EAF0A3EBF080BD7C
:0C30FF00901020E0FAA3E0FBEA24A0F50A
:0C310B0082EB340FF583E4F0C002C00337
:0A3117007491C0E0743CC0E07480C5
:0C312100C0E012337CE58124FBF58174D2
:0A312D00A0C0E0740FC0E0E4C0E0B1
:0A3137007495C0E0743CC0E07480A1
:0B314100C0E012337CE58124FAF58128
:02314C0080FE03
:03314E00023072DA
:0E3C560048692C2077656C636F6D65210A004C
:0E3C6400456E746572206120737472696E671C
:0E3C720020287472756E63617465732061663C
:0E3C80007465722031323820636861727329D6
:033C8E003A2000D9
:043C910025640A009C
:0E3C9500596F7520656E746572656420257325
:033CA300210A00F3
:0E315100E582901022F0901022E0FABA0A08EF
:05315F0010990280FB45
:0331640075990D4D
:0531670010990280FB3D
:07316C00901022E0F599220A
:06303200E478FFF6D8FD72
:083010007900E94400601B7A1D
:0530180000903CB178BE
:03301D005F75A03C
:0A30200010E493F2A308B8000205C3
:08302A00A0D9F4DAF275A0FF51
:0E317300AA83E582901027F0A3EAF0901027BF
:0E318100E0FAA3E0FB901029EAF0A3EBF0EADD
:0E318F004B702090102974012AF0E43BA3F04D
:0D319D00901025E0FAA3E0FB1ABAFF011B19
:0831AA00901025EAF0A3EBF000
:0E31B200901029E0FAA3E0FB901023EAF0A3AE
:0E31C000EBF0901025E0FCA3E0FDEC2AFCED06
:0E31CE003BFDEC24FEFCED34FFFD8A828B837A
:0E31DC00ECF0A3EDF08C828D83E4F0A3F08A7A
:0A31EA00828B83A3A3E4F0A3F0227C
:0E31F400AA83E58290102BF0A3EAF090102B36
:0E320200E0FAA3E0FBC374FB9A74FF9B500438
:043210009000002208
:0E32140090102B74042AF0E43BA3F0901023DA
:0E322200E0FAA3E0FB90102DEAF0A3EBF09091
:08323000102BE0F50EA3E0F500
:013238000F86
:0E32390090102DE0FCA3E0FD8C828D83E0FE62
:0E324700A3E0FF8E008F018C028D03E8C39A76
:0E325500F8E99BF98C828D83A3A3E0FAA3E035
:0C326300FBE8C39AF8E99BF9C3E8950E5C
:0C326F00E9950F400D90102F74042CF016
:06327B00E43DA3F08023F6
:0E32810090102DEEF0A3EFF090102DE0FAA3C8
:0E328F00E0FB8A828B83E0FAA3E0FB4A709C8E
:07329D0090102FE4F0A3F0F4
:0E32A40090102FE0FAA3E0FB4A7003023324DF
:0E32B20090102DE0FAA3E0FB74022AFCE43B2E
:0E32C000FD8C828D83E0FEA3E0FF4E70139024
:0E32CE00102BE0F8A3E0F98C828D83E8F0A3CA
:0432DC00E9F0804451
:0E32E000EE2AFEEF3BFF8A828B83E0FCA3E028
:0E32EE00FD8E828F83ECF0A3EDF08A828B833D
:0D32FC00EEF0A3EFF074022EFAE43FFB9019
:0E330900102BE0FCA3E0FD8A828B83ECF0A386
:0D331700EDF090102F74042EF0E43FA3F0B1
:0C33240090102FE0FAA3E08A82F58322CB
:083038007800E84400600A7909
:033040000075A078
:0630430000E4F309D8FCD3
:08304900785FE84410600C7987
:0B30510011900000E4F0A3D8FCD9FAB5
:08333000C00D85810DAA821277
:053338003151D00D220F
:0E333D00AAF0AB83E582901032F0A3EBF0A370
:0E334B00EAF0901032E0FAA3E0FBA3E0FC9061
:0E3359001031E0FD901045E4F0A3F0A3F090D9
:0E3367001048EAF0A3EBF0A3ECF090104BED51
:07337500F0903330023495A3
:06337C00C00D85810DE586
:0C3382000D24FBFA901045E4F0A3F0A32A
:0C338E00F0E50D24FBF8901048E6F00874
:0D339A00A3E6F008A3E6F090104BEAF090D7
:0A33A7003330123495AA82AB83D0B4
:0233B1000D22EB
:0C33B300E582901041F0901041E0FA908B
:0E33BF001037E0C0E0A3E0C0E0A3E0C0E0747F
:0833CD00E1C0E07433C0E090A0
:0C33D5001035E0C0E0A3E0C0E08A8222D6
:0E33E10015811581158190103FE0FAA3E0FBE5
:0C33EF0090103F74012AF0E43BA3F02290
:0E33FB00E582901042F0901042E0FA74302A01
:0C340900FA24C6500A74072AFA300003A7
:033415004302204F
:053418008A820233B3BB
:0E341D00E582901043F0901043E0FAC4540F83
:0E342B00FBF582C0021233FBD00253020F8A5F
:04343900820233FBDD
:0E343D00E582901044F090103AE0FAA3E0FB14
:0E344B00A3E0FCA3E0FD90103EE0FE901044D4
:04345900E0FF7820F8
:0E345D00EE2EFEED235401F94206EA2AFAEBA8
:0E346B0033FBEC33FCED33FDC3EE9F4007EE68
:06347900C39FFE430201A7
:0E347F00D8DC90103AEAF0A3EBF0A3ECF0A337
:08348D00EDF090103EEEF0227C
:0E349500AA83E58290104CF0A3EAF090104C50
:0E34A300E0FAA3E0FB901035EAF0A3EBF09006
:0E34B1001045E0FAA3E0FBA3E0FC901037EA20
:0E34BF00F0A3EBF0A3ECF090103FE4F0A3F0CC
:0E34CD00901048E0FAA3E0FBA3E0FC8A828B9B
:0E34DB00838CF0123C19FD90104874012AF009
:0D34E900E43BA3F0A3ECF0ED7003023BBA4E
:0534F600BD250280036A
:0334FB00023BB2DF
:0534FE00C201C202C280
:0435030003C204C239
:0435070005C206C231
:04350B0007C208905B
:09350F00104EE4F090104FF09012
:0E3518001050F0901048E0FAA3E0FBA3E0FC96
:0E3526008A828B838CF0123C19FEA3AA82AB22
:0D35340083901048EAF0A3EBF0A3ECF090B8
:0D3541001052EEF0BE25088E821233B30248
:02354E0034CD7A
:053550008E07BF3000F2
:0E355500404A8E07EF24C64043901050E0FF1E
:043563006002802959
:0E356700C002C003C00490104FE0FA75F00AD5
:0E357500A4FAEE24D090104F2AF090104FE0F0
:0C358300FAD004D003D002709AD202806B
:01358F0096A5
:0E359000EF75F00AA4FFEE24D09010502FF03B
:03359E00023526CD
:0E35A100901052E0FEBE2E08901050E4F00292
:0235AF003526BF
:0E35B1008E82C002C003C004C006123C39E581
:0C35BF008224FF9200D006D004D003D07C
:0935CB0002300005901052E4F0FA
:0A35D400901052E0FEBE2002805568
:0535DE00BE2B02804B32
:0535E300BE2D02804135
:0535E800BE4202804B11
:0535ED00BE4302805006
:0635F200BE44030238276D
:0635F800BE460302384943
:0635FE00BE49030238275C
:05360400BE4C02803401
:06360900BE4F0302383140
:06360F00BE5003023789E2
:05361500BE53028042DB
:06361A00BE550302383921
:06362000BE580302384110
:0336260002384D1A
:05362900D2010235266C
:05362E00D20302352665
:05363300D2040235265F
:05363800D20602352658
:05363D00D20702352652
:0E36420090104BE0FA24FEF890104BF0860238
:0C365000088603188A821233B30238592E
:0E365C0090104BE0FA24FDF890104BF086021F
:0E366A00088603088604181890103AEAF0A3A8
:0E367800EBF0A3ECF090103AE0FAA3E0FBA315
:0E368600E0FC8A828B838CF0123BC6AA82ABDA
:0A36940083901050E0FB60028005F7
:05369E00901050EAF05D
:0C36A30020013890104FE0FBC3EA9B5060
:0D36AF002E90104FEBC39AF090104FE0FBEF
:0D36BC008B041B90104FEBF0BC000280103F
:0E36C900758220C002C0031233B3D003D002BA
:0236D70080E38E
:0536D90090104FEBF022
:0536DE00901050E0FD1A
:0E36E300C00290103AE0FCA3E0FFA3E0FA8CD6
:0E36F100828F838AF0123C19D00260538D0440
:0E36FF001DC374808CF063F08095F05044C0C1
:0A370D000290103AE0F508A3E0F581
:0837170009A3E0F50A74012585
:07371F0008FBE43509FAACD8
:0C3726000A90103AEBF0A3EAF0A3ECF0DC
:0737320085088285098385EB
:0C3739000AF0123C19FAF582C002C0052B
:0B3745001233B3D005D002D0028093F5
:06375000200103023859BC
:0D37560090104FE0FBC3EA9B40030238597E
:0C37630090104FEBC39AF090104FE0FA6A
:0E376F008A031A90104FEAF0BB000302385490
:0C377D00758220C0021233B3D00280E637
:0E37890090104BE0FB24FDF890104BF08603EF
:0E379700088604088607181890103AEBF0A375
:0E37A500ECF0A3EFF090103CE0FB247F500806
:0837B3009010527443F08020D5
:0D37BB00EB249F50089010527450F08013C2
:0D37C800EB24BF50089010527449F08006A9
:0637D5009010527458F040
:0E37DB00901052E0FBF582C0031233B3D0030E
:0E37E90075823AC0031233B3D003758230C02C
:0E37F700031233B3D003758278C0031233B3CC
:07380500D003BB4902800F54
:05380C00BB5002800A20
:0A38110090103BE0FBF58212341D1D
:0C381B0090103AE0FBF58212341D803260
:0A382700D20590104E740AF08028BC
:0838310090104E7408F0802095
:0838390090104E740AF0801893
:0838410090104E7410F080108D
:04384900D208800C15
:07384D008E821233B38005E7
:0538540090104FEAF0A6
:0C38590030086B90104BE0FA24FCF89053
:0E386500104BF08602088603088604088606CB
:0E38730018181890103AEAF0A3EBF0A3ECF04E
:0B388100A3EEF090103A74A6F0A374C0
:06388C003CF0A37480F083
:0E38920090103AE0FBA3E0FCA3E0FD74012BD4
:0E38A000FEE43CFF8D0290103AEEF0A3EFF034
:0E38AE00A3EAF08B828C838DF0123C19FA7025
:0438BC00030234CD02
:0738C0008A821233B380CBB2
:0B38C70090104EE0FABA00030234CD6E
:0838D2009010597458F0A37422
:0638DA0010F030064C90D6
:0E38E000104BE0FA14F890104BF08602EA3319
:0E38EE0095E0FBFCFE90103AEAF0A3EBF0A38D
:0B38FC00ECF0A3EEF03005030239A150
:0E39070090103AE0FAA3E0FBA3E0FCA3E0FE80
:0E3915007B007C007E0090103AEAF0A3EBF0FD
:08392300A3ECF0A3EEF08076A6
:0C392B0030072A90104BE0FA24FCF890C2
:0E393700104BF08602088603088604088606F8
:0E39450018181890103AEAF0A3EBF0A3ECF07B
:05395300A3EEF0804925
:0E39580090104BE0FA24FEF890104BF086021F
:0E39660008860318EB3395E0FCFE90103AEA59
:0C397400F0A3EBF0A3ECF0A3EEF02005B4
:0E3980002090103AE0FAA3E0FBA3E0FCA3E0E5
:0E398E00FE7C007E0090103AEAF0A3EBF0A35E
:05399C00ECF0A3EEF0C9
:0C39A10030053E90103AE0FAA3E0FBA3D2
:0E39AD00E0FCA3E0FE30E72B90103AE0FAA316
:0E39BB00E0FBA3E0FCA3E0FEC3E49AFAE49B69
:0E39C900FBE49CFCE49EFE90103AEAF0A3EBB7
:0939D700F0A3ECF0A3EEF0800275
:0239E000C2051E
:0839E200D20990104EE0FC75C3
:0339EA000B587502
:0439ED000C107D003D
:0E39F10090103EE4F08C82C004C00512343DFC
:0C39FF00D005D004200932C00490103E16
:0A3A0B00E0FFC4FF850B82850C83E9
:0A3A1500E0FA4207850B82850C835E
:0A3A1F00EFF0150B74FFB50B021554
:013A29000C90
:083A2A00901059E50BF0A3E533
:063A32000CF0D004800C32
:093A380090103EE0FF850B828531
:033A41000C83F003
:093A44000D901051EDF0B2099053
:0E3A4D00103AE0FFA3E0FAA3E0FEA3E0FBEFD7
:0C3A5B004A4E4B7091901059E50BF0A3FF
:093A6700E50CF0901051EDF09017
:0C3A7000104FE0FA700690104F7401F047
:0A3A7C0020022720012474012DFA16
:053A860090104FE0FB71
:0D3A8B00C3EA9B5011758220C002C00312D7
:093A980033B3D003D0021B80EA15
:053AA10090104FEBF056
:0A3AA60030051275822D1233B39023
:0B3AB000104FE0FA1490104FF0802F30
:0C3ABB00901051E0FA6028300312758270
:0B3AC7002B1233B390104FE0FA149064
:053AD200104FF080130D
:0A3AD7003004107582201233B39002
:093AE100104FE0FA1490104FF0B0
:093AEA0020012F901051E0FA9028
:043AF300104FE0FB95
:0E3AF7008B041B90104FEBF0C3EA9C5036304E
:063B050002047C30800286
:023B0B007C201C
:0E3B0D008C82C002C0031233B3D003D00280FA
:013B1B00DBCE
:0E3B1C0090104FE0FA901051E0FCC39A50094F
:093B2A0090104FEAC39CF0800CDE
:073B330090104FE4F0800543
:053B3A0090104FEBF0BC
:0D3B3F00901059E0FAA3E0FB901051E0FC5B
:0A3B4C008C061CEE6040B20920094F
:063B5600150ABA00010B84
:0E3B5C008A828B83E0FEC4540FFE90103EF070
:023B6A00800ECB
:0E3B6C008A828B83E0FE53060F90103EEEF02F
:0E3B7A0090103EE0FEF582C002C003C00412AF
:0A3B880033FBD004D003D00280BA52
:063B92002001030234CD06
:053B980090104FE0FA5F
:093B9D008A031AEB70030234CD17
:0C3BA600758220C0021233B3D00280EB05
:083BB2008D821233B30234CD01
:0C3BBA0090103FE0FAA3E08A82F583221D
:0B3CA6003C4E4F20464C4F41543E0066
:0E3BC600AAF0AB83E58290105BF0A3EBF0A3B6
:0E3BD400EAF07A007B0090105BE0FCA3E0FDBD
:033BE200A3E0FE5F
:0E3BE5008C828D838EF0123C19FFA3AC82AD52
:0E3BF3008390105BECF0A3EDF0A3EEF0EF601A
:083C0100070ABA00DF0B80DCAA
:0E3C090090105BECF0A3EDF0A3EEF08A828B3E
:023C1700832206
:03300300758121B3
:0A300600123C35E5826003023082BF
:0E3C190020F71430F6148883A88220F507E601
:063C2700A8837583002252
:033C2D00E280F73B
:033C3000E49322F8
:023C3300E0228D
:043C35007582002272
:0E3C3900E58290105EF090105EE0FABA610035
:0B3C47004009EA248540047582012238
:043C52007582002255
:00000001FF
