:0330000002300398
:03305C0002305FE0
:05305F0012306480FE48
:0830640090005512306C80F859
:0E306C00AA83E582900000F0A3EAF090000035
:0B307A00E0FAA3E0FBBA0A0BBB000861
:0530850010990280FB20
:03308A0075990D28
:05308D0010990280FB18
:0E309200900000E0FAA3E0FB8A998A828B830B
:0130A000220D
:06303200E478FFF6D8FD72
:083010007900E94400601B7A1D
:05301800009030A578D6
:03301D000275A099
:0A30200000E493F2A308B8000205D3
:08302A00A0D9F4DAF275A0FF51
:083038007800E84400600A7909
:033040000075A078
:0630430000E4F309D8FCD3
:083049007802E84400600C79F4
:0B30510001900000E4F0A3D8FCD9FAC5
:03300300758107CD
:0A3006001230A1E582600302305F82
:0430A1007582002212
:00000001FF
