:0A306E003098FDAA99C2988A8222C8
:0E307800AAF0AB83E582900002F0A3EBF0A378
:0E308600EAF0900000E0FAA3E0FBC3E49A74C5
:0E309400808BF063F08095F04007900000758F
:0330A200F0002219
:0C30A500900005E4F0A3F0900002E0F5BC
:0830B10008A3E0F509A3E0F516
:0630B9000A1ABAFF011B18
:0430BF007F00780016
:0E30C300C3EF9AE864808BF063F08095F050C4
:0E30D1006DC002C003C007C00012306EA9829D
:0E30DF00D000D007D003D0028982C002C00307
:0E30ED00C007C000C001123E8ED001D000D03E
:0A30FB0007D003D002B90A028003D7
:03310500B90D0BF6
:0B310800B90D3475820A123E8E802C37
:0A311300C002C003EF2508FAE835FA
:0A311D0009FBAC0A8A828B838CF058
:09312700E912487D0FBF00010808
:0D313000900005EFF0A3E8F0D003D00202FC
:02313D0030C39D
:0E313F00900002E0FAA3E0FBA3E0FC90000584
:0E314D00E0FDA3E0FEED2AFDEE3BFE8C078DBB
:0E315B00828E838FF0E412487D8A828B838CF3
:02316900F02252
:0E316B009009597440F0A37406F0900007021A
:0231790046C04E
:0330000002300398
:07305C00E4F50FF510E4F5A7
:0530630011F512E4F577
:0330680013F51449
:03306B0002317BB4
:05317B0012318080FE0E
:0831800012343E123444E4F560
:043188000FF510F53A
:04318C0011F512F532
:0431900013F514908F
:07319400094F7437F0A3742A
:0C319B0054F0A37480F0900952740FF0FF
:0D31A700E4A3F090084775F00012464A744A
:0A31B40046C0E07454C0E07480C00F
:0E31BE00E0124B5D1581158115819008E274B9
:0D31CC000AF0E4A3F09008E4E4F0A3F0851D
:0631D9000F828510831235
:0931DF003CF3758220123E8E9033
:0E31E80008E2740AF0E4A3F09008E4E4F0A317
:0831F600F0851182851283129D
:0931FE003CF3758220123E8E9014
:0E32070008E2740AF0E4A3F09008E4E4F0A3F7
:08321500F08513828514831279
:0C321D003CF3758220123E8E75820A126E
:093229003E8E1237F87A007B009A
:0E323200C3EB64809481501E8A04EBCC25E02F
:0A324000CC33FDEC2447F582ED3499
:0C324A0006F583E4F0A3F00ABA00DD0BE7
:0232560080DA1C
:09325800E513B43204E514600230
:02326100801AD1
:0A3263007455C0E07454C0E074809C
:0D326D00C0E0124B5D158115811581E4F55F
:03327A0013F51435
:0A327D0012306EAA82BA0802800324
:03328700023322ED
:0A328A00C3E4950F74808510F06313
:0B329400F08095F05057150F74FFB547
:04329F000F021510F5
:0C32A300900856E0FBA3E0FCE50F2BF5C3
:0C32AF0082E5103CF583E0FBC2D575F011
:0932BB0002EB30E704B2D5F40483
:0E32C400A430D50AF42401C5F0F43400C5F09E
:0A32D2002447FB740635F0FC8B82E4
:0C32DC008C83E0FDA3E0FE1DBDFF011E81
:0932E8008B828C83EDF0A3EEF063
:0A32F100C3E4951374808514F063A4
:0932FB00F08095F0400302325806
:0E330400758208123E8E758220123E8E7582F2
:0933120008123E8E151374FFB57C
:04331B001302151470
:03331F000232581F
:0C3322008A82C002123E8ED0020511E427
:05332E00B511020512BB
:073333000513E4B5130205C8
:01333A00147E
:0D333B00C2D575F002EA30E704B2D5F40403
:0E334800A430D50AF42401C5F0F43400C5F019
:0A3356002447FB740635F0FC8B825F
:0C3360008C83E0FDA3E0FE0DBD00010E1B
:0E336C008B828C83EDF0A3EEF0C3EA648094B4
:0E337A00B0400B74B98AF063F08095F05026D5
:0E338800C3EA648094E1400B74FA8AF063F0AB
:053396008095F05013CA
:0E339B00C3EA648094C1404874DA8AF063F09B
:0533A9008095F0403D9D
:0A33AE00AB0FE510FC3395E0FDFEC7
:0933B800C3EB950BEC950CED95AF
:0A33C1000DEE6480850EF063F080CD
:0D33CB0095F0501C900856E0FBA3E0FCE5D7
:0A33D8000F2BF582E5103CF583EAA7
:0833E200F0050FE4B50F020530
:0133EA0010D2
:0D33EB00BA3F0EC00212384DD002C00212CF
:0433F80037F8D002D0
:0533FC00BA3D02800350
:033401000232583C
:0E340400900856E0FAA3E0FB7C009008DDE59E
:0A3412000FF0A3E510F08A828B830F
:0A341C008CF01236007455C0E07405
:0C34260054C0E07480C0E0124B5D1581C2
:0A34320015811581E4F513F514026D
:02343C00325804
:06343E00438E0C02316B0D
:0A344400745AC0E07454C0E07480B4
:0E344E00C0E0124B5D158115811581900000C4
:0D345C007480F0E4A3F090085A75F000129F
:06346900307890090F7499
:0A346F00DAF0A37408F0A37400F073
:0E34790090085A75F000123F21AA82AB838A98
:083487000BEBF50C3395E0F5A9
:04348F000DF50E9099
:0E349300085AE060179008DAE0FAA3E0FBA305
:0E34A100E0FC8A828B838CF01253FAFA6018DA
:0A34AF0074A0C0E07454C0E0748003
:0E34B900C0E0124B5D1581158115810234446F
:0A34C700C3E50B9418E50C9400E532
:0A34D1000D9400E50E648094804025
:0A34DB00177440950B7406950CE47D
:0A34E500950D7480850EF063F080F1
:0434EF0095F05020E4
:0534F300C00BC00CC07D
:0434F8000DC00E7481
:0A34FC00B5C0E07454C0E07480C055
:0D350600E0124B5DE58124F9F581023444AB
:0E3513009009217408F0E4A3F0A3F0A3F08562
:063521000B82850C83857E
:053527000DF0E50E129D
:0E352C0041A1AA82AB83ACF0FDBA000BBB003C
:09353A0008BC0005BD0002802060
:05354300C00BC00CC02C
:043548000DC00E7430
:0A354C00D5C0E07454C0E07480C0E4
:0D355600E0124B5DE58124F9F5810234445B
:09356300AA0BAB0C8A828B8312C7
:0E356C004741E5828583F0900856F0A3E5F014
:0E357A00F090093B7404F0E4A3F0A3F0A3F07A
:07358800850B82850C838591
:05358F000DF0E50E1235
:0E3594004473AA82AB83ACF0FD124741AA82B9
:0E35A200AB83900858EAF0A3EBF0900856E0D7
:0B35B000FCA3E0FD4C6004EA4B7044FB
:0E35BB00900856E0FAA3E0FB4A600B7C008A01
:0835C900828B838CF01242D7C3
:0E35D100900858E0FAA3E0FB4A600B7C008AE9
:0835DF00828B838CF01242D7AD
:0A35E70074F5C0E07454C0E0748075
:0E35F100C0E0124B5D15811581158102344436
:0135FF0022A9
:0E360000AAF0AB83E5829008DFF0A3EBF0A305
:0A360E00EAF0740BC0E07455C0E050
:0E3618007480C0E0124B5D1581158115817420
:0A36260047C0E07455C0E07480C096
:0C363000E0124B5D158115811581744B73
:0B363C00C0E07455C0E07480C0E012D4
:0E3647004B5D1581158115819008DFE0FAA317
:0A365500E0FBA3E0FC8A178B188C41
:0B365F00199008DDE0F8A3E0F9E4F5A5
:03366A0015F5163D
:0A366D00C3E51598E516648089F0A6
:0A36770063F08095F040030237D3A2
:0C36810090096A7410F0E4A3F085158233
:0C368D00851683C002C003C004C000C04A
:0E369900011248E2E5828583F0D001D000D016
:0C36A70004D003D00245F0600302376736
:0E36B300C000C00190090C7439F0E4A3F0755A
:0D36C100827CC002C003C004C000C0011222
:0E36CE003ECAD001D000D004D003D002C0020A
:0C36DC00C003C004C000C0017447C0E07F
:0C36E8007455C0E07480C0E0124B5D150A
:0E36F4008115811581D001D000D004D003D003
:0A37020002E5152AF8E5163BF98CE4
:0E370C00059008E27410F0E4A3F09008E47455
:0E371A0004F0E4A3F088828983C002C003C0DB
:0E37280004C000C001123CF3D001D000D00458
:0E373600D003D002C002C003C004C000C00116
:0A3744007481C0E07455C0E0748089
:0E374E00C0E0124B5D158115811581D001D0B0
:0B375C0000D004D003D002D001D00048
:06376700E5152517FDE544
:05376D00163518FEAF47
:0C377200198D828E838FF01253FAFD3304
:0D377E0095E0FE9008E27410F0E4A3F090D6
:0E378B0008E47402F0E4A3F08D828E83C00285
:0E379900C003C004C000C001123CF3D001D038
:0E37A70000D004D003D002758220C002C003FF
:0E37B500C004C000C001123E8ED001D000D072
:0A37C30004D003D0020515E4B5158B
:0337CD00020516DC
:0337D00002366D51
:0D37D30090090C7439F0E4A3F075827C12AB
:0737E0003ECA7484C0E074CE
:0C37E70055C0E07480C0E0124B5D1581FD
:0537F300158115812283
:0A37F80074C0C0E07455C0E0748096
:0C380200C0E0124B5D158115811581742A
:0A380E00E0C0E07455C0E07480C013
:0C381800E0124B5D1581158115817400D4
:0B382400C0E07456C0E07480C0E012E9
:0C382F004B5D1581158115817455C0E0BA
:0C383B007454C0E07480C0E0124B5D15B6
:06384700811581158122AC
:0A384D007421C0E07456C0E07480DE
:0E385700C0E0124B5D1581158115817A347B1E
:013865000062
:0E38660075822DC002C003123E8ED003D00228
:053874001ABAFF011B60
:0A387900EA4B70E97425C0E07456B4
:0E388300C0E07480C0E0124B5D158115811508
:0A38910081742AC0E07456C0E07490
:0D389B0080C0E0124B5D15811581158190F4
:0E38A80008E2740AF0E4A3F09008E4E4F0A350
:0838B600F0850F8285108312DA
:0738BE003CF37432C0E0741A
:0C38C50056C0E07480C0E0124B5D15811D
:0A38D10015811581AA0FE510FB33E5
:0A38DB0095E0FCFDE50BC39AFAE549
:0838E5000C9BFBE50D9CFCE5CA
:0C38ED000E9DFD9008E2740AF0E4A3F0C8
:0E38F9009008E4E4F0A3F08A828B83123CF383
:0A3907007450C0E07456C0E07480F4
:0E391100C0E0124B5D15811581158190090CE7
:0D391F007436F0E4A3F075827C123ECA7489
:0A392C0047C0E07455C0E07480C08D
:0C393600E0124B5D15811581158174565F
:0B394200C0E07456C0E07480C0E012CA
:0B394D004B5D158115811581AA0BABA5
:0B3958000C9008E2740AF0E4A3F09069
:0E39630008E4E4F0A3F08A828B83123CF37434
:0A39710061C0E07456C0E07480C02D
:0E397B00E0124B5D158115811581900856E014
:0E398900FAA3E0FB9008E27410F0E4A3F090C3
:0D39970008E47404F0E4A3F08A828B83122C
:0E39A4003CF390090C7436F0E4A3F075827CBD
:0839B200123ECA7447C0E07424
:0C39BA0055C0E07480C0E0124B5D158128
:0A39C60015811581746CC0E0745681
:0E39D000C0E07480C0E0124B5D1581158115BA
:0E39DE008190093B7404F0E4A3F0A3F0A3F081
:0739EC00850B82850C838529
:0539F3000DF0E50E12CD
:0E39F8004473AA82AB83ACF0FD9008E2740A1F
:0E3A0600F0E4A3F09008E4E4F0A3F08A828BD1
:093A140083123CF37461C0E074FC
:0C3A1D0056C0E07480C0E0124B5D1581C3
:0D3A290015811581900858E0FAA3E0FB908C
:0E3A360008E27410F0E4A3F09008E47404F0C9
:0E3A4400E4A3F08A828B83123CF390090C7489
:0C3A520036F0E4A3F075827C123ECA74CA
:0A3A5E0047C0E07455C0E07480C05A
:0E3A6800E0124B5D1581158115817A007B00FF
:0E3A7600C3EA940EEB648094804003023BA0F0
:0E3A840090096A740CF0E4A3F08A828B83C070
:0E3A920002C0031248E2E5828583F0D003D023
:0E3AA0000245F0703490090C7436F0E4A3F087
:0E3AAE0075827CC002C003123ECAD003D00253
:0A3ABC00C002C0037447C0E0745557
:0E3AC600C0E07480C0E0124B5D1581158115C3
:053AD40081D003D002C7
:0A3AD900EA2447F582EB3408F58378
:0E3AE300E0FCF582C002C003123E8ED003D07C
:0E3AF1000275822DC002C003123E8ED003D09B
:0A3AFF0002EA2447F582EB3408F5D3
:0E3B090083E0FCC2D575F002EC30E704B2D5C3
:023B1700F404B4
:0E3B1900A430D50AF42401C5F0F43400C5F040
:0A3B27002447F582740635F0F5839B
:0E3B3100E0FCA3E0FD9008E2740AF0E4A3F0CB
:0E3B3F009008E4E4F0A3F08C828D83C002C0F5
:0E3B4D0003123CF3D003D002758220C002C0E8
:0C3B5B0003123E8ED003D002EA2447F58E
:0C3B670082EB3408F583E0FCC2D575F059
:093B730002EC30E704B2D5F404C1
:0E3B7C00A430D50AF42401C5F0F43400C5F0DD
:0A3B8A002447F582740635F0F58338
:093B9400E4F0A3F00ABA00010BF1
:033B9D00023A7673
:0D3BA00090090C7436F0E4A3F075827C12DD
:073BAD003ECA7447C0E0743A
:0C3BB40055C0E07480C0E0124B5D15812C
:0E3BC0001581158190090C7436F0E4A3F075A0
:0A3BCE00827C123ECA7447C0E07406
:0C3BD80055C0E07480C0E0124B5D158108
:0A3BE400158115817477C0E0745656
:0E3BEE00C0E07480C0E0124B5D15811581159A
:053BFC00817A007B004E
:0A3C0100C3EA950FEB64808510F014
:0A3C0B0063F08095F04003023C9145
:0E3C150090096A7432F0E4A3F08A828B83C0B7
:0E3C230002C0031248E2E5828583F0D003D090
:0E3C31000245F0703490090C7436F0E4A3F0F4
:0E3C3F0075827CC002C003123ECAD003D002C0
:0A3C4D00C002C0037447C0E07455C4
:0E3C5700C0E07480C0E0124B5D158115811530
:053C650081D003D00234
:0E3C6A00900856E0FCA3E0FDEA2CF582EB3D4D
:0E3C7800F583E0FCF582C002C003123E8ED040
:083C860003D0020ABA00010B91
:033C8E00023C01F4
:0D3C910090090C7436F0E4A3F075827C12EB
:073C9E003ECA748AC0E07405
:0C3CA50056C0E07480C0E0124B5D158139
:083CB100158115817A347B00B6
:0E3CB90075822DC002C003123E8ED003D002D1
:053CC7001ABAFF011B09
:0A3CCC00EA4B70E9748DC0E07456F5
:0E3CD600C0E07480C0E0124B5D1581158115B1
:073CE40081E4F50FF510F576
:043CEB0011F512F5C8
:043CEF0013F5142293
:0E5437003031323334353637383946454D4141
:015445000066
:0E544600496E697469616C20496E666F3A2088
:015454000057
:055455000A3E3E2000AC
:0E545A00456E74657220796F757220627566FA
:0E5468006665722073697A652028696E20746B
:0E54760068652072616E6765205B32342031FC
:0E5484003630305D20616E642061206D756CE5
:0E5492007469706C65206F662038293A20001E
:0E54A0000A4E6F6E2D696E7465676572206925
:0754AE006E7075742E0A00F8
:0E54B5000A56616C7565206F7574206F662055
:0E54C30072616E6765205B3234203136303006
:0454D1005D2E0A0042
:0E54D5000A56616C7565206D757374206265F2
:0E54E30020646976697369626C6520627920C5
:0454F100382E0A0047
:0E54F5000A416C6C6F636174696F6E206661B2
:08550300696C7572652E0A0047
:0E550B000A0A2B2D2D2D2D2D2D2D2D2D2D2D64
:0E5519002D2D2D2D2D2D2D2D2D2D2D2D2D2D0E
:0E5527002D2D2D2D2D2D2D2D2D2D2D2D2D2D00
:0E5535002D2D2D2D2D2D2D2D2D2D2D2D2D2DF2
:045543002D2D2B00DF
:045547000A7C2000BA
:0E554B002020202020202B30202B31202B323E
:0E555900202B33202B34202B35202B36202BFB
:0E55670037202B38202B39202B41202B4220BF
:0C5575002B43202B44202B45202B46000C
:035581003A2000CD
:0E5584000A2B2D2D2D2D2D2D2D2D2D2D2D2DC8
:0E5592002D2D2D2D2D2D2D2D2D2D2D2D2D2D95
:0E55A0002D2D2D2D2D2D2D2D2D2D2D2D2D2D87
:0E55AE002D2D2D2D2D2D2D2D2D2D2D2D2D2D79
:0455BC002D2B0A0089
:0E55C0000A456E7465722063686172616374DF
:0E55CE0065727320666F722073746F7261676E
:0455DC00652E0A002E
:0E55E000093D096865782064756D70206F665E
:0E55EE002062756666657220636F6E74656E6E
:0455FC0074730A00BA
:0E560000093F097072696E74207374617473CF
:0E560E0020616E6420636C65617220627566B7
:05561C006665720A0042
:045621000A0A2B0046
:055625002B0A7C2000AF
:08562A0053746F7265642000E7
:0E563200206368617261637465727320696E33
:0E56400020627566666572302C20776974688A
:02564E0020003A
:0656500020667265650092
:0B56560042756666657220303A200045
:0B5661002062797465732061742000E2
:0B566C0042756666657220313A20002E
:0E567700466C757368696E67206275666665BD
:05568500722E2E2E0024
:03568A000A2B00E8
:03568D002B0A00E5
:0E3CF300AA83E5829008E6F0A3EAF07A007B4F
:013D010000C1
:0D3D0200C3EA9420EB648094805014EA24FE
:0A3D0F00E8F582EB3408F583743008
:083D1900F00ABA00E40B80E19E
:0E3D21009008E6E0FAA3E0FB30E70675822D7D
:033D2F00123E8EB3
:0C3D32009008E2E0FAA3E0FB7C007D00BA
:0E3D3E009008E6E0FEA3E0FF4E7003023DF4A5
:0E3D4C0090096AEAF0A3EBF08E828F83C0022A
:0E3D5A00C003C004C0051248E2AE82AF83D0A1
:0E3D680005D004D003D0028E828F83C002C02B
:0E3D760003C004C005124896AE82AF83D0058C
:0E3D8400D004D003D002C374898EF063F080A7
:0C3D920095F040089009087430F080069D
:063D9E009009087437F0E3
:093DA400EC24E8FFED3408F8906E
:0E3DAD000908E0F92EFE8F828883F09008E668
:0E3DBB00E0FEA3E0FF900973EAF0A3EBF08EA8
:0E3DC900828F83C002C003C004C0051249FEF1
:0E3DD700E5828583F0D005D004D003D00290A1
:0C3DE50008E6F0A3E5F0F00CBC00010DB6
:033DF100023D3E52
:0E3DF400900909ECF0A3EDF09008E4E0FAA3CA
:0E3E0200E0FB4A701AEC4D7016758230C0025B
:0E3E1000C003C004C005123E8ED005D004D001
:033E1E0003D002CC
:0E3E2100C3E49A74808BF063F08095F0501D1E
:0E3E2F00C3EA9CEB64808DF063F08095F05048
:033E3D00028004FC
:043E40008A048B0560
:083E4400900909ECF0A3EDF078
:0D3E4C00900909E0FAA3E0FB1ABAFF011B80
:0E3E5900900909EAF0A3EBF0900909E0FAA342
:023E6700E0FB7E
:0B3E6900EB20E720EA24E8F582EB34B0
:0C3E740008F583E0FCF582C002C00312D8
:0D3E80003E8ED003D0021ABAFFDF1B80DC9B
:013E8D002212
:0E3E8E00E58290090BF090090BE0FABA0A0FDA
:053E9C0010990280FBFB
:0A3EA10075990D9009ABE4F0A3F051
:053EAB0010990280FBEC
:0E3EB00090090BE0F5999009ABE0FAA3E0FB56
:0C3EBE009009AB74012AF0E43BA3F02251
:0E3ECA00E58290090EF09009ABE0FAA3E0FB50
:0E3ED80090090CE0FCA3E0FDECC39AFAED9B10
:053EE600FB7C007D00E3
:0E3EEB00C3EC9AED64808BF063F08095F0508C
:0D3EF9001D758220C002C003C004C0051268
:0E3F06003E8ED005D004D003D0020CBC00D7F4
:033F14000D80D449
:0A3F170090090EE0FAF582023E8EDA
:02569B0000000D
:0E3F2100AAF0AB83E582900912F0A3EBF0A3A7
:0E3F2F00EAF0900915E4F0A3F0900917E4F011
:0E3F3D00A3F0900912E0FAA3E0FBA3E0FC8AD7
:0D3F4B00828B838CF01253A7AA82AB839067
:0C3F58000919EAF0A3EBF0900912E0F563
:083F64001AA3E0F51BA3E0F530
:053F6C001C851A82858E
:063F71001B83851CF01209
:0E3F770053FAFFBF2D5D9009177401F0E4A30B
:0A3F8500F07401251AFFE4351BF863
:0C3F8F00A91C8F82888389F01253FA70FD
:0E3F9B002690090FE0FCA3E0FDA3E0FE8C825F
:0B3FA9008D838EF0E51A12487DA3E521
:063FB4001B12487DA3E58D
:083FBA001C12487D900000225A
:0E3FC200900912EFF0A3E8F0A3E9F01ABAFF9D
:023FD000011BD3
:083FD200900919EAF0A3EBF0DD
:0E3FDA00900919E0FAA3E0FB900912E0FCA3A5
:093FE800E0FDA3E0FE7F0078007B
:0E3FF100C002C003EF2CF9E83DFA8E0389826E
:0E3FFF008A838BF01253FAF9D003D002E970D6
:04400D00030240BBAF
:0B401100C3E9648094B050030240BB80
:0D401C00C374B989F063F08095F050030281
:0240290040BB9A
:0E402B00C004C005C006E93395E0FCE924D0CE
:0E403900F9EC34FFFCEAC39FFDEB98FE1DBDC1
:03404700FF011E58
:0E404A0090091BEDF0A3EEF090000AC002C03A
:0E40580003C004C007C000C001124109AD82C0
:0E406600AE83D001D000D007D004D003D0022A
:0E407400900968EDF0A3EEF089828C83C00203
:0E408200C003C006C007C0001248C2AC82AD29
:0E40900083D000D007D006D003D002900915CF
:0E409E00E0FEA3E0F9900915EC2EF0ED39A339
:0640AC00F00FBF00010847
:0940B200D006D005D004023FF154
:0E40BB0090090FE0FAA3E0FBA3E0FC900912CD
:0E40C900E0FDA3E0FEA3E0F9EF2DFDE83EFED2
:0D40D7008A828B838CF0ED12487DA3EE12DF
:0840E400487DA3E912487D901C
:0E40EC000917E0FAA3E0FB4A6007900915E40B
:0340FA00F0A3F040
:0C40FD00900915E0FAA3E08A82F5832206
:0E410900AA83E58290091DF0A3EAF090091F39
:064117007401F0E4A3F0C6
:0E411D0090091BE0FAA3E0FB4A606DEA30E077
:0E412B002C90091DE0FAA3E0FB90091FE0FCB8
:0E413900A3E0FD900968EAF0A3EBF08C828D04
:0E414700831248C2E5828583F090091FF0A321
:03415500E5F0F0A2
:0E41580090091BE0FAA3E0FBA2E713CA13CA0A
:0E416600FB90091BEAF0A3EBF090091DE0FAB4
:0E417400A3E0FB900968EAF0A3EBF08A828BCF
:0E418200831248C2E5828583F090091DF0A3E8
:05419000E5F0F080885D
:0C41950090091FE0FAA3E08A82F5832263
:0E41A100AA82AB83ACF0FD900925EAF0A3EBF7
:0E41AF00F0A3ECF0A3EDF0900925E0FAA3E0F8
:0E41BD00FBA3E0FCA3E0FD30E70FC3E49AFE95
:0B41CB00E49BFFE49CF8E49DF98008F1
:0841D6008A068B078C008D01A5
:0E41DE008E028F0388048905900921E0FEA35C
:0E41EC00E0FFA3E0F8A3E0F930E713C3E49E80
:0941FA00F522E49FF523E498F599
:0742030024E499F525800871
:05420A008E228F2388C5
:03420F00248925DA
:08421200900932E522F0A3E55A
:08421A0023F0A3E524F0A3E565
:0C42220025F08A828B838CF0ED12432A79
:0E422E00AA82AB83ACF0FD900925E0FEA3E070
:0E423C00FFA3E0F8A3E0F930E714C3E49AFE14
:0E424A00E49BFFE49CF8E49DF98E828F83884C
:02425800F02252
:08425A008A828B838CF0ED22B7
:0E426200AA83E58290092BF0A3EAF090092BC5
:0C427000E0FAA3E0FB4A7004900000227A
:0E427C00EA24FCFAEB34FFFB900957E0FCA3A8
:0E428A00E0FD90092DECF0A3EDF0900929E481
:03429800F0A3F0A0
:0E429B0090092DE0FCA3E0FD4C6025EAB5047F
:0742A90006EBB50502801BC6
:0E42B000900929ECF0A3EDF08C828D83E0FCE8
:0D42BE00A3E0FD90092DECF0A3EDF080D001
:0C42CB0090092DE0FAA3E08A82F583221E
:0E42D700AAF0AB83E58290092FF0A3EBF0A3D1
:0E42E500EAF090092FE0FAA3E0FBA3E0FC8AC8
:0E42F300828B83124262AA82AB83EA4B602860
:0E430100900929E0FCA3E0FD4C700B8A828B32
:08430F0083A3A3E4F0A3F02254
:0E4317008A828B83E0FAA3E0FB8C828D83EA1E
:04432500F0A3EBF026
:014329002271
:0E432A00AA82AB83ACF0FD900936EAF0A3EB5B
:0D433800F0A3ECF0A3EDF090093AE4F09052
:0E4345000936E0FAA3E0FBA3E0FCA3E0FD7E56
:014353000069
:09435400900932E0F530A3E0F518
:08435D0031A3E0F532A3E0F505
:0A43650033E533235401FF7078C0E4
:0A436F0006E53025E0FFE53133F8E4
:09437900E53233F9E53333FE901F
:0E4382000932EFF0A3E8F0A3E9F0A3EEF0900B
:084390000932E0F530A3E0F56D
:0843980031A3E0F532A3E0F5CA
:0743A00033C3EA9530EB95F1
:0643A70031EC9532ED95AA
:0A43AD0033E433D0066029E533C382
:0743B70013F533E53213F5A5
:0543BE0032E53113F5AA
:0543C30031E53013F5A7
:0543C80030900932E510
:0843CD0030F0A3E531F0A3E597
:0843D50032F0A3E533F080098A
:0943DD000E90093AEEF00243547F
:0543E60090093AE0FA25
:0E43EB00900936E0FBA3E0FCA3E0FDA3E0FE9A
:0943F900900932E0F530A3E0F573
:0844020031A3E0F532A3E0F55F
:07440A0033C3EB9530EC9584
:0644110031ED9532EE953D
:09441700334017900936EBC39500
:0944200030F0EC9531A3F0ED95AC
:0844290032A3F0EE9533A3F07D
:0E443100900932E0FBA3E0FCA3E0FDA3E0FE57
:0D443F00C313FEED13FDEC13FCEB13FB901B
:0E444C000932F0A3ECF0A3EDF0A3EEF08A032A
:0E445A001AEB708D900936E0FAA3E0FBA3E0A8
:0B446800FCA3E0FD8A828B838CF02215
:0E447300AA82AB83ACF0FD90093FEAF0A3EB08
:0E448100F0A3ECF0A3EDF090093FE0FAA3E009
:0E448F00FBA3E0FCA3E0FD30E70FC3E49AFEC0
:0B449D00E49BFFE49CF8E49DF980081C
:0844A8008A068B078C008D01D0
:0E44B0008E028F038804890590093BE0FEA36D
:0C44BE00E0FFA3E0F8A3E0F933E433F5DD
:0944CA0026E5266013C3E49EF50B
:0844D30027E49FF528E498F5A9
:0744DB0029E499F52A80088D
:0544E2008E278F2888E1
:0344E70029892AF6
:0844EA00900943E527F0A3E56A
:0844F20028F0A3E529F0A3E581
:0C44FA002AF08A828B838CF0ED12453E84
:0E450600AA82AB83ACF0FD90093FE0FEA3E07B
:0C451400FFA3E0F8A3E0F933E4336526D0
:0E4520006014C3E49AFEE49BFFE49CF8E49D63
:08452E00F98E828F8388F022D0
:084536008A828B838CF0ED22D8
:0E453E00AA82AB83ACF0FD900947EAF0A3EB34
:0E454C00F0A3ECF0A3EDF090094BE4F0A3F027
:0E455A00A3F0A3F0900943E0FAA3E0FBA3E076
:07456800FCA3E0FD7530200B
:0E456F00900947E0FFA3E0F8A3E0F9A3E0FE07
:0C457D00339200EF2FFFE833F8E933F928
:0E458900EE33FE900947EFF0A3E8F0A3E9F04F
:0E459700A3EEF090094BE0FEA3E0FFA3E0F8D6
:0E45A500A3E0F9EE2EFEEF33FFE833F8E93322
:0E45B300F990094BEEF0A3EFF0A3E8F0A3E9B6
:0C45C100F030001E90094BE0FFA3E0F872
:0E45CD00A3E0F9A3E0FE90094B74014FF0A3A8
:0845DB00E8F0A3E9F0A3EEF003
:0E45E30090094BE0FEA3E0FFA3E0F8A3E0F98F
:0E45F100C3EE9AEF9BE89CE99D403190094B88
:0E45FF00EEC39AF0EF9BA3F0E89CA3F0E99DB9
:0E460D00A3F0900947E0FEA3E0FFA3E0F8A3AE
:0E461B00E0F990094774014EF0A3EFF0A3E818
:04462900F0A3E9F021
:05462D00D530028003FE
:0346320002456FCF
:0E463500900947E0FAA3E0FBA3E0FCA3E0FD40
:074643008A828B838CF022B8
:06303200E478FFF6D8FD72
:0E464A00AAF0AB83E582900954F0A3EBF0A335
:0B465800EAF0900954E0F533A3E0F510
:0646630034A3E0F53590E0
:0C466900094FE0FDA3E0FEA3E0FF853355
:0346750030853459
:0346780031853554
:09467B0032900952E0F8A3E0F9C5
:094684008802890318B8FF01192E
:0E468D00EA4B60258D828E838FF01253FAFA6D
:0A469B00A3AD82AE83853082853125
:0B46A500838532F0EA12487DA3858275
:0646B0003085833180CE4D
:0746B6008533828534838502
:0346BD0035F022B3
:083010007902E94400601B7A1B
:053018000190569B78B9
:03301D00AB75A0F0
:0A30200009E493F2A308B8000205CA
:08302A00A0D9F4DAF275A0FF51
:0E46C000AA83E58290095BF0A3EAF090095B03
:0E46CE00E0FAA3E0FB90095DEAF0A3EBF0EA4E
:0E46DC004B702090095D74012AF0E43BA3F0BE
:0D46EA00900959E0FAA3E0FB1ABAFF011B8A
:0846F700900959EAF0A3EBF071
:0E46FF0090095DE0FAA3E0FB900957EAF0A3F2
:0E470D00EBF0900959E0FCA3E0FDEC2AFCED76
:0E471B003BFDEC24FEFCED34FFFD8A828B8317
:0E472900ECF0A3EDF08C828D83E4F0A3F08A17
:0A473700828B83A3A3E4F0A3F02219
:0E474100AA83E58290095FF0A3EAF090095F79
:0E474F00E0FAA3E0FBC374FB9A74FF9B5004D6
:04475D0090000022A6
:0E47610090095F74042AF0E43BA3F09009571E
:0E476F00E0FAA3E0FB900961EAF0A3EBF09002
:08477D00095FE0F530A3E0F54F
:014785003102
:0E478600900961E0FCA3E0FD8C828D83E0FED3
:0E479400A3E0FF8E008F018C028D03E8C39A14
:0E47A200F8E99BF98C828D83A3A3E0FAA3E0D3
:0C47B000FBE8C39AF8E99BF9C3E89530D8
:0C47BC00E99531400D90096374042CF065
:0647C800E43DA3F0802394
:0E47CE00900961EEF0A3EFF0900961E0FAA30C
:0E47DC00E0FB8A828B83E0FAA3E0FB4A709C2C
:0747EA00900963E4F0A3F065
:0E47F100900963E0FAA3E0FB4A7003024871EE
:0E47FF00900961E0FAA3E0FB74022AFCE43B9F
:0E480D00FD8C828D83E0FEA3E0FF4E701390C1
:0E481B00095FE0F8A3E0F98C828D83E8F0A33A
:04482900E9F08044EE
:0E482D00EE2AFEEF3BFF8A828B83E0FCA3E0C5
:0E483B00FD8E828F83ECF0A3EDF08A828B83DA
:0D484900EEF0A3EFF074022EFAE43FFB90B6
:0E485600095FE0FCA3E0FD8A828B83ECF0A3F7
:0D486400EDF090096374042EF0E43FA3F022
:0C487100900963E0FAA3E08A82F583223C
:0E487D0020F71030F6118883A88220F507F688
:05488B00A88375830005
:014890002205
:03489100F280F7BB
:02489400F02210
:0E489600AA83E582900966F0A3EAF090096615
:0E48A400E0FAA3E0FB33B3E433FC60068A04C1
:0448B2008B058007EB
:0748B600C3E49AFCE49BFD42
:0548BD008C828D8322B6
:0E48C200AA83AB828BF0900968E0A4F8A9F0FD
:0E48D0008AF0E0A429F98BF0A3E0A429F58377
:0448DE008882222288
:0E48E200AA83E58290096CF0A3EAF090096CBD
:0E48F000E0FAA3E0FB30E709C3E49AFCE49B86
:0348FE00FD800436
:044901008A048B0594
:0E4905008C028D0390096AE0FCA3E0FD30E710
:0A49130009C3E49CFEE49DFF80044C
:04491D008C068D0770
:0D49210090096EEEF0A3EFF08A828B8312F6
:0E492E004950AA82AB8390096CE0FCA3E0FD27
:0E493C0030E70CC3E49AFCE49BFD8C828D8373
:01494A00224A
:05494B008A828B83222B
:0E495000AA83E582900970F0A3EAF090097244
:0C495E00E4F0900970E0FAA3E0FB7C009C
:0E496A0090096EE0FDA3E0FE235401FF7037BC
:0E497800EECD25E0CD33FE90096EEDF0A3EEFE
:0E498600F090096EE0FDA3E0FEC3EA9DEB9EFB
:0E4994005011EEC313CD13CDFE90096EEDF061
:0549A200A3EEF0800807
:0849A7000C900972ECF080BBDA
:0549AF00900972E0FA1E
:0E49B400900970E0FBA3E0FC90096EE0FDA30B
:0E49C200E0FEC3EB9DEC9E400B900970EBC332
:0649D0009DF0EC9EA3F037
:0E49D60090096EE0FBA3E0FCC313CB13CBFCF7
:0E49E40090096EEBF0A3ECF08A031AEB70C2A0
:0C49F200900970E0FAA3E08A82F58322AD
:0E49FE00AA83E582900975F0A3EAF09009758E
:0E4A0C00E0FAA3E0FB30E709C3E49AFCE49B68
:034A1A00FD800418
:044A1D008A048B0577
:0E4A21008C028D03900973E0FCA3E0FD33E4EA
:0D4A2F0033FE6009C3E49CFFE49DF88004A1
:044A3C008C078D0056
:0E4A4000900977EFF0A3E8F08A828B83C0061E
:0E4A4E00124A76AA82AB83D006900975E0FC6E
:0E4A5C00A3E0FD33E4336E600CC3E49AFCE487
:074A6A009BFD8C828D83226D
:054A71008A828B832204
:083038007800E84400600A7909
:033040000075A078
:0630430000E4F309D8FCD3
:0830490078ABE84409600C7942
:0B3051000A900000E4F0A3D8FCD9FABC
:0E4A7600AA83E582900979F0A3EAF090097B0B
:0E4A8400E4F0A3F0900977E0FAA3E0FB7C10C9
:0C4A9200900979E0FDA3E0FE339201EEF4
:0E4A9E00CD25E0CD33FE900979EDF0A3EEF0CA
:0E4AAC0090097BE0FDA3E0FECD25E0CD33FEBA
:0C4ABA0090097BEDF0A3EEF030011290AB
:0E4AC600097BE0FDA3E0FE90097B74014DF03A
:034AD400A3EEF05E
:0E4AD70090097BE0FDA3E0FEC3ED9AEE9B404C
:0D4AE5001D90097BEDC39AF0EE9BA3F090AD
:0E4AF2000979E0FDA3E0FE90097974014DF012
:034B0000A3EEF031
:0E4B0300DC8D900979E0FAA3E08A82F5832226
:084B1100C01D85811DAA82125E
:054B19003E8ED01D22BC
:0E4B1E00AAF0AB83E58290097EF0A3EBF0A332
:0E4B2C00EAF090097EE0FAA3E0FBA3E0FC9023
:0E4B3A00097DE0FD900991E4F0A3F0A3F09056
:0E4B48000994EAF0A3EBF0A3ECF0900997EDCE
:074B5600F0904B11024C76B8
:064B5D00C01D85811DE56D
:0C4B63001D24FBFA900991E4F0A3F0A3DC
:0C4B6F00F0E51D24FBF8900994E6F00826
:0D4B7B00A3E6F008A3E6F0900997EAF09099
:0A4B88004B11124C76AA82AB83D0C9
:024B92001D22E2
:0C4B9400E58290098DF090098DE0FA9008
:0E4BA0000983E0C0E0A3E0C0E0A3E0C0E07441
:084BAE00C2C0E0744BC0E090AE
:0C4BB6000981E0C0E0A3E0C0E08A822298
:0E4BC20015811581158190098BE0FAA3E0FBA7
:0C4BD00090098B74012AF0E43BA3F02252
:0E4BDC00E58290098EF090098EE0FA74302A7E
:0C4BEA00FA24C6500A74072AFA300203AD
:034BF60043022057
:054BF9008A82024B94CA
:0E4BFE00E58290098FF090098FE0FAC4540F01
:0E4C0C00FBF582C002124BDCD00253020F8A6D
:044C1A0082024BDCEB
:0E4C1E00E582900990F0900986E0FAA3E0FB91
:0E4C2C00A3E0FCA3E0FD90098AE0FE90099051
:044C3A00E0FF7820FF
:0E4C3E00EE2EFEED235401F94206EA2AFAEBAF
:0E4C4C0033FBEC33FCED33FDC3EE9F4007EE6F
:064C5A00C39FFE430201AE
:0E4C6000D8DC900986EAF0A3EBF0A3ECF0A3F9
:084C6E00EDF090098AEEF0223E
:0E4C7600AA83E582900998F0A3EAF0900998CD
:0E4C8400E0FAA3E0FB900981EAF0A3EBF090C8
:0E4C92000991E0FAA3E0FBA3E0FC900983EA9D
:0E4CA000F0A3EBF0A3ECF090098BE4F0A3F08E
:0E4CAE00900994E0FAA3E0FBA3E0FC8A828B5D
:0E4CBC00838CF01253FAFD90099474012AF0D3
:0D4CCA00E43BA3F0A3ECF0ED700302539B5C
:054CD700BD2502800371
:034CDC00025393ED
:054CDF00C203C204C283
:044CE40005C206C23D
:044CE80007C208C235
:044CEC0009C20A905F
:094CF000099AE4F090099BF09090
:0E4CF900099CF0900994E0FAA3E0FBA3E0FC14
:0E4D07008A828B838CF01253FAFEA3AA82AB31
:0D4D150083900994EAF0A3EBF0A3ECF0907A
:0D4D2200099EEEF0BE25088E82124B940211
:024D2F004CAE88
:054D31008E07BF3000F9
:0E4D3600404A8E07EF24C6404390099CE0FFE0
:044D44006002802960
:0E4D4800C002C003C00490099BE0FA75F00A97
:0E4D5600A4FAEE24D090099B2AF090099BE06D
:0C4D6400FAD004D003D002709AD2048070
:014D700096AC
:0E4D7100EF75F00AA4FFEE24D090099C2FF0FD
:034D7F00024D07DB
:0E4D820090099EE0FEBE2E0890099CE4F0020F
:024D90004D07CD
:0E4D92008E82C002C003C004C00612541AE58F
:0C4DA0008224FF9202D006D004D003D081
:094DAC000230020590099EE4F0BA
:0A4DB50090099EE0FEBE200280552A
:054DBF00BE2B02804B39
:054DC400BE2D0280413C
:054DC900BE4202804B18
:054DCE00BE430280500D
:064DD300BE44030250087B
:064DD900BE460302502A51
:064DDF00BE49030250086A
:054DE500BE4C02803409
:064DEA00BE4F030250124F
:064DF000BE5003024F6AF1
:054DF600BE53028042E3
:064DFB00BE550302501A30
:064E0100BE58030250221E
:034E070002502E28
:054E0A00D203024D0778
:054E0F00D205024D0771
:054E1400D206024D076B
:054E1900D208024D0764
:054E1E00D209024D075E
:0E4E2300900997E0FA24FEF8900997F08602B5
:0C4E3100088603188A82124B9402503A43
:0E4E3D00900997E0FA24FDF8900997F086029C
:0E4E4B000886030886041818900986EAF0A36A
:0E4E5900EBF0A3ECF0900986E0FAA3E0FBA3D7
:0E4E6700E0FC8A828B838CF01253A7AA82ABE8
:0A4E75008390099CE0FB60028005B9
:054E7F0090099CEAF01F
:0C4E840020033890099BE0FBC3EA9B5020
:0D4E90002E90099BEBC39AF090099BE0FB6C
:0D4E9D008B041B90099BEBF0BC0002801001
:0E4EAA00758220C002C003124B94D003D002C8
:024EB80080E395
:054EBA0090099BEBF0E4
:054EBF0090099CE0FDDC
:0E4EC400C002900986E0FCA3E0FFA3E0FA8C98
:0E4ED200828F838AF01253FAD00260538D044F
:0E4EE0001DC374808CF063F08095F05044C0C8
:0A4EEE0002900986E0F52BA3E0F521
:084EF8002CA3E0F52D74012547
:074F00002BFBE4352CFAAC99
:0C4F07002D900986EBF0A3EAF0A3ECF07B
:074F1300852B82852C8385AC
:0C4F1A002DF01253FAFAF582C002C00517
:0B4F2600124B94D005D002D002809303
:064F310020030302503AC8
:0D4F370090099BE0FBC3EA9B400302503A47
:0C4F440090099BEBC39AF090099BE0FAE7
:0E4F50008A031A90099BEAF0BB000302503559
:0C4F5E00758220C002124B94D00280E645
:0E4F6A00900997E0FB24FDF8900997F086036C
:0E4F78000886040886071818900986EBF0A337
:0E4F8600ECF0A3EFF0900988E0FB247F5008C8
:084F940090099E7443F0802097
:0D4F9C00EB249F500890099E7450F0801384
:0D4FA900EB24BF500890099E7449F080066B
:064FB60090099E7458F002
:0E4FBC0090099EE0FBF582C003124B94D003D7
:0E4FCA0075823AC003124B94D003758230C03A
:0E4FD80003124B94D003758278C003124B94E1
:074FE600D003BB4902800F5C
:054FED00BB5002800A28
:0A4FF200900987E0FBF582124BFEE8
:0C4FFC00900986E0FBF582124BFE80322B
:0A500800D20790099A740AF080287C
:0850120090099A7408F0802057
:08501A0090099A740AF0801855
:0850220090099A7410F080104F
:04502A00D20A800C1A
:07502E008E82124B948005F5
:0550350090099BEAF068
:0C503A00300A6B900997E0FA24FCF89013
:0E5046000997F086020886030886040886068D
:0E505400181818900986EAF0A3EBF0A3ECF010
:0B506200A3EEF09009867490F0A37498
:06506D0056F0A37480F070
:0E507300900986E0FBA3E0FCA3E0FD74012B96
:0E508100FEE43CFF8D02900986EEF0A3EFF0F6
:0E508F00A3EAF08B828C838DF01253FAFA7034
:04509D0003024CAE10
:0750A1008A82124B9480CBC0
:0B50A80090099AE0FABA0003024CAE37
:0850B3009009A574A4F0A37498
:0650BB0009F030084C90E2
:0E50C1000997E0FA14F8900997F08602EA3396
:0E50CF0095E0FBFCFE900986EAF0A3EBF0A34F
:0B50DD00ECF0A3EEF03007030251825C
:0E50E800900986E0FAA3E0FBA3E0FCA3E0FE43
:0E50F6007B007C007E00900986EAF0A3EBF0C0
:08510400A3ECF0A3EEF08076AD
:0C510C0030092A900997E0FA24FCF89082
:0E5118000997F08602088603088604088606BA
:0E512600181818900986EAF0A3EBF0A3ECF03D
:05513400A3EEF080492C
:0E513900900997E0FA24FEF8900997F086029C
:0E51470008860318EB3395E0FCFE900986EA1B
:0C515500F0A3EBF0A3ECF0A3EEF02007B9
:0E51610020900986E0FAA3E0FBA3E0FCA3E0A7
:0E516F00FE7C007E00900986EAF0A3EBF0A320
:05517D00ECF0A3EEF0D0
:0C51820030073E900986E0FAA3E0FBA392
:0E518E00E0FCA3E0FE30E72B900986E0FAA3D8
:0E519C00E0FBA3E0FCA3E0FEC3E49AFAE49B70
:0E51AA00FBE49CFCE49EFE900986EAF0A3EB79
:0951B800F0A3ECF0A3EEF080027C
:0251C100C20723
:0851C300D20B90099AE0FC7583
:0351CB002EA4759A
:0451CE002F097D0028
:0E51D20090098AE4F08C82C004C005124C1EC5
:0C51E000D005D004200B32C00490098AD6
:0A51EC00E0FFC4FF852E82852F83AB
:0A51F600E0FA4207852E82852F8320
:0A520000EFF0152E74FFB52E021515
:01520A002F74
:08520B009009A5E52EF0A3E5D2
:065213002FF0D004800C16
:0952190090098AE0FF852E8285D0
:035222002F83F0E7
:095225000D90099DEDF0B20B9013
:0E522E000986E0FFA3E0FAA3E0FEA3E0FBEF99
:0C523C004A4E4B70919009A5E52EF0A39E
:09524800E52FF090099DEDF090B6
:0C525100099BE0FA700690099B7401F0C4
:0A525D0020042720032474012DFA19
:0552670090099BE0FB33
:0D526C00C3EA9B5011758220C002C00312DE
:095279004B94D003D0021B80EA23
:0552820090099BEBF018
:0A52870030071275822D124B94902F
:0B529100099BE0FA1490099BF0802FAD
:0C529C0090099DE0FA6028300512758230
:0B52A8002B124B9490099BE0FA14902D
:0552B300099BF08013CF
:0A52B800300610758220124B94900E
:0952C200099BE0FA1490099BF02D
:0952CB0020032F90099DE0FA90E8
:0452D400099BE0FB57
:0E52D8008B041B90099BEBF0C3EA9C50363010
:0652E60004047C3080028C
:0252EC007C2024
:0E52EE008C82C002C003124B94D003D0028009
:0152FC00DBD6
:0E52FD0090099BE0FA90099DE0FCC39A5009CD
:09530B0090099BEAC39CF0800CA0
:0753140090099BE4F0800505
:05531B0090099BEBF07E
:0D5320009009A5E0FAA3E0FB90099DE0FCD8
:0A532D008C061CEE6040B20B200B52
:06533700150ABA00010B8B
:0E533D008A828B83E0FEC4540FFE90098AF032
:02534B00800ED2
:0E534D008A828B83E0FE53060F90098AEEF0F1
:0E535B0090098AE0FEF582C002C003C0041271
:0A5369004BDCD004D003D00280BA60
:06537300200303024CAE12
:0553790090099BE0FA21
:09537E008A031AEB7003024CAE25
:0C538700758220C002124B94D00280EB13
:085393008D82124B94024CAE16
:0C539B0090098BE0FAA3E08A82F58322DF
:0B5690003C4E4F20464C4F41543E0062
:0E53A700AAF0AB83E5829009A7F0A3EBF0A378
:0E53B500EAF07A007B009009A7E0FCA3E0FD7F
:0353C300A3E0FE66
:0E53C6008C828D838EF01253FAFFA3AC82AD61
:0E53D400839009A7ECF0A3EDF0A3EEF0EF60DC
:0853E200070ABA00DF0B80DCB2
:0E53EA009009A7ECF0A3EDF0A3EEF08A828B01
:0253F80083220E
:033003007581359F
:0A300600125416E582600302317BCC
:0E53FA0020F71430F6148883A88220F507E609
:06540800A8837583002259
:03540E00E280F742
:03541100E49322FF
:02541400E02294
:045416007582002279
:0E541A00E5829009AAF09009AAE0FABA6100B2
:0B5428004009EA24854004758201223F
:04543300758200225C
:00000001FF
