:0E305F003098FDAA99C2988A82C002123138B8
:05306D00D0028A82225E
:0E30720090102574A0F0A3740FF090000002DF
:02308000315AC3
:0330000002300398
:03305C00023082BD
:0530820012308780FE02
:0A308700743DC0E0743CC0E07480AA
:0C309100C0E012336315811581158174B5
:0A309D004BC0E0743CC0E07480C03A
:0E30A700E0123363158115811581901020E42D
:0730B500F0A3F07A007B009C
:0E30BC00C3EA947FEB648094805038C002C059
:0E30CA000312305FAC82D003D002BC0A028039
:0130D80003F4
:0330D900BC0D0823
:0830DC0075820A123138801BD5
:0A30E400EA24A0F582EB340FF58317
:0730EE00ECF00ABA00010B2F
:0A30F500901020EAF0A3EBF080BD7C
:0C30FF00901020E0FAA3E0FBEA24A0F50A
:0A310B0082EB340FF583E4F074A0AA
:0A311500C0E0740FC0E0E4C0E074F5
:0A311F0078C0E0743CC0E07480C08A
:0A312900E0123363E58124FAF5811A
:0231330080FE1C
:03313500023072F3
:0E3C3D0048692C2077656C636F6D65210A0065
:0E3C4B00456E746572206120737472696E6735
:0E3C590020287472756E636174657320616655
:0E3C67007465722031323820636861727329EF
:033C75003A2000F2
:0E3C7800596F7520656E746572656420257342
:033C8600210A0010
:0E313800E582901022F0901022E0FABA0A0808
:0531460010990280FB5E
:03314B0075990D66
:05314E0010990280FB56
:07315300901022E0F5992223
:06303200E478FFF6D8FD72
:083010007900E94400601B7A1D
:0530180000903C9478DB
:03301D005F75A03C
:0A30200010E493F2A308B8000205C3
:08302A00A0D9F4DAF275A0FF51
:0E315A00AA83E582901027F0A3EAF0901027D8
:0E316800E0FAA3E0FB901029EAF0A3EBF0EAF6
:0E3176004B702090102974012AF0E43BA3F066
:0D318400901025E0FAA3E0FB1ABAFF011B32
:08319100901025EAF0A3EBF019
:0E319900901029E0FAA3E0FB901023EAF0A3C7
:0E31A700EBF0901025E0FCA3E0FDEC2AFCED1F
:0E31B5003BFDEC24FEFCED34FFFD8A828B8393
:0E31C300ECF0A3EDF08C828D83E4F0A3F08A93
:0A31D100828B83A3A3E4F0A3F02295
:0E31DB00AA83E58290102BF0A3EAF090102B4F
:0E31E900E0FAA3E0FBC374FB9A74FF9B500452
:0431F7009000002222
:0E31FB0090102B74042AF0E43BA3F0901023F4
:0E320900E0FAA3E0FB90102DEAF0A3EBF090AA
:08321700102BE0F50EA3E0F519
:01321F000F9F
:0E32200090102DE0FCA3E0FD8C828D83E0FE7B
:0E322E00A3E0FF8E008F018C028D03E8C39A8F
:0E323C00F8E99BF98C828D83A3A3E0FAA3E04E
:0C324A00FBE8C39AF8E99BF9C3E8950E75
:0C325600E9950F400D90102F74042CF02F
:06326200E43DA3F080230F
:0E32680090102DEEF0A3EFF090102DE0FAA3E1
:0E327600E0FB8A828B83E0FAA3E0FB4A709CA7
:0732840090102FE4F0A3F00D
:0E328B0090102FE0FAA3E0FB4A700302330B11
:0E32990090102DE0FAA3E0FB74022AFCE43B47
:0E32A700FD8C828D83E0FEA3E0FF4E7013903D
:0E32B500102BE0F8A3E0F98C828D83E8F0A3E3
:0432C300E9F080446A
:0E32C700EE2AFEEF3BFF8A828B83E0FCA3E041
:0E32D500FD8E828F83ECF0A3EDF08A828B8356
:0D32E300EEF0A3EFF074022EFAE43FFB9032
:0E32F000102BE0FCA3E0FD8A828B83ECF0A3A0
:0D32FE00EDF090102F74042EF0E43FA3F0CB
:0C330B0090102FE0FAA3E08A82F58322E4
:083038007800E84400600A7909
:033040000075A078
:0630430000E4F309D8FCD3
:08304900785FE84410600C7987
:0B30510011900000E4F0A3D8FCD9FAB5
:08331700C00D85810DAA821290
:05331F003138D00D2241
:0E332400AAF0AB83E582901032F0A3EBF0A389
:0E333200EAF0901032E0FAA3E0FBA3E0FC907A
:0E3340001031E0FD901045E4F0A3F0A3F090F2
:0E334E001048EAF0A3EBF0A3ECF090104BED6A
:07335C00F090331702347CEE
:06336300C00D85810DE59F
:0C3369000D24FBFA901045E4F0A3F0A343
:0C337500F0E50D24FBF8901048E6F0088D
:0D338100A3E6F008A3E6F090104BEAF090F0
:0A338E00331712347CAA82AB83D0FF
:023398000D2204
:0C339A00E582901041F0901041E0FA90A4
:0E33A6001037E0C0E0A3E0C0E0A3E0C0E07498
:0833B400C8C0E07433C0E090D2
:0C33BC001035E0C0E0A3E0C0E08A8222EF
:0E33C80015811581158190103FE0FAA3E0FBFE
:0C33D60090103F74012AF0E43BA3F022A9
:0E33E200E582901042F0901042E0FA74302A1A
:0C33F000FA24C6500A74072AFA300003C1
:0333FC0043022069
:0533FF008A8202339AEE
:0E340400E582901043F0901043E0FAC4540F9C
:0E341200FBF582C0021233E2D00253020F8A91
:04342000820233E20F
:0E342400E582901044F090103AE0FAA3E0FB2D
:0E343200A3E0FCA3E0FD90103EE0FE901044ED
:04344000E0FF782011
:0E344400EE2EFEED235401F94206EA2AFAEBC1
:0E34520033FBEC33FCED33FDC3EE9F4007EE81
:06346000C39FFE430201C0
:0E346600D8DC90103AEAF0A3EBF0A3ECF0A350
:08347400EDF090103EEEF02295
:0E347C00AA83E58290104CF0A3EAF090104C69
:0E348A00E0FAA3E0FB901035EAF0A3EBF0901F
:0E3498001045E0FAA3E0FBA3E0FC901037EA39
:0E34A600F0A3EBF0A3ECF090103FE4F0A3F0E5
:0E34B400901048E0FAA3E0FBA3E0FC8A828BB4
:0E34C200838CF0123C00FD90104874012AF03B
:0D34D000E43BA3F0A3ECF0ED7003023BA180
:0534DD00BD2502800383
:0334E200023B9911
:0534E500C201C202C299
:0434EA0003C204C253
:0434EE0005C206C24B
:0434F20007C2089075
:0934F600104EE4F090104FF0902C
:0E34FF001050F0901048E0FAA3E0FBA3E0FCB0
:0E350D008A828B838CF0123C00FEA3AA82AB54
:0D351B0083901048EAF0A3EBF0A3ECF090D1
:0D3528001052EEF0BE25088E8212339A027A
:0235350034B4AC
:053537008E07BF30000B
:0E353C00404A8E07EF24C64043901050E0FF37
:04354A006002802972
:0E354E00C002C003C00490104FE0FA75F00AEE
:0E355C00A4FAEE24D090104F2AF090104FE009
:0C356A00FAD004D003D002709AD2028084
:0135760096BE
:0E357700EF75F00AA4FFEE24D09010502FF054
:0335850002350DFF
:0E358800901052E0FEBE2E08901050E4F002AB
:02359600350DF1
:0E3598008E82C002C003C004C006123C20E5B3
:0C35A6008224FF9200D006D004D003D095
:0935B20002300005901052E4F013
:0A35BB00901052E0FEBE2002805581
:0535C500BE2B02804B4B
:0535CA00BE2D0280414E
:0535CF00BE4202804B2A
:0535D400BE430280501F
:0635D900BE440302380E9F
:0635DF00BE460302383075
:0635E500BE490302380E8E
:0535EB00BE4C0280341B
:0635F000BE4F0302381873
:0635F600BE500302377015
:0535FC00BE53028042F5
:06360100BE550302382053
:06360700BE580302382842
:03360D000238344C
:05361000D20102350D9E
:05361500D20302350D97
:05361A00D20402350D91
:05361F00D20602350D8A
:05362400D20702350D84
:0E36290090104BE0FA24FEF890104BF0860251
:0C363700088603188A8212339A02384079
:0E36430090104BE0FA24FDF890104BF0860238
:0E365100088603088604181890103AEAF0A3C1
:0E365F00EBF0A3ECF090103AE0FAA3E0FBA32E
:0E366D00E0FC8A828B838CF0123BADAA82AB0C
:0A367B0083901050E0FB6002800510
:05368500901050EAF076
:0C368A0020013890104FE0FBC3EA9B5079
:0D3696002E90104FEBC39AF090104FE0FB08
:0D36A3008B041B90104FEBF0BC0002801058
:0E36B000758220C002C00312339AD003D002EC
:0236BE0080E3A7
:0536C00090104FEBF03B
:0536C500901050E0FD33
:0E36CA00C00290103AE0FCA3E0FFA3E0FA8CEF
:0E36D800828F838AF0123C00D00260538D0472
:0E36E6001DC374808CF063F08095F05044C0DA
:0A36F4000290103AE0F508A3E0F59B
:0836FE0009A3E0F50A7401259F
:0737060008FBE43509FAACF1
:0C370D000A90103AEBF0A3EAF0A3ECF0F5
:073719008508828509838504
:0C3720000AF0123C00FAF582C002C0055D
:0B372C0012339AD005D002D002809327
:06373700200103023840EE
:0D373D0090104FE0FBC3EA9B4003023840B0
:0C374A0090104FEBC39AF090104FE0FA83
:0E3756008A031A90104FEAF0BB000302383BC2
:0C376400758220C00212339AD00280E669
:0E37700090104BE0FB24FDF890104BF0860308
:0E377E00088604088607181890103AEBF0A38E
:0E378C00ECF0A3EFF090103CE0FB247F50081F
:08379A009010527443F08020EE
:0D37A200EB249F50089010527450F08013DB
:0D37AF00EB24BF50089010527449F08006C2
:0637BC009010527458F059
:0E37C200901052E0FBF582C00312339AD00340
:0E37D00075823AC00312339AD003758230C05E
:0E37DE000312339AD003758278C00312339A17
:0737EC00D003BB4902800F6E
:0537F300BB5002800A3A
:0A37F80090103BE0FBF58212340450
:0C38020090103AE0FBF582123404803292
:0A380E00D20590104E740AF08028D5
:0838180090104E7408F08020AE
:0838200090104E740AF08018AC
:0838280090104E7410F08010A6
:04383000D208800C2E
:073834008E8212339A800519
:05383B0090104FEAF0BF
:0C38400030086B90104BE0FA24FCF8906C
:0E384C00104BF08602088603088604088606E4
:0E385A0018181890103AEAF0A3EBF0A3ECF067
:0B386800A3EEF090103A7489F0A374F6
:063873003CF0A37480F09C
:0E38790090103AE0FBA3E0FCA3E0FD74012BED
:0E388700FEE43CFF8D0290103AEEF0A3EFF04D
:0E389500A3EAF08B828C838DF0123C00FA7057
:0438A300030234B434
:0738A7008A8212339A80CBE4
:0B38AE0090104EE0FABA00030234B4A0
:0838B9009010597458F0A3743B
:0638C10010F030064C90EF
:0E38C700104BE0FA14F890104BF08602EA3332
:0E38D50095E0FBFCFE90103AEAF0A3EBF0A3A6
:0B38E300ECF0A3EEF030050302398882
:0E38EE0090103AE0FAA3E0FBA3E0FCA3E0FE9A
:0E38FC007B007C007E0090103AEAF0A3EBF017
:08390A00A3ECF0A3EEF08076BF
:0C39120030072A90104BE0FA24FCF890DB
:0E391E00104BF0860208860308860408860611
:0E392C0018181890103AEAF0A3EBF0A3ECF094
:05393A00A3EEF080493E
:0E393F0090104BE0FA24FEF890104BF0860238
:0E394D0008860318EB3395E0FCFE90103AEA72
:0C395B00F0A3EBF0A3ECF0A3EEF02005CD
:0E3967002090103AE0FAA3E0FBA3E0FCA3E0FE
:0E397500FE7C007E0090103AEAF0A3EBF0A377
:05398300ECF0A3EEF0E2
:0C39880030053E90103AE0FAA3E0FBA3EB
:0E399400E0FCA3E0FE30E72B90103AE0FAA32F
:0E39A200E0FBA3E0FCA3E0FEC3E49AFAE49B82
:0E39B000FBE49CFCE49EFE90103AEAF0A3EBD0
:0939BE00F0A3ECF0A3EEF080028E
:0239C700C20537
:0839C900D20990104EE0FC75DC
:0339D1000B58751B
:0439D4000C107D0056
:0E39D80090103EE4F08C82C004C0051234242E
:0C39E600D005D004200932C00490103E2F
:0A39F200E0FFC4FF850B82850C8303
:0A39FC00E0FA4207850B82850C8378
:0A3A0600EFF0150B74FFB50B02156D
:013A10000CA9
:083A1100901059E50BF0A3E54C
:063A19000CF0D004800C4B
:093A1F0090103EE0FF850B82854A
:033A28000C83F01C
:093A2B000D901051EDF0B209906C
:0E3A3400103AE0FFA3E0FAA3E0FEA3E0FBEFF0
:0C3A42004A4E4B7091901059E50BF0A318
:093A4E00E50CF0901051EDF09030
:0C3A5700104FE0FA700690104F7401F060
:0A3A630020022720012474012DFA2F
:053A6D0090104FE0FB8A
:0D3A7200C3EA9B5011758220C002C00312F0
:093A7F00339AD003D0021B80EA47
:053A880090104FEBF06F
:0A3A8D0030051275822D12339A9055
:0B3A9700104FE0FA1490104FF0802F49
:0C3AA200901051E0FA6028300312758289
:0B3AAE002B12339A90104FE0FA149096
:053AB900104FF0801326
:0A3ABE0030041075822012339A9034
:093AC800104FE0FA1490104FF0C9
:093AD10020012F901051E0FA9041
:043ADA00104FE0FBAE
:0E3ADE008B041B90104FEBF0C3EA9C50363067
:063AEC0002047C308002A0
:023AF2007C2036
:0E3AF4008C82C002C00312339AD003D002802D
:013B0200DBE7
:0E3B030090104FE0FA901051E0FCC39A500968
:093B110090104FEAC39CF0800CF7
:073B1A0090104FE4F080055C
:053B210090104FEBF0D5
:0D3B2600901059E0FAA3E0FB901051E0FC74
:0A3B33008C061CEE6040B209200968
:063B3D00150ABA00010B9D
:0E3B43008A828B83E0FEC4540FFE90103EF089
:023B5100800EE4
:0E3B53008A828B83E0FE53060F90103EEEF048
:0E3B610090103EE0FEF582C002C003C00412C8
:0A3B6F0033E2D004D003D00280BA84
:063B79002001030234B438
:053B7F0090104FE0FA78
:093B84008A031AEB70030234B449
:0C3B8D00758220C00212339AD00280EB37
:083B99008D8212339A0234B44C
:0C3BA10090103FE0FAA3E08A82F5832236
:0B3C89003C4E4F20464C4F41543E0083
:0E3BAD00AAF0AB83E58290105BF0A3EBF0A3CF
:0E3BBB00EAF07A007B0090105BE0FCA3E0FDD6
:033BC900A3E0FE78
:0E3BCC008C828D838EF0123C00FFA3AC82AD84
:0E3BDA008390105BECF0A3EDF0A3EEF0EF6033
:083BE800070ABA00DF0B80DCC4
:0E3BF00090105BECF0A3EDF0A3EEF08A828B58
:023BFE00832220
:03300300758121B3
:0A300600123C1CE5826003023082D8
:0E3C000020F71430F6148883A88220F507E61A
:063C0E00A883758300226B
:033C1400E280F754
:033C1700E4932211
:023C1A00E022A6
:043C1C00758200228B
:0E3C2000E58290105EF090105EE0FABA61004E
:0B3C2E004009EA248540047582012251
:043C3900758200226E
:00000001FF
