:0A305F003098FDAA99C2988A8222D7
:0E306900AAF0AB83E582900002F0A3EBF0A387
:0E307700EAF0900000E0FAA3E0FBC3E49A74D4
:0E308500808BF063F08095F04007900000759E
:03309300F0002228
:0C309600900005E4F0A3F0900002E0F5CB
:0830A20008A3E0F509A3E0F525
:0630AA000A1ABAFF011B27
:0430B0007F00780025
:0E30B400C3EF9AE864808BF063F08095F050D3
:0E30C2006DC002C003C007C00012305FA982BB
:0E30D000D000D007D003D0028982C002C00316
:0E30DE00C007C000C001123F51D001D000D089
:0A30EC0007D003D002B90A028003E6
:0330F600B90D0B06
:0B30F900B90D3475820A123F51802C83
:0A310400C002C003EF2508FAE83509
:0A310E0009FBAC0A8A828B838CF067
:09311800E91248B00FBF000108E4
:0D312100900005EFF0A3E8F0D003D002020B
:02312E0030B4BB
:0E313000900002E0FAA3E0FBA3E0FC90000593
:0E313E00E0FDA3E0FEED2AFDEE3BFE8C078DCA
:0E314C00828E838FF0E41248B08A828B838CCF
:02315A00F02261
:0E315C0090095A7440F0A37406F09000070228
:02316A0046F32A
:0330000002300398
:03305C0002316CD2
:05316C0012317180FE2C
:0E31710090084FE4F0A3F0900851E4F0A3F0B2
:0E317F00900853E4F0A3F09008557430F090DF
:0C318D0008567431F09008577432F0902E
:0C31990008587433F09008597434F0901A
:0C31A500085A7435F090085B7436F09006
:0C31B100085C7437F090085D7438F090F2
:0C31BD00085E7439F090085F7446F090D2
:0C31C90008607445F0900861744DF090AF
:0C31D50008627441F0123D617A007B003A
:0E31E100C3EB64809481501E8A04EBCC25E081
:0A31EF00CC33FDEC244FF582ED34E3
:0C31F90006F583E4F0A3F00ABA00DD0B39
:0232050080DA6D
:0E320700900853E0FAA3E0FBBA321FBB001C94
:0A321500746AC0E07454C0E07480D5
:0E321F00C0E0124B9015811581158190085367
:04322D00E4F0A3F036
:0A32310012305FAA82BA080280037F
:03323B0002330853
:0E323E00900851E0FBA3E0FCC3E49B74808C7D
:0D324C00F063F08095F050611BBBFF011C8A
:0E325900900851EBF0A3ECF090064BE0FBA3C5
:0E326700E0FC900851E0FDA3E0FEED2BF582A7
:0E327500EE3CF583E0FBC2D575F002EB30E7CE
:0532830004B2D5F404C3
:0E328800A430D50AF42401C5F0F43400C5F0DA
:0A329600244FFB740635F0FC8B8218
:0C32A0008C83E0FDA3E0FE1DBDFF011EBD
:0932AC008B828C83EDF0A3EEF09F
:0E32B500900853E0FBA3E0FCC3E49B74808C04
:0B32C300F063F08095F040030232073A
:0E32CE00758208C003C004123F51D004D00323
:0E32DC00758220C003C004123F51D004D003FD
:0E32EA00758208C003C004123F51D004D00307
:0532F8001BBBFF011CDF
:0B32FD00900853EBF0A3ECF002320746
:0E3308008A82C002123F51D00290084FE0FBB3
:0E331600A3E0FC90084F74012BF0E43CA3F000
:0E332400900853E0FBA3E0FC90085374012BCB
:0E333200F0E43CA3F0C2D575F002EA30E704E7
:04334000B2D5F4040A
:0E334400A430D50AF42401C5F0F43400C5F01D
:0A335200244FFB740635F0FC8B825B
:0C335C008C83E0FDA3E0FE0DBD00010E1F
:0E3368008B828C83EDF0A3EEF0C3EA648094B8
:0E337600B0400B74B98AF063F08095F05026D9
:0E338400C3EA648094E1400B74FA8AF063F0AF
:053392008095F05013CE
:0E339700C3EA648094C1406874DA8AF063F07F
:0533A5008095F0405D81
:0E33AA00C002900851E0FBA3E0FC900647E053
:0933B800F50BA3E0F50CA3E0F510
:0A33C1000DA3E0F50E8B01ECFA33CA
:0A33CB0095E0FDFEC3E9950BEA95BD
:0833D5000CED950DEE648085FE
:0C33DD000EF063F08095F0E433D0026045
:0E33E9001D90064BE0FDA3E0FEEB2DF582ECFF
:0E33F7003EF583EAF090085174012BF0E43C9F
:02340500A3F032
:05340700BA3F02800342
:03340C00023991F1
:0A340F00C002746FC0E07454C0E006
:0E3419007480C0E0124B90158115811581D092
:05342700027B347C0073
:0E342C0075822DC002C003C004123F51D004AF
:09343A00D003D0021BBBFF011CF2
:0E344300EB4C70E5C00275822BC002123F51A7
:0A345100D002C0027473C0E074548E
:0E345B00C0E07480C0E0124B90158115811501
:0E34690081D002900851E0FBA3E0FC9008EB3C
:0E347700740AF0E4A3F09008EDE4F0A3F08BEB
:0E348500828C83C002C003C004123DB6D00486
:0C349300D003D002C002C003C004747E4D
:0B349F00C0E07454C0E07480C0E01274
:0E34AA004B90158115811581D004D003D002FE
:0E34B800900647E0FDA3E0FEA3E0FFA3E0F8CE
:0E34C600EC3395E0F9FAEDC39BFDEE9CFEEFB2
:0E34D40099FFE89AF89008EB740AF0E4A3F070
:0E34E2009008EDE4F0A3F08D828E83C00212FC
:0B34F0003DB6D002C002749CC0E07426
:0C34FB0054C0E07480C0E0124B901581BA
:0E35070015811581D0029009157436F0E4A3E9
:0E351500F075827CC002123F73D002C00274B7
:0A352300A2C0E07454C0E07480C040
:0E352D00E0124B90158115811581D002C0026D
:0A353B0074A6C0E07454C0E0748070
:0E354500C0E0124B90158115811581D00290C7
:0E3553000647E0FAA3E0FBA3E0FCA3E0FD9036
:0E35610008EB740AF0E4A3F09008EDE4F0A388
:0E356F00F08A828B83C002123DB6D002C002E9
:0A357D0074B1C0E07454C0E0748023
:0E358700C0E0124B90158115811581D0029085
:0E359500064BE0FAA3E0FB9008EB7410F0E4A4
:0E35A300A3F09008ED7404F0E4A3F08A828B8C
:0E35B10083C002123DB6D0029009157436F0A8
:0E35BF00E4A3F075827CC002123F73D002C0FC
:0A35CD000274A2C0E07454C0E07460
:0E35D70080C0E0124B90158115811581D00245
:0A35E500C00274BCC0E07454C0E0E2
:0E35EF007480C0E0124B90158115811581D0BB
:0E35FD0002900647E0FAA3E0FBA3E0FCA3E087
:0E360B00FD9009447404F0E4A3F0A3F0A3F0D2
:0E3619008A828B838CF0ED12451CAA82AB8353
:0D362700ACF0FD9008EB740AF0E4A3F09005
:0D36340008EDE4F0A3F08A828B83C002123F
:0B3641003DB6D002C00274B1C0E074BE
:0C364C0054C0E07480C0E0124B90158167
:0E36580015811581D00290064DE0FAA3E0FB2B
:0E3666009008EB7410F0E4A3F09008ED7404EB
:0E367400F0E4A3F08A828B83C002123DB6D030
:0E368200029009157436F0E4A3F075827CC046
:0C36900002123F73D002C00274A2C0E01E
:0C369C007454C0E07480C0E0124B901524
:0D36A8008115811581D002D0027B007C00CD
:0E36B500C3EB940EEC64809480400302381145
:0E36C30090096B740AF0E4A3F08B828C83C034
:0E36D10002C003C004124915E5828583F0D0C3
:0E36DF0004D003D00245F0703C9009157436FB
:0E36ED00F0E4A3F075827CC002C003C004129A
:0E36FB003F73D004D003D002C002C003C0044D
:0A37090074A2C0E07454C0E07480A4
:0E371300C0E0124B90158115811581D004D0B5
:0337210003D002D0
:0A372400EB2455FDEC3408FE8D8205
:0E372E008E83E0FFF582C002C003C004C00518
:0E373C00C006123F51D006D005D004D003D0F5
:0E374A000275822DC002C003C004C005C00677
:0E375800123F51D006D005D004D003D0028D10
:0E376600828E83E0FFC2D575F002EF30E704DB
:04377400B2D5F404D2
:0E377800A430D50AF42401C5F0F43400C5F0E5
:0A378600244FF582740635F0F58338
:0E379000E0FFA3E0F89008EB740AF0E4A3F069
:0E379E009008EDE4F0A3F08F828883C002C093
:0E37AC0003C004C005C006123DB6D006D0050D
:0E37BA00D004D003D002758220C002C003C02C
:0E37C80004C005C006123F51D006D005D00443
:0E37D600D003D0028D828E83E0FDC2D575F047
:0937E40002ED30E704B2D5F40453
:0E37ED00A430D50AF42401C5F0F43400C5F070
:0A37FB00244FF582740635F0F583C3
:09380500E4F0A3F00BBB00010C80
:03380E000236B5CA
:0A381100C00274A2C0E07454C0E0CD
:0E381B007480C0E0124B90158115811581D08C
:0E382900029009157436F0E4A3F075827CC09D
:0C38370002123F73D002C00274C7C0E050
:0C3843007454C0E07480C0E0124B90157B
:0E384F008115811581D0029009157436F0E4C0
:0D385D00A3F075827CC002123F73D0029070
:0B386A000851E0FBA3E0FC7D007E00A5
:0E387500C3ED9BEE64808CF063F08095F04014
:0438830003023933D0
:0E38870090096B7432F0E4A3F08D828E83C042
:0E38950002C003C004C005C006124915E5823A
:0E38A3008583F0D006D005D004D003D00245B6
:0E38B100F0704C9009157436F0E4A3F07582A7
:0E38BF007CC002C003C004C005C006123F73E7
:0E38CD00D006D005D004D003D002C002C00344
:0B38DB00C004C005C00674A2C0E07469
:0C38E60054C0E07480C0E0124B901581CB
:0E38F20015811581D006D005D004D003D00278
:0E39000090064BE0FFA3E0F8ED2FF582EE38C5
:0E390E00F583E0FFF582C002C003C004C005CF
:0E391C00C006123F51D006D005D004D003D013
:06392A00020DBD00010EBC
:03393000023875E5
:0A393300C00274DDC0E07454C0E06F
:0E393D007480C0E0124B90158115811581D069
:05394B00027B347C004A
:0E39500075822DC002C003C004123F51D00486
:09395E00D003D0021BBBFF011CC9
:0E396700EB4C70E575822BC002123F51D0026E
:0E397500900851E4F0A3F090084FE4F0A3F0A6
:0E398300C002123D61D002900853E4F0A3F0A0
:05399100BA3D028003B5
:03399600023207F3
:0E39990075820A123F5190064BE0FAA3E0FB44
:0E39A7007C00900851E0FDA3E0FE9008E6EDE4
:0E39B500F0A3EEF08A828B838CF0123BC57576
:0A39C300820A123F51746AC0E074DA
:0C39CD0054C0E07480C0E0124B901581E3
:0E39D90015811581900853E4F0A3F002320727
:0639E700438E0C02315C6E
:0A39ED0074E0C0E07454C0E0748080
:0E39F700C0E0124B90158115811581900000E3
:0D3A05007480F0E4A3F090086375F00012E7
:063A1200306990091874F0
:0A3A1800E3F0A37408F0A37400F0BB
:0E3A220090086375F000123FCAAA82E583FB8C
:0E3A30003395E0FCFD900647EAF0A3EBF0A30F
:0E3A3E00ECF0A3EDF0900863E060179008E351
:0E3A4C00E0FEA3E0FFA3E0F88E828F8388F0F7
:063A5A0012542DFE60185D
:0A3A60007426C0E07455C0E07480C5
:0E3A6A00C0E0124B901581158115810239EDD7
:0E3A7800C3EA9418EB9400EC9400ED64809483
:0E3A860080401374409A74069BE49C74808DFB
:083A9400F063F08095F0502A68
:0E3A9C00900647E0C0E0A3E0C0E0A3E0C0E079
:0A3AAA00A3E0C0E0743BC0E07455D7
:0E3AB400C0E07480C0E0124B90E58124F9F56B
:043AC200810239ED57
:0E3AC60090092A7408F0E4A3F0A3F0A3F08A9C
:0E3AD400828B838CF0EDC002C003C004C005DD
:0E3AE20012424AAE82AF83A8F0F9D005D0049C
:0E3AF000D003D002BE000BBF0008B80005B91D
:043AFE000002802022
:0C3B0200C002C003C004C005745BC0E03A
:0C3B0E007455C0E07480C0E0124B90E5DC
:083B1A008124F9F5810239ED67
:0D3B22008A828B83124774E5828583F090C0
:0E3B2F00064BF0A3E5F0F0900647E0FAA3E0A5
:0E3B3D00FBA3E0FCA3E0FD9009447404F0E457
:0E3B4B00A3F0A3F0A3F08A828B838CF0ED121E
:0E3B5900451CAA82AB83ACF0FD124774AA8211
:0E3B6700AB8390064DEAF0A3EBF090064BE026
:0B3B7500FCA3E0FD4C6004EA4B704430
:0E3B800090064BE0FAA3E0FB4A600B7C008A43
:083B8E00828B838CF01243804E
:0E3B960090064DE0FAA3E0FB4A600B7C008A2B
:083BA400828B838CF012438038
:0A3BAC00747BC0E07455C0E0748023
:0E3BB600C0E0124B901581158115810239ED8A
:013BC40022DE
:0E3BC500AAF0AB83E5829008E8F0A3EBF0A332
:0A3BD300EAF07491C0E07455C0E000
:0E3BDD007480C0E0124B901581158115819007
:0C3BEB0008E8E0FAA3E0FBA3E0FC8A116C
:053BF7008B128C1390FD
:0B3BFC0008E6E0F8A3E0F9E4F50FF59F
:013C070010AC
:0A3C0800C3E50F98E510648089F011
:0A3C120063F08095F04003023D4B83
:0C3C1C0090096B7410F0E4A3F0850F8297
:0C3C2800851083C002C003C004C000C0AF
:0E3C340001124915E5828583F0D001D000D041
:0C3C420004D003D00245F06003023CDF18
:0E3C4E00C000C001C002C003C004C000C0011D
:0A3C5C0074C7C0E07455C0E0748026
:0E3C6600C0E0124B90158115811581D001D060
:0C3C740000D004D003D002E50F2AF8E5D0
:0C3C8000103BF98C059008EB7410F0E488
:0E3C8C00A3F09008ED7404F0E4A3F0888289A0
:0E3C9A0083C002C003C004C000C001123DB6CA
:0E3CA800D001D000D004D003D002C002C0036F
:0B3CB600C004C000C00174C9C0E0746D
:0C3CC10055C0E07480C0E0124B901581EB
:0E3CCD0015811581D001D000D004D003D002A3
:043CDB00D001D00044
:063CDF00E50F2511FDE5D3
:053CE500103512FEAFD6
:0C3CEA00138D828E838FF012542DFD3359
:0D3CF60095E0FE9008EB7410F0E4A3F09050
:0E3D030008ED7402F0E4A3F08D828E83C002FE
:0E3D1100C003C004C000C001123DB6D001D0F6
:0E3D1F0000D004D003D002758220C002C00381
:0E3D2D00C004C000C001123F51D001D000D030
:0A3D3B0004D003D002050FE4B50F19
:033D450002051064
:033D4800023C0832
:0A3D4B0074C7C0E07455C0E0748036
:0C3D5500C0E0124B9015811581158122F1
:0A3D610074CCC0E07455C0E074801B
:0C3D6B00C0E0124B901581158115817489
:0A3D7700ECC0E07455C0E07480C099
:0C3D8100E0124B90158115811581740C27
:0B3D8D00C0E07456C0E07480C0E0127B
:0C3D98004B90158115811581746AC0E004
:0C3DA4007454C0E07480C0E0124B901515
:063DB0008115811581223E
:05546A000A3E3E200097
:04546F000A0A2B00FA
:0B5473000A7C2053746F7265642000F7
:0E547E00206368617261637465727320696EE9
:0E548C0020627566666572302C207769746840
:02549A002000F0
:06549C0020667265650048
:0454A2000A7C200060
:0B54A60042756666657220303A2000F7
:0B54B100206279746573206174200094
:0B54BC0042756666657220313A2000E0
:0E54C7000A7C20466C757368696E67206275FA
:0854D500666665722E2E2E00A2
:0354DD000A2B0097
:0E54E000456E74657220796F75722062756674
:0E54EE006665722073697A652028696E2074E5
:0E54FC0068652072616E6765205B3234203176
:0E550A003630305D20616E642061206D756C5E
:0E5518007469706C65206F662038293A200097
:0E5526000A4E6F6E2D696E746567657220699E
:075534006E7075742E0A0071
:0E553B000A56616C7565206F7574206F6620CE
:0E55490072616E6765205B323420313630307F
:045557005D2E0A00BB
:0E555B000A56616C7565206D7573742062656B
:0E55690020646976697369626C65206279203E
:04557700382E0A00C0
:0E557B000A416C6C6F636174696F6E2066612B
:08558900696C7572652E0A00C1
:0E5591000A202020202B203020203120203224
:0E559F002020332020342020352020362020EC
:0E55AD003720203820203920204120204220A5
:0C55BB00204320204420204520204600F2
:0255C7000A00D8
:0355C9003A200085
:0E55CC000A456E7465722063686172616374D3
:0E55DA0065727320666F722073746F72616762
:0455E800652E0A0022
:0E55EC00093D096865782064756D70206F6652
:0E55FA002062756666657220636F6E74656E62
:0456080074730A00AD
:0E560C00093F097072696E74207374617473C3
:0E561A0020616E6420636C65617220627566AB
:055628006665720A0036
:0E3DB600AA83E5829008EFF0A3EAF07A007B82
:013DC40000FE
:0D3DC500C3EA9420EB648094805014EA243B
:0A3DD200F1F582EB3408F58374303C
:083DDC00F00ABA00E40B80E1DB
:0E3DE4009008EFE0FAA3E0FB30E70675822DB1
:033DF200123F512C
:0C3DF5009008EBE0FAA3E0FB7C007D00EE
:0E3E01009008EFE0FEA3E0FF4E7003023EB714
:0E3E0F0090096BEAF0A3EBF08E828F83C00265
:0E3E1D00C003C004C005124915AE82AF83D0A9
:0E3E2B0005D004D003D0028E828F83C002C067
:0E3E390003C004C0051248C9AE82AF83D00595
:0E3E4700D004D003D002C374898EF063F080E3
:0C3E550095F040089009117430F08006D0
:063E61009009117437F016
:093E6700EC24F1FFED3408F890A1
:0E3E70000911E0F92EFE8F828883F09008EF92
:0E3E7E00E0FEA3E0FF900974EAF0A3EBF08EE3
:0E3E8C00828F83C002C003C004C005124A31F9
:0E3E9A00E5828583F0D005D004D003D00290DD
:0C3EA80008EFF0A3E5F0F00CBC00010DE9
:033EB400023E01CA
:0E3EB700900912ECF0A3EDF09008EDE0FAA3F4
:0E3EC500E0FB4A701AEC4D7016758230C00298
:0E3ED300C003C004C005123F51D005D004D07A
:033EE10003D00209
:0E3EE400C3E49A74808BF063F08095F0501D5B
:0E3EF200C3EA9CEB64808DF063F08095F05085
:033F000002800438
:043F03008A048B059C
:083F0700900912ECF0A3EDF0AB
:0D3F0F00900912E0FAA3E0FB1ABAFF011BB3
:0E3F1C00900912EAF0A3EBF0900912E0FAA36C
:023F2A00E0FBBA
:0B3F2C00EB20E720EA24F1F582EB34E3
:0C3F370008F583E0FCF582C002C0031214
:0D3F43003F51D003D0021ABAFFDF1B80DC13
:013F5000224E
:0E3F5100E582900914F0900914E0FABA0A080B
:053F5F0010990280FB37
:033F640075990D3F
:053F670010990280FB2F
:073F6C00900914E0F5992211
:0E3F7300E582900917F09009ACE0FAA3E0FB9C
:0E3F8100900915E0FCA3E0FDECC39AFAED9B5D
:053F8F00FB7C007D0039
:0E3F9400C3EC9AED64808BF063F08095F050E2
:0D3FA2001D758220C002C003C004C00512BE
:0E3FAF003F51D005D004D003D0020CBC00D787
:033FBD000D80D4A0
:0A3FC000900917E0FAF582023F5164
:02563800000070
:0E3FCA00AAF0AB83E58290091BF0A3EBF0A3F5
:0E3FD800EAF090091EE4F0A3F0900920E4F056
:0E3FE600A3F090091BE0FAA3E0FBA3E0FC8A25
:0D3FF400828B838CF01253DAAA82AB83908B
:0C4001000922EAF0A3EBF090091BE0F5A7
:08400D0014A3E0F515A3E0F592
:054015001685148285F0
:06401A0015838516F0126B
:0E402000542DFFBF2D5D9009207401F0E4A324
:0A402E00F074012514FFE43515F8C5
:0C403800A9168F82888389F012542D7025
:0E40440026900918E0FCA3E0FDA3E0FE8C82AC
:0B4052008D838EF0E5141248B0A3E54A
:06405D00151248B0A3E5B6
:08406300161248B09000002283
:0E406B0090091BEFF0A3E8F0A3E9F01ABAFFEA
:02407900011B29
:08407B00900922EAF0A3EBF02A
:0E408300900922E0FAA3E0FB90091BE0FCA3E9
:09409100E0FDA3E0FE7F007800D1
:0E409A00C002C003EF2CF9E83DFA8E038982C4
:0E40A8008A838BF012542DF9D003D002E970F8
:0440B600030241645C
:0B40BA00C3E9648094B050030241642D
:0D40C500C374B989F063F08095F0500302D8
:0240D200416447
:0E40D400C004C005C006E93395E0FCE924D025
:0E40E200F9EC34FFFCEAC39FFDEB98FE1DBD18
:0340F000FF011EAF
:0E40F300900924EDF0A3EEF090000AC002C088
:0E41010003C004C007C000C0011241B2AD826D
:0E410F00AE83D001D000D007D004D003D00280
:0E411D00900969EDF0A3EEF089828C83C00258
:0E412B00C003C006C007C0001248F5AC82AD4C
:0E41390083D000D007D006D003D00290091E1C
:0E414700E0FEA3E0F990091EEC2EF0ED39A386
:06415500F00FBF0001089D
:09415B00D006D005D00402409A00
:0E416400900918E0FAA3E0FBA3E0FC90091B11
:0E417200E0FDA3E0FEA3E0F9EF2DFDE83EFE28
:0D4180008A828B838CF0ED1248B0A3EE1202
:08418D0048B0A3E91248B0900C
:0E4195000920E0FAA3E0FB4A600790091EE44F
:0341A300F0A3F096
:0C41A60090091EE0FAA3E08A82F5832253
:0E41B200AA83E582900926F0A3EAF09009287E
:0641C0007401F0E4A3F01D
:0E41C600900924E0FAA3E0FB4A606DEA30E0C5
:0E41D4002C900926E0FAA3E0FB900928E0FCFD
:0E41E200A3E0FD900969EAF0A3EBF08C828D5A
:0E41F000831248F5E5828583F0900928F0A33C
:0341FE00E5F0F0F9
:0E420100900924E0FAA3E0FBA2E713CA13CA57
:0E420F00FB900924EAF0A3EBF0900926E0FAF8
:0E421D00A3E0FB900969EAF0A3EBF08A828B24
:0E422B00831248F5E5828583F0900926F0A302
:05423900E5F0F08088B3
:0C423E00900928E0FAA3E08A82F58322B0
:0E424A00AA82AB83ACF0FD90092EEAF0A3EB44
:0E425800F0A3ECF0A3EDF090092EE0FAA3E045
:0E426600FBA3E0FCA3E0FD30E70FC3E49AFEEB
:0B427400E49BFFE49CF8E49DF9800847
:08427F008A068B078C008D01FB
:0E4287008E028F038804890590092AE0FEA3A9
:0E429500E0FFA3E0F8A3E0F930E713C3E49ED6
:0942A300F517E49FF518E498F505
:0742AC0019E499F51A8008DE
:0542B3008E178F188832
:0342B80019891A47
:0842BB0090093BE517F0A3E5B3
:0842C30018F0A3E519F0A3E5D2
:0C42CB001AF08A828B838CF0ED1243D332
:0E42D700AA82AB83ACF0FD90092EE0FEA3E0BE
:0E42E500FFA3E0F8A3E0F930E714C3E49AFE6B
:0E42F300E49BFFE49CF8E49DF98E828F8388A3
:02430100F022A8
:084303008A828B838CF0ED220D
:0E430B00AA83E582900934F0A3EAF090093409
:0C431900E0FAA3E0FB4A700490000022D0
:0E432500EA24FCFAEB34FFFB900958E0FCA3FD
:0E433300E0FD900936ECF0A3EDF0900932E4C5
:03434100F0A3F0F6
:0E434400900936E0FCA3E0FD4C6025EAB504CC
:0743520006EBB50502801B1C
:0E435900900932ECF0A3EDF08C828D83E0FC35
:0D436700A3E0FD900936ECF0A3EDF080D04E
:0C437400900936E0FAA3E08A82F583226B
:0E438000AAF0AB83E582900938F0A3EBF0A31E
:0E438E00EAF0900938E0FAA3E0FBA3E0FC8A15
:0E439C00828B8312430BAA82AB83EA4B60280C
:0E43AA00900932E0FCA3E0FD4C700B8A828B80
:0843B80083A3A3E4F0A3F022AB
:0E43C0008A828B83E0FAA3E0FB8C828D83EA75
:0443CE00F0A3EBF07D
:0143D20022C8
:0E43D300AA82AB83ACF0FD90093FEAF0A3EBA9
:0D43E100F0A3ECF0A3EDF0900943E4F090A0
:0E43EE00093FE0FAA3E0FBA3E0FCA3E0FD7EA4
:0143FC0000C0
:0943FD0090093BE0F528A3E0F56E
:0844060029A3E0F52AA3E0F56B
:0A440E002BE52B235401FF7078C04A
:0A44180006E52825E0FFE52933F84A
:09442200E52A33F9E52B33FE9085
:0E442B00093BEFF0A3E8F0A3E9F0A3EEF09058
:08443900093BE0F528A3E0F5C2
:0844410029A3E0F52AA3E0F530
:074449002BC3EA9528EB9557
:0644500029EC952AED9510
:0A4456002BE433D0066029E52BC3E8
:0744600013F52BE52A13F50B
:054467002AE52913F510
:05446C0029E52813F50D
:054471002890093BE565
:0844760028F0A3E529F0A3E5FD
:08447E002AF0A3E52BF08009F0
:094486000E900943EEF00243FD23
:05448F00900943E0FA72
:0E44940090093FE0FBA3E0FCA3E0FDA3E0FEE7
:0944A20090093BE0F528A3E0F5C8
:0844AB0029A3E0F52AA3E0F5C6
:0744B3002BC3EB9528EC95EB
:0644BA0029ED952AEE95A4
:0944C0002B401790093FEBC39556
:0944C90028F0EC9529A3F0ED9513
:0844D2002AA3F0EE952BA3F0E4
:0E44DA0090093BE0FBA3E0FCA3E0FDA3E0FEA5
:0D44E800C313FEED13FDEC13FCEB13FB9072
:0E44F500093BF0A3ECF0A3EDF0A3EEF08A0378
:0E4503001AEB708D90093FE0FAA3E0FBA3E0F5
:0B451100FCA3E0FD8A828B838CF0226B
:0E451C00AA82AB83ACF0FD900948EAF0A3EB55
:0E452A00F0A3ECF0A3EDF0900948E0FAA3E056
:0E453800FBA3E0FCA3E0FD30E70FC3E49AFE16
:0B454600E49BFFE49CF8E49DF9800872
:084551008A068B078C008D0126
:0E4559008E028F0388048905900944E0FEA3BA
:0C456700E0FFA3E0F8A3E0F933E433F533
:094573001BE51B6013C3E49EF577
:08457C001CE49FF51DE498F515
:074584001EE499F51F8008F9
:05458B008E1C8F1D884D
:034590001E891F62
:0845930090094CE51CF0A3E5C2
:08459B001DF0A3E51EF0A3E5ED
:0C45A3001FF08A828B838CF0ED1245E73C
:0E45AF00AA82AB83ACF0FD900948E0FEA3E0C9
:0C45BD00FFA3E0F8A3E0F933E433651B32
:0E45C9006014C3E49AFEE49BFFE49CF8E49DBA
:0845D700F98E828F8388F02227
:0845DF008A828B838CF0ED222F
:0E45E700AA82AB83ACF0FD900950EAF0A3EB82
:0E45F500F0A3ECF0A3EDF0900954E4F0A3F075
:0E460300A3F0A3F090094CE0FAA3E0FBA3E0C3
:07461100FCA3E0FD75282069
:0E461800900950E0FFA3E0F8A3E0F9A3E0FE54
:0C462600339200EF2FFFE833F8E933F97E
:0E463200EE33FE900950EFF0A3E8F0A3E9F09C
:0E464000A3EEF0900954E0FEA3E0FFA3E0F823
:0E464E00A3E0F9EE2EFEEF33FFE833F8E93378
:0E465C00F9900954EEF0A3EFF0A3E8F0A3E903
:0C466A00F030001E900954E0FFA3E0F8BF
:0E467600A3E0F9A3E0FE90095474014FF0A3F5
:08468400E8F0A3E9F0A3EEF059
:0E468C00900954E0FEA3E0FFA3E0F8A3E0F9DC
:0E469A00C3EE9AEF9BE89CE99D4031900954D5
:0E46A800EEC39AF0EF9BA3F0E89CA3F0E99D0F
:0E46B600A3F0900950E0FEA3E0FFA3E0F8A3FC
:0E46C400E0F990095074014EF0A3EFF0A3E866
:0446D200F0A3E9F078
:0546D600D5280280035D
:0346DB000246187C
:0E46DE00900950E0FAA3E0FBA3E0FCA3E0FD8E
:0746EC008A828B838CF0220F
:06303200E478FFF6D8FD72
:083010007902E94400601B7A1B
:0530180001905638781C
:03301D00AC75A0EF
:0A30200009E493F2A308B8000205CA
:08302A00A0D9F4DAF275A0FF51
:0E46F300AA83E58290095CF0A3EAF090095CCE
:0E470100E0FAA3E0FB90095EEAF0A3EBF0EA19
:0E470F004B702090095E74012AF0E43BA3F089
:0D471D0090095AE0FAA3E0FB1ABAFF011B55
:08472A0090095AEAF0A3EBF03C
:0E47320090095EE0FAA3E0FB900958EAF0A3BC
:0E474000EBF090095AE0FCA3E0FDEC2AFCED42
:0E474E003BFDEC24FEFCED34FFFD8A828B83E4
:0E475C00ECF0A3EDF08C828D83E4F0A3F08AE4
:0A476A00828B83A3A3E4F0A3F022E6
:0E477400AA83E582900960F0A3EAF090096044
:0E478200E0FAA3E0FBC374FB9A74FF9B5004A3
:044790009000002273
:0E47940090096074042AF0E43BA3F0900958E9
:0E47A200E0FAA3E0FB900962EAF0A3EBF090CE
:0847B0000960E0F528A3E0F523
:0147B80029D7
:0E47B900900962E0FCA3E0FD8C828D83E0FE9F
:0E47C700A3E0FF8E008F018C028D03E8C39AE1
:0E47D500F8E99BF98C828D83A3A3E0FAA3E0A0
:0C47E300FBE8C39AF8E99BF9C3E89528AD
:0C47EF00E99529400D90096474042CF039
:0647FB00E43DA3F0802361
:0E480100900962EEF0A3EFF0900962E0FAA3D6
:0E480F00E0FB8A828B83E0FAA3E0FB4A709CF8
:07481D00900964E4F0A3F030
:0E482400900964E0FAA3E0FB4A70030248A486
:0E483200900962E0FAA3E0FB74022AFCE43B6A
:0E484000FD8C828D83E0FEA3E0FF4E7013908E
:0E484E000960E0F8A3E0F98C828D83E8F0A306
:04485C00E9F08044BB
:0E486000EE2AFEEF3BFF8A828B83E0FCA3E092
:0E486E00FD8E828F83ECF0A3EDF08A828B83A7
:0D487C00EEF0A3EFF074022EFAE43FFB9083
:0E4889000960E0FCA3E0FD8A828B83ECF0A3C3
:0D489700EDF090096474042EF0E43FA3F0EE
:0C48A400900964E0FAA3E08A82F5832208
:0E48B00020F71030F6118883A88220F507F655
:0548BE00A883758300D2
:0148C30022D2
:0348C400F280F788
:0248C700F022DD
:0E48C900AA83E582900967F0A3EAF0900967E0
:0E48D700E0FAA3E0FB33B3E433FC60068A048E
:0448E5008B058007B8
:0748E900C3E49AFCE49BFD0F
:0548F0008C828D832283
:0E48F500AA83AB828BF0900969E0A4F8A9F0C9
:0E4903008AF0E0A429F98BF0A3E0A429F58343
:044911008882222254
:0E491500AA83E58290096DF0A3EAF090096D87
:0E492300E0FAA3E0FB30E709C3E49AFCE49B52
:03493100FD800402
:044934008A048B0561
:0E4938008C028D0390096BE0FCA3E0FD30E7DC
:0A49460009C3E49CFEE49DFF800419
:044950008C068D073D
:0D49540090096FEEF0A3EFF08A828B8312C2
:0E4961004983AA82AB8390096DE0FCA3E0FDC0
:0E496F0030E70CC3E49AFCE49BFD8C828D8340
:01497D002217
:05497E008A828B8322F8
:0E498300AA83E582900971F0A3EAF09009730F
:0C499100E4F0900971E0FAA3E0FB7C0068
:0E499D0090096FE0FDA3E0FE235401FF703788
:0E49AB00EECD25E0CD33FE90096FEDF0A3EECA
:0E49B900F090096FE0FDA3E0FEC3EA9DEB9EC7
:0E49C7005011EEC313CD13CDFE90096FEDF02D
:0549D500A3EEF08008D4
:0849DA000C900973ECF080BBA6
:0549E200900973E0FAEA
:0E49E700900971E0FBA3E0FC90096FE0FDA3D6
:0E49F500E0FEC3EB9DEC9E400B900971EBC3FE
:064A03009DF0EC9EA3F003
:0E4A090090096FE0FBA3E0FCC313CB13CBFCC2
:0E4A170090096FEBF0A3ECF08A031AEB70C26B
:0C4A2500900971E0FAA3E08A82F5832278
:0E4A3100AA83E582900976F0A3EAF090097658
:0E4A3F00E0FAA3E0FB30E709C3E49AFCE49B35
:034A4D00FD8004E5
:044A50008A048B0544
:0E4A54008C028D03900974E0FCA3E0FD33E4B6
:0D4A620033FE6009C3E49CFFE49DF880046E
:044A6F008C078D0023
:0E4A7300900978EFF0A3E8F08A828B83C006EA
:0E4A8100124AA9AA82AB83D006900976E0FC07
:0E4A8F00A3E0FD33E4336E600CC3E49AFCE454
:074A9D009BFD8C828D83223A
:054AA4008A828B8322D1
:083038007800E84400600A7909
:033040000075A078
:0630430000E4F309D8FCD3
:0830490078ACE84409600C7941
:0B3051000A900000E4F0A3D8FCD9FABC
:0E4AA900AA83E58290097AF0A3EAF090097CD6
:0E4AB700E4F0A3F0900978E0FAA3E0FB7C1095
:0C4AC50090097AE0FDA3E0FE339201EEC0
:0E4AD100CD25E0CD33FE90097AEDF0A3EEF096
:0E4ADF0090097CE0FDA3E0FECD25E0CD33FE86
:0C4AED0090097CEDF0A3EEF03001129077
:0E4AF900097CE0FDA3E0FE90097C74014DF005
:034B0700A3EEF02A
:0E4B0A0090097CE0FDA3E0FEC3ED9AEE9B4017
:0D4B18001D90097CEDC39AF0EE9BA3F09078
:0E4B2500097AE0FDA3E0FE90097A74014DF0DC
:034B3300A3EEF0FE
:0E4B3600DC8D90097AE0FAA3E08A82F58322F2
:084B4400C027858127AA821217
:054B4C003F51D02722BB
:0E4B5100AAF0AB83E58290097FF0A3EBF0A3FE
:0E4B5F00EAF090097FE0FAA3E0FBA3E0FC90EF
:0E4B6D00097EE0FD900992E4F0A3F0A3F09021
:0E4B7B000995EAF0A3EBF0A3ECF0900998ED99
:074B8900F0904B44024CA91F
:064B9000C027858127E526
:0C4B96002724FBFA900992E4F0A3F0A39E
:0C4BA200F0E52724FBF8900995E6F008E8
:0D4BAE00A3E6F008A3E6F0900998EAF09065
:0A4BBB004B44124CA9AA82AB83D030
:024BC5002722A5
:0C4BC700E58290098EF090098EE0FA90D3
:0E4BD3000984E0C0E0A3E0C0E0A3E0C0E0740D
:084BE100F5C0E0744BC0E09048
:0C4BE9000982E0C0E0A3E0C0E08A822264
:0E4BF50015811581158190098CE0FAA3E0FB73
:0C4C030090098C74012AF0E43BA3F0221D
:0E4C0F00E58290098FF090098FE0FA74302A48
:0C4C1D00FA24C6500A74072AFA30020379
:034C290043022023
:054C2C008A82024BC763
:0E4C3100E582900990F0900990E0FAC4540FCB
:0E4C3F00FBF582C002124C0FD00253020F8A06
:044C4D0082024C0F84
:0E4C5100E582900991F0900987E0FAA3E0FB5C
:0E4C5F00A3E0FCA3E0FD90098BE0FE9009911C
:044C6D00E0FF7820CC
:0E4C7100EE2EFEED235401F94206EA2AFAEB7C
:0E4C7F0033FBEC33FCED33FDC3EE9F4007EE3C
:064C8D00C39FFE4302017B
:0E4C9300D8DC900987EAF0A3EBF0A3ECF0A3C5
:084CA100EDF090098BEEF0220A
:0E4CA900AA83E582900999F0A3EAF090099998
:0E4CB700E0FAA3E0FB900982EAF0A3EBF09094
:0E4CC5000992E0FAA3E0FBA3E0FC900984EA68
:0E4CD300F0A3EBF0A3ECF090098CE4F0A3F05A
:0E4CE100900995E0FAA3E0FBA3E0FC8A828B29
:0E4CEF00838CF012542DFD90099574012AF06B
:0D4CFD00E43BA3F0A3ECF0ED70030253CEF6
:054D0A00BD250280033D
:034D0F000253C686
:054D1200C203C204C24F
:044D170005C206C209
:044D1B0007C208C201
:044D1F0009C20A902B
:094D2300099BE4F090099CF0905A
:0E4D2C00099DF0900995E0FAA3E0FBA3E0FCDE
:0E4D3A008A828B838CF012542DFEA3AA82ABCA
:0D4D480083900995EAF0A3EBF0A3ECF09046
:0D4D5500099FEEF0BE25088E82124BC702AA
:024D62004CE122
:054D64008E07BF3000C6
:0E4D6900404A8E07EF24C6404390099DE0FFAC
:044D7700600280292D
:0E4D7B00C002C003C00490099CE0FA75F00A63
:0E4D8900A4FAEE24D090099C2AF090099CE038
:0C4D9700FAD004D003D002709AD204803D
:014DA3009679
:0E4DA400EF75F00AA4FFEE24D090099D2FF0C9
:034DB200024D3A75
:0E4DB50090099FE0FEBE2E0890099DE4F002DA
:024DC3004D3A67
:0E4DC5008E82C002C003C004C00612544DE529
:0C4DD3008224FF9202D006D004D003D04E
:094DDF000230020590099FE4F086
:0A4DE80090099FE0FEBE20028055F6
:054DF200BE2B02804B06
:054DF700BE2D02804109
:054DFC00BE4202804BE5
:054E0100BE43028050D9
:064E0600BE440302503B14
:064E0C00BE460302505DEA
:064E1200BE490302503B03
:054E1800BE4C028034D5
:064E1D00BE4F03025045E8
:064E2300BE5003024F9D8A
:054E2900BE53028042AF
:064E2E00BE550302504DC9
:064E3400BE5803025055B8
:034E3A00025061C2
:054E3D00D203024D3A12
:054E4200D205024D3A0B
:054E4700D206024D3A05
:054E4C00D208024D3AFE
:054E5100D209024D3AF8
:0E4E5600900998E0FA24FEF8900998F0860280
:0C4E6400088603188A82124BC702506DAA
:0E4E7000900998E0FA24FDF8900998F0860267
:0E4E7E000886030886041818900987EAF0A336
:0E4E8C00EBF0A3ECF0900987E0FAA3E0FBA3A3
:0E4E9A00E0FC8A828B838CF01253DAAA82AB82
:0A4EA8008390099DE0FB6002800585
:054EB20090099DEAF0EB
:0C4EB70020033890099CE0FBC3EA9B50EC
:0D4EC3002E90099CEBC39AF090099CE0FB37
:0D4ED0008B041B90099CEBF0BC00028010CD
:0E4EDD00758220C002C003124BC7D003D00262
:024EEB0080E362
:054EED0090099CEBF0B0
:054EF20090099DE0FDA8
:0E4EF700C002900987E0FCA3E0FFA3E0FA8C64
:0E4F0500828F838AF012542DD00260538D04E7
:0E4F13001DC374808CF063F08095F05044C094
:0A4F210002900987E0F522A3E0F5F5
:084F2B0023A3E0F52474012525
:074F330022FBE43523FAAC78
:0C4F3A0024900987EBF0A3EAF0A3ECF050
:074F4600852282852383858B
:0C4F4D0024F012542DFAF582C002C005B9
:0B4F5900124BC7D005D002D00280939D
:064F640020030302506D62
:0D4F6A0090099CE0FBC3EA9B400302506DE0
:0C4F770090099CEBC39AF090099CE0FAB2
:0E4F83008A031A90099CEAF0BB0003025068F2
:0C4F9100758220C002124BC7D00280E6DF
:0E4F9D00900998E0FB24FDF8900998F0860337
:0E4FAB000886040886071818900987EBF0A303
:0E4FB900ECF0A3EFF0900989E0FB247F500894
:084FC70090099F7443F0802063
:0D4FCF00EB249F500890099F7450F0801350
:0D4FDC00EB24BF500890099F7449F0800637
:064FE90090099F7458F0CE
:0E4FEF0090099FE0FBF582C003124BC7D00370
:0E4FFD0075823AC003124BC7D003758230C0D4
:0E500B0003124BC7D003758278C003124BC747
:07501900D003BB4902800F28
:05502000BB5002800AF4
:0A502500900988E0FBF582124C317F
:0C502F00900987E0FBF582124C318032C2
:0A503B00D20790099B740AF0802848
:0850450090099B7408F0802023
:08504D0090099B740AF0801821
:0850550090099B7410F080101B
:04505D00D20A800CE7
:075061008E82124BC780058F
:0550680090099CEAF034
:0C506D00300A6B900998E0FA24FCF890DF
:0E5079000998F0860208860308860408860659
:0E508700181818900987EAF0A3EBF0A3ECF0DC
:0B509500A3EEF0900987742DF0A374C7
:0650A00056F0A37480F03D
:0E50A600900987E0FBA3E0FCA3E0FD74012B62
:0E50B400FEE43CFF8D02900987EEF0A3EFF0C2
:0E50C200A3EAF08B828C838DF012542DFA70CD
:0450D00003024CE1AA
:0750D4008A82124BC780CB5A
:0B50DB0090099BE0FABA0003024CE1D0
:0850E6009009A674A5F0A37463
:0650EE0009F030084C90AF
:0E50F4000998E0FA14F8900998F08602EA3361
:0E51020095E0FBFCFE900987EAF0A3EBF0A31A
:0B511000ECF0A3EEF03007030251B5F5
:0E511B00900987E0FAA3E0FBA3E0FCA3E0FE0E
:0E5129007B007C007E00900987EAF0A3EBF08B
:08513700A3ECF0A3EEF080767A
:0C513F0030092A900998E0FA24FCF8904E
:0E514B000998F0860208860308860408860686
:0E515900181818900987EAF0A3EBF0A3ECF009
:05516700A3EEF08049F9
:0E516C00900998E0FA24FEF8900998F0860267
:0E517A0008860318EB3395E0FCFE900987EAE7
:0C518800F0A3EBF0A3ECF0A3EEF0200786
:0E51940020900987E0FAA3E0FBA3E0FCA3E073
:0E51A200FE7C007E00900987EAF0A3EBF0A3EC
:0551B000ECF0A3EEF09D
:0C51B50030073E900987E0FAA3E0FBA35E
:0E51C100E0FCA3E0FE30E72B900987E0FAA3A4
:0E51CF00E0FBA3E0FCA3E0FEC3E49AFAE49B3D
:0E51DD00FBE49CFCE49EFE900987EAF0A3EB45
:0951EB00F0A3ECF0A3EEF0800249
:0251F400C207F0
:0851F600D20B90099BE0FC754F
:0351FE0025A5756F
:0452010026097D00FD
:0E52050090098BE4F08C82C004C005124C515D
:0C521300D005D004200B32C00490098BA1
:0A521F00E0FFC4FF85258285268389
:0A522900E0FA4207852582852683FE
:0A523300EFF0152574FFB5250215F4
:01523D00264A
:08523E009009A6E525F0A3E5A7
:0652460026F0D004800CEC
:09524C0090098BE0FF85258285A5
:035255002683F0BD
:095258000D90099EEDF0B20B90DF
:0E5261000987E0FFA3E0FAA3E0FEA3E0FBEF65
:0C526F004A4E4B70919009A6E525F0A373
:09527B00E526F090099EEDF0908B
:0C528400099CE0FA700690099C7401F08F
:0A52900020042720032474012DFAE6
:05529A0090099CE0FBFF
:0D529F00C3EA9B5011758220C002C00312AB
:0952AC004BC7D003D0021B80EABD
:0552B50090099CEBF0E4
:0A52BA0030071275822D124BC790C9
:0B52C400099CE0FA1490099CF0802F78
:0C52CF0090099EE0FA60283005127582FC
:0B52DB002B124BC790099CE0FA1490C6
:0552E600099CF080139B
:0A52EB00300610758220124BC790A8
:0952F500099CE0FA1490099CF0F8
:0952FE0020032F90099EE0FA90B4
:04530700099CE0FB22
:0E530B008B041B90099CEBF0C3EA9C503630DB
:0653190004047C30800258
:02531F007C20F0
:0E5321008C82C002C003124BC7D003D00280A2
:01532F00DBA2
:0E53300090099CE0FA90099EE0FCC39A500997
:09533E0090099CEAC39CF0800C6C
:0753470090099CE4F08005D1
:05534E0090099CEBF04A
:0D5353009009A6E0FAA3E0FB90099EE0FCA3
:0A5360008C061CEE6040B20B200B1F
:06536A00150ABA00010B58
:0E5370008A828B83E0FEC4540FFE90098BF0FE
:02537E00800E9F
:0E5380008A828B83E0FE53060F90098BEEF0BD
:0E538E0090098BE0FEF582C002C003C004123D
:0A539C004C0FD004D003D00280BAF9
:0653A600200303024CE1AC
:0553AC0090099CE0FAED
:0953B1008A031AEB7003024CE1BF
:0C53BA00758220C002124BC7D00280EBAD
:0853C6008D82124BC7024CE17D
:0C53CE0090098CE0FAA3E08A82F58322AB
:0B562D003C4E4F20464C4F41543E00C5
:0E53DA00AAF0AB83E5829009A8F0A3EBF0A344
:0E53E800EAF07A007B009009A8E0FCA3E0FD4B
:0353F600A3E0FE33
:0E53F9008C828D838EF012542DFFA3AC82ADFA
:0E540700839009A8ECF0A3EDF0A3EEF0EF60A7
:08541500070ABA00DF0B80DC7E
:0E541D009009A8ECF0A3EDF0A3EEF08A828BCC
:02542B008322DA
:0330030075812BA9
:0A300600125449E582600302316CA8
:0E542D0020F71430F6148883A88220F507E6D5
:06543B00A8837583002226
:03544100E280F70F
:03544400E49322CC
:02544700E02261
:045449007582002246
:0E544D00E5829009ABF09009ABE0FABA61007D
:0B545B004009EA24854004758201220C
:045466007582002229
:00000001FF
