:0E305F003098FDAA99C2988A82C0021233E20C
:05306D00D0028A82225E
:0E307200AAF0AB83E582900002F0A3EBF0A37E
:0E308000EAF0900000E0FAA3E0FBC3E49A74CB
:0E308E00808BF063F08095F040079000007595
:03309C00F000221F
:0C309F00900005E4F0A3F0900002E0F5C2
:0830AB0008A3E0F509A3E0F51C
:0630B3000A1ABAFF011B1E
:0430B9007F0078001C
:0E30BD00C3EF9AE864808BF063F08095F050CA
:0E30CB0053C002C003C007C00012305FA982CC
:0D30D900D000D007D003D002B90A02800356
:0330E600B90D0B16
:0B30E900B90D3375820A1233E2802B10
:0A30F400C002C003EF2508FAE8351A
:0A30FE0009FBAC0A8A828B838CF078
:09310800E9123CEA0FBF000108C6
:0E311100900005EFF0A3E8F0D003D002809EFE
:0E311F00900002E0FAA3E0FBA3E0FC900005A4
:0E312D00E0FDA3E0FEED2AFDEE3BFE8C078DDB
:0E313B00828E838FF0E4123CEA8A828B838CB2
:02314900F02272
:0E314B009007157440F0A37406F09000070280
:023159003B2D0C
:0330000002300398
:03305C0002315BE3
:05315B0012316080FE4E
:0731600012320412320A9042
:0E316700064BE0FAA3E0FB7C00C002C003C0F0
:0E31750004900647E0C0E0A3E0C0E0A3E0C085
:0A318300E0A3E0C0E07449C0E0746E
:0C318D0046C0E07480C0E0123D6FE58198
:0E31990024F6F58190064DE0FAA3E0FB7C00E1
:0E31A700900647E0FDA3E0FEA3E0FFA3E0F8E2
:0E31B5009006FF7404F0E4A3F0A3F0A3F08DE5
:0D31C300828E838FF0E8C002C003C00412AA
:0E31D0003956AD82AE83AFF0F8D004D003D0F4
:0E31DE0002C002C003C004C005C006C007C086
:0A31EC00007462C0E07446C0E07495
:0C31F60080C0E0123D6FE58124F6F581F9
:0232020080FE4C
:06320400438E0C02314B69
:0A320A00747BC0E07446C0E07480DD
:0E321400C0E0123D6F158115811581900000FC
:0D3222007480F0E4A3F090064F75F00012E8
:06322F0030729006D3741A
:0A323500CFF0A37406F0A37400F0BC
:0E323F0090064F75F000123404AA82E583FB5E
:0E324D003395E0FCFD900647EAF0A3EBF0A3FA
:0E325B00ECF0A3EDF090064FE060179006CF68
:0E326900E0FEA3E0FFA3E0F88E828F8388F0E2
:0632770012460CFE601877
:0A327D0074BAC0E07446C0E074802B
:0E328700C0E0123D6F15811581158102320ADB
:0E329500C3EA9418EB9400EC9400ED6480946E
:0E32A30080401374409A74069BE49C74808DE6
:0832B100F063F08095F0502A53
:0E32B900900647E0C0E0A3E0C0E0A3E0C0E064
:0A32C700A3E0C0E074CEC0E074463E
:0E32D100C0E07480C0E0123D6FE58124F9F585
:0432DF008102320A2C
:0E32E3009006E57408F0E4A3F0A3F0A3F08ACF
:0E32F100828B838CF0EDC002C003C004C005C8
:0E32FF00123684AE82AF83A8F0F9D005D00459
:0E330D00D003D002BE000BBF0008B80005B907
:04331B00000280200C
:0C331F00C002C003C004C00574E8C0E098
:0C332B007446C0E07480C0E0123D6FE505
:083337008124F9F58102320A3C
:0D333F008A828B83123BAEE5828583F0907D
:0E334C00064BF0A3E5F0F0900647E0FAA3E090
:0E335A00FBA3E0FCA3E0FD9006FF7404F0E48A
:0E336800A3F0A3F0A3F08A828B838CF0ED1209
:0E3376003956AA82AB83ACF0FD123BAEAA82A0
:0E338400AB8390064DEAF0A3EBF090064BE011
:0B339200FCA3E0FD4C6004EA4B70441B
:0E339D0090064BE0FAA3E0FB4A600B7C008A2E
:0833AB00828B838CF01237BA0B
:0E33B30090064DE0FAA3E0FB4A600B7C008A16
:0833C100828B838CF01237BAF5
:0A33C900740CC0E07447C0E074808B
:0E33D300C0E0123D6F15811581158102320A8E
:0133E10022C9
:0E464900627566666572303A202564206279DB
:0B4657007465732061742025780A0050
:0E466200627566666572313A202564206279C1
:0B4670007465732061742025780A0037
:0E467B00456E74657220796F757220627566E7
:0E4689006665722073697A652028203234201D
:0E4697003C3D206E203C3D20313630302C2042
:0E46A5006E2061206D756C7469706C65206FFD
:0746B300662038293A2000BF
:0E46BA004E6F6E2D696E746567657220696EB5
:0646C8007075742E0A005B
:0E46CE0056616C7565206F7574206F662072E2
:0C46DC00616E676520282564292E0A0005
:0E46E80056616C7565206D75737420626520D7
:0E46F600646976697369626C652062792038A8
:0847040020282564292E0A007B
:0E470C004661696C75726520416C6C6F63616B
:07471A0074696E672E0A00AE
:0E33E200E5829006D2F09006D2E0FABA0A0810
:0533F00010990280FBB2
:0333F50075990DBA
:0533F80010990280FBAA
:0733FD009006D2E0F59922D1
:0E340400AAF0AB83E5829006D6F0A3EBF0A30E
:0E341200EAF09006D9E4F0A3F09006DBE4F0B7
:0E342000A3F09006D6E0FAA3E0FBA3E0FC8A3E
:0D342E00828B838CF01245B9AA82AB83908B
:0C343B0006DDEAF0A3EBF09006D6E0F509
:083447000BA3E0F50CA3E0F576
:05344F000D850B8285D4
:063454000C83850DF0124F
:0E345A00460CFFBF2D5D9006DB7401F0E4A36D
:0A346800F07401250BFFE4350CF8A9
:0C347200A90D8F82888389F012460C702F
:0E347E00269006D3E0FCA3E0FDA3E0FE8C82C6
:0B348C008D838EF0E50B123CEAA3E5F7
:063497000C123CEAA3E563
:08349D000D123CEA9000002230
:0E34A5009006D6EFF0A3E8F0A3E9F01ABAFF04
:0234B300011BFB
:0834B5009006DDEAF0A3EBF044
:0E34BD009006DDE0FAA3E0FB9006D6E0FCA34B
:0934CB00E0FDA3E0FE7F007800A3
:0E34D400C002C003EF2CF9E83DFA8E03898296
:0E34E2008A838BF012460CF9D003D002E970F9
:0434F0000302359E00
:0B34F400C3E9648094B0500302359ED1
:0D34FF00C374B989F063F08095F0500302AA
:02350C00359EEA
:0E350E00C004C005C006E93395E0FCE924D0F6
:0E351C00F9EC34FFFCEAC39FFDEB98FE1DBDE9
:03352A00FF011E80
:0E352D009006DFEDF0A3EEF090000AC002C0A1
:0E353B0003C004C007C000C0011235ECAD8211
:0E354900AE83D001D000D007D004D003D00252
:0E355700900722EDF0A3EEF089828C83C00273
:0E356500C003C006C007C000123D03AC82AD1B
:0E35730083D000D007D006D003D0029006D936
:0E358100E0FEA3E0F99006D9EC2EF0ED39A3A0
:06358F00F00FBF0001086F
:09359500D006D005D0040234D4A4
:0E359E009006D3E0FAA3E0FBA3E0FC9006D673
:0E35AC00E0FDA3E0FEA3E0F9EF2DFDE83EFEFA
:0D35BA008A828B838CF0ED123CEAA3EE12A6
:0835C7003CEAA3E9123CEA9082
:0E35CF0006DBE0FAA3E0FB4A60079006D9E4B1
:0335DD00F0A3F068
:0C35E0009006D9E0FAA3E08A82F583226D
:0E35EC00AA83E5829006E1F0A3EAF09006E3E0
:0635FA007401F0E4A3F0EF
:0E3600009006DFE0FAA3E0FB4A606DEA30E0DE
:0E360E002C9006E1E0FAA3E0FB9006E3E0FC5E
:0E361C00A3E0FD900722EAF0A3EBF08C828D74
:0E362A0083123D03E5828583F09006E3F0A352
:03363800E5F0F0CA
:0E363B009006DFE0FAA3E0FBA2E713CA13CA71
:0E364900FB9006DFEAF0A3EBF09006E1E0FA5A
:0E365700A3E0FB900722EAF0A3EBF08A828B3F
:0E36650083123D03E5828583F09006E1F0A319
:05367300E5F0F0808885
:0C3678009006E3E0FAA3E08A82F58322CA
:0E368400AA82AB83ACF0FD9006E9EAF0A3EB5E
:0E369200F0A3ECF0A3EDF09006E9E0FAA3E05F
:0E36A000FBA3E0FCA3E0FD30E70FC3E49AFEBD
:0B36AE00E49BFFE49CF8E49DF9800819
:0836B9008A068B078C008D01CD
:0E36C1008E028F03880489059006E5E0FEA3C3
:0E36CF00E0FFA3E0F8A3E0F930E713C3E49EA8
:0936DD00F50EE49FF50FE498F5E9
:0736E60010E499F5118008C2
:0536ED008E0E8F0F8816
:0336F2001089112B
:0836F5009006F6E50EF0A3E5D6
:0836FD000FF0A3E510F0A3E5B6
:0C37050011F08A828B838CF0ED12380DDD
:0E371100AA82AB83ACF0FD9006E9E0FEA3E0D7
:0E371F00FFA3E0F8A3E0F930E714C3E49AFE3C
:0E372D00E49BFFE49CF8E49DF98E828F838874
:02373B00F0227A
:08373D008A828B838CF0ED22DF
:0E374500AA83E5829006EFF0A3EAF09006EF6B
:0C375300E0FAA3E0FB4A700490000022A2
:0E375F00EA24FCFAEB34FFFB900713E0FCA316
:0E376D00E0FD9006F1ECF0A3EDF09006EDE427
:03377B00F0A3F0C8
:0E377E009006F1E0FCA3E0FD4C6025EAB504E6
:07378C0006EBB50502801BEE
:0E3793009006EDECF0A3EDF08C828D83E0FC4F
:0D37A100A3E0FD9006F1ECF0A3EDF080D068
:0C37AE009006F1E0FAA3E08A82F5832285
:0E37BA00AAF0AB83E5829006F3F0A3EBF0A338
:0E37C800EAF09006F3E0FAA3E0FBA3E0FC8A2F
:0E37D600828B83123745AA82AB83EA4B6028B0
:0E37E4009006EDE0FCA3E0FD4C700B8A828B9A
:0837F20083A3A3E4F0A3F0227D
:0E37FA008A828B83E0FAA3E0FB8C828D83EA47
:04380800F0A3EBF04E
:01380C002299
:0E380D00AA82AB83ACF0FD9006FAEAF0A3EBC2
:0D381B00F0A3ECF0A3EDF09006FEE4F090B9
:0E38280006FAE0FAA3E0FBA3E0FCA3E0FD7EBD
:013836000091
:093837009006F6E0F522A3E0F58D
:0838400023A3E0F524A3E0F549
:0A38480025E525235401FF7078C028
:0A38520006E52225E0FFE52333F828
:09385C00E52433F9E52533FE9063
:0E38650006F6EFF0A3E8F0A3E9F0A3EEF09072
:0838730006F6E0F522A3E0F5E2
:08387B0023A3E0F524A3E0F50E
:0738830025C3EA9522EB9535
:06388A0023EC9524ED95EE
:0A38900025E433D0066029E525C3C6
:07389A0013F525E52413F5E9
:0538A10024E52313F5EE
:0538A60023E52213F5EB
:0538AB00229006F6E585
:0838B00022F0A3E523F0A3E5DB
:0838B80024F0A3E525F08009CE
:0938C0000E9006FEEEF00238370E
:0538C9009006FEE0FA8C
:0E38CE009006FAE0FBA3E0FCA3E0FDA3E0FE01
:0938DC009006F6E0F522A3E0F5E8
:0838E50023A3E0F524A3E0F5A4
:0738ED0025C3EB9522EC95C9
:0638F40023ED9524EE9582
:0938FA002540179006FAEBC39576
:0939030022F0EC9523A3F0ED95F0
:08390C0024A3F0EE9525A3F0C1
:0E3914009006F6E0FBA3E0FCA3E0FDA3E0FEBE
:0D392200C313FEED13FDEC13FCEB13FB9043
:0E392F0006F6F0A3ECF0A3EDF0A3EEF08A0391
:0E393D001AEB708D9006FAE0FAA3E0FBA3E00F
:0B394B00FCA3E0FD8A828B838CF0223D
:0E395600AA82AB83ACF0FD900703EAF0A3EB6E
:0E396400F0A3ECF0A3EDF0900703E0FAA3E06F
:0E397200FBA3E0FCA3E0FD30E70FC3E49AFEE8
:0B398000E49BFFE49CF8E49DF9800844
:08398B008A068B078C008D01F8
:0E3993008E028F03880489059006FFE0FEA3D4
:0C39A100E0FFA3E0F8A3E0F933E433F505
:0939AD0012E5126013C3E49EF55B
:0839B60013E49FF514E498F5F9
:0739BE0015E499F5168008DD
:0539C5008E138F148831
:0339CA0015891646
:0839CD00900707E513F0A3E5E4
:0839D50014F0A3E515F0A3E5D1
:0C39DD0016F08A828B838CF0ED123A21E8
:0E39E900AA82AB83ACF0FD900703E0FEA3E0E2
:0C39F700FFA3E0F8A3E0F933E43365120D
:0E3A03006014C3E49AFEE49BFFE49CF8E49D8B
:083A1100F98E828F8388F022F8
:083A19008A828B838CF0ED2200
:0E3A2100AA82AB83ACF0FD90070BEAF0A3EB9A
:0E3A2F00F0A3ECF0A3EDF090070FE4F0A3F08D
:0E3A3D00A3F0A3F0900707E0FAA3E0FBA3E0DC
:073A4B00FCA3E0FD75222041
:0E3A520090070BE0FFA3E0F8A3E0F9A3E0FE6D
:0C3A6000339200EF2FFFE833F8E933F950
:0E3A6C00EE33FE90070BEFF0A3E8F0A3E9F0B5
:0E3A7A00A3EEF090070FE0FEA3E0FFA3E0F83C
:0E3A8800A3E0F9EE2EFEEF33FFE833F8E9334A
:0E3A9600F990070FEEF0A3EFF0A3E8F0A3E91C
:0C3AA400F030001E90070FE0FFA3E0F8D8
:0E3AB000A3E0F9A3E0FE90070F74014FF0A30E
:083ABE00E8F0A3E9F0A3EEF02B
:0E3AC60090070FE0FEA3E0FFA3E0F8A3E0F9F5
:0E3AD400C3EE9AEF9BE89CE99D403190070FEE
:0E3AE200EEC39AF0EF9BA3F0E89CA3F0E99DE1
:0E3AF000A3F090070BE0FEA3E0FFA3E0F8A315
:0E3AFE00E0F990070B74014EF0A3EFF0A3E87F
:043B0C00F0A3E9F049
:053B1000D52202800334
:033B1500023A521F
:0E3B180090070BE0FAA3E0FBA3E0FCA3E0FDA6
:073B26008A828B838CF022E0
:06303200E478FFF6D8FD72
:083010007900E94400601B7A1D
:053018000090472C7838
:03301D005275A049
:0A30200007E493F2A308B8000205CC
:08302A00A0D9F4DAF275A0FF51
:0E3B2D00AA83E582900717F0A3EAF09007172D
:0E3B3B00E0FAA3E0FB900719EAF0A3EBF0EA32
:0E3B49004B702090071974012AF0E43BA3F0A2
:0D3B5700900715E0FAA3E0FB1ABAFF011B6E
:083B6400900715EAF0A3EBF055
:0E3B6C00900719E0FAA3E0FB900713EAF0A31C
:0E3B7A00EBF0900715E0FCA3E0FDEC2AFCED5B
:0E3B88003BFDEC24FEFCED34FFFD8A828B83B6
:0E3B9600ECF0A3EDF08C828D83E4F0A3F08AB6
:0A3BA400828B83A3A3E4F0A3F022B8
:0E3BAE00AA83E58290071BF0A3EAF090071BA4
:0E3BBC00E0FAA3E0FBC374FB9A74FF9B500475
:043BCA009000002245
:0E3BCE0090071B74042AF0E43BA3F090071349
:0E3BDC00E0FAA3E0FB90071DEAF0A3EBF090E7
:083BEA00071BE0F522A3E0F542
:013BF20023AF
:0E3BF30090071DE0FCA3E0FD8C828D83E0FEB8
:0E3C0100A3E0FF8E008F018C028D03E8C39AB2
:0E3C0F00F8E99BF98C828D83A3A3E0FAA3E071
:0C3C1D00FBE8C39AF8E99BF9C3E8952284
:0C3C2900E99523400D90071F74042CF057
:063C3500E43DA3F0802332
:0E3C3B0090071DEEF0A3EFF090071DE0FAA336
:0E3C4900E0FB8A828B83E0FAA3E0FB4A709CCA
:073C570090071FE4F0A3F049
:0E3C5E0090071FE0FAA3E0FB4A7003023CDE71
:0E3C6C0090071DE0FAA3E0FB74022AFCE43B83
:0E3C7A00FD8C828D83E0FEA3E0FF4E70139060
:0E3C8800071BE0F8A3E0F98C828D83E8F0A31F
:043C9600E9F080448D
:0E3C9A00EE2AFEEF3BFF8A828B83E0FCA3E064
:0E3CA800FD8E828F83ECF0A3EDF08A828B8379
:0D3CB600EEF0A3EFF074022EFAE43FFB9055
:0E3CC300071BE0FCA3E0FD8A828B83ECF0A3DC
:0D3CD100EDF090071F74042EF0E43FA3F007
:0C3CDE0090071FE0FAA3E08A82F5832221
:0E3CEA0020F71030F6118883A88220F507F627
:053CF800A883758300A4
:013CFD0022A4
:033CFE00F280F75A
:023D0100F022AE
:0E3D0300AA83AB828BF0900722E0A4F8A9F00F
:0E3D11008AF0E0A429F98BF0A3E0A429F58341
:043D1F008882222252
:083038007800E84400600A7909
:033040000075A078
:0630430000E4F309D8FCD3
:083049007852E84407600C799D
:0B30510008900000E4F0A3D8FCD9FABE
:083D2300C01C85811CAA82125C
:053D2B0033E2D01C2270
:0E3D3000AAF0AB83E582900725F0A3EBF0A389
:0E3D3E00EAF0900725E0FAA3E0FBA3E0FC907A
:0E3D4C000724E0FD900738E4F0A3F0A3F09008
:0E3D5A00073BEAF0A3EBF0A3ECF090073EED80
:073D6800F0903D23023E88AC
:063D6F00C01C85811CE56B
:0C3D75001C24FBFA900738E4F0A3F0A334
:0C3D8100F0E51C24FBF890073BE6F0087E
:0D3D8D00A3E6F008A3E6F090073EEAF090F0
:0A3D9A003D23123E88AA82AB83D0BD
:023DA4001C22DF
:0C3DA600E582900734F0900734E0FA90BA
:0E3DB200072AE0C0E0A3E0C0E0A3E0C0E07498
:083DC000D4C0E0743DC0E090A6
:0C3DC8000728E0C0E0A3E0C0E08A8222EF
:0E3DD400158115811581900732E0FAA3E0FBFE
:0C3DE20090073274012AF0E43BA3F022A9
:0E3DEE00E582900735F0900735E0FA74302A30
:0C3DFC00FA24C6500A74072AFA300103AA
:033E080043022052
:053E0B008A82023DA6C1
:0E3E1000E582900736F0900736E0FAC4540FB2
:0E3E1E00FBF582C002123DEED00253020F8A65
:043E2C0082023DEEE3
:0E3E3000E582900737F090072DE0FAA3E0FB43
:0E3E3E00A3E0FCA3E0FD900731E0FE90073703
:043E4C00E0FF7820FB
:0E3E5000EE2EFEED235401F94206EA2AFAEBAB
:0E3E5E0033FBEC33FCED33FDC3EE9F4007EE6B
:063E6C00C39FFE430201AA
:0E3E7200D8DC90072DEAF0A3EBF0A3ECF0A350
:083E8000EDF0900731EEF02295
:0E3E8800AA83E58290073FF0A3EAF090073F7F
:0E3E9600E0FAA3E0FB900728EAF0A3EBF0901F
:0E3EA4000738E0FAA3E0FBA3E0FC90072AEA4F
:0E3EB200F0A3EBF0A3ECF0900732E4F0A3F0E5
:0E3EC00090073BE0FAA3E0FBA3E0FC8A828BB4
:0E3ECE00838CF012460CFD90073B74012AF025
:0D3EDC00E43BA3F0A3ECF0ED70030245AD54
:053EE900BD250280036D
:033EEE000245A5E5
:053EF100C202C203C281
:043EF60004C205C23B
:043EFA0006C207C233
:043EFE0008C209905D
:093F02000741E4F0900742F09041
:0E3F0B000743F090073BE0FAA3E0FBA3E0FCC5
:0E3F19008A828B838CF012460CFEA3AA82AB28
:0D3F27008390073BEAF0A3EBF0A3ECF090D1
:0D3F34000745EEF0BE25088E82123DA60264
:023F41003EC080
:053F43008E07BF3000F5
:0E3F4800404A8E07EF24C64043900743E0FF37
:043F5600600280295C
:0E3F5A00C002C003C004900742E0FA75F00AEE
:0E3F6800A4FAEE24D09007422AF0900742E01F
:0C3F7600FAD004D003D002709AD203806D
:013F820096A8
:0E3F8300EF75F00AA4FFEE24D09007432FF054
:033F9100023F19D3
:0E3F9400900745E0FEBE2E08900743E4F002C1
:023FA2003F19C5
:0E3FA4008E82C002C003C004C00612462CE587
:0C3FB2008224FF9201D006D004D003D07E
:093FBE0002300105900745E4F012
:0A3FC700900745E0FEBE2002805581
:053FD100BE2B02804B35
:053FD600BE2D02804138
:053FDB00BE4202804B14
:053FE000BE4302805009
:063FE500BE440302421A73
:063FEB00BE460302423C49
:063FF100BE490302421A62
:053FF700BE4C02803405
:063FFC00BE4F0302422447
:06400200BE500302417CE8
:05400800BE53028042DE
:06400D00BE550302422C27
:06401300BE580302423416
:0340190002424020
:05401C00D202023F1971
:05402100D204023F196A
:05402600D205023F1964
:05402B00D207023F195D
:05403000D208023F1957
:0E40350090073EE0FA24FEF890073EF0860267
:0C404300088603188A82123DA602424C37
:0E404F0090073EE0FA24FDF890073EF086024E
:0E405D00088603088604181890072DEAF0A3C1
:0E406B00EBF0A3ECF090072DE0FAA3E0FBA32E
:0E407900E0FC8A828B838CF01245B9AA82ABE0
:0A40870083900743E0FB6002800510
:05409100900743EAF076
:0C409600200238900742E0FBC3EA9B5078
:0D40A2002E900742EBC39AF0900742E0FB1E
:0D40AF008B041B900742EBF0BC0002801058
:0E40BC00758220C002C003123DA6D003D002C0
:0240CA0080E391
:0540CC00900742EBF03B
:0540D100900743E0FD33
:0E40D600C00290072DE0FCA3E0FFA3E0FA8CEF
:0E40E400828F838AF012460CD00260538D0446
:0E40F2001DC374808CF063F08095F05044C0C4
:0A4100000290072DE0F517A3E0F58B
:08410A0018A3E0F5197401256A
:0741120017FBE43518FAACBD
:0C4119001990072DEBF0A3EAF0A3ECF0E6
:0741250085178285188385D0
:0C412C0019F012460CFAF582C002C00522
:0B413800123DA6D005D002D0028093FB
:0641430020020302424CC1
:0D414900900742E0FBC3EA9B400302424C9A
:0C415600900742EBC39AF0900742E0FA99
:0E4162008A031A900742EAF0BB0003024247AC
:0C417000758220C002123DA6D00280E63D
:0E417C0090073EE0FB24FDF890073EF086031E
:0E418A00088604088607181890072DEBF0A38E
:0E419800ECF0A3EFF090072FE0FB247F50081F
:0841A6009007457443F08020EE
:0D41AE00EB249F50089007457450F08013DB
:0D41BB00EB24BF50089007457449F08006C2
:0641C8009007457458F059
:0E41CE00900745E0FBF582C003123DA6D0032A
:0E41DC0075823AC003123DA6D003758230C032
:0E41EA0003123DA6D003758278C003123DA6D5
:0741F800D003BB4902800F58
:0541FF00BB5002800A24
:0A42040090072EE0FBF582123E1039
:0C420E0090072DE0FBF582123E1080327C
:0A421A00D206900741740AF08028D4
:084224009007417408F08020AE
:08422C00900741740AF08018AC
:084234009007417410F08010A6
:04423C00D209800C17
:074240008E82123DA68005ED
:05424700900742EAF0BF
:0C424C0030096B90073EE0FA24FCF8906B
:0E425800073EF08602088603088604088606E4
:0E42660018181890072DEAF0A3EBF0A3ECF067
:0B427400A3EEF090072D7421F0A3745E
:06427F0047F0A37480F07B
:0E42850090072DE0FBA3E0FCA3E0FD74012BED
:0E429300FEE43CFF8D0290072DEEF0A3EFF04D
:0E42A100A3EAF08B828C838DF012460CFA702B
:0442AF0003023EC008
:0742B3008A82123DA680CBB8
:0B42BA00900741E0FABA0003023EC08A
:0842C50090074C744BF0A37448
:0642CD0007F030074C90E1
:0E42D300073EE0FA14F890073EF08602EA3348
:0E42E10095E0FBFCFE90072DEAF0A3EBF0A3A6
:0B42EF00ECF0A3EEF030060302439455
:0E42FA0090072DE0FAA3E0FBA3E0FCA3E0FE9A
:0E4308007B007C007E0090072DEAF0A3EBF016
:08431600A3ECF0A3EEF08076A9
:0C431E0030082A90073EE0FA24FCF890DA
:0E432A00073EF0860208860308860408860611
:0E43380018181890072DEAF0A3EBF0A3ECF094
:05434600A3EEF0804928
:0E434B0090073EE0FA24FEF890073EF086024E
:0E43590008860318EB3395E0FCFE90072DEA72
:0C436700F0A3EBF0A3ECF0A3EEF02006B6
:0E4373002090072DE0FAA3E0FBA3E0FCA3E0FE
:0E438100FE7C007E0090072DEAF0A3EBF0A377
:05438F00ECF0A3EEF0CC
:0C43940030063E90072DE0FAA3E0FBA3EA
:0E43A000E0FCA3E0FE30E72B90072DE0FAA32F
:0E43AE00E0FBA3E0FCA3E0FEC3E49AFAE49B6C
:0E43BC00FBE49CFCE49EFE90072DEAF0A3EBD0
:0943CA00F0A3ECF0A3EEF0800278
:0243D300C20620
:0843D500D20A900741E0FC75DB
:0343DD001A4B7503
:0443E0001B077D003A
:0E43E400900731E4F08C82C004C005123E3018
:0C43F200D005D004200A32C0049007312E
:0A43FE00E0FFC4FF851A82851B83CF
:0A440800E0FA4207851A82851B8343
:0A441200EFF0151A74FFB51A021539
:01441C001B84
:08441D0090074CE51AF0A3E53D
:064425001BF0D004800C26
:09442B00900731E0FF851A82853B
:034434001B83F0F7
:094437000D900744EDF0B20A906B
:0E444000072DE0FFA3E0FAA3E0FEA3E0FBEFF0
:0C444E004A4E4B709190074CE51AF0A309
:09445A00E51BF0900744EDF09021
:0C4463000742E0FA70069007427401F076
:0A446F0020032720022474012DFA17
:05447900900742E0FB8A
:0D447E00C3EA9B5011758220C002C00312DA
:09448B003DA6D003D0021B80EA1B
:05449400900742EBF06F
:0A44990030061275822D123DA69028
:0B44A3000742E0FA14900742F0802F5F
:0C44AE00900744E0FA6028300412758288
:0B44BA002B123DA6900742E0FA149080
:0544C5000742F0801326
:0A44CA00300510758220123DA69007
:0944D4000742E0FA14900742F0DF
:0944DD0020022F900744E0FA9040
:0444E6000742E0FBAE
:0E44EA008B041B900742EBF0C3EA9C50363067
:0644F80003047C30800289
:0244FE007C2020
:0E4500008C82C002C003123DA6D003D0028000
:01450E00DBD1
:0E450F00900742E0FA900744E0FCC39A50097E
:09451D00900742EAC39CF0800CF7
:07452600900742E4F080055C
:05452D00900742EBF0D5
:0D45320090074CE0FAA3E0FB900744E0FC8A
:0A453F008C061CEE6040B20A200A50
:06454900150ABA00010B87
:0E454F008A828B83E0FEC4540FFE900731F089
:02455D00800ECE
:0E455F008A828B83E0FE53060F900731EEF048
:0E456D00900731E0FEF582C002C003C00412C8
:0A457B003DEED004D003D00280BA58
:06458500200203023EC00B
:05458B00900742E0FA78
:094590008A031AEB7003023EC01D
:0C459900758220C002123DA6D00280EB0B
:0845A5008D82123DA6023EC00A
:0C45AD00900732E0FAA3E08A82F5832236
:0B4721003C4E4F20464C4F41543E00E0
:0E45B900AAF0AB83E58290074EF0A3EBF0A3CF
:0E45C700EAF07A007B0090074EE0FCA3E0FDD6
:0345D500A3E0FE62
:0E45D8008C828D838EF012460CFFA3AC82AD58
:0E45E6008390074EECF0A3EDF0A3EEF0EF6033
:0845F400070ABA00DF0B80DCAE
:0E45FC0090074EECF0A3EDF0A3EEF08A828B58
:02460A00832209
:03300300758125AF
:0A300600124628E582600302315BE8
:0E460C0020F71430F6148883A88220F507E604
:06461A00A8837583002255
:03462000E280F73E
:03462300E49322FB
:02462600E02290
:044628007582002275
:0E462C00E582900751F0900751E0FABA610064
:0B463A004009EA24854004758201223B
:044645007582002258
:00000001FF
