:0E306E00AA83E582900001F0A3EAF090000131
:0E307C00E0FAA3E0FB900000E0FC8A828B8368
:02308A00F02232
:0A308C003098FDAA99C2988A8222AA
:0E309600AAF0AB83E582900005F0A3EBF0A357
:0E30A400EAF0900003E0FAA3E0FBC3E49A74A4
:0E30B200808BF063F08095F040079000007571
:0330C000F00022FB
:0C30C300900008E4F0A3F0900005E0F598
:0830CF0008A3E0F509A3E0F5F8
:0630D7000A1ABAFF011BFA
:0430DD007F007800F8
:0E30E100C3EF9AE864808BF063F08095F050A6
:0E30EF006DC002C003C007C00012308CA98261
:0E30FD00D000D007D003D0028982C002C003E9
:0E310B00C007C000C0011240E2D001D000D0C9
:0A31190007D003D002B90A028003B8
:03312300B90D0BD8
:0B312600B90D3475820A1240E2802CC3
:0A313100C002C003EF2508FAE835DC
:0A313B0009FBAC0A8A828B838CF03A
:09314500E9124AD10FBF00010894
:0D314E00900008EFF0A3E8F0D003D00202DB
:02315B0030E161
:0E315D00900005E0FAA3E0FBA3E0FC90000860
:0E316B00E0FDA3E0FEED2AFDEE3BFE8C078D9D
:0E317900828E838FF0E4124AD18A828B838C7F
:02318700F02234
:0330000002300398
:07305C00E4F50FF510E4F5A7
:0530630011F512E4F577
:0330680013F51449
:03306B00023189A6
:0531890012318E80FEF2
:0D318E009000007465F090FFFF12306E128B
:0C319B0035759000007469F090FFFF1281
:0631A700306E1235889025
:0D31AD0000007461F090FFFF12306EE4F539
:0431BA000FF510F508
:0431BE0011F512F500
:0431C20013F514905D
:0731C6000952748BF0A374A1
:0C31CD0056F0A37480F0900955740FF0C8
:0D31D900E4A3F090084A75F00012489E74BF
:0A31E6009AC0E07456C0E07480C087
:0C31F000E0124DB115811581158174A904
:0B31FC00C0E07456C0E07480C0E01218
:0C3207004DB11581158115817A0F7B00F7
:0E3213009008E57410F0E4A3F09008E774044E
:0E322100F0E4A3F08A828B83123F4775820A85
:08322F001240E274B5C0E07426
:0C32370056C0E07480C0E0124DB115815B
:0C324300158115817A117B009008E5745C
:0E324F0010F0E4A3F09008E77404F0E4A3F09C
:0E325D008A828B83123F4775820A1240E27408
:0A326B00C0C0E07456C0E07480C0DB
:0C327500E0124DB11581158115817A130E
:0E3281007B009008E57410F0E4A3F09008E7DD
:0E328F007404F0E4A3F08A828B83123F47752B
:0A329D00820A1240E274CEC0E07411
:0C32A70056C0E07480C0E0124DB11581EB
:0D32B30015811581900859E0FAA3E0FB9009
:0E32C00008E57410F0E4A3F09008E77404F041
:0E32CE00E4A3F08A828B83123F4775820A12B6
:0732DC0040E274D9C0E07468
:0C32E30056C0E07480C0E0124DB11581AF
:0D32EF001581158190085BE0FAA3E0FB90CB
:0E32FC0008E57410F0E4A3F09008E77404F005
:0E330A00E4A3F08A828B83123F4775820A1279
:0733180040E274E4C0E07420
:0C331F0056C0E07480C0E0124DB1158172
:09332B00158115817A4A7B069098
:0E33340008E57410F0E4A3F09008E77404F0CC
:0E334200E4A3F08A828B83123F4775820A1241
:0933500040E275820A1240E2120B
:0633590039A47A007B009C
:0E335F00C3EB64809481501E8A04EBCC25E001
:0A336D00CC33FDEC244AF582ED3468
:0C33770006F583E4F0A3F00ABA00DD0BB9
:0233830080DAEE
:09338500E513B43204E514600202
:02338E00801AA3
:0A33900074F0C0E07456C0E07480D1
:0D339A00C0E0124DB1158115811581E4F5DB
:0333A70013F51407
:0A33AA0012308CAA82BA08028003D8
:0333B40002344F91
:0A33B700C3E4950F74808510F063E5
:0B33C100F08095F05057150F74FFB519
:0433CC000F021510C7
:0C33D000900859E0FBA3E0FCE50F2BF592
:0C33DC0082E5103CF583E0FBC2D575F0E3
:0933E80002EB30E704B2D5F40455
:0E33F100A430D50AF42401C5F0F43400C5F070
:0A33FF00244AFB740635F0FC8B82B3
:0C3409008C83E0FDA3E0FE1DBDFF011E52
:093415008B828C83EDF0A3EEF034
:0A341E00C3E4951374808514F06375
:09342800F08095F04003023385A9
:0E3431007582081240E27582201240E2758218
:09343F00081240E2151374FFB5F8
:043448001302151442
:03344C00023385C3
:0C344F008A82C0021240E2D00274012503
:05345B0011F511E4353C
:0634600012F512740125B3
:0534660013F513E4352D
:0A346B0014F514C2D575F002EA3022
:06347500E704B2D5F404E7
:0E347B00A430D50AF42401C5F0F43400C5F0E5
:0A348900244AFB740635F0FC8B8228
:0C3493008C83E0FDA3E0FE0DBD00010EE7
:0E349F008B828C83EDF0A3EEF0C3EA64809480
:0E34AD00B0400B74B98AF063F08095F05026A1
:0E34BB00C3EA648094E1400B74FA8AF063F077
:0534C9008095F0501396
:0E34CE00C3EA648094C1404C74DA8AF063F063
:0534DC008095F0404165
:0534E100AB0FAC10E58B
:0A34E600103395E0FDFEC3EB950BDB
:0A34F000EC950CED950DEE6480855F
:0C34FA000EF063F08095F0501F90085910
:0B350600E0FBA3E0FCE50F2BF582E5E5
:0A351100103CF583EAF07401250F69
:06351B00F50FE43510F588
:013521001099
:0D352200BA3F0EC0021239FED002C00212E4
:04352F0039A4D002E9
:05353300BA3D02800317
:03353800023385D6
:0E353B00900859E0FAA3E0FB7C009008E0E560
:0A3549000FF0A3E510F08A828B83D7
:0A3553008CF012374474F0C0E074ED
:0C355D0056C0E07480C0E0124DB1158132
:0A35690015811581E4F513F5140235
:0235730033859E
:03357500023578A4
:0E35780090095C7440F0A37406F090000A0203
:023586004914E6
:0A35880074F5C0E07456C0E07480D2
:0E359200C0E0124DB115811581158190000326
:0D35A0007480F0E4A3F090085D75F0001257
:0635AD0030969009127433
:0A35B300DDF0A37408F0A37400F02B
:0E35BD0090085D75F000124175AA82AB838AFA
:0835CB000BEBF50C3395E0F564
:0435D3000DF50E9054
:0E35D700085DE060179008DDE0FAA3E0FBA3BA
:0E35E500E0FC8A828B838CF012564EFA60183E
:0A35F300743BC0E07457C0E0748020
:0E35FD00C0E0124DB11581158115810235888F
:0A360B00C3E50B9418E50C9400E5EC
:0A3615000D9400E50E6480948040DF
:0A361F00177440950B7406950CE437
:0A362900950D7480850EF063F080AB
:0436330095F050209E
:05363700C00BC00CC037
:04363C000DC00E743B
:0A36400050C0E07457C0E07480C071
:0D364A00E0124DB1E58124F9F581023588CB
:0E3657009009247408F0E4A3F0A3F0A3F0851A
:063665000B82850C838539
:05366B000DF0E50E1258
:0E36700043F5AA82AB83ACF0FDBA000BBB00A1
:09367E0008BC0005BD000280201B
:05368700C00BC00CC0E7
:04368C000DC00E74EB
:0A36900070C0E07457C0E07480C001
:0D369A00E0124DB1E58124F9F5810235887B
:0936A700AA0BAB0C8A828B831282
:0E36B0004995E5828583F0900859F0A3E5F076
:0E36BE00F090093E7404F0E4A3F0A3F0A3F032
:0736CC00850B82850C83854C
:0536D3000DF0E50E12F0
:0E36D80046C7AA82AB83ACF0FD124995AA82C8
:0E36E600AB8390085BEAF0A3EBF0900859E08C
:0B36F400FCA3E0FD4C6004EA4B7044B6
:0E36FF00900859E0FAA3E0FB4A600B7C008AB9
:08370D00828B838CF012452B26
:0E37150090085BE0FAA3E0FB4A600B7C008AA0
:08372300828B838CF012452B10
:0A372B007490C0E07457C0E0748091
:0E373500C0E0124DB115811581158102358855
:013743002263
:0E374400AAF0AB83E5829008E2F0A3EBF0A3BD
:0E375200EAF09000007468F090FFFF12306EF5
:0A37600074A6C0E07457C0E0748046
:0E376A00C0E0124DB11581158115817A377BB3
:013778000050
:0E37790075822DC002C0031240E2D003D002C0
:053787001ABAFF011B4E
:0C378C00EA4B70E975822B1240E274AA2F
:0B379800C0E07457C0E07480C0E01275
:0C37A3004DB115811581158174AEC0E098
:0C37AF007457C0E07480C0E0124DB115EA
:0E37BB0081158115819008E2E0FAA3E0FBA3DE
:0737C900E0FC8A178B188C4D
:0B37D000199008E0E0F8A3E0F9E4F530
:0337DB0015F516CB
:0A37DE00C3E51598E516648089F034
:0A37E80063F08095F04003023944BD
:0C37F20090096D7410F0E4A3F0851582BE
:0C37FE00851683C002C003C004C000C0D8
:0E380A0001124B36E5828583F0D001D000D04C
:0C38180004D003D00245F060030238D851
:0E382400C000C00190090F7439F0E4A3F075E4
:0D383200827CC002C003C004C000C00112AF
:0E383F00411ED001D000D004D003D002C00240
:0C384D00C003C004C000C00174AAC0E0A9
:0C3859007457C0E07480C0E0124DB1153F
:0E3865008115811581D001D000D004D003D090
:0A38730002E5152AF8E5163BF98C72
:0E387D00059008E57410F0E4A3F09008E774DD
:0E388B0004F0E4A3F088828983C002C003C069
:0E38990004C000C001123F47D001D000D0048F
:0E38A700D003D002C002C003C004C000C001A4
:0A38B50074E4C0E07457C0E07480B2
:0E38BF00C0E0124DB1158115811581D001D0E8
:0B38CD0000D004D003D002D001D000D6
:0638D800E5152517FDE5D2
:0538DE00163518FEAFD5
:0C38E300198D828E838FF012564EFD333B
:0D38EF0095E0FE9008E57410F0E4A3F09061
:0E38FC0008E77402F0E4A3F08D828E83C00210
:0E390A00C003C004C000C001123F47D001D06E
:0E39180000D004D003D002758220C002C0038C
:0E392600C004C000C0011240E2D001D000D0A9
:0A39340004D003D0020515E4B51518
:03393E0002051669
:033941000237DE6C
:0D39440090090F7439F0E4A3F075827C1235
:07395100411E74E7C0E074A1
:0C39580057C0E07480C0E0124DB1158132
:08396400158115817A377B0003
:0E396C0075822DC002C0031240E2D003D002CB
:05397A001ABAFF011B59
:0A397F00EA4B70E974EAC0E07457E7
:0E398900C0E07480C0E0124DB11581158115AB
:0D399700819000007464F090FFFF02306E1C
:0A39A40074EDC0E07457C0E07480B9
:0C39AE00C0E0124DB11581158115817427
:0A39BA000DC0E07458C0E07480C036
:0C39C400E0124DB1158115811581742DA4
:0B39D000C0E07458C0E07480C0E0123A
:0C39DB004DB115811581158174F0C0E01C
:0C39E7007456C0E07480C0E0124DB115B1
:0A39F3008115811581E4F513F51428
:0139FD0022A7
:0D39FE009000007466F090FFFF12306E74B0
:0A3A0B00A6C0E07457C0E07480C04C
:0E3A1500E0124DB11581158115817A377B00C5
:0E3A230075822DC002C0031240E2D003D00213
:053A31001ABAFF011BA1
:0A3A3600EA4B70E9744EC0E07458CA
:0E3A4000C0E07480C0E0124DB11581158115F3
:0A3A4E00817453C0E07458C0E074A6
:0D3A580080C0E0124DB115811581158190DF
:0E3A650008E5740AF0E4A3F09008E7E4F0A38B
:083A7300F08511828512831217
:073A7B003F47745DC0E074D9
:0C3A820058C0E07480C0E0124DB1158106
:0E3A8E001581158190090F7439F0E4A3F075CD
:0A3A9C00827C12411E74AAC0E0747F
:0C3AA60057C0E07480C0E0124DB11581E3
:0E3AB2001581158190090F7439F0E4A3F075A9
:0A3AC000827C12411E74AAC0E0745B
:0C3ACA0057C0E07480C0E0124DB11581BF
:0A3AD60015811581747BC0E074585F
:0E3AE000C0E07480C0E0124DB1158115811553
:0E3AEE00819008E5740AF0E4A3F09008E7E484
:0A3AFC00F0A3F0850F8285108312FD
:073B06003F477483C0E07427
:0C3B0D0058C0E07480C0E0124DB115817A
:093B190015811581AA0FAB10E51E
:0A3B2200103395E0FCFDE50BC39A9B
:0A3B2C00FAE50C9BFBE50D9CFCE59F
:0C3B36000E9DFD9008E5740AF0E4A3F079
:0E3B42009008E7E4F0A3F08A828B83123F47DD
:0A3B500074A1C0E07458C0E0748056
:0E3B5A00C0E0124DB115811581158190090F43
:0D3B68007439F0E4A3F075827C12411E74E4
:0A3B7500AAC0E07457C0E07480C0DD
:0C3B7F00E0124DB115811581158174A76D
:0B3B8B00C0E07458C0E07480C0E0127D
:0B3B96004DB1158115811581AA0BAB04
:0B3BA1000C9008E5740AF0E4A3F0901B
:0E3BAC0008E7E4F0A3F08A828B83123F47748F
:0A3BBA00B2C0E07458C0E07480C08F
:0E3BC400E0124DB1158115811581900859E070
:0E3BD200FAA3E0FB9008E57410F0E4A3F09075
:0D3BE00008E77404F0E4A3F08A828B8312DE
:0E3BED003F4790090F7439F0E4A3F075827C15
:083BFB0012411E74AAC0E0741F
:0C3C030057C0E07480C0E0124DB1158184
:0A3C0F001581158174BDC0E07458E2
:0E3C1900C0E07480C0E0124DB1158115811518
:0E3C27008190093E7404F0E4A3F0A3F0A3F032
:073C3500850B82850C8385DD
:053C3C000DF0E50E1281
:0E3C410046C7AA82AB83ACF0FD9008E5740A7A
:0E3C4F00F0E4A3F09008E7E4F0A3F08A828B83
:093C5D0083123F4774B2C0E07409
:0C3C660058C0E07480C0E0124DB1158120
:0D3C72001581158190085BE0FAA3E0FB903E
:0E3C7F0008E57410F0E4A3F09008E77404F078
:0E3C8D00E4A3F08A828B83123F4790090F74E4
:0C3C9B0039F0E4A3F075827C12411E7425
:0A3CA700AAC0E07457C0E07480C0AA
:0E3CB100E0124DB11581158115817A007B005E
:0E3CBF00C3EA940EEB648094804003023DE95A
:0E3CCD0090096D7408F0E4A3F08A828B83C026
:0E3CDB0002C003124B36E5828583F0D003D081
:0E3CE9000245F0703490090F7439F0E4A3F036
:0E3CF70075827CC002C00312411ED003D002B1
:0A3D0500C002C00374AAC0E07457A6
:0E3D0F00C0E07480C0E0124DB1158115811521
:053D1D0081D003D0027B
:0A3D2200EA244AF582EB3408F58329
:0E3D2C00E0FCF582C002C0031240E2D003D0DA
:0E3D3A000275822DC002C0031240E2D003D0F9
:0A3D480002EA244AF582EB3408F584
:0E3D520083E0FCC2D575F002EC30E704B2D578
:023D6000F40469
:0E3D6200A430D50AF42401C5F0F43400C5F0F5
:0A3D7000244AF582740635F0F5834D
:0E3D7A00E0FCA3E0FD9008E5740AF0E4A3F07D
:0E3D88009008E7E4F0A3F08C828D83C002C0A7
:0E3D960003123F47D003D002758220C002C046
:0C3DA400031240E2D003D002EA244AF5EA
:0C3DB00082EB3408F583E0FCC2D575F00E
:093DBC0002EC30E704B2D5F40476
:0E3DC500A430D50AF42401C5F0F43400C5F092
:0A3DD300244AF582740635F0F583EA
:093DDD00E4F0A3F00ABA00010BA6
:033DE600023CBFDD
:0D3DE90090090F7439F0E4A3F075827C128C
:073DF600411E74AAC0E07435
:0C3DFD0057C0E07480C0E0124DB1158189
:0E3E09001581158190090F7439F0E4A3F0754E
:0A3E1700827C12411E74AAC0E07400
:0C3E210057C0E07480C0E0124DB1158164
:0A3E2D001581158174C8C0E07458B7
:0E3E3700C0E07480C0E0124DB11581158115F8
:053E4500817A007B0002
:0A3E4A00C3EA950FEB64808510F0C9
:0A3E540063F08095F04003023EDAAF
:0E3E5E0090096D7432F0E4A3F08A828B83C069
:0E3E6C0002C003124B36E5828583F0D003D0EE
:0E3E7A000245F0703490090F7439F0E4A3F0A3
:0E3E880075827CC002C00312411ED003D0021E
:0A3E9600C002C00374AAC0E0745714
:0E3EA000C0E07480C0E0124DB115811581158F
:053EAE0081D003D002E9
:0E3EB300900859E0FCA3E0FDEA2CF582EB3DFF
:0E3EC100F583E0FCF582C002C0031240E2D09F
:083ECF0003D0020ABA00010B46
:033ED700023E4A5E
:0D3EDA0090090F7439F0E4A3F075827C129A
:073EE700411E74E7C0E07406
:0C3EEE0057C0E07480C0E0124DB1158197
:083EFA00158115817A377B0068
:0E3F020075822DC002C0031240E2D003D0022F
:053F10001ABAFF011BBD
:0A3F1500EA4B70E974EAC0E074574B
:0E3F1F00C0E07480C0E0124DB115811581150F
:073F2D0081E4F50FF510F52A
:043F340011F512F57C
:043F380013F51490D9
:0B3F3C0000007464F090FFFF02306E84
:0E568B003031323334353637383946454D41EB
:015699000010
:0E569A00496E697469616C20496E666F3A0A48
:0156A8000001
:0C56A900266E5F73746F7265643A09002E
:0B56B500266E5F63686172733A0900A3
:0E56C000266E5F617470726F6D70743A09002F
:0B56CE0026627566666572303A0900BE
:0B56D90026627566666572313A0900B2
:0C56E400266E756D6265726F663A0900F3
:0556F0000A3E3E20000F
:0E56F500456E74657220796F7572206275665D
:0E5703006665722073697A652028696E2074CD
:0E57110068652072616E6765205B323420315E
:0E571F003630305D20616E642061206D756C47
:0E572D007469706C65206F662038293A200080
:0E573B000A4E6F6E2D696E7465676572206987
:075749006E7075742E0A005A
:0E5750000A56616C7565206F7574206F6620B7
:0E575E0072616E6765205B3234203136303068
:04576C005D2E0A00A4
:0E5770000A56616C7565206D75737420626554
:0E577E0020646976697369626C652062792027
:04578C00382E0A00A9
:0E5790000A416C6C6F636174696F6E20666114
:08579E00696C7572652E0A00AA
:0457A6000A0A2B00C0
:0457AA000A7C200055
:0E57AE002020202020202B30202B31202B32D9
:0E57BC00202B33202B34202B35202B36202B96
:0E57CA0037202B38202B39202B41202B42205A
:0C57D8002B43202B44202B45202B4600A7
:0357E4003A200068
:0357E7000A2B008A
:0357EA002B0A0087
:0E57ED000A456E7465722063686172616374B0
:0E57FB0065727320666F722073746F7261673F
:04580900652E0A00FE
:0E580D00093D096865782064756D70206F662E
:0E581B002062756666657220636F6E74656E3E
:0458290074730A008A
:0E582D00093F097072696E74207374617473A0
:0E583B0020616E6420636C6561722062756688
:055849006665720A0013
:05584E002B0A7C200084
:0A5853005265636965766564200004
:0E585D00206368617261637465727320736901
:0E586B006E6365206C61737420666C757368E3
:025879002E00FF
:08587B0053746F726564200094
:0E588300206368617261637465727320696EE0
:0E58910020627566666572302C207769746837
:02589F002000E7
:0658A1002066726565003F
:0B58A70042756666657220303A2000F2
:0B58B20020627974657320617420008F
:0B58BD0042756666657220313A2000DB
:0E58C800466C757368696E672062756666656A
:0558D600722E2E2E00D1
:0E3F4700AA83E5829008E9F0A3EAF07A007BF5
:013F5500006B
:0D3F5600C3EA9420EB648094805014EA24A8
:0A3F6300EBF582EB3408F5837430AF
:083F6D00F00ABA00E40B80E148
:0E3F75009008E9E0FAA3E0FB30E70675822D24
:033F83001240E207
:0C3F86009008E5E0FAA3E0FB7C007D0061
:0E3F92009008E9E0FEA3E0FF4E7003024048F5
:0E3FA00090096DEAF0A3EBF08E828F83C002D1
:0E3FAE00C003C004C005124B36AE82AF83D0F4
:0E3FBC0005D004D003D0028E828F83C002C0D5
:0E3FCA0003C004C005124AEAAE82AF83D005E0
:0E3FD800D004D003D002C374898EF063F08051
:0C3FE60095F0400890090B7430F0800644
:063FF20090090B7437F08A
:093FF800EC24EBFFED3408F89015
:0E400100090BE0F92EFE8F828883F09008E90B
:0E400F00E0FEA3E0FF900976EAF0A3EBF08E4E
:0E401D00828F83C002C003C004C005124C5243
:0E402B00E5828583F0D005D004D003D002904A
:0C40390008E9F0A3E5F0F00CBC00010D5C
:03404500023F92A5
:0E40480090090CECF0A3EDF09008E7E0FAA36D
:0E405600E0FB4A701AEC4D7016758230C00205
:0E406400C003C004C0051240E2D005D004D055
:0340720003D00276
:0E407500C3E49A74808BF063F08095F0501DC8
:0E408300C3EA9CEB64808DF063F08095F050F2
:03409100028004A6
:044094008A048B050A
:0840980090090CECF0A3EDF01F
:0D40A00090090CE0FAA3E0FB1ABAFF011B27
:0E40AD0090090CEAF0A3EBF090090CE0FAA3E6
:0240BB00E0FB28
:0B40BD00EB20E720EA24EBF582EB3457
:0C40C80008F583E0FCF582C002C0031282
:0D40D40040E2D003D0021ABAFFDF1B80DCEF
:0140E10022BC
:0E40E200E58290090EF090090EE0FABA0A0F7E
:0540F00010990280FBA5
:0A40F50075990D9009AEE4F0A3F0F8
:0540FF0010990280FB96
:0E41040090090EE0F5999009AEE0FAA3E0FBF9
:0C4112009009AE74012AF0E43BA3F022F7
:0E411E00E582900911F09009AEE0FAA3E0FBF3
:0E412C0090090FE0FCA3E0FDECC39AFAED9BB6
:05413A00FB7C007D008C
:0E413F00C3EC9AED64808BF063F08095F05035
:0D414D001D758220C002C003C004C0051211
:0E415A0040E2D005D004D003D0020CBC00D748
:034168000D80D4F3
:0A416B00900911E0FAF5820240E22B
:0258E6000000C0
:0E417500AAF0AB83E582900915F0A3EBF0A34E
:0E418300EAF0900918E4F0A3F090091AE4F0B5
:0E419100A3F0900915E0FAA3E0FBA3E0FC8A7E
:0D419F00828B838CF01255FBAA82AB8390BB
:0C41AC00091CEAF0A3EBF0900915E0F507
:0841B8001AA3E0F51BA3E0F5DA
:0541C0001C851A828538
:0641C5001B83851CF012B3
:0E41CB00564EFFBF2D5D90091A7401F0E4A35B
:0A41D900F07401251AFFE4351BF80D
:0C41E300A91C8F82888389F012564E7050
:0E41EF0026900912E0FCA3E0FDA3E0FE8C8206
:0B41FD008D838EF0E51A124AD1A3E575
:064208001B124AD1A3E5E0
:08420E001C124AD190000022AD
:0E421600900915EFF0A3E8F0A3E9F01ABAFF43
:02422400011B7C
:0842260090091CEAF0A3EBF083
:0E422E0090091CE0FAA3E0FB900915E0FCA348
:09423C00E0FDA3E0FE7F00780024
:0E424500C002C003EF2CF9E83DFA8E03898217
:0E4253008A838BF012564EF9D003D002E97028
:044261000302430F02
:0B426500C3E9648094B0500302430FD3
:0D427000C374B989F063F08095F05003022B
:02427D00430FED
:0E427F00C004C005C006E93395E0FCE924D078
:0E428D00F9EC34FFFCEAC39FFDEB98FE1DBD6B
:03429B00FF011E02
:0E429E0090091EEDF0A3EEF090000AC002C0E1
:0E42AC0003C004C007C000C00112435DAD8214
:0E42BA00AE83D001D000D007D004D003D002D4
:0E42C80090096BEDF0A3EEF089828C83C002AA
:0E42D600C003C006C007C000124B16AC82AD7C
:0E42E40083D000D007D006D003D00290091876
:0E42F200E0FEA3E0F9900918EC2EF0ED39A3E0
:06430000F00FBF000108F0
:09430600D006D005D004024245A6
:0E430F00900912E0FAA3E0FBA3E0FC90091570
:0E431D00E0FDA3E0FEA3E0F9EF2DFDE83EFE7B
:0D432B008A828B838CF0ED124AD1A3EE1232
:084338004AD1A3E9124AD19019
:0E434000091AE0FAA3E0FB4A6007900918E4AE
:03434E00F0A3F0E9
:0C435100900918E0FAA3E08A82F58322AC
:0E435D00AA83E582900920F0A3EAF0900922DD
:06436B007401F0E4A3F070
:0E43710090091EE0FAA3E0FB4A606DEA30E01E
:0E437F002C900920E0FAA3E0FB900922E0FC5C
:0E438D00A3E0FD90096BEAF0A3EBF08C828DAB
:0E439B0083124B16E5828583F0900922F0A371
:0343A900E5F0F04C
:0E43AC0090091EE0FAA3E0FBA2E713CA13CAB1
:0E43BA00FB90091EEAF0A3EBF0900920E0FA58
:0E43C800A3E0FB90096BEAF0A3EBF08A828B76
:0E43D60083124B16E5828583F0900920F0A338
:0543E400E5F0F0808807
:0C43E900900922E0FAA3E08A82F583220A
:0E43F500AA82AB83ACF0FD900928EAF0A3EB9E
:0E440300F0A3ECF0A3EDF0900928E0FAA3E09E
:0E441100FBA3E0FCA3E0FD30E70FC3E49AFE3E
:0B441F00E49BFFE49CF8E49DF980089A
:08442A008A068B078C008D014E
:0E4432008E028F0388048905900924E0FEA302
:0E444000E0FFA3E0F8A3E0F930E713C3E49E29
:09444E00F522E49FF523E498F542
:0744570024E499F52580081B
:05445E008E228F23886F
:0344630024892584
:08446600900935E522F0A3E501
:08446E0023F0A3E524F0A3E50F
:0C44760025F08A828B838CF0ED12457ECD
:0E448200AA82AB83ACF0FD900928E0FEA3E017
:0E449000FFA3E0F8A3E0F930E714C3E49AFEBE
:0E449E00E49BFFE49CF8E49DF98E828F8388F6
:0244AC00F022FC
:0844AE008A828B838CF0ED2261
:0E44B600AA83E58290092EF0A3EAF090092E69
:0C44C400E0FAA3E0FB4A70049000002224
:0E44D000EA24FCFAEB34FFFB90095AE0FCA34F
:0E44DE00E0FD900930ECF0A3EDF090092CE425
:0344EC00F0A3F04A
:0E44EF00900930E0FCA3E0FD4C6025EAB50426
:0744FD0006EBB50502801B70
:0E45040090092CECF0A3EDF08C828D83E0FC8E
:0D451200A3E0FD900930ECF0A3EDF080D0A7
:0C451F00900930E0FAA3E08A82F58322C4
:0E452B00AAF0AB83E582900932F0A3EBF0A377
:0E453900EAF0900932E0FAA3E0FBA3E0FC8A6E
:0E454700828B831244B6AA82AB83EA4B6028B3
:0E45550090092CE0FCA3E0FD4C700B8A828BD9
:0845630083A3A3E4F0A3F022FE
:0E456B008A828B83E0FAA3E0FB8C828D83EAC8
:04457900F0A3EBF0D0
:01457D00221B
:0E457E00AA82AB83ACF0FD900939EAF0A3EB02
:0D458C00F0A3ECF0A3EDF090093DE4F090F9
:0E4599000939E0FAA3E0FBA3E0FCA3E0FD7EFD
:0145A7000013
:0945A800900935E0F530A3E0F5BF
:0845B10031A3E0F532A3E0F5AF
:0A45B90033E533235401FF7078C08E
:0A45C30006E53025E0FFE53133F88E
:0945CD00E53233F9E53333FE90C9
:0E45D6000935EFF0A3E8F0A3E9F0A3EEF090B2
:0845E4000935E0F530A3E0F514
:0845EC0031A3E0F532A3E0F574
:0745F40033C3EA9530EB959B
:0645FB0031EC9532ED9554
:0A46010033E433D0066029E533C32B
:07460B0013F533E53213F54E
:0546120032E53113F553
:0546170031E53013F550
:05461C0030900935E5B6
:0846210030F0A3E531F0A3E540
:0846290032F0A3E533F0800933
:094631000E90093DEEF00245A8CF
:05463A0090093DE0FACB
:0E463F00900939E0FBA3E0FCA3E0FDA3E0FE40
:09464D00900935E0F530A3E0F519
:0846560031A3E0F532A3E0F509
:07465E0033C3EB9530EC952E
:0646650031ED9532EE95E7
:09466B00334017900939EBC395A7
:0946740030F0EC9531A3F0ED9556
:08467D0032A3F0EE9533A3F027
:0E468500900935E0FBA3E0FCA3E0FDA3E0FEFE
:0D469300C313FEED13FDEC13FCEB13FB90C5
:0E46A0000935F0A3ECF0A3EDF0A3EEF08A03D1
:0E46AE001AEB708D900939E0FAA3E0FBA3E04F
:0B46BC00FCA3E0FD8A828B838CF022BF
:0E46C700AA82AB83ACF0FD900942EAF0A3EBAF
:0E46D500F0A3ECF0A3EDF0900942E0FAA3E0B0
:0E46E300FBA3E0FCA3E0FD30E70FC3E49AFE6A
:0B46F100E49BFFE49CF8E49DF98008C6
:0846FC008A068B078C008D017A
:0E4704008E028F038804890590093EE0FEA313
:0C471200E0FFA3E0F8A3E0F933E433F586
:09471E0026E5266013C3E49EF5B4
:0847270027E49FF528E498F552
:07472F0029E499F52A800836
:054736008E278F28888A
:03473B0029892A9F
:08473E00900946E527F0A3E510
:0847460028F0A3E529F0A3E52A
:0C474E002AF08A828B838CF0ED124792D7
:0E475A00AA82AB83ACF0FD900942E0FEA3E022
:0C476800FFA3E0F8A3E0F933E43365267A
:0E4774006014C3E49AFEE49BFFE49CF8E49D0D
:08478200F98E828F8388F0227A
:08478A008A828B838CF0ED2282
:0E479200AA82AB83ACF0FD90094AEAF0A3EBDB
:0E47A000F0A3ECF0A3EDF090094EE4F0A3F0CE
:0E47AE00A3F0A3F0900946E0FAA3E0FBA3E01D
:0747BC00FCA3E0FD753020B5
:0E47C30090094AE0FFA3E0F8A3E0F9A3E0FEAE
:0C47D100339200EF2FFFE833F8E933F9D2
:0E47DD00EE33FE90094AEFF0A3E8F0A3E9F0F6
:0E47EB00A3EEF090094EE0FEA3E0FFA3E0F87D
:0E47F900A3E0F9EE2EFEEF33FFE833F8E933CC
:0E480700F990094EEEF0A3EFF0A3E8F0A3E95C
:0C481500F030001E90094EE0FFA3E0F818
:0E482100A3E0F9A3E0FE90094E74014FF0A34E
:08482F00E8F0A3E9F0A3EEF0AC
:0E48370090094EE0FEA3E0FFA3E0F8A3E0F935
:0E484500C3EE9AEF9BE89CE99D403190094E2E
:0E485300EEC39AF0EF9BA3F0E89CA3F0E99D62
:0E486100A3F090094AE0FEA3E0FFA3E0F8A355
:0E486F00E0F990094A74014EF0A3EFF0A3E8BF
:04487D00F0A3E9F0CB
:05488100D530028003A8
:034886000247C323
:0E48890090094AE0FAA3E0FBA3E0FCA3E0FDE7
:074897008A828B838CF02262
:06303200E478FFF6D8FD72
:0E489E00AAF0AB83E582900957F0A3EBF0A3DC
:0B48AC00EAF0900957E0F533A3E0F5B7
:0648B70034A3E0F535908A
:0C48BD000952E0FDA3E0FEA3E0FF8533FC
:0348C90030853403
:0348CC00318535FE
:0948CF0032900955E0F8A3E0F96C
:0948D8008802890318B8FF0119D8
:0E48E100EA4B60258D828E838FF012564EFAC0
:0A48EF00A3AD82AE838530828531CF
:0B48F900838532F0EA124AD1A38582C9
:064904003085833180CEF6
:07490A0085338285348385AB
:0349110035F0225C
:083010007902E94400601B7A1B
:05301800019058E6786C
:03301D00AE75A0ED
:0A30200009E493F2A308B8000205CA
:08302A00A0D9F4DAF275A0FF51
:0E491400AA83E58290095EF0A3EAF090095EA6
:0E492200E0FAA3E0FB900960EAF0A3EBF0EAF4
:0E4930004B702090096074012AF0E43BA3F064
:0D493E0090095CE0FAA3E0FB1ABAFF011B30
:08494B0090095CEAF0A3EBF017
:0E495300900960E0FAA3E0FB90095AEAF0A395
:0E496100EBF090095CE0FCA3E0FDEC2AFCED1D
:0E496F003BFDEC24FEFCED34FFFD8A828B83C1
:0E497D00ECF0A3EDF08C828D83E4F0A3F08AC1
:0A498B00828B83A3A3E4F0A3F022C3
:0E499500AA83E582900962F0A3EAF09009621D
:0E49A300E0FAA3E0FBC374FB9A74FF9B500480
:0449B1009000002250
:0E49B50090096274042AF0E43BA3F090095AC2
:0E49C300E0FAA3E0FB900964EAF0A3EBF090A9
:0849D1000962E0F530A3E0F5F6
:0149D90031AC
:0E49DA00900964E0FCA3E0FD8C828D83E0FE7A
:0E49E800A3E0FF8E008F018C028D03E8C39ABE
:0E49F600F8E99BF98C828D83A3A3E0FAA3E07D
:0C4A0400FBE8C39AF8E99BF9C3E8953081
:0C4A1000E99531400D90096674042CF00B
:064A1C00E43DA3F080233D
:0E4A2200900964EEF0A3EFF0900964E0FAA3AF
:0E4A3000E0FB8A828B83E0FAA3E0FB4A709CD5
:074A3E00900966E4F0A3F00B
:0E4A4500900966E0FAA3E0FB4A7003024AC53E
:0E4A5300900964E0FAA3E0FB74022AFCE43B45
:0E4A6100FD8C828D83E0FEA3E0FF4E7013906B
:0E4A6F000962E0F8A3E0F98C828D83E8F0A3E1
:044A7D00E9F0804498
:0E4A8100EE2AFEEF3BFF8A828B83E0FCA3E06F
:0E4A8F00FD8E828F83ECF0A3EDF08A828B8384
:0D4A9D00EEF0A3EFF074022EFAE43FFB9060
:0E4AAA000962E0FCA3E0FD8A828B83ECF0A39E
:0D4AB800EDF090096674042EF0E43FA3F0C9
:0C4AC500900966E0FAA3E08A82F58322E3
:0E4AD10020F71030F6118883A88220F507F632
:054ADF00A883758300AF
:014AE40022AF
:034AE500F280F765
:024AE800F022BA
:0E4AEA00AA83E582900969F0A3EAF0900969B9
:0E4AF800E0FAA3E0FB33B3E433FC60068A046B
:044B06008B05800794
:074B0A00C3E49AFCE49BFDEB
:054B11008C828D83225F
:0E4B1600AA83AB828BF090096BE0A4F8A9F0A3
:0E4B24008AF0E0A429F98BF0A3E0A429F58320
:044B32008882222231
:0E4B3600AA83E58290096FF0A3EAF090096F60
:0E4B4400E0FAA3E0FB30E709C3E49AFCE49B2F
:034B5200FD8004DF
:044B55008A048B053E
:0E4B59008C028D0390096DE0FCA3E0FD30E7B7
:0A4B670009C3E49CFEE49DFF8004F6
:044B71008C068D071A
:0D4B7500900971EEF0A3EFF08A828B83129D
:0E4B82004BA4AA82AB8390096FE0FCA3E0FD78
:0E4B900030E70CC3E49AFCE49BFD8C828D831D
:014B9E0022F4
:054B9F008A828B8322D5
:0E4BA400AA83E582900973F0A3EAF0900975E8
:0C4BB200E4F0900973E0FAA3E0FB7C0043
:0E4BBE00900971E0FDA3E0FE235401FF703763
:0E4BCC00EECD25E0CD33FE900971EDF0A3EEA5
:0E4BDA00F0900971E0FDA3E0FEC3EA9DEB9EA2
:0E4BE8005011EEC313CD13CDFE900971EDF008
:054BF600A3EEF08008B1
:084BFB000C900975ECF080BB81
:054C0300900975E0FAC4
:0E4C0800900973E0FBA3E0FC900971E0FDA3AE
:0E4C1600E0FEC3EB9DEC9E400B900973EBC3D8
:064C24009DF0EC9EA3F0E0
:0E4C2A00900971E0FBA3E0FCC313CB13CBFC9D
:0E4C3800900971EBF0A3ECF08A031AEB70C246
:0C4C4600900973E0FAA3E08A82F5832253
:0E4C5200AA83E582900978F0A3EAF090097831
:0E4C6000E0FAA3E0FB30E709C3E49AFCE49B12
:034C6E00FD8004C2
:044C71008A048B0521
:0E4C75008C028D03900976E0FCA3E0FD33E491
:0D4C830033FE6009C3E49CFFE49DF880044B
:044C90008C078D0000
:0E4C940090097AEFF0A3E8F08A828B83C006C5
:0E4CA200124CCAAA82AB83D006900978E0FCBF
:0E4CB000A3E0FD33E4336E600CC3E49AFCE431
:074CBE009BFD8C828D832217
:054CC5008A828B8322AE
:083038007800E84400600A7909
:033040000075A078
:0630430000E4F309D8FCD3
:0830490078AEE84409600C793F
:0B3051000A900000E4F0A3D8FCD9FABC
:0E4CCA00AA83E58290097CF0A3EAF090097EAF
:0E4CD800E4F0A3F090097AE0FAA3E0FB7C1070
:0C4CE60090097CE0FDA3E0FE339201EE9B
:0E4CF200CD25E0CD33FE90097CEDF0A3EEF071
:0E4D000090097EE0FDA3E0FECD25E0CD33FE60
:0C4D0E0090097EEDF0A3EEF03001129051
:0E4D1A00097EE0FDA3E0FE90097E74014DF0DD
:034D2800A3EEF007
:0E4D2B0090097EE0FDA3E0FEC3ED9AEE9B40F2
:0D4D39001D90097EEDC39AF0EE9BA3F09053
:0E4D4600097CE0FDA3E0FE90097C74014DF0B5
:034D5400A3EEF0DB
:0E4D5700DC8D90097CE0FAA3E08A82F58322CD
:084D6500C01D85811DAA821208
:054D6D0040E2D01D2210
:0E4D7200AAF0AB83E582900981F0A3EBF0A3D9
:0E4D8000EAF0900981E0FAA3E0FBA3E0FC90CA
:0E4D8E000980E0FD900994E4F0A3F0A3F090FA
:0E4D9C000997EAF0A3EBF0A3ECF090099AED72
:074DAA00F0904D65024ECAB6
:064DB100C01D85811DE517
:0C4DB7001D24FBFA900994E4F0A3F0A383
:0C4DC300F0E51D24FBF8900997E6F008CD
:0D4DCF00A3E6F008A3E6F090099AEAF09040
:0A4DDC004D65124ECAAA82AB83D0C7
:024DE6001D228C
:0C4DE800E582900990F0900990E0FA90AC
:0E4DF4000986E0C0E0A3E0C0E0A3E0C0E074E8
:084E020016C0E0744EC0E09000
:0C4E0A000984E0C0E0A3E0C0E08A82223E
:0E4E160015811581158190098EE0FAA3E0FB4D
:0C4E240090098E74012AF0E43BA3F022F8
:0E4E3000E582900991F0900991E0FA74302A21
:0C4E3E00FA24C6500A74072AFA30020356
:034E4A0043022000
:054E4D008A82024DE81D
:0E4E5200E582900992F0900992E0FAC4540FA4
:0E4E6000FBF582C002124E30D00253020F8AC0
:044E6E0082024E303E
:0E4E7200E582900993F0900989E0FAA3E0FB35
:0E4E8000A3E0FCA3E0FD90098DE0FE900993F5
:044E8E00E0FF7820A9
:0E4E9200EE2EFEED235401F94206EA2AFAEB59
:0E4EA00033FBEC33FCED33FDC3EE9F4007EE19
:064EAE00C39FFE43020158
:0E4EB400D8DC900989EAF0A3EBF0A3ECF0A3A0
:084EC200EDF090098DEEF022E5
:0E4ECA00AA83E58290099BF0A3EAF090099B71
:0E4ED800E0FAA3E0FB900984EAF0A3EBF0906F
:0E4EE6000994E0FAA3E0FBA3E0FC900986EA41
:0E4EF400F0A3EBF0A3ECF090098EE4F0A3F035
:0E4F0200900997E0FAA3E0FBA3E0FC8A828B03
:0E4F1000838CF012564EFD90099774012AF022
:0D4F1E00E43BA3F0A3ECF0ED70030255EFAF
:054F2B00BD250280031A
:034F30000255E740
:054F3300C203C204C22C
:044F380005C206C2E6
:044F3C0007C208C2DE
:044F400009C20A9008
:094F4400099DE4F090099EF09033
:0E4F4D00099FF0900997E0FAA3E0FBA3E0FCB7
:0E4F5B008A828B838CF012564EFEA3AA82AB84
:0D4F690083900997EAF0A3EBF0A3ECF09021
:0D4F760009A1EEF0BE25088E82124DE80262
:024F83004F02DB
:054F85008E07BF3000A3
:0E4F8A00404A8E07EF24C6404390099FE0FF87
:044F9800600280290A
:0E4F9C00C002C003C00490099EE0FA75F00A3E
:0E4FAA00A4FAEE24D090099E2AF090099EE011
:0C4FB800FAD004D003D002709AD204801A
:014FC4009656
:0E4FC500EF75F00AA4FFEE24D090099F2FF0A4
:034FD300024F5B2F
:0E4FD6009009A1E0FEBE2E0890099FE4F002B3
:024FE4004F5B21
:0E4FE6008E82C002C003C004C00612566EE5E3
:0C4FF4008224FF9202D006D004D003D02B
:09500000023002059009A1E4F060
:0A5009009009A1E0FEBE20028055D0
:05501300BE2B02804BE2
:05501800BE2D028041E5
:05501D00BE4202804BC1
:05502200BE43028050B6
:06502700BE440302525CCE
:06502D00BE460302527EA4
:06503300BE490302525CBD
:05503900BE4C028034B2
:06503E00BE4F03025266A2
:06504400BE50030251BE44
:05504A00BE530280428C
:06504F00BE550302526E83
:06505500BE580302527672
:03505B000252827C
:05505E00D203024F5BCC
:05506300D205024F5BC5
:05506800D206024F5BBF
:05506D00D208024F5BB8
:05507200D209024F5BB2
:0E50770090099AE0FA24FEF890099AF0860259
:0C508500088603188A82124DE802528E41
:0E50910090099AE0FA24FDF890099AF0860240
:0E509F000886030886041818900989EAF0A311
:0E50AD00EBF0A3ECF0900989E0FAA3E0FBA37E
:0E50BB00E0FC8A828B838CF01255FBAA82AB3C
:0A50C9008390099FE0FB6002800560
:0550D30090099FEAF0C6
:0C50D80020033890099EE0FBC3EA9B50C7
:0D50E4002E90099EEBC39AF090099EE0FB10
:0D50F1008B041B90099EEBF0BC00028010A8
:0E50FE00758220C002C003124DE8D003D0021C
:02510C0080E33E
:05510E0090099EEBF08A
:0551130090099FE0FD82
:0E511800C002900989E0FCA3E0FFA3E0FA8C3E
:0E512600828F838AF012564ED00260538D04A1
:0E5134001DC374808CF063F08095F05044C071
:0A51420002900989E0F52BA3E0F5C7
:08514C002CA3E0F52D740125F0
:075154002BFBE4352CFAAC43
:0C515B002D900989EBF0A3EAF0A3ECF022
:07516700852B82852C838556
:0C516E002DF012564EFAF582C002C0056A
:0B517A00124DE8D005D002D002809357
:0651850020030302528E1C
:0D518B0090099EE0FBC3EA9B400302528E98
:0C51980090099EEBC39AF090099EE0FA8B
:0E51A4008A031A90099EEAF0BB0003025289AA
:0C51B200758220C002124DE8D00280E699
:0E51BE0090099AE0FB24FDF890099AF0860310
:0E51CC000886040886071818900989EBF0A3DE
:0E51DA00ECF0A3EFF090098BE0FB247F50086F
:0851E8009009A17443F080203E
:0D51F000EB249F50089009A17450F080132B
:0D51FD00EB24BF50089009A17449F0800612
:06520A009009A17458F0A8
:0E5210009009A1E0FBF582C003124DE8D00327
:0E521E0075823AC003124DE8D003758230C08D
:0E522C0003124DE8D003758278C003124DE8DE
:07523A00D003BB4902800F05
:05524100BB5002800AD1
:0A52460090098AE0FBF582124E5237
:0C525000900989E0FBF582124E5280327A
:0A525C00D20790099D740AF0802823
:0852660090099D7408F08020FE
:08526E0090099D740AF08018FC
:0852760090099D7410F08010F6
:04527E00D20A800CC4
:075282008E82124DE8800549
:0552890090099EEAF00F
:0C528E00300A6B90099AE0FA24FCF890BA
:0E529A00099AF0860208860308860408860634
:0E52A800181818900989EAF0A3EBF0A3ECF0B7
:0B52B600A3EEF090098974DBF0A374F4
:0652C10058F0A37480F018
:0E52C700900989E0FBA3E0FCA3E0FD74012B3D
:0E52D500FEE43CFF8D02900989EEF0A3EFF09D
:0E52E300A3EAF08B828C838DF012564EFA7087
:0452F10003024F0263
:0752F5008A82124DE880CB14
:0B52FC0090099DE0FABA0003024F0287
:085307009009A874A7F0A3743B
:06530F0009F030084C908B
:0E531500099AE0FA14F890099AF08602EA3339
:0E53230095E0FBFCFE900989EAF0A3EBF0A3F5
:0B533100ECF0A3EEF03007030253D6AF
:0E533C00900989E0FAA3E0FBA3E0FCA3E0FEE9
:0E534A007B007C007E00900989EAF0A3EBF066
:08535800A3ECF0A3EEF0807657
:0C53600030092A90099AE0FA24FCF89029
:0E536C00099AF0860208860308860408860661
:0E537A00181818900989EAF0A3EBF0A3ECF0E4
:05538800A3EEF08049D6
:0E538D0090099AE0FA24FEF890099AF0860240
:0E539B0008860318EB3395E0FCFE900989EAC2
:0C53A900F0A3EBF0A3ECF0A3EEF0200763
:0E53B50020900989E0FAA3E0FBA3E0FCA3E04E
:0E53C300FE7C007E00900989EAF0A3EBF0A3C7
:0553D100ECF0A3EEF07A
:0C53D60030073E900989E0FAA3E0FBA339
:0E53E200E0FCA3E0FE30E72B900989E0FAA37F
:0E53F000E0FBA3E0FCA3E0FEC3E49AFAE49B1A
:0E53FE00FBE49CFCE49EFE900989EAF0A3EB20
:09540C00F0A3ECF0A3EEF0800225
:02541500C207CC
:08541700D20B90099DE0FC7529
:03541F002EA77540
:045422002F097D00D1
:0E54260090098DE4F08C82C004C005124E7215
:0C543400D005D004200B32C00490098D7C
:0A544000E0FFC4FF852E82852F8354
:0A544A00E0FA4207852E82852F83C9
:0A545400EFF0152E74FFB52E0215BF
:01545E002F1E
:08545F009009A8E52EF0A3E579
:065467002FF0D004800CC0
:09546D0090098DE0FF852E828577
:035476002F83F091
:095479000D9009A0EDF0B20B90BA
:0E5482000989E0FFA3E0FAA3E0FEA3E0FBEF40
:0C5490004A4E4B70919009A8E52EF0A345
:09549C00E52FF09009A0EDF0905D
:0C54A500099EE0FA700690099E7401F068
:0A54B10020042720032474012DFAC3
:0554BB0090099EE0FBDA
:0D54C000C3EA9B5011758220C002C0031288
:0954CD004DE8D003D0021B80EA77
:0554D60090099EEBF0BF
:0A54DB0030071275822D124DE89083
:0B54E500099EE0FA1490099EF0802F51
:0C54F0009009A0E0FA60283005127582D7
:0B54FC002B124DE890099EE0FA14907E
:05550700099EF0801375
:0A550C00300610758220124DE89061
:09551600099EE0FA1490099EF0D0
:09551F0020032F9009A0E0FA908E
:04552800099EE0FBFD
:0E552C008B041B90099EEBF0C3EA9C503630B6
:06553A0004047C30800235
:025540007C20CD
:0E5542008C82C002C003124DE8D003D002805C
:01555000DB7F
:0E55510090099EE0FA9009A0E0FCC39A500970
:09555F0090099EEAC39CF0800C47
:0755680090099EE4F08005AC
:05556F0090099EEBF025
:0D5574009009A8E0FAA3E0FB9009A0E0FC7C
:0A5581008C061CEE6040B20B200BFC
:06558B00150ABA00010B35
:0E5591008A828B83E0FEC4540FFE90098DF0D9
:02559F00800E7C
:0E55A1008A828B83E0FE53060F90098DEEF098
:0E55AF0090098DE0FEF582C002C003C0041218
:0A55BD004E30D004D003D00280BAB3
:0655C700200303024F0265
:0555CD0090099EE0FAC8
:0955D2008A031AEB7003024F0278
:0C55DB00758220C002124DE8D00280EB67
:0855E7008D82124DE8024F0213
:0C55EF0090098EE0FAA3E08A82F5832286
:0B58DB003C4E4F20464C4F41543E0015
:0E55FB00AAF0AB83E5829009AAF0A3EBF0A31F
:0E560900EAF07A007B009009AAE0FCA3E0FD25
:03561700A3E0FE0F
:0E561A008C828D838EF012564EFFA3AC82ADB3
:0E562800839009AAECF0A3EDF0A3EEF0EF6082
:08563600070ABA00DF0B80DC5B
:0E563E009009AAECF0A3EDF0A3EEF08A828BA7
:02564C008322B7
:033003007581359F
:0A30060012566AE582600302318968
:0E564E0020F71430F6148883A88220F507E6B2
:06565C00A8837583002203
:03566200E280F7EC
:03566500E49322A9
:02566800E0223E
:04566A007582002223
:0E566E00E5829009ADF09009ADE0FABA610056
:0B567C004009EA2485400475820122E9
:045687007582002206
:00000001FF
