:0E306E00AA83E582900001F0A3EAF090000131
:0E307C00E0FAA3E0FB900000E0FC8A828B8368
:02308A00F02232
:0A308C003098FDAA99C2988A8222AA
:0E309600AAF0AB83E582900005F0A3EBF0A357
:0E30A400EAF0900003E0FAA3E0FBC3E49A74A4
:0E30B200808BF063F08095F040079000007571
:0330C000F00022FB
:0C30C300900008E4F0A3F0900005E0F598
:0830CF0008A3E0F509A3E0F5F8
:0630D7000A1ABAFF011BFA
:0430DD007F007800F8
:0E30E100C3EF9AE864808BF063F08095F050A6
:0E30EF006DC002C003C007C00012308CA98261
:0E30FD00D000D007D003D0028982C002C003E9
:0E310B00C007C000C001123FCBD001D000D0E1
:0A31190007D003D002B90A028003B8
:03312300B90D0BD8
:0B312600B90D3475820A123FCB802CDB
:0A313100C002C003EF2508FAE835DC
:0A313B0009FBAC0A8A828B838CF03A
:09314500E91249BA0FBF000108AC
:0D314E00900008EFF0A3E8F0D003D00202DB
:02315B0030E161
:0E315D00900005E0FAA3E0FBA3E0FC90000860
:0E316B00E0FDA3E0FEED2AFDEE3BFE8C078D9D
:0E317900828E838FF0E41249BA8A828B838C97
:02318700F02234
:0E31890090031C7440F0A37406F090000C023A
:0231970047FDF2
:0330000002300398
:07305C00E4F50FF510E4F5A7
:0530630011F512E4F577
:0330680013F51449
:03306B0002319996
:0531990012319E80FED2
:0D319E009000007401F090FFFF12306E12DF
:0C31AB00349E9000007402F090FFFF12B0
:0631B700306E1234A490FA
:0D31BD0000007403F090FFFF12306EE4F587
:0431CA000FF510F5F8
:0431CE0011F512F5F0
:0431D20013F514904D
:0731D60003127474F0A374EE
:0C31DD0055F0A37480F0900315740FF0FF
:0D31E900E4A3F090020A75F000124787740D
:0A31F60083C0E07455C0E07480C08F
:0E320000E0124C9A1581158115819002A5747B
:0D320E000AF0E4A3F09002A7E4F0A3F0851D
:06321B000F8285108312F2
:093221003E30758220123FCB9073
:0E322A0002A5740AF0E4A3F09002A7E4F0A35A
:08323800F0851182851283125A
:093240003E30758220123FCB9054
:0E32490002A5740AF0E4A3F09002A7E4F0A33B
:08325700F08513828514831237
:09325F003E30758220123FCB7451
:0A3268000AC0E07402C0E0E4C0E018
:0D327200124C9A15811581158175820A1282
:09327F003FCB1238A97A007B0054
:0E328800C3EB64809481501E8A04EBCC25E0D9
:0A329600CC33FDEC240AF582ED3480
:0C32A00000F583E4F0A3F00ABA00DD0B97
:0232AC0080DAC6
:0932AE00E513B43204E5146002DA
:0232B700801A7B
:0A32B9007492C0E07455C0E0748008
:0D32C300C0E0124C9A158115811581E4F5CB
:0332D00013F514DF
:0A32D30012308CAA82BA08028003B0
:0332DD0002337841
:0A32E000C3E4950F74808510F063BD
:0B32EA00F08095F05057150F74FFB5F1
:0432F5000F0215109F
:0C32F900900219E0FBA3E0FCE50F2BF5B0
:0C33050082E5103CF583E0FBC2D575F0BA
:0933110002EB30E704B2D5F4042C
:0E331A00A430D50AF42401C5F0F43400C5F047
:0A332800240AFB740035F0FC8B82D0
:0C3332008C83E0FDA3E0FE1DBDFF011E2A
:09333E008B828C83EDF0A3EEF00C
:0A334700C3E4951374808514F0634D
:09335100F08095F040030232AE59
:0E335A00758208123FCB758220123FCB758220
:0933680008123FCB151374FFB5E8
:04337100130215141A
:033375000232AE73
:0C3378008A82C002123FCBD002740125F3
:0533840011F511E43514
:0633890012F5127401258B
:05338F0013F513E43505
:0A33940014F514C2D575F002EA30FA
:06339E00E704B2D5F404BF
:0E33A400A430D50AF42401C5F0F43400C5F0BD
:0A33B200240AFB740035F0FC8B8246
:0C33BC008C83E0FDA3E0FE0DBD00010EBF
:0E33C8008B828C83EDF0A3EEF0C3EA64809458
:0E33D600B0400B74B98AF063F08095F0502679
:0E33E400C3EA648094E1400B74FA8AF063F04F
:0533F2008095F050136E
:0E33F700C3EA648094C1404C74DA8AF063F03B
:053405008095F040413C
:05340A00AB0FAC10E562
:0A340F00103395E0FDFEC3EB950BB2
:0A341900EC950CED950DEE64808536
:0C3423000EF063F08095F0501F9002192D
:0B342F00E0FBA3E0FCE50F2BF582E5BD
:0A343A00103CF583EAF07401250F41
:06344400F50FE43510F560
:01344A001071
:0D344B00BA3F0EC0021238FED002C00212BD
:0434580038A9D002BD
:05345C00BA3D028003EF
:033461000232AE86
:0E346400900219E0FAA3E0FB7C009002A0E5C4
:0A3472000FF0A3E510F08A828B83AF
:0A347C008CF01236607492C0E07408
:0C34860055C0E07480C0E0124C9A158123
:0A34920015811581E4F513F514020D
:02349C0032AE4E
:06349E00438E0C0231898F
:0A34A4007497C0E07455C0E0748016
:0E34AE00C0E0124C9A15811581158190000323
:0D34BC007480F0E4A3F090021D75F0001282
:0634C90030969002D2745F
:0A34CF009DF0A37402F0A37400F056
:0E34D90090021D75F00012405EAA82AB838A3D
:0834E7000BEBF50C3395E0F549
:0434EF000DF50E9039
:0E34F300021DE0601790029DE0FAA3E0FBA32B
:0E350100E0FC8A828B838CF0125537FA60183A
:0A350F0074DDC0E07455C0E0748064
:0E351900C0E0124C9A1581158115810234A470
:0A352700C3E50B9418E50C9400E5D1
:0A3531000D9400E50E6480948040C4
:0A353B00177440950B7406950CE41C
:0A354500950D7480850EF063F08090
:04354F0095F0502083
:05355300C00BC00CC01C
:043558000DC00E7420
:0A355C00F2C0E07455C0E07480C0B6
:0D356600E0124C9AE58124F9F5810234A4AD
:0E3573009002E47408F0E4A3F0A3F0A3F08546
:063581000B82850C83851E
:053587000DF0E50E123D
:0E358C0042DEAA82AB83ACF0FDBA000BBB009E
:09359A0008BC0005BD0002802000
:0535A300C00BC00CC0CC
:0435A8000DC00E74D0
:0A35AC0012C0E07456C0E07480C045
:0D35B600E0124C9AE58124F9F5810234A45D
:0935C300AA0BAB0C8A828B831267
:0E35CC00487EE5828583F0900219F0A3E5F0B9
:0E35DA00F09002FE7404F0E4A3F0A3F0A3F05E
:0735E800850B82850C838531
:0535EF000DF0E50E12D5
:0E35F40045B0AA82AB83ACF0FD12487EAA82DD
:0E360200AB8390021BEAF0A3EBF0900219E0FC
:0B361000FCA3E0FD4C6004EA4B70449A
:0E361B00900219E0FAA3E0FB4A600B7C008AE3
:08362900828B838CF012441423
:0E36310090021BE0FAA3E0FB4A600B7C008ACB
:08363F00828B838CF01244140D
:0A3647007432C0E07456C0E07480D5
:0E365100C0E0124C9A1581158115810234A437
:01365F002248
:0E366000AAF0AB83E5829002A2F0A3EBF0A3E8
:0A366E00EAF07448C0E07456C0E0B2
:0E3678007480C0E0124C9A1581158115817A7C
:03368600377B008F
:0E36890075822DC002C003123FCBD003D002C9
:053697001ABAFF011B3F
:0C369C00EA4B70E975822B123FCB744C96
:0B36A800C0E07456C0E07480C0E01267
:0C36B3004C9A1581158115817450C0E0FF
:0C36BF007456C0E07480C0E0124C9A15F4
:0E36CB0081158115819002A2E0FAA3E0FBA315
:0736D900E0FC8A178B188C3E
:0B36E000199002A0E0F8A3E0F9E4F567
:0336EB0015F516BC
:0A36EE00C3E51598E516648089F025
:0A36F80063F08095F040030238549F
:0C37020090032D7410F0E4A3F0851582F4
:0C370E00851683C002C003C004C000C0C8
:0E371A0001124A1FE5828583F0D001D000D055
:0C37280004D003D00245F060030237E833
:0E373400C000C0019002CF7439F0E4A3F0751C
:0D374200827CC002C003C004C000C00112A0
:0E374F004007D001D000D004D003D002C00249
:0C375D00C003C004C000C001744CC0E0F8
:0C3769007456C0E07480C0E0124C9A1549
:0E3775008115811581D001D000D004D003D081
:0A37830002E5152AF8E5163BF98C63
:0E378D00059002A57410F0E4A3F09002A7745A
:0E379B0004F0E4A3F088828983C002C003C05A
:0E37A90004C000C001123E30D001D000D00498
:0E37B700D003D002C002C003C004C000C00195
:0A37C5007486C0E07456C0E0748002
:0E37CF00C0E0124C9A158115811581D001D0F1
:0B37DD0000D004D003D002D001D000C7
:0637E800E5152517FDE5C3
:0537EE00163518FEAFC6
:0C37F300198D828E838FF0125537FD3344
:0D37FF0095E0FE9002A57410F0E4A3F09098
:0E380C0002A77402F0E4A3F08D828E83C00246
:0E381A00C003C004C000C001123E30D001D077
:0E38280000D004D003D002758220C002C0037D
:0E383600C004C000C001123FCBD001D000D0B2
:0A38440004D003D0020515E4B51509
:03384E000205165A
:033851000236EE4E
:0D3854009002CF7439F0E4A3F075827C126D
:0738610040077489C0E07408
:0C38680056C0E07480C0E0124C9A15813C
:08387400158115817A377B00F4
:0E387C0075822DC002C003123FCBD003D002D4
:05388A001ABAFF011B4A
:0A388F00EA4B70E9748CC0E0745637
:0E389900C0E07480C0E0124C9A1581158115B4
:0238A70081227C
:0A38A900748FC0E07456C0E0748014
:0C38B300C0E0124C9A158115811581743B
:0A38BF00AFC0E07456C0E07480C092
:0C38C900E0124C9A15811581158174CF16
:0B38D500C0E07456C0E07480C0E01238
:0C38E0004C9A1581158115817492C0E08E
:0C38EC007455C0E07480C0E0124C9A15C6
:0638F800811581158122FB
:0A38FE007448C0E07456C0E0748006
:0E390800C0E0124C9A1581158115817A347B2E
:0139160000B0
:0E39170075822DC002C003123FCBD003D00238
:053925001ABAFF011BAE
:0A392A00EA4B70E974F0C0E0745637
:0E393400C0E07480C0E0124C9A158115811518
:0A3942008174F5C0E07456C0E07413
:0D394C0080C0E0124C9A1581158115819004
:0E39590002A5740AF0E4A3F09002A7E4F0A324
:08396700F08511828512831224
:07396F003E3074FFC0E0745C
:0C39760056C0E07480C0E0124C9A15812D
:0E398200158115819002CF7436F0E4A3F07524
:0A399000827C124007744CC0E07402
:0C399A0056C0E07480C0E0124C9A158109
:0E39A600158115819002CF7436F0E4A3F07500
:0A39B400827C124007744CC0E074DE
:0C39BE0056C0E07480C0E0124C9A1581E5
:0A39CA0015811581741DC0E07457CB
:0E39D400C0E07480C0E0124C9A158115811578
:0E39E200819002A5740AF0E4A3F09002A7E41D
:0A39F000F0A3F0850F82851083120A
:0739FA003E307425C0E074AB
:0C3A010057C0E07480C0E0124C9A1581A0
:093A0D0015811581AA0FAB10E52B
:0A3A1600103395E0FCFDE50BC39AA8
:0A3A2000FAE50C9BFBE50D9CFCE5AC
:0C3A2A000E9DFD9002A5740AF0E4A3F0CC
:0E3A36009002A7E4F0A3F08A828B83123E3048
:0A3A44007443C0E07457C0E07480C2
:0E3A4E00C0E0124C9A1581158115819002CFAF
:0D3A5C007436F0E4A3F075827C124007740C
:0A3A69004CC0E07456C0E07480C049
:0C3A7300E0124C9A1581158115817449F0
:0B3A7F00C0E07457C0E07480C0E0128B
:0B3A8A004C9A158115811581AA0BAB29
:0B3A95000C9002A5740AF0E4A3F0906E
:0E3AA00002A7E4F0A3F08A828B83123E3074FA
:0A3AAE0054C0E07457C0E07480C0FB
:0E3AB800E0124C9A158115811581900219E0DB
:0E3AC600FAA3E0FB9002A57410F0E4A3F090C8
:0D3AD40002A77404F0E4A3F08A828B831231
:0E3AE1003E309002CF7436F0E4A3F075827C84
:083AEF00124007744CC0E074A2
:0C3AF70056C0E07480C0E0124C9A1581AB
:0A3B030015811581745FC0E074574E
:0E3B0D00C0E07480C0E0124C9A15811581153D
:0E3B1B00819002FE7404F0E4A3F0A3F0A3F086
:073B2900850B82850C8385EA
:053B30000DF0E50E128E
:0E3B350045B0AA82AB83ACF0FD9002A5740AE5
:0E3B4300F0E4A3F09002A7E4F0A3F08A828BD6
:093B510083123E307454C0E0748C
:0C3B5A0057C0E07480C0E0124C9A158146
:0D3B66001581158190021BE0FAA3E0FB9091
:0E3B730002A57410F0E4A3F09002A77404F011
:0E3B8100E4A3F08A828B83123E309002CF7450
:0C3B8F0036F0E4A3F075827C124007744D
:0A3B9B004CC0E07456C0E07480C016
:0E3BA500E0124C9A1581158115817A007B0083
:0E3BB300C3EA940EEB648094804003023CDD74
:0E3BC10090032D740CF0E4A3F08A828B83C075
:0E3BCF0002C003124A1FE5828583F0D003D0A6
:0E3BDD000245F070349002CF7436F0E4A3F08D
:0E3BEB0075827CC002C003124007D003D002D6
:0A3BF900C002C003744CC0E0745613
:0E3C0300C0E07480C0E0124C9A158115811546
:053C110081D003D00288
:0A3C1600EA240AF582EB3402F5837C
:0E3C2000E0FCF582C002C003123FCBD003D0FF
:0E3C2E000275822DC002C003123FCBD003D01E
:0A3C3C0002EA240AF582EB3402F5D7
:0E3C460083E0FCC2D575F002EC30E704B2D585
:023C5400F40476
:0E3C5600A430D50AF42401C5F0F43400C5F002
:0A3C6400240AF582740035F0F583A0
:0E3C6E00E0FCA3E0FD9002A5740AF0E4A3F0D0
:0E3C7C009002A7E4F0A3F08C828D83C002C0FA
:0E3C8A0003123E30D003D002758220C002C06B
:0C3C980003123FCBD003D002EA240AF54F
:0C3CA40082EB3402F583E0FCC2D575F021
:093CB00002EC30E704B2D5F40483
:0E3CB900A430D50AF42401C5F0F43400C5F09F
:0A3CC700240AF582740035F0F5833D
:093CD100E4F0A3F00ABA00010BB3
:033CDA00023BB3F7
:0D3CDD009002CF7436F0E4A3F075827C12E3
:073CEA004007744CC0E074B8
:0C3CF10056C0E07480C0E0124C9A1581AF
:0E3CFD00158115819002CF7436F0E4A3F075A6
:0A3D0B00827C124007744CC0E07483
:0C3D150056C0E07480C0E0124C9A15818A
:0A3D210015811581746AC0E0745723
:0E3D2B00C0E07480C0E0124C9A15811581151D
:053D3900817A007B000F
:0A3D3E00C3EA950FEB64808510F0D6
:0A3D480063F08095F04003023DCEC9
:0E3D520090032D7432F0E4A3F08A828B83C0BC
:0E3D600002C003124A1FE5828583F0D003D013
:0E3D6E000245F070349002CF7436F0E4A3F0FA
:0E3D7C0075827CC002C003124007D003D00243
:0A3D8A00C002C003744CC0E0745680
:0E3D9400C0E07480C0E0124C9A1581158115B4
:053DA20081D003D002F6
:0E3DA700900219E0FCA3E0FDEA2CF582EB3D52
:0E3DB500F583E0FCF582C002C003123FCBD0C4
:083DC30003D0020ABA00010B53
:033DCB00023D3E78
:0D3DCE009002CF7436F0E4A3F075827C12F1
:073DDB0040077489C0E07489
:0C3DE20056C0E07480C0E0124C9A1581BD
:083DEE00158115817A347B0078
:0E3DF60075822DC002C003123FCBD003D00255
:053E04001ABAFF011BCA
:0A3E0900EA4B70E9748CC0E07456B7
:0E3E1300C0E07480C0E0124C9A158115811534
:073E210081E4F50FF510F537
:043E280011F512F589
:043E2C0013F5142254
:0E5574003031323334353637383946454D4103
:015582000028
:0E558300496E697469616C20496E666F3A204A
:015591000019
:055592000A3E3E20006E
:0E559700456E74657220796F757220627566BC
:0E55A5006665722073697A652028696E20742D
:0E55B30068652072616E6765205B32342031BE
:0E55C1003630305D20616E642061206D756CA7
:0E55CF007469706C65206F662038293A2000E0
:0E55DD000A4E6F6E2D696E74656765722069E7
:0755EB006E7075742E0A00BA
:0E55F2000A56616C7565206F7574206F662017
:0E56000072616E6765205B32342031363030C7
:04560E005D2E0A0003
:0E5612000A56616C7565206D757374206265B3
:0E56200020646976697369626C652062792086
:04562E00382E0A0008
:0E5632000A416C6C6F636174696F6E20666173
:08564000696C7572652E0A0009
:045648000A0A2B001F
:04564C000A7C2000B4
:0E5650002020202020202B30202B31202B3238
:0E565E00202B33202B34202B35202B36202BF5
:0E566C0037202B38202B39202B41202B4220B9
:0C567A002B43202B44202B45202B460006
:035686003A2000C7
:035689000A2B00E9
:03568C002B0A00E6
:0E568F000A456E74657220636861726163740F
:0E569D0065727320666F722073746F7261679E
:0456AB00652E0A005E
:0E56AF00093D096865782064756D70206F668E
:0E56BD002062756666657220636F6E74656E9E
:0456CB0074730A00EA
:0E56CF00093F097072696E7420737461747300
:0E56DD0020616E6420636C65617220627566E8
:0556EB006665720A0073
:0556F0002B0A7C2000E4
:0A56F5005265636965766564200064
:0E56FF00206368617261637465727320736961
:0E570D006E6365206C61737420666C75736842
:02571B002E005E
:08571D0053746F7265642000F3
:0E572500206368617261637465727320696E3F
:0E57330020627566666572302C207769746896
:02574100200046
:065743002066726565009E
:0B57490042756666657220303A200051
:0B5754002062797465732061742000EE
:0B575F0042756666657220313A20003A
:0E576A00466C757368696E67206275666665C9
:05577800722E2E2E0030
:0E3E3000AA83E5829002A9F0A3EAF07A007B53
:013E3E000083
:0D3E3F00C3EA9420EB648094805014EA24C0
:0A3E4C00ABF582EB3402F58374300D
:083E5600F00ABA00E40B80E160
:0E3E5E009002A9E0FAA3E0FB30E70675822D82
:033E6C00123FCB37
:0C3E6F009002A5E0FAA3E0FB7C007D00BF
:0E3E7B009002A9E0FEA3E0FF4E7003023F316B
:0E3E890090032DEAF0A3EBF08E828F83C0022F
:0E3E9700C003C004C005124A1FAE82AF83D024
:0E3EA50005D004D003D0028E828F83C002C0ED
:0E3EB30003C004C0051249D3AE82AF83D00510
:0E3EC100D004D003D002C374898EF063F08069
:0C3ECF0095F040089002CB7430F08006A3
:063EDB009002CB7437F0E9
:093EE100EC24ABFFED3402F89073
:0E3EEA0002CBE0F92EFE8F828883F09002A9B1
:0E3EF800E0FEA3E0FF900336EAF0A3EBF08EAD
:0E3F0600828F83C002C003C004C005124B3B73
:0E3F1400E5828583F0D005D004D003D0029062
:0C3F220002A9F0A3E5F0F00CBC00010DBA
:033F2E00023E7BD5
:0E3F31009002CCECF0A3EDF09002A7E0FAA312
:0E3F3F00E0FB4A701AEC4D7016758230C0021D
:0E3F4D00C003C004C005123FCBD005D004D085
:033F5B0003D0028E
:0E3F5E00C3E49A74808BF063F08095F0501DE0
:0E3F6C00C3EA9CEB64808DF063F08095F0500A
:033F7A00028004BE
:043F7D008A048B0522
:083F81009002CCECF0A3EDF07E
:0D3F89009002CCE0FAA3E0FB1ABAFF011B86
:0E3F96009002CCEAF0A3EBF09002CCE0FAA38C
:023FA400E0FB40
:0B3FA600EB20E720EA24ABF582EB34AF
:0C3FB10002F583E0FCF582C002C00312A0
:0D3FBD003FCBD003D0021ABAFFDF1B80DC1F
:013FCA0022D4
:0E3FCB00E5829002CEF09002CEE0FABA0A0F24
:053FD90010990280FBBD
:0A3FDE0075990D90036EE4F0A3F056
:053FE80010990280FBAE
:0E3FED009002CEE0F59990036EE0FAA3E0FB9F
:0C3FFB0090036E74012AF0E43BA3F02256
:0E400700E5829002D1F090036EE0FAA3E0FB98
:0E4015009002CFE0FCA3E0FDECC39AFAED9B15
:05402300FB7C007D00A4
:0E402800C3EC9AED64808BF063F08095F0504D
:0D4036001D758220C002C003C004C0051229
:0E4043003FCBD005D004D003D0020CBC00D778
:034051000D80D40B
:0A4054009002D1E0FAF582023FCBA2
:0257880000001F
:0E405E00AAF0AB83E5829002D5F0A3EBF0A3AD
:0E406C00EAF09002D8E4F0A3F09002DAE4F05B
:0E407A00A3F09002D5E0FAA3E0FBA3E0FC8ADD
:0D408800828B838CF01254E4AA82AB8390EB
:0C40950002DCEAF0A3EBF09002D5E0F5AD
:0840A1001AA3E0F51BA3E0F5F2
:0540A9001C851A828550
:0640AE001B83851CF012CB
:0E40B4005537FFBF2D5D9002DA7401F0E4A3D2
:0A40C200F07401251AFFE4351BF825
:0C40CC00A91C8F82888389F01255377080
:0E40D800269002D2E0FCA3E0FDA3E0FE8C8265
:0B40E6008D838EF0E51A1249BAA3E5A5
:0640F1001B1249BAA3E511
:0840F7001C1249BA90000022DE
:0E40FF009002D5EFF0A3E8F0A3E9F01ABAFFA3
:02410D00011B94
:08410F009002DCEAF0A3EBF0E2
:0E4117009002DCE0FAA3E0FB9002D5E0FCA3EE
:09412500E0FDA3E0FE7F0078003C
:0E412E00C002C003EF2CF9E83DFA8E0389822F
:0E413C008A838BF0125537F9D003D002E97058
:04414A00030241F833
:0B414E00C3E9648094B050030241F804
:0D415900C374B989F063F08095F050030243
:0241660041F81E
:0E416800C004C005C006E93395E0FCE924D090
:0E417600F9EC34FFFCEAC39FFDEB98FE1DBD83
:03418400FF011E1A
:0E4187009002DEEDF0A3EEF090000AC002C040
:0E41950003C004C007C000C001124246AD8244
:0E41A300AE83D001D000D007D004D003D002EC
:0E41B10090032BEDF0A3EEF089828C83C00208
:0E41BF00C003C006C007C0001249FFAC82ADAD
:0E41CD0083D000D007D006D003D0029002D8D5
:0E41DB00E0FEA3E0F99002D8EC2EF0ED39A33F
:0641E900F00FBF00010809
:0941EF00D006D005D00402412ED7
:0E41F8009002D2E0FAA3E0FBA3E0FC9002D517
:0E420600E0FDA3E0FEA3E0F9EF2DFDE83EFE93
:0D4214008A828B838CF0ED1249BAA3EE1262
:0842210049BAA3E91249BA9061
:0E42290002DAE0FAA3E0FB4A60079002D8E454
:03423700F0A3F001
:0C423A009002D8E0FAA3E08A82F583220B
:0E424600AA83E5829002E0F0A3EAF09002E283
:064254007401F0E4A3F088
:0E425A009002DEE0FAA3E0FB4A606DEA30E07D
:0E4268002C9002E0E0FAA3E0FB9002E2E0FC02
:0E427600A3E0FD90032BEAF0A3EBF08C828D09
:0E428400831249FFE5828583F09002E2F0A3E9
:03429200E5F0F064
:0E4295009002DEE0FAA3E0FBA2E713CA13CA10
:0E42A300FB9002DEEAF0A3EBF09002E0E0FAFE
:0E42B100A3E0FB90032BEAF0A3EBF08A828BD4
:0E42BF00831249FFE5828583F09002E0F0A3B0
:0542CD00E5F0F080881F
:0C42D2009002E2E0FAA3E08A82F5832269
:0E42DE00AA82AB83ACF0FD9002E8EAF0A3EBFD
:0E42EC00F0A3ECF0A3EDF09002E8E0FAA3E0FE
:0E42FA00FBA3E0FCA3E0FD30E70FC3E49AFE57
:0B430800E49BFFE49CF8E49DF98008B2
:084313008A068B078C008D0166
:0E431B008E028F03880489059002E4E0FEA361
:0E432900E0FFA3E0F8A3E0F930E713C3E49E41
:09433700F522E49FF523E498F55A
:0743400024E499F525800833
:054347008E228F238887
:03434C002489259C
:08434F009002F5E522F0A3E560
:0843570023F0A3E524F0A3E527
:0C435F0025F08A828B838CF0ED124467FD
:0E436B00AA82AB83ACF0FD9002E8E0FEA3E076
:0E437900FFA3E0F8A3E0F930E714C3E49AFED6
:0E438700E49BFFE49CF8E49DF98E828F83880E
:02439500F02214
:084397008A828B838CF0ED2279
:0E439F00AA83E5829002EEF0A3EAF09002EE0F
:0C43AD00E0FAA3E0FB4A7004900000223C
:0E43B900EA24FCFAEB34FFFB90031AE0FCA3AD
:0E43C700E0FD9002F0ECF0A3EDF09002ECE4CB
:0343D500F0A3F062
:0E43D8009002F0E0FCA3E0FD4C6025EAB50485
:0743E60006EBB50502801B88
:0E43ED009002ECECF0A3EDF08C828D83E0FCEE
:0D43FB00A3E0FD9002F0ECF0A3EDF080D007
:0C4408009002F0E0FAA3E08A82F5832223
:0E441400AAF0AB83E5829002F2F0A3EBF0A3D6
:0E442200EAF09002F2E0FAA3E0FBA3E0FC8ACD
:0E443000828B8312439FAA82AB83EA4B6028E3
:0E443E009002ECE0FCA3E0FD4C700B8A828B38
:08444C0083A3A3E4F0A3F02216
:0E4454008A828B83E0FAA3E0FB8C828D83EAE0
:04446200F0A3EBF0E8
:014466002233
:0E446700AA82AB83ACF0FD9002F9EAF0A3EB61
:0D447500F0A3ECF0A3EDF09002FDE4F09058
:0E44820002F9E0FAA3E0FBA3E0FCA3E0FD7E5C
:01449000002B
:094491009002F5E0F530A3E0F51E
:08449A0031A3E0F532A3E0F5C7
:0A44A20033E533235401FF7078C0A6
:0A44AC0006E53025E0FFE53133F8A6
:0944B600E53233F9E53333FE90E1
:0E44BF0002F5EFF0A3E8F0A3E9F0A3EEF09011
:0844CD0002F5E0F530A3E0F573
:0844D50031A3E0F532A3E0F58C
:0744DD0033C3EA9530EB95B3
:0644E40031EC9532ED956C
:0A44EA0033E433D0066029E533C344
:0744F40013F533E53213F567
:0544FB0032E53113F56C
:0545000031E53013F568
:05450500309002F5E515
:08450A0030F0A3E531F0A3E558
:0845120032F0A3E533F080094B
:09451A000E9002FDEEF002449146
:054523009002FDE0FA2A
:0E4528009002F9E0FBA3E0FCA3E0FDA3E0FE9F
:094536009002F5E0F530A3E0F578
:08453F0031A3E0F532A3E0F521
:0745470033C3EB9530EC9546
:06454E0031ED9532EE95FF
:094554003340179002F9EBC39506
:09455D0030F0EC9531A3F0ED956E
:0845660032A3F0EE9533A3F03F
:0E456E009002F5E0FBA3E0FCA3E0FDA3E0FE5D
:0D457C00C313FEED13FDEC13FCEB13FB90DD
:0E45890002F5F0A3ECF0A3EDF0A3EEF08A0330
:0E4597001AEB708D9002F9E0FAA3E0FBA3E0AE
:0B45A500FCA3E0FD8A828B838CF022D7
:0E45B000AA82AB83ACF0FD900302EAF0A3EB0D
:0E45BE00F0A3ECF0A3EDF0900302E0FAA3E00E
:0E45CC00FBA3E0FCA3E0FD30E70FC3E49AFE82
:0B45DA00E49BFFE49CF8E49DF98008DE
:0845E5008A068B078C008D0192
:0E45ED008E028F03880489059002FEE0FEA373
:0C45FB00E0FFA3E0F8A3E0F933E433F59F
:0946070026E5266013C3E49EF5CC
:0846100027E49FF528E498F56A
:0746180029E499F52A80084E
:05461F008E278F2888A2
:0346240029892AB7
:08462700900306E527F0A3E56E
:08462F0028F0A3E529F0A3E542
:0C4637002AF08A828B838CF0ED12467B07
:0E464300AA82AB83ACF0FD900302E0FEA3E080
:0C465100FFA3E0F8A3E0F933E433652692
:0E465D006014C3E49AFEE49BFFE49CF8E49D25
:08466B00F98E828F8388F02292
:084673008A828B838CF0ED229A
:0E467B00AA82AB83ACF0FD90030AEAF0A3EB39
:0E468900F0A3ECF0A3EDF090030EE4F0A3F02C
:0E469700A3F0A3F0900306E0FAA3E0FBA3E07B
:0746A500FCA3E0FD753020CD
:0E46AC0090030AE0FFA3E0F8A3E0F9A3E0FE0C
:0C46BA00339200EF2FFFE833F8E933F9EA
:0E46C600EE33FE90030AEFF0A3E8F0A3E9F054
:0E46D400A3EEF090030EE0FEA3E0FFA3E0F8DB
:0E46E200A3E0F9EE2EFEEF33FFE833F8E933E4
:0E46F000F990030EEEF0A3EFF0A3E8F0A3E9BB
:0C46FE00F030001E90030EE0FFA3E0F877
:0E470A00A3E0F9A3E0FE90030E74014FF0A3AC
:08471800E8F0A3E9F0A3EEF0C4
:0E47200090030EE0FEA3E0FFA3E0F8A3E0F993
:0E472E00C3EE9AEF9BE89CE99D403190030E8C
:0E473C00EEC39AF0EF9BA3F0E89CA3F0E99D7A
:0E474A00A3F090030AE0FEA3E0FFA3E0F8A3B3
:0E475800E0F990030A74014EF0A3EFF0A3E81D
:04476600F0A3E9F0E3
:05476A00D530028003C0
:03476F000246AC53
:0E47720090030AE0FAA3E0FBA3E0FCA3E0FD45
:074780008A828B838CF0227A
:06303200E478FFF6D8FD72
:0E478700AAF0AB83E582900317F0A3EBF0A33A
:0B479500EAF0900317E0F533A3E0F515
:0647A00034A3E0F53590A2
:0C47A6000312E0FDA3E0FEA3E0FF85335A
:0347B2003085341B
:0347B50031853516
:0947B80032900315E0F8A3E0F9CA
:0947C1008802890318B8FF0119F0
:0E47CA00EA4B60258D828E838FF0125537FAF0
:0A47D800A3AD82AE838530828531E7
:0B47E200838532F0EA1249BAA38582F9
:0647ED003085833180CE0F
:0747F30085338285348385C4
:0347FA0035F02275
:083010007902E94400601B7A1B
:053018000190578878CB
:03301D006E75A02D
:0A30200003E493F2A308B8000205D0
:08302A00A0D9F4DAF275A0FF51
:0E47FD00AA83E58290031EF0A3EAF090031E4B
:0E480B00E0FAA3E0FB900320EAF0A3EBF0EA52
:0E4819004B702090032074012AF0E43BA3F0C2
:0D48270090031CE0FAA3E0FB1ABAFF011B8E
:0848340090031CEAF0A3EBF075
:0E483C00900320E0FAA3E0FB90031AEAF0A339
:0E484A00EBF090031CE0FCA3E0FDEC2AFCED7B
:0E4858003BFDEC24FEFCED34FFFD8A828B83D9
:0E486600ECF0A3EDF08C828D83E4F0A3F08AD9
:0A487400828B83A3A3E4F0A3F022DB
:0E487E00AA83E582900322F0A3EAF0900322C1
:0E488C00E0FAA3E0FBC374FB9A74FF9B500498
:04489A009000002268
:0E489E0090032274042AF0E43BA3F090031A66
:0E48AC00E0FAA3E0FB900324EAF0A3EBF09007
:0848BA000322E0F530A3E0F554
:0148C20031C4
:0E48C300900324E0FCA3E0FD8C828D83E0FED8
:0E48D100A3E0FF8E008F018C028D03E8C39AD6
:0E48DF00F8E99BF98C828D83A3A3E0FAA3E095
:0C48ED00FBE8C39AF8E99BF9C3E895309A
:0C48F900E99531400D90032674042CF06A
:06490500E43DA3F0802355
:0E490B00900324EEF0A3EFF0900324E0FAA353
:0E491900E0FB8A828B83E0FAA3E0FB4A709CED
:07492700900326E4F0A3F069
:0E492E00900326E0FAA3E0FB4A70030249AEB4
:0E493C00900324E0FAA3E0FB74022AFCE43BA3
:0E494A00FD8C828D83E0FEA3E0FF4E70139083
:0E4958000322E0F8A3E0F98C828D83E8F0A33F
:04496600E9F08044B0
:0E496A00EE2AFEEF3BFF8A828B83E0FCA3E087
:0E497800FD8E828F83ECF0A3EDF08A828B839C
:0D498600EEF0A3EFF074022EFAE43FFB9078
:0E4993000322E0FCA3E0FD8A828B83ECF0A3FC
:0D49A100EDF090032674042EF0E43FA3F027
:0C49AE00900326E0FAA3E08A82F5832241
:0E49BA0020F71030F6118883A88220F507F64A
:0549C800A883758300C7
:0149CD0022C7
:0349CE00F280F77D
:0249D100F022D2
:0E49D300AA83E582900329F0A3EAF09003295D
:0E49E100E0FAA3E0FB33B3E433FC60068A0483
:0449EF008B058007AD
:0749F300C3E49AFCE49BFD04
:0549FA008C828D832278
:0E49FF00AA83AB828BF090032BE0A4F8A9F002
:0E4A0D008AF0E0A429F98BF0A3E0A429F58338
:044A1B008882222249
:0E4A1F00AA83E58290032FF0A3EAF090032F04
:0E4A2D00E0FAA3E0FB30E709C3E49AFCE49B47
:034A3B00FD8004F7
:044A3E008A048B0556
:0E4A42008C028D0390032DE0FCA3E0FD30E715
:0A4A500009C3E49CFEE49DFF80040E
:044A5A008C068D0732
:0D4A5E00900331EEF0A3EFF08A828B8312FB
:0E4A6B004A8DAA82AB8390032FE0FCA3E0FDEE
:0E4A790030E70CC3E49AFCE49BFD8C828D8335
:014A8700220C
:054A88008A828B8322ED
:0E4A8D00AA83E582900333F0A3EAF09003358C
:0C4A9B00E4F0900333E0FAA3E0FB7C00A1
:0E4AA700900331E0FDA3E0FE235401FF7037C1
:0E4AB500EECD25E0CD33FE900331EDF0A3EE03
:0E4AC300F0900331E0FDA3E0FEC3EA9DEB9E00
:0E4AD1005011EEC313CD13CDFE900331EDF066
:054ADF00A3EEF08008C9
:084AE4000C900335ECF080BBDF
:054AEC00900335E0FA23
:0E4AF100900333E0FBA3E0FC900331E0FDA353
:0E4AFF00E0FEC3EB9DEC9E400B900333EBC337
:064B0D009DF0EC9EA3F0F8
:0E4B1300900331E0FBA3E0FCC313CB13CBFCFB
:0E4B2100900331EBF0A3ECF08A031AEB70C2A4
:0C4B2F00900333E0FAA3E08A82F58322B1
:0E4B3B00AA83E582900338F0A3EAF0900338D5
:0E4B4900E0FAA3E0FB30E709C3E49AFCE49B2A
:034B5700FD8004DA
:044B5A008A048B0539
:0E4B5E008C028D03900336E0FCA3E0FD33E4EF
:0D4B6C0033FE6009C3E49CFFE49DF8800463
:044B79008C078D0018
:0E4B7D0090033AEFF0A3E8F08A828B83C00623
:0E4B8B00124BB3AA82AB83D006900338E0FC35
:0E4B9900A3E0FD33E4336E600CC3E49AFCE449
:074BA7009BFD8C828D83222F
:054BAE008A828B8322C6
:083038007800E84400600A7909
:033040000075A078
:0630430000E4F309D8FCD3
:08304900786EE84403600C7985
:0B30510004900000E4F0A3D8FCD9FAC2
:0E4BB300AA83E58290033CF0A3EAF090033E53
:0E4BC100E4F0A3F090033AE0FAA3E0FB7C10CE
:0C4BCF0090033CE0FDA3E0FE339201EEF9
:0E4BDB00CD25E0CD33FE90033CEDF0A3EEF0CF
:0E4BE90090033EE0FDA3E0FECD25E0CD33FEBF
:0C4BF70090033EEDF0A3EEF030011290B0
:0E4C0300033EE0FDA3E0FE90033E74014DF081
:034C1100A3EEF01F
:0E4C140090033EE0FDA3E0FEC3ED9AEE9B4050
:0D4C22001D90033EEDC39AF0EE9BA3F090B1
:0E4C2F00033CE0FDA3E0FE90033C74014DF059
:034C3D00A3EEF0F3
:0E4C4000DC8D90033CE0FAA3E08A82F583222B
:084C4E00C01D85811DAA821220
:054C56003FCBD01D2240
:0E4C5B00AAF0AB83E582900341F0A3EBF0A337
:0E4C6900EAF0900341E0FAA3E0FBA3E0FC9028
:0E4C77000340E0FD900354E4F0A3F0A3F0909E
:0E4C85000357EAF0A3EBF0A3ECF090035AED16
:074C9300F0904C4E024DB3FE
:064C9A00C01D85811DE52F
:0C4CA0001D24FBFA900354E4F0A3F0A3E1
:0C4CAC00F0E51D24FBF8900357E6F0082B
:0D4CB800A3E6F008A3E6F090035AEAF0909E
:0A4CC5004C4E124DB3AA82AB83D00F
:024CCF001D22A4
:0C4CD100E582900350F0900350E0FA9050
:0E4CDD000346E0C0E0A3E0C0E0A3E0C0E07446
:084CEB00FFC0E0744CC0E09032
:0C4CF3000344E0C0E0A3E0C0E08A82229D
:0E4CFF0015811581158190034EE0FAA3E0FBAC
:0C4D0D0090034E74012AF0E43BA3F02256
:0E4D1900E582900351F0900351E0FA74302AC5
:0C4D2700FA24C6500A74072AFA3002036E
:034D330043022018
:054D36008A82024CD14D
:0E4D3B00E582900352F0900352E0FAC4540F48
:0E4D4900FBF582C002124D19D00253020F8AF0
:044D570082024D196E
:0E4D5B00E582900353F0900349E0FAA3E0FBD9
:0E4D6900A3E0FCA3E0FD90034DE0FE90035399
:044D7700E0FF7820C1
:0E4D7B00EE2EFEED235401F94206EA2AFAEB71
:0E4D890033FBEC33FCED33FDC3EE9F4007EE31
:064D9700C39FFE43020170
:0E4D9D00D8DC900349EAF0A3EBF0A3ECF0A3FE
:084DAB00EDF090034DEEF02243
:0E4DB300AA83E58290035BF0A3EAF090035B15
:0E4DC100E0FAA3E0FB900344EAF0A3EBF090CD
:0E4DCF000354E0FAA3E0FBA3E0FC900346EAE5
:0E4DDD00F0A3EBF0A3ECF090034EE4F0A3F093
:0E4DEB00900357E0FAA3E0FBA3E0FC8A828B62
:0E4DF900838CF0125537FD90035774012AF099
:0D4E0700E43BA3F0A3ECF0ED70030254D8DF
:054E1400BD2502800332
:034E19000254D070
:054E1C00C203C204C244
:044E210005C206C2FE
:044E250007C208C2F6
:044E290009C20A9020
:094E2D00035DE4F090035EF090D7
:0E4E3600035FF0900357E0FAA3E0FBA3E0FC5B
:0E4E44008A828B838CF0125537FEA3AA82ABB4
:0D4E520083900357EAF0A3EBF0A3ECF0907F
:0D4E5F000361EEF0BE25088E82124CD102D8
:024E6C004DEB0C
:054E6E008E07BF3000BB
:0E4E7300404A8E07EF24C6404390035FE0FFE5
:044E81006002802922
:0E4E8500C002C003C00490035EE0FA75F00A9C
:0E4E9300A4FAEE24D090035E2AF090035EE0B5
:0C4EA100FAD004D003D002709AD2048032
:014EAD00966E
:0E4EAE00EF75F00AA4FFEE24D090035F2FF002
:034EBC00024E445F
:0E4EBF00900361E0FEBE2E0890035FE4F00257
:024ECD004E4451
:0E4ECF008E82C002C003C004C006125557E513
:0C4EDD008224FF9202D006D004D003D043
:094EE90002300205900361E4F0BF
:0A4EF200900361E0FEBE200280552F
:054EFC00BE2B02804BFB
:054F0100BE2D028041FD
:054F0600BE4202804BD9
:054F0B00BE43028050CE
:064F1000BE4403025145FE
:064F1600BE4603025167D4
:064F1C00BE4903025145ED
:054F2200BE4C028034CA
:064F2700BE4F0302514FD2
:064F2D00BE50030250A774
:054F3300BE53028042A4
:064F3800BE5503025157B3
:064F3E00BE580302515FA2
:034F440002516BAC
:054F4700D203024E44FC
:054F4C00D205024E44F5
:054F5100D206024E44EF
:054F5600D208024E44E8
:054F5B00D209024E44E2
:0E4F600090035AE0FA24FEF890035AF08602FD
:0C4F6E00088603188A82124CD102517789
:0E4F7A0090035AE0FA24FDF890035AF08602E4
:0E4F88000886030886041818900349EAF0A36F
:0E4F9600EBF0A3ECF0900349E0FAA3E0FBA3DC
:0E4FA400E0FC8A828B838CF01254E4AA82AB6C
:0A4FB2008390035FE0FB60028005BE
:054FBC0090035FEAF024
:0C4FC10020033890035EE0FBC3EA9B5025
:0D4FCD002E90035EEBC39AF090035EE0FBB4
:0D4FDA008B041B90035EEBF0BC0002801006
:0E4FE700758220C002C003124CD1D003D0024C
:024FF50080E357
:054FF70090035EEBF0E9
:054FFC0090035FE0FDE1
:0E500100C002900349E0FCA3E0FFA3E0FA8C9C
:0E500F00828F838AF0125537D00260538D04D1
:0E501D001DC374808CF063F08095F05044C089
:0A502B0002900349E0F52BA3E0F525
:085035002CA3E0F52D74012508
:07503D002BFBE4352CFAAC5B
:0C5044002D900349EBF0A3EAF0A3ECF080
:07505000852B82852C83856E
:0C5057002DF0125537FAF582C002C0059A
:0B506300124CD1D005D002D002809387
:06506E002003030251774C
:0D50740090035EE0FBC3EA9B40030251770E
:0C50810090035EEBC39AF090035EE0FA2F
:0E508D008A031A90035EEAF0BB000302517220
:0C509B00758220C002124CD1D00280E6C9
:0E50A70090035AE0FB24FDF890035AF08603B4
:0E50B5000886040886071818900349EBF0A33C
:0E50C300ECF0A3EFF090034BE0FB247F5008CD
:0850D1009003617443F080209C
:0D50D900EB249F50089003617450F0801389
:0D50E600EB24BF50089003617449F0800670
:0650F3009003617458F007
:0E50F900900361E0FBF582C003124CD1D0039E
:0E51070075823AC003124CD1D003758230C0BD
:0E51150003124CD1D003758278C003124CD126
:07512300D003BB4902800F1D
:05512A00BB5002800AE9
:0A512F0090034AE0FBF582124D3BAD
:0C513900900349E0FBF582124D3B8032F0
:0A514500D20790035D740AF0802881
:08514F0090035D7408F080205C
:0851570090035D740AF080185A
:08515F0090035D7410F0801054
:04516700D20A800CDC
:07516B008E82124CD1800579
:0551720090035EEAF06D
:0C517700300A6B90035AE0FA24FCF89018
:0E518300035AF0860208860308860408860692
:0E519100181818900349EAF0A3EBF0A3ECF015
:0B519F00A3EEF0900349747DF0A374B0
:0651AA0057F0A37480F031
:0E51B000900349E0FBA3E0FCA3E0FD74012B9B
:0E51BE00FEE43CFF8D02900349EEF0A3EFF0FB
:0E51CC00A3EAF08B828C838DF0125537FA70B7
:0451DA0003024DEB94
:0751DE008A82124CD180CB44
:0B51E50090035DE0FABA0003024DEBFE
:0851F0009003687467F0A374DA
:0651F80003F030084C90AA
:0E51FE00035AE0FA14F890035AF08602EA33DE
:0E520C0095E0FBFCFE900349EAF0A3EBF0A353
:0B521A00ECF0A3EEF03007030252BFDF
:0E522500900349E0FAA3E0FBA3E0FCA3E0FE47
:0E5233007B007C007E00900349EAF0A3EBF0C4
:08524100A3ECF0A3EEF080766F
:0C52490030092A90035AE0FA24FCF89087
:0E525500035AF08602088603088604088606BF
:0E526300181818900349EAF0A3EBF0A3ECF042
:05527100A3EEF08049EE
:0E52760090035AE0FA24FEF890035AF08602E4
:0E52840008860318EB3395E0FCFE900349EA20
:0C529200F0A3EBF0A3ECF0A3EEF020077B
:0E529E0020900349E0FAA3E0FBA3E0FCA3E0AC
:0E52AC00FE7C007E00900349EAF0A3EBF0A325
:0552BA00ECF0A3EEF092
:0C52BF0030073E900349E0FAA3E0FBA397
:0E52CB00E0FCA3E0FE30E72B900349E0FAA3DD
:0E52D900E0FBA3E0FCA3E0FEC3E49AFAE49B32
:0E52E700FBE49CFCE49EFE900349EAF0A3EB7E
:0952F500F0A3ECF0A3EEF080023E
:0252FE00C207E5
:08530000D20B90035DE0FC7587
:035308002E677598
:04530B002F037D00EF
:0E530F0090034DE4F08C82C004C005124D5B8B
:0C531D00D005D004200B32C00490034DDA
:0A532900E0FFC4FF852E82852F836C
:0A533300E0FA4207852E82852F83E1
:0A533D00EFF0152E74FFB52E0215D7
:015347002F36
:08534800900368E52EF0A3E5D7
:065350002FF0D004800CD8
:0953560090034DE0FF852E8285D5
:03535F002F83F0A9
:095362000D900360EDF0B20B9018
:0E536B000349E0FFA3E0FAA3E0FEA3E0FBEF9E
:0C5379004A4E4B7091900368E52EF0A3A3
:09538500E52FF0900360EDF090BB
:0C538E00035EE0FA700690035E7401F00C
:0A539A0020042720032474012DFADB
:0553A40090035EE0FB38
:0D53A900C3EA9B5011758220C002C00312A0
:0953B6004CD1D003D0021B80EAA7
:0553BF0090035EEBF01D
:0A53C40030071275822D124CD190B3
:0B53CE00035EE0FA1490035EF0802FF5
:0C53D900900360E0FA6028300512758235
:0B53E5002B124CD190035EE0FA1490F4
:0553F000035EF08013D4
:0A53F500300610758220124CD19092
:0953FF00035EE0FA1490035EF075
:0954080020032F900360E0FA90EC
:04541100035EE0FB5B
:0E5415008B041B90035EEBF0C3EA9C50363014
:0654230004047C3080024D
:025429007C20E5
:0E542B008C82C002C003124CD1D003D002808C
:01543900DB97
:0E543A0090035EE0FA900360E0FCC39A500914
:0954480090035EEAC39CF0800CA5
:0754510090035EE4F080050A
:0554580090035EEBF083
:0D545D00900368E0FAA3E0FB900360E0FC20
:0A546A008C061CEE6040B20B200B14
:06547400150ABA00010B4D
:0E547A008A828B83E0FEC4540FFE90034DF037
:02548800800E94
:0E548A008A828B83E0FE53060F90034DEEF0F6
:0E54980090034DE0FEF582C002C003C0041276
:0A54A6004D19D004D003D00280BAE3
:0654B000200303024DEB96
:0554B60090035EE0FA26
:0954BB008A031AEB7003024DEBA9
:0C54C400758220C002124CD1D00280EB97
:0854D0008D82124CD1024DEB5C
:0C54D80090034EE0FAA3E08A82F58322E4
:0B577D003C4E4F20464C4F41543E0074
:0E54E400AAF0AB83E58290036AF0A3EBF0A37D
:0E54F200EAF07A007B0090036AE0FCA3E0FD84
:03550000A3E0FE27
:0E5503008C828D838EF0125537FFA3AC82ADE3
:0E5511008390036AECF0A3EDF0A3EEF0EF60E0
:08551F00070ABA00DF0B80DC73
:0E55270090036AECF0A3EDF0A3EEF08A828B05
:025535008322CF
:033003007581359F
:0A300600125553E582600302319970
:0E55370020F71430F6148883A88220F507E6CA
:06554500A883758300221B
:03554B00E280F704
:03554E00E49322C1
:02555100E02256
:04555300758200223B
:0E555700E58290036DF090036DE0FABA6100FA
:0B5565004009EA248540047582012201
:04557000758200221E
:00000001FF
