:0E305F003098FDAA99C2988A82C002123DBE26
:05306D00D0028A82225E
:0E307200AAF0AB83E582900002F0A3EBF0A37E
:0E308000EAF0900000E0FAA3E0FBC3E49A74CB
:0E308E00808BF063F08095F040079000007595
:03309C00F000221F
:0C309F00900005E4F0A3F0900002E0F5C2
:0830AB0008A3E0F509A3E0F51C
:0630B3000A1ABAFF011B1E
:0430B9007F0078001C
:0E30BD00C3EF9AE864808BF063F08095F050CA
:0E30CB0053C002C003C007C00012305FA982CC
:0D30D900D000D007D003D002B90A02800356
:0330E600B90D0B16
:0B30E900B90D3375820A123DBE802B2A
:0A30F400C002C003EF2508FAE8351A
:0A30FE0009FBAC0A8A828B838CF078
:09310800E91246C60FBF000108E0
:0E311100900005EFF0A3E8F0D003D002809EFE
:0E311F00900002E0FAA3E0FBA3E0FC900005A4
:0E312D00E0FDA3E0FEED2AFDEE3BFE8C078DDB
:0E313B00828E838FF0E41246C68A828B838CCC
:02314900F02272
:0E314B009009577440F0A37406F0900007023C
:02315900450926
:0330000002300398
:03305C0002315BE3
:05315B0012316080FE4E
:0E31600090084FE4F0A3F0900851E4F0A3F0C3
:0E316E00900853E4F0A3F09008557430F090F0
:0C317C0008567431F09008577432F0903F
:0C31880008587433F09008597434F0902B
:0C319400085A7435F090085B7436F09017
:0C31A000085C7437F090085D7438F09003
:0C31AC00085E7439F090085F7446F090E3
:0C31B80008607445F0900861744DF090C0
:0931C40008627441F0123869122E
:0931CD00386F123BE37A007B002D
:0E31D600C3EB64809481501E8A04EBCC25E08C
:0A31E400CC33FDEC244FF582ED34EE
:0C31EE0006F583E4F0A3F00ABA00DD0B44
:0231FA0080DA79
:0E31FC00900853E0FAA3E0FBBA321FBB001CA0
:0A320A007480C0E07452C0E07480CC
:0E321400C0E01249A61581158115819008535E
:04322200E4F0A3F041
:0A32260012305FAA82BA080280038A
:033230000232E186
:0D323300900851E0FBA3E0FC1BBBFF011C59
:0E324000900851EBF0A3ECF090064BE0FBA3DE
:0E324E00E0FC900851E0FDA3E0FEED2BF582C0
:0E325C00EE3CF583E0FBC2D575F002EB30E7E7
:05326A0004B2D5F404DC
:0E326F00A430D50AF42401C5F0F43400C5F0F3
:0A327D00244FFB740635F0FC8B8231
:0C3287008C83E0FDA3E0FE1DBDFF011ED6
:0E3293008B828C83EDF0A3EEF0900853E0FBED
:0E32A100A3E0FCC3E49B74808CF063F0809586
:0632AF00F040030231FCB7
:0E32B500758220C003C004123DBED004D003B9
:0E32C300758208C003C004123DBED004D003C3
:0532D1001BBBFF011C06
:0B32D600900853EBF0A3ECF00231FC79
:0E32E10090084FE0FBA3E0FC90084F74012B17
:0E32EF00F0E43CA3F0900853E0FBA3E0FC9059
:0E32FD00085374012BF0E43CA3F0C2D575F029
:09330B0002EA30E704B2D5F40433
:0E331400A430D50AF42401C5F0F43400C5F04D
:0A332200244FFB740635F0FC8B828B
:0C332C008C83E0FDA3E0FE0DBD00010E4F
:0E3338008B828C83EDF0A3EEF0C3EA648094E8
:0E334600B0400B74B98AF063F08095F0502609
:0E335400C3EA648094E1400B74FA8AF063F0DF
:053362008095F05013FE
:0E336700C3EA648094C1406874DA8AF063F0AF
:053375008095F0405DB1
:0E337A00C002900851E0FBA3E0FC900647E083
:09338800F50BA3E0F50CA3E0F540
:0A3391000DA3E0F50E8B01ECFA33FA
:0A339B0095E0FDFEC3E9950BEA95ED
:0833A5000CED950DEE6480852E
:0C33AD000EF063F08095F0E433D0026075
:0E33B9001D90064BE0FDA3E0FEEB2DF582EC2F
:0E33C7003EF583EAF090085174012BF0E43CCF
:0233D500A3F063
:0533D700BA3F02800373
:0333DC00023813A1
:0A33DF00C002C0027485C0E0745201
:0E33E900C0E07480C0E01249A6158115811560
:0E33F70081D002900851E0FBA3E0FC9008EBAF
:0E340500740AF0E4A3F09008EDE4F0A3F08B5D
:0E341300828C83C002C003C004123C23D0048C
:0C342100D003D002C002C003C004748EAF
:0B342D00C0E07452C0E07480C0E012E8
:0E34380049A6158115811581D004D003D0025C
:0E344600900647E0FDA3E0FEA3E0FFA3E0F840
:0E345400EC3395E0F9FAEDC39BFDEE9CFEEF24
:0E34620099FFE89AF89008EB740AF0E4A3F0E2
:0E3470009008EDE4F0A3F08D828E83C002126E
:0B347E003C23D002C00274ACC0E0741C
:0C34890052C0E07480C0E01249A615811A
:0C34950015811581D002C00274B3C0E0A4
:0C34A1007452C0E07480C0E01249A6150F
:0E34AD008115811581D002900647E0FAA3E058
:0E34BB00FBA3E0FCA3E0FD9008EB740AF0E434
:0E34C900A3F09008EDE4F0A3F08A828B83C09C
:0C34D70002123C23D002C00274BEC0E010
:0C34E3007452C0E07480C0E01249A615CD
:0E34EF008115811581D00290064BE0FAA3E012
:0E34FD00FB9008EB7410F0E4A3F09008ED745F
:0E350B0004F0E4A3F08A828B83C002123C23FA
:0E351900D00275820AC002123DBED002C0026E
:0A35270074C9C0E07452C0E0748063
:0E353100C0E01249A6158115811581D00290C7
:0E353F000647E0FAA3E0FBA3E0FCA3E0FD904A
:0E354D0009417404F0E4A3F0A3F0A3F08A8215
:0E355B008B838CF0ED124332AA82AB83ACF06E
:0E356900FD9008EB740AF0E4A3F09008EDE486
:0E357700F0A3F08A828B83C002123C23D002A4
:0A358500C00274BEC0E07452C0E042
:0E358F007480C0E01249A6158115811581D007
:0E359D000290064DE0FAA3E0FB9008EB7410DC
:0E35AB00F0E4A3F09008ED7404F0E4A3F08ABD
:0E35B900828B83C002123C23D00275820AC0AE
:0C35C70002123DBED002D0027B007C004E
:0E35D300C3EB940EEC64809480400302371426
:0E35E100900968740AF0E4A3F08B828C83C01A
:0E35EF0002C003C00412472BE5828583F0D092
:0E35FD0004D003D00245F07021C002C003C00C
:0A360B000474D4C0E07452C0E074EF
:0E36150080C0E01249A6158115811581D004F0
:04362300D003D002FE
:0A362700EB2455FDEC3408FE8D8203
:0E3631008E83E0FFF582C002C003C004C00516
:0E363F00C006123DBED006D005D004D003D088
:0E364D000275822DC002C003C004C005C00675
:0E365B00123DBED006D005D004D003D0028DA3
:0E366900828E83E0FFC2D575F002EF30E704D9
:04367700B2D5F404D0
:0E367B00A430D50AF42401C5F0F43400C5F0E3
:0A368900244FF582740635F0F58336
:0E369300E0FFA3E0F89008EB740AF0E4A3F067
:0E36A1009008EDE4F0A3F08F828883C002C091
:0E36AF0003C004C005C006123C23D006D0059F
:0E36BD00D004D003D002758220C002C003C02A
:0E36CB0004C005C006123DBED006D005D004D6
:0E36D900D003D0028D828E83E0FDC2D575F045
:0936E70002ED30E704B2D5F40451
:0E36F000A430D50AF42401C5F0F43400C5F06E
:0A36FE00244FF582740635F0F583C1
:09370800E4F0A3F00BBB00010C7E
:033711000235D3AB
:0A371400C00274D6C0E07452C0E099
:0E371E007480C0E01249A6158115811581D076
:0D372C0002900851E0FBA3E0FC7D007E0050
:0E373900C3ED9BEE64808CF063F08095F04051
:04374700030237C57D
:0E374B009009687432F0E4A3F08D828E83C082
:0E37590002C003C004C005C00612472BE58263
:0E3767008583F0D006D005D004D003D00245F3
:0E377500F0701A75820AC002C003C004C005BD
:0E378300C006123DBED006D005D004D003D043
:013791000235
:0E37920090064BE0FFA3E0F8ED2FF582EE3835
:0E37A000F583E0FFF582C002C003C004C0053F
:0E37AE00C006123DBED006D005D004D003D018
:0637BC00020DBD00010E2C
:0337C20002373992
:0A37C500C00274EBC0E07452C0E0D3
:0E37CF007480C0E01249A6158115811581D0C5
:0E37DD0002900851E4F0A3F090084FE4F0A32E
:0E37EB00F0C002123BE3D002900853E4F0A3BA
:0A37F900F0C0027480C0E07452C0FA
:0E380300E07480C0E01249A615811581158180
:02381100D002E3
:05381300BA3D02800334
:033818000231FC7E
:0E381B0075820A123DBE90064BE0FAA3E0FB58
:0E3829007C00900851E0FDA3E0FE9008E6ED63
:0E383700F0A3EEF08A828B838CF0123A477574
:0D384500820A123DBE900853E4F0A3F07417
:0A38520080C0E07452C0E07480C032
:0D385C00E01249A61581158115810231FC8D
:06386900438E0C02314BFE
:0A386F0074EEC0E07452C0E07480F3
:0E387900C0E01249A61581158115819000004E
:0D3887007480F0E4A3F090086375F0001267
:063894003072900915746A
:0A389A00E3F0A37408F0A37400F03B
:0E38A40090086375F000123DE0AA82E583FBF8
:0E38B2003395E0FCFD900647EAF0A3EBF0A38F
:0E38C000ECF0A3EDF0900863E060179008E3D1
:0E38CE00E0FEA3E0FFA3E0F88E828F8388F077
:0638DC00125243FE6018C9
:0A38E2007434C0E07453C0E0748039
:0E38EC00C0E01249A615811581158102386FC2
:0E38FA00C3EA9418EB9400EC9400ED64809403
:0E39080080401374409A74069BE49C74808D7A
:08391600F063F08095F0502AE7
:0E391E00900647E0C0E0A3E0C0E0A3E0C0E0F8
:0A392C00A3E0C0E07449C0E074534A
:0E393600C0E07480C0E01249A6E58124F9F5D6
:043944008102386F55
:0E3948009009277408F0E4A3F0A3F0A3F08A1E
:0E395600828B838CF0EDC002C003C004C0055C
:0E396400124060AE82AF83A8F0F9D005D00407
:0E397200D003D002BE000BBF0008B80005B99C
:0439800000028020A1
:0C398400C002C003C004C0057469C0E0AC
:0C3990007453C0E07480C0E01249A6E54A
:08399C008124F9F58102386F66
:0D39A4008A828B8312458AE5828583F0902C
:0E39B100064BF0A3E5F0F0900647E0FAA3E025
:0E39BF00FBA3E0FCA3E0FD9009417404F0E4DA
:0E39CD00A3F0A3F0A3F08A828B838CF0ED129E
:0E39DB004332AA82AB83ACF0FD12458AAA8269
:0E39E900AB8390064DEAF0A3EBF090064BE0A6
:0B39F700FCA3E0FD4C6004EA4B7044B0
:0E3A020090064BE0FAA3E0FB4A600B7C008AC2
:083A1000828B838CF0124196B9
:0E3A180090064DE0FAA3E0FB4A600B7C008AAA
:083A2600828B838CF0124196A3
:0A3A2E007489C0E07453C0E0748096
:0E3A3800C0E01249A615811581158102386F74
:013A4600225D
:0E3A4700AAF0AB83E5829008E8F0A3EBF0A3B1
:0A3A5500EAF0749FC0E07453C0E073
:0E3A5F007480C0E01249A61581158115819072
:0C3A6D0008E8E0FAA3E0FBA3E0FC8A11EB
:053A79008B128C13907C
:0B3A7E0008E6E0F8A3E0F9E4F50FF51E
:013A8900102C
:0A3A8A00C3E50F98E510648089F091
:0A3A940063F08095F04003023BCD83
:0C3A9E009009687410F0E4A3F0850F821A
:0C3AAA00851083C002C003C004C000C02F
:0E3AB6000112472BE5828583F0D001D000D0AD
:0C3AC40004D003D00245F06003023B6117
:0E3AD000C000C001C002C003C004C000C0019D
:0A3ADE0074D4C0E07452C0E074809C
:0E3AE800C0E01249A6158115811581D001D0CC
:0C3AF60000D004D003D002E50F2AF8E550
:0C3B0200103BF98C059008EB7410F0E407
:0E3B0E00A3F09008ED7404F0E4A3F08882891F
:0E3B1C0083C002C003C004C000C001123C23DD
:0E3B2A00D001D000D004D003D002C002C003EE
:0B3B3800C004C000C00174D5C0E074E0
:0C3B430053C0E07480C0E01249A6158158
:0E3B4F0015811581D001D000D004D003D00222
:043B5D00D001D000C3
:063B6100E50F2511FDE552
:053B6700103512FEAF55
:0C3B6C00138D828E838FF0125243FD33C4
:0D3B780095E0FE9008EB7410F0E4A3F090CF
:0E3B850008ED7402F0E4A3F08D828E83C0027E
:0E3B9300C003C004C000C001123C23D001D00A
:0E3BA10000D004D003D002758220C002C00301
:0E3BAF00C004C000C001123DBED001D000D045
:0A3BBD0004D003D002050FE4B50F99
:033BC700020510E4
:033BCA00023A8A32
:0A3BCD0074D4C0E07452C0E07480AC
:0C3BD700C0E01249A6158115811581225D
:0A3BE30074D8C0E07453C0E0748091
:0C3BED00C0E01249A615811581158174F5
:0A3BF900F8C0E07453C0E07480C00F
:0C3C0300E01249A6158115811581741886
:0B3C0F00C0E07454C0E07480C0E012FC
:093C1A0049A615811581158122CE
:055280000A3E3E200083
:095285000A53746F726564200085
:0E528E00206368617261637465727320696EDB
:0E529C0020627566666572302C207769746832
:0252AA002000E2
:0752AC0020667265650A002F
:0B52B30042756666657220303A2000EC
:0B52BE00206279746573206174200089
:0B52C90042756666657220313A2000D5
:0252D4000A00CE
:0E52D6000A0A466C757368696E672062756619
:0752E4006665722E2E2E00FC
:0352EB000A0A00AC
:0E52EE00456E74657220796F75722062756668
:0E52FC006665722073697A652028696E2074D9
:0E530A0068652072616E6765205B3234203169
:0E5318003630305D20616E642061206D756C52
:0E5326007469706C65206F662038293A20008B
:0E5334000A4E6F6E2D696E7465676572206992
:075342006E7075742E0A0065
:0E5349000A56616C7565206F7574206F6620C2
:0E53570072616E6765205B3234203136303073
:045365005D2E0A00AF
:0E5369000A56616C7565206D7573742062655F
:0E53770020646976697369626C652062792032
:04538500382E0A00B4
:0E5389000A416C6C6F636174696F6E2066611F
:08539700696C7572652E0A00B5
:0E539F000A202020202B203020203120203218
:0E53AD002020332020342020352020362020E0
:0E53BB00372020382020392020412020422099
:0C53C900204320204420204520204600E6
:0353D5003A20007B
:0E53D8000A456E7465722063686172616374C9
:0E53E60065727320666F722073746F72616758
:0453F400652E0A0018
:0E53F800093D096865782064756D70206F6648
:0E5406002062756666657220636F6E74656E57
:0454140074730A00A3
:0E541800093F097072696E74207374617473B9
:0E54260020616E6420636C65617220627566A1
:055434006665720A002C
:0E3C2300AA83E5829008EFF0A3EAF07A007B16
:013C31000092
:0D3C3200C3EA9420EB648094805014EA24CF
:0A3C3F00F1F582EB3408F5837430D0
:083C4900F00ABA00E40B80E16F
:0E3C51009008EFE0FAA3E0FB30E70675822D45
:033C5F00123DBE55
:0C3C62009008EBE0FAA3E0FB7C007D0082
:0E3C6E009008EFE0FEA3E0FF4E7003023D243D
:0E3C7C00900968EAF0A3EBF08E828F83C002FD
:0E3C8A00C003C004C00512472BAE82AF83D02A
:0E3C980005D004D003D0028E828F83C002C0FC
:0E3CA60003C004C0051246DFAE82AF83D00516
:0E3CB400D004D003D002C374898EF063F08078
:0C3CC20095F040089009117430F0800665
:063CCE009009117437F0AB
:093CD400EC24F1FFED3408F89036
:0E3CDD000911E0F92EFE8F828883F09008EF27
:0E3CEB00E0FEA3E0FF900971EAF0A3EBF08E7B
:0E3CF900828F83C002C003C004C0051248477A
:0E3D0700E5828583F0D005D004D003D0029071
:0C3D150008EFF0A3E5F0F00CBC00010D7D
:033D2100023C6EF3
:0E3D2400900912ECF0A3EDF09008EDE0FAA388
:0E3D3200E0FB4A701AEC4D7016758230C0022C
:0E3D4000C003C004C005123DBED005D004D0A3
:033D4E0003D0029D
:0E3D5100C3E49A74808BF063F08095F0501DEF
:0E3D5F00C3EA9CEB64808DF063F08095F05019
:033D6D00028004CD
:043D70008A048B0531
:083D7400900912ECF0A3EDF040
:0D3D7C00900912E0FAA3E0FB1ABAFF011B48
:0E3D8900900912EAF0A3EBF0900912E0FAA301
:023D9700E0FB4F
:0B3D9900EB20E720EA24F1F582EB3478
:0C3DA40008F583E0FCF582C002C00312A9
:0D3DB0003DBED003D0021ABAFFDF1B80DC3D
:013DBD0022E3
:0E3DBE00E582900914F0900914E0FABA0A08A0
:053DCC0010990280FBCC
:033DD10075990DD4
:053DD40010990280FBC4
:073DD900900914E0F59922A6
:0E3DE000AAF0AB83E582900918F0A3EBF0A3E4
:0E3DEE00EAF090091BE4F0A3F090091DE4F048
:0E3DFC00A3F0900918E0FAA3E0FBA3E0FC8A14
:0D3E0A00828B838CF01251F0AA82AB839062
:0C3E1700091FEAF0A3EBF0900918E0F599
:083E230014A3E0F515A3E0F57E
:053E2B001685148285DC
:063E300015838516F01257
:0E3E36005243FFBF2D5D90091D7401F0E4A3FF
:0A3E4400F074012514FFE43515F8B1
:0C3E4E00A9168F82888389F012524370FD
:0E3E5A0026900915E0FCA3E0FDA3E0FE8C829B
:0B3E68008D838EF0E5141246C6A3E522
:063E7300151246C6A3E58E
:083E7900161246C6900000225B
:0E3E8100900918EFF0A3E8F0A3E9F01ABAFFD9
:023E8F00011B15
:083E910090091FEAF0A3EBF019
:0E3E990090091FE0FAA3E0FB900918E0FCA3DB
:093EA700E0FDA3E0FE7F007800BD
:0E3EB000C002C003EF2CF9E83DFA8E038982B0
:0E3EBE008A838BF0125243F9D003D002E970D0
:043ECC0003023F7A34
:0B3ED000C3E9648094B05003023F7A05
:0D3EDB00C374B989F063F08095F0500302C4
:023EE8003F7A1F
:0E3EEA00C004C005C006E93395E0FCE924D011
:0E3EF800F9EC34FFFCEAC39FFDEB98FE1DBD04
:033F0600FF011E9A
:0E3F0900900921EDF0A3EEF090000AC002C076
:0E3F170003C004C007C000C001123FC8AD8245
:0E3F2500AE83D001D000D007D004D003D0026C
:0E3F3300900966EDF0A3EEF089828C83C00247
:0E3F4100C003C006C007C00012470BAC82AD23
:0E3F4F0083D000D007D006D003D00290091B0B
:0E3F5D00E0FEA3E0F990091BEC2EF0ED39A375
:063F6B00F00FBF00010889
:093F7100D006D005D004023EB0D8
:0E3F7A00900915E0FAA3E0FBA3E0FC90091803
:0E3F8800E0FDA3E0FEA3E0F9EF2DFDE83EFE14
:0D3F96008A828B838CF0ED1246C6A3EE12DA
:083FA30046C6A3E91246C690D0
:0E3FAB00091DE0FAA3E0FB4A600790091BE441
:033FB900F0A3F082
:0C3FBC0090091BE0FAA3E08A82F5832242
:0E3FC800AA83E582900923F0A3EAF090092570
:063FD6007401F0E4A3F009
:0E3FDC00900921E0FAA3E0FB4A606DEA30E0B4
:0E3FEA002C900923E0FAA3E0FB900925E0FCEF
:0E3FF800A3E0FD900966EAF0A3EBF08C828D49
:0E4006008312470BE5828583F0900925F0A315
:03401400E5F0F0E4
:0E401700900921E0FAA3E0FBA2E713CA13CA46
:0E402500FB900921EAF0A3EBF0900923E0FAEA
:0E403300A3E0FB900966EAF0A3EBF08A828B13
:0E4041008312470BE5828583F0900923F0A3DC
:05404F00E5F0F080889F
:0C405400900925E0FAA3E08A82F583229F
:0E406000AA82AB83ACF0FD90092BEAF0A3EB33
:0E406E00F0A3ECF0A3EDF090092BE0FAA3E034
:0E407C00FBA3E0FCA3E0FD30E70FC3E49AFED7
:0B408A00E49BFFE49CF8E49DF9800833
:084095008A068B078C008D01E7
:0E409D008E028F0388048905900927E0FEA398
:0E40AB00E0FFA3E0F8A3E0F930E713C3E49EC2
:0940B900F517E49FF518E498F5F1
:0740C20019E499F51A8008CA
:0540C9008E178F18881E
:0340CE0019891A33
:0840D100900938E517F0A3E5A2
:0840D90018F0A3E519F0A3E5BE
:0C40E1001AF08A828B838CF0ED1241E90A
:0E40ED00AA82AB83ACF0FD90092BE0FEA3E0AD
:0E40FB00FFA3E0F8A3E0F930E714C3E49AFE57
:0E410900E49BFFE49CF8E49DF98E828F83888E
:02411700F02294
:084119008A828B838CF0ED22F9
:0E412100AA83E582900931F0A3EAF0900931FB
:0C412F00E0FAA3E0FB4A700490000022BC
:0E413B00EA24FCFAEB34FFFB900955E0FCA3EC
:0E414900E0FD900933ECF0A3EDF090092FE4B7
:03415700F0A3F0E2
:0E415A00900933E0FCA3E0FD4C6025EAB504BB
:0741680006EBB50502801B08
:0E416F0090092FECF0A3EDF08C828D83E0FC24
:0D417D00A3E0FD900933ECF0A3EDF080D03D
:0C418A00900933E0FAA3E08A82F583225A
:0E419600AAF0AB83E582900935F0A3EBF0A30D
:0E41A400EAF0900935E0FAA3E0FBA3E0FC8A04
:0E41B200828B83124121AA82AB83EA4B6028E4
:0E41C00090092FE0FCA3E0FD4C700B8A828B6F
:0841CE0083A3A3E4F0A3F02297
:0E41D6008A828B83E0FAA3E0FB8C828D83EA61
:0441E400F0A3EBF069
:0141E80022B4
:0E41E900AA82AB83ACF0FD90093CEAF0A3EB98
:0D41F700F0A3ECF0A3EDF0900940E4F0908F
:0E420400093CE0FAA3E0FBA3E0FCA3E0FD7E92
:0142120000AB
:09421300900938E0F528A3E0F55C
:08421C0029A3E0F52AA3E0F557
:0A4224002BE52B235401FF7078C036
:0A422E0006E52825E0FFE52933F836
:09423800E52A33F9E52B33FE9071
:0E4241000938EFF0A3E8F0A3E9F0A3EEF09047
:08424F000938E0F528A3E0F5B1
:0842570029A3E0F52AA3E0F51C
:07425F002BC3EA9528EB9543
:0642660029EC952AED95FC
:0A426C002BE433D0066029E52BC3D4
:0742760013F52BE52A13F5F7
:05427D002AE52913F5FC
:0542820029E52813F5F9
:0542870028900938E554
:08428C0028F0A3E529F0A3E5E9
:084294002AF0A3E52BF08009DC
:09429C000E900940EEF0024213FD
:0542A500900940E0FA61
:0E42AA0090093CE0FBA3E0FCA3E0FDA3E0FED6
:0942B800900938E0F528A3E0F5B7
:0842C10029A3E0F52AA3E0F5B2
:0742C9002BC3EB9528EC95D7
:0642D00029ED952AEE9590
:0942D6002B401790093CEBC39545
:0942DF0028F0EC9529A3F0ED95FF
:0842E8002AA3F0EE952BA3F0D0
:0E42F000900938E0FBA3E0FCA3E0FDA3E0FE94
:0D42FE00C313FEED13FDEC13FCEB13FB905E
:0E430B000938F0A3ECF0A3EDF0A3EEF08A0366
:0E4319001AEB708D90093CE0FAA3E0FBA3E0E4
:0B432700FCA3E0FD8A828B838CF02257
:0E433200AA82AB83ACF0FD900945EAF0A3EB44
:0E434000F0A3ECF0A3EDF0900945E0FAA3E045
:0E434E00FBA3E0FCA3E0FD30E70FC3E49AFE02
:0B435C00E49BFFE49CF8E49DF980085E
:084367008A068B078C008D0112
:0E436F008E028F0388048905900941E0FEA3A9
:0C437D00E0FFA3E0F8A3E0F933E433F51F
:094389001BE51B6013C3E49EF563
:084392001CE49FF51DE498F501
:07439A001EE499F51F8008E5
:0543A1008E1C8F1D8839
:0343A6001E891F4E
:0843A900900949E51CF0A3E5B1
:0843B1001DF0A3E51EF0A3E5D9
:0C43B9001FF08A828B838CF0ED1243FD14
:0E43C500AA82AB83ACF0FD900945E0FEA3E0B8
:0C43D300FFA3E0F8A3E0F933E433651B1E
:0E43DF006014C3E49AFEE49BFFE49CF8E49DA6
:0843ED00F98E828F8388F02213
:0843F5008A828B838CF0ED221B
:0E43FD00AA82AB83ACF0FD90094DEAF0A3EB71
:0E440B00F0A3ECF0A3EDF0900951E4F0A3F063
:0E441900A3F0A3F0900949E0FAA3E0FBA3E0B2
:07442700FCA3E0FD75282055
:0E442E0090094DE0FFA3E0F8A3E0F9A3E0FE43
:0C443C00339200EF2FFFE833F8E933F96A
:0E444800EE33FE90094DEFF0A3E8F0A3E9F08B
:0E445600A3EEF0900951E0FEA3E0FFA3E0F812
:0E446400A3E0F9EE2EFEEF33FFE833F8E93364
:0E447200F9900951EEF0A3EFF0A3E8F0A3E9F2
:0C448000F030001E900951E0FFA3E0F8AE
:0E448C00A3E0F9A3E0FE90095174014FF0A3E4
:08449A00E8F0A3E9F0A3EEF045
:0E44A200900951E0FEA3E0FFA3E0F8A3E0F9CB
:0E44B000C3EE9AEF9BE89CE99D4031900951C4
:0E44BE00EEC39AF0EF9BA3F0E89CA3F0E99DFB
:0E44CC00A3F090094DE0FEA3E0FFA3E0F8A3EB
:0E44DA00E0F990094D74014EF0A3EFF0A3E855
:0444E800F0A3E9F064
:0544EC00D52802800349
:0344F10002442E54
:0E44F40090094DE0FAA3E0FBA3E0FCA3E0FD7D
:074502008A828B838CF022FA
:06303200E478FFF6D8FD72
:083010007900E94400601B7A1D
:05301800009054447813
:03301D00A975A0F2
:0A30200009E493F2A308B8000205CA
:08302A00A0D9F4DAF275A0FF51
:0E450900AA83E582900959F0A3EAF0900959BF
:0E451700E0FAA3E0FB90095BEAF0A3EBF0EA08
:0E4525004B702090095B74012AF0E43BA3F078
:0D453300900957E0FAA3E0FB1ABAFF011B44
:08454000900957EAF0A3EBF02B
:0E45480090095BE0FAA3E0FB900955EAF0A3AE
:0E455600EBF0900957E0FCA3E0FDEC2AFCED31
:0E4564003BFDEC24FEFCED34FFFD8A828B83D0
:0E457200ECF0A3EDF08C828D83E4F0A3F08AD0
:0A458000828B83A3A3E4F0A3F022D2
:0E458A00AA83E58290095DF0A3EAF090095D36
:0E459800E0FAA3E0FBC374FB9A74FF9B50048F
:0445A600900000225F
:0E45AA0090095D74042AF0E43BA3F0900955DB
:0E45B800E0FAA3E0FB90095FEAF0A3EBF090BD
:0845C600095DE0F528A3E0F512
:0145CE0029C3
:0E45CF0090095FE0FCA3E0FD8C828D83E0FE8E
:0E45DD00A3E0FF8E008F018C028D03E8C39ACD
:0E45EB00F8E99BF98C828D83A3A3E0FAA3E08C
:0C45F900FBE8C39AF8E99BF9C3E8952899
:0C460500E99529400D90096174042CF027
:06461100E43DA3F080234C
:0E46170090095FEEF0A3EFF090095FE0FAA3C8
:0E462500E0FB8A828B83E0FAA3E0FB4A709CE4
:07463300900961E4F0A3F01F
:0E463A00900961E0FAA3E0FB4A70030246BA61
:0E46480090095FE0FAA3E0FB74022AFCE43B59
:0E465600FD8C828D83E0FEA3E0FF4E7013907A
:0E466400095DE0F8A3E0F98C828D83E8F0A3F5
:04467200E9F08044A7
:0E467600EE2AFEEF3BFF8A828B83E0FCA3E07E
:0E468400FD8E828F83ECF0A3EDF08A828B8393
:0D469200EEF0A3EFF074022EFAE43FFB906F
:0E469F00095DE0FCA3E0FD8A828B83ECF0A3B2
:0D46AD00EDF090096174042EF0E43FA3F0DD
:0C46BA00900961E0FAA3E08A82F58322F7
:0E46C60020F71030F6118883A88220F507F641
:0546D400A883758300BE
:0146D90022BE
:0346DA00F280F774
:0246DD00F022C9
:0E46DF00AA83E582900964F0A3EAF0900964D2
:0E46ED00E0FAA3E0FB33B3E433FC60068A047A
:0446FB008B058007A4
:0746FF00C3E49AFCE49BFDFB
:054706008C828D83226E
:0E470B00AA83AB828BF0900966E0A4F8A9F0B7
:0E4719008AF0E0A429F98BF0A3E0A429F5832F
:044727008882222240
:0E472B00AA83E58290096AF0A3EAF090096A79
:0E473900E0FAA3E0FB30E709C3E49AFCE49B3E
:03474700FD8004EE
:04474A008A048B054D
:0E474E008C028D03900968E0FCA3E0FD30E7CB
:0A475C0009C3E49CFEE49DFF800405
:044766008C068D0729
:0D476A0090096CEEF0A3EFF08A828B8312B1
:0E4777004799AA82AB8390096AE0FCA3E0FD9B
:0E47850030E70CC3E49AFCE49BFD8C828D832C
:014793002203
:054794008A828B8322E4
:0E479900AA83E58290096EF0A3EAF090097001
:0C47A700E4F090096EE0FAA3E0FB7C0057
:0E47B30090096CE0FDA3E0FE235401FF703777
:0E47C100EECD25E0CD33FE90096CEDF0A3EEB9
:0E47CF00F090096CE0FDA3E0FEC3EA9DEB9EB6
:0E47DD005011EEC313CD13CDFE90096CEDF01C
:0547EB00A3EEF08008C0
:0847F0000C900970ECF080BB95
:0547F800900970E0FAD9
:0E47FD0090096EE0FBA3E0FC90096CE0FDA3C8
:0E480B00E0FEC3EB9DEC9E400B90096EEBC3EC
:064819009DF0EC9EA3F0EF
:0E481F0090096CE0FBA3E0FCC313CB13CBFCB1
:0E482D0090096CEBF0A3ECF08A031AEB70C25A
:0C483B0090096EE0FAA3E08A82F5832267
:0E484700AA83E582900973F0A3EAF09009734A
:0E485500E0FAA3E0FB30E709C3E49AFCE49B21
:03486300FD8004D1
:044866008A048B0530
:0E486A008C028D03900971E0FCA3E0FD33E4A5
:0D48780033FE6009C3E49CFFE49DF880045A
:044885008C078D000F
:0E488900900975EFF0A3E8F08A828B83C006D9
:0E4897001248BFAA82AB83D006900973E0FCE2
:0E48A500A3E0FD33E4336E600CC3E49AFCE440
:0748B3009BFD8C828D832226
:0548BA008A828B8322BD
:083038007800E84400600A7909
:033040000075A078
:0630430000E4F309D8FCD3
:0830490078A9E84409600C7944
:0B3051000A900000E4F0A3D8FCD9FABC
:0E48BF00AA83E582900977F0A3EAF0900979C8
:0E48CD00E4F0A3F0900975E0FAA3E0FB7C1084
:0C48DB00900977E0FDA3E0FE339201EEAF
:0E48E700CD25E0CD33FE900977EDF0A3EEF085
:0E48F500900979E0FDA3E0FECD25E0CD33FE75
:0C490300900979EDF0A3EEF03001129065
:0E490F000979E0FDA3E0FE90097974014DF0F6
:03491D00A3EEF016
:0E492000900979E0FDA3E0FEC3ED9AEE9B4006
:0D492E001D900979EDC39AF0EE9BA3F09067
:0E493B000977E0FDA3E0FE90097774014DF0CE
:03494900A3EEF0EA
:0E494C00DC8D900977E0FAA3E08A82F58322E1
:08495A00C027858127AA821203
:054962003DBED027223C
:0E496700AAF0AB83E58290097CF0A3EBF0A3ED
:0E497500EAF090097CE0FAA3E0FBA3E0FC90DE
:0E498300097BE0FD90098FE4F0A3F0A3F09013
:0E4991000992EAF0A3EBF0A3ECF0900995ED8B
:07499F00F090495A024ABFE3
:0649A600C027858127E512
:0C49AC002724FBFA90098FE4F0A3F0A38D
:0C49B800F0E52724FBF8900992E6F008D7
:0D49C400A3E6F008A3E6F0900995EAF09054
:0A49D100495A124ABFAA82AB83D0F4
:0249DB00272291
:0C49DD00E58290098BF090098BE0FA90C5
:0E49E9000981E0C0E0A3E0C0E0A3E0C0E074FC
:0849F7000BC0E0744AC0E0901F
:0C49FF00097FE0C0E0A3E0C0E08A822253
:0E4A0B00158115811581900989E0FAA3E0FB61
:0C4A190090098974012AF0E43BA3F0220C
:0E4A2500E58290098CF090098CE0FA74302A3A
:0C4A3300FA24C6500A74072AFA30020365
:034A3F004302200F
:054A42008A820249DD3B
:0E4A4700E58290098DF090098DE0FAC4540FBD
:0E4A5500FBF582C002124A25D00253020F8ADE
:044A630082024A255C
:0E4A6700E58290098EF0900984E0FAA3E0FB4E
:0E4A7500A3E0FCA3E0FD900988E0FE90098E0E
:044A8300E0FF7820B8
:0E4A8700EE2EFEED235401F94206EA2AFAEB68
:0E4A950033FBEC33FCED33FDC3EE9F4007EE28
:064AA300C39FFE43020167
:0E4AA900D8DC900984EAF0A3EBF0A3ECF0A3B4
:084AB700EDF0900988EEF022F9
:0E4ABF00AA83E582900996F0A3EAF09009968A
:0E4ACD00E0FAA3E0FB90097FEAF0A3EBF09083
:0E4ADB00098FE0FAA3E0FBA3E0FC900981EA5A
:0E4AE900F0A3EBF0A3ECF0900989E4F0A3F049
:0E4AF700900992E0FAA3E0FBA3E0FC8A828B18
:0E4B0500838CF0125243FD90099274012AF045
:0D4B1300E43BA3F0A3ECF0ED70030251E4CD
:054B2000BD2502800329
:034B25000251DC5E
:054B2800C203C204C23B
:044B2D0005C206C2F5
:044B310007C208C2ED
:044B350009C20A9017
:094B39000998E4F0900999F0904C
:0E4B4200099AF0900992E0FAA3E0FBA3E0FCD0
:0E4B50008A828B838CF0125243FEA3AA82ABA2
:0D4B5E0083900992EAF0A3EBF0A3ECF09035
:0D4B6B00099CEEF0BE25088E821249DD0285
:024B78004AF7FA
:054B7A008E07BF3000B2
:0E4B7F00404A8E07EF24C6404390099AE0FF9B
:044B8D006002802919
:0E4B9100C002C003C004900999E0FA75F00A52
:0E4B9F00A4FAEE24D09009992AF0900999E02A
:0C4BAD00FAD004D003D002709AD2048029
:014BB9009665
:0E4BBA00EF75F00AA4FFEE24D090099A2FF0B8
:034BC800024B504D
:0E4BCB0090099CE0FEBE2E0890099AE4F002CC
:024BD9004B503F
:0E4BDB008E82C002C003C004C006125263E501
:0C4BE9008224FF9202D006D004D003D03A
:094BF5000230020590099CE4F075
:0A4BFE0090099CE0FEBE20028055E5
:054C0800BE2B02804BF1
:054C0D00BE2D028041F4
:054C1200BE4202804BD0
:054C1700BE43028050C5
:064C1C00BE4403024E51EC
:064C2200BE4603024E73C2
:064C2800BE4903024E51DB
:054C2E00BE4C028034C1
:064C3300BE4F03024E5BC0
:064C3900BE5003024DB362
:054C3F00BE530280429B
:064C4400BE5503024E63A1
:064C4A00BE5803024E6B90
:034C5000024E779A
:054C5300D203024B50EA
:054C5800D205024B50E3
:054C5D00D206024B50DD
:054C6200D208024B50D6
:054C6700D209024B50D0
:0E4C6C00900995E0FA24FEF8900995F0860272
:0C4C7A00088603188A821249DD024E836E
:0E4C8600900995E0FA24FDF8900995F0860259
:0E4C94000886030886041818900984EAF0A325
:0E4CA200EBF0A3ECF0900984E0FAA3E0FBA392
:0E4CB000E0FC8A828B838CF01251F0AA82AB5A
:0A4CBE008390099AE0FB6002800574
:054CC80090099AEAF0DA
:0C4CCD00200338900999E0FBC3EA9B50DB
:0D4CD9002E900999EBC39AF0900999E0FB29
:0D4CE6008B041B900999EBF0BC00028010BC
:0E4CF300758220C002C0031249DDD003D0023A
:024D010080E34D
:054D0300900999EBF09E
:054D080090099AE0FD96
:0E4D0D00C002900984E0FCA3E0FFA3E0FA8C52
:0E4D1B00828F838AF0125243D00260538D04BF
:0E4D29001DC374808CF063F08095F05044C080
:0A4D370002900984E0F522A3E0F5E4
:084D410023A3E0F52474012511
:074D490022FBE43523FAAC64
:0C4D500024900984EBF0A3EAF0A3ECF03F
:074D5C008522828523838577
:0C4D630024F0125243FAF582C002C00591
:0B4D6F001249DDD005D002D002809375
:064D7A00200303024E833A
:0D4D8000900999E0FBC3EA9B4003024E83BB
:0C4D8D00900999EBC39AF0900999E0FAA4
:0E4D99008A031A900999EAF0BB0003024E7ECD
:0C4DA700758220C0021249DDD00280E6B7
:0E4DB300900995E0FB24FDF8900995F0860329
:0E4DC1000886040886071818900984EBF0A3F2
:0E4DCF00ECF0A3EFF0900986E0FB247F500883
:084DDD0090099C7443F0802052
:0D4DE500EB249F500890099C7450F080133F
:0D4DF200EB24BF500890099C7449F0800626
:064DFF0090099C7458F0BD
:0E4E050090099CE0FBF582C0031249DDD0034A
:0E4E130075823AC0031249DDD003758230C0AB
:0E4E2100031249DDD003758278C0031249DD0B
:074E2F00D003BB4902800F14
:054E3600BB5002800AE0
:0A4E3B00900985E0FBF582124A475A
:0C4E4500900984E0FBF582124A4780329D
:0A4E5100D207900998740AF0802837
:084E5B009009987408F0802012
:084E6300900998740AF0801810
:084E6B009009987410F080100A
:044E7300D20A800CD3
:074E77008E821249DD800567
:054E7E00900999EAF023
:0C4E8300300A6B900995E0FA24FCF890CE
:0E4E8F000995F0860208860308860408860648
:0E4E9D00181818900984EAF0A3EBF0A3ECF0CB
:0B4EAB00A3EEF09009847439F0A374AA
:064EB60054F0A37480F02B
:0E4EBC00900984E0FBA3E0FCA3E0FD74012B51
:0E4ECA00FEE43CFF8D02900984EEF0A3EFF0B1
:0E4ED800A3EAF08B828C838DF0125243FA70A5
:044EE60003024AF782
:074EEA008A821249DD80CB32
:0B4EF100900998E0FABA0003024AF7AB
:084EFC009009A374A2F0A37455
:064F040009F030084C909A
:0E4F0A000995E0FA14F8900995F08602EA3352
:0E4F180095E0FBFCFE900984EAF0A3EBF0A309
:0B4F2600ECF0A3EEF0300703024FCBCD
:0E4F3100900984E0FAA3E0FBA3E0FCA3E0FEFD
:0E4F3F007B007C007E00900984EAF0A3EBF07A
:084F4D00A3ECF0A3EEF0807666
:0C4F550030092A900995E0FA24FCF8903D
:0E4F61000995F0860208860308860408860675
:0E4F6F00181818900984EAF0A3EBF0A3ECF0F8
:054F7D00A3EEF08049E5
:0E4F8200900995E0FA24FEF8900995F0860259
:0E4F900008860318EB3395E0FCFE900984EAD6
:0C4F9E00F0A3EBF0A3ECF0A3EEF0200772
:0E4FAA0020900984E0FAA3E0FBA3E0FCA3E062
:0E4FB800FE7C007E00900984EAF0A3EBF0A3DB
:054FC600ECF0A3EEF089
:0C4FCB0030073E900984E0FAA3E0FBA34D
:0E4FD700E0FCA3E0FE30E72B900984E0FAA393
:0E4FE500E0FBA3E0FCA3E0FEC3E49AFAE49B29
:0E4FF300FBE49CFCE49EFE900984EAF0A3EB34
:09500100F0A3ECF0A3EEF0800234
:02500A00C207DB
:08500C00D20B900998E0FC753D
:0350140025A2755D
:0450170026097D00E9
:0E501B00900988E4F08C82C004C005124A6738
:0C502900D005D004200B32C00490098890
:0A503500E0FFC4FF85258285268375
:0A503F00E0FA4207852582852683EA
:0A504900EFF0152574FFB5250215E0
:015053002636
:085054009009A3E525F0A3E596
:06505C0026F0D004800CD8
:09506200900988E0FF8525828594
:03506B002683F0A9
:09506E000D90099BEDF0B20B90CE
:0E5077000984E0FFA3E0FAA3E0FEA3E0FBEF54
:0C5085004A4E4B70919009A3E525F0A362
:09509100E526F090099BEDF0907A
:0C509A000999E0FA70069009997401F081
:0A50A60020042720032474012DFAD2
:0550B000900999E0FBEE
:0D50B500C3EA9B5011758220C002C0031297
:0950C20049DDD003D0021B80EA95
:0550CB00900999EBF0D3
:0A50D00030071275822D1249DD90A1
:0B50DA000999E0FA14900999F0802F6A
:0C50E50090099BE0FA60283005127582EB
:0B50F1002B1249DD900999E0FA1490A1
:0550FC000999F080138A
:0A5101003006107582201249DD907F
:09510B000999E0FA14900999F0E9
:0951140020032F90099BE0FA90A2
:04511D000999E0FB11
:0E5121008B041B900999EBF0C3EA9C503630CA
:06512F0004047C30800244
:025135007C20DC
:0E5137008C82C002C0031249DDD003D002807A
:01514500DB8E
:0E514600900999E0FA90099BE0FCC39A500989
:09515400900999EAC39CF0800C5B
:07515D00900999E4F08005C0
:05516400900999EBF039
:0D5169009009A3E0FAA3E0FB90099BE0FC95
:0A5176008C061CEE6040B20B200B0B
:06518000150ABA00010B44
:0E5186008A828B83E0FEC4540FFE900988F0ED
:02519400800E8B
:0E5196008A828B83E0FE53060F900988EEF0AC
:0E51A400900988E0FEF582C002C003C004122C
:0A51B2004A25D004D003D00280BAD1
:0651BC00200303024AF784
:0551C200900999E0FADC
:0951C7008A031AEB7003024AF797
:0C51D000758220C0021249DDD00280EB85
:0851DC008D821249DD024AF741
:0C51E400900989E0FAA3E08A82F583229A
:0B5439003C4E4F20464C4F41543E00BB
:0E51F000AAF0AB83E5829009A5F0A3EBF0A333
:0E51FE00EAF07A007B009009A5E0FCA3E0FD3A
:03520C00A3E0FE1E
:0E520F008C828D838EF0125243FFA3AC82ADD1
:0E521D00839009A5ECF0A3EDF0A3EEF0EF6096
:08522B00070ABA00DF0B80DC6A
:0E5233009009A5ECF0A3EDF0A3EEF08A828BBB
:025241008322C6
:0330030075812BA9
:0A30060012525FE582600302315BA5
:0E52430020F71430F6148883A88220F507E6C1
:06525100A8837583002212
:03525700E280F7FB
:03525A00E49322B8
:02525D00E0224D
:04525F007582002232
:0E526300E5829009A8F09009A8E0FABA61006F
:0B5271004009EA2485400475820122F8
:04527C007582002215
:00000001FF
