:0E305F003098FDAA99C2988A82C002123C7D68
:05306D00D0028A82225E
:0E307200AAF0AB83E582900002F0A3EBF0A37E
:0E308000EAF0900000E0FAA3E0FBC3E49A74CB
:0E308E00808BF063F08095F040079000007595
:03309C00F000221F
:0C309F00900005E4F0A3F0900002E0F5C2
:0830AB0008A3E0F509A3E0F51C
:0630B3000A1ABAFF011B1E
:0430B9007F0078001C
:0E30BD00C3EF9AE864808BF063F08095F050CA
:0E30CB0053C002C003C007C00012305FA982CC
:0D30D900D000D007D003D002B90A02800356
:0330E600B90D0B16
:0B30E900B90D3375820A123C7D802B6C
:0A30F400C002C003EF2508FAE8351A
:0A30FE0009FBAC0A8A828B838CF078
:09310800E91245850FBF00010822
:0E311100900005EFF0A3E8F0D003D002809EFE
:0E311F00900002E0FAA3E0FBA3E0FC900005A4
:0E312D00E0FDA3E0FEED2AFDEE3BFE8C078DDB
:0E313B00828E838FF0E41245858A828B838C0E
:02314900F02272
:0E314B009009557440F0A37406F0900007023E
:0231590043C869
:0330000002300398
:03305C0002315BE3
:05315B0012316080FE4E
:0E31600090084FE4F0A3F0900851E4F0A3F0C3
:0D316E009008537430F09008547431F090C4
:0C317B0008557432F09008567433F09040
:0C31870008577434F09008587435F0902C
:0C31930008597436F090085A7437F09018
:0C319F00085B7438F090085C7439F09004
:0C31AB00085D7446F090085E7445F090DA
:0C31B700085F744DF09008607441F01245
:0631C300376812376E743C
:0A31C9003FC0E07451C0E07480C004
:0C31D300E0124865158115811581745EBD
:0B31DF00C0E07451C0E07480C0E0123A
:0C31EA004865158115811581747EC0E0D8
:0C31F6007451C0E07480C0E01248651500
:0932020081158115817A007B0021
:0E320B00C3EB64809481501E8A04EBCC25E056
:0A321900CC33FDEC244FF582ED34B8
:0C32230006F583E4F0A3F00ABA00DD0B0E
:02322F0080DA43
:0E32310012305FAA8290084FE0FBA3E0FC90F1
:0E323F00084F74012BF0E43CA3F0C2D575F0EB
:09324D0002EA30E704B2D5F404F2
:0E325600A430D50AF42401C5F0F43400C5F00C
:0A326400244FFB740635F0FC8B824A
:0C326E008C83E0FDA3E0FE0DBD00010E0E
:0E327A008B828C83EDF0A3EEF0C3EA648094A7
:0E328800B0400B74B98AF063F08095F05026C8
:0E329600C3EA648094E1400B74FA8AF063F09E
:0532A4008095F05013BD
:0E32A900C3EA648094C1406874DA8AF063F06E
:0532B7008095F0405D70
:0E32BC00C002900851E0FBA3E0FC900647E042
:0932CA00F50BA3E0F50CA3E0F5FF
:0A32D3000DA3E0F50E8B01ECFA33B9
:0A32DD0095E0FDFEC3E9950BEA95AC
:0832E7000CED950DEE648085ED
:0C32EF000EF063F08095F0E433D0026034
:0E32FB001D90064BE0FDA3E0FEEB2DF582ECEE
:0E3309003EF583EAF090085174012BF0E43C8D
:02331700A3F021
:05331900BA3F02800331
:03331E0002372E45
:0A332100C002C002749FC0E07451A6
:0E332B00C0E07480C0E0124865158115811560
:0E33390081D002900851E0FBA3E0FC9008E96F
:0E334700740AF0E4A3F09008EBE4F0A3F08B1E
:0E335500828C83C002C003C004123AE2D0048E
:0C336300D003D002C002C003C00474A854
:0B336F00C0E07451C0E07480C0E012A8
:0E337A004865158115811581D004D003D0025D
:0E338800900647E0FDA3E0FEA3E0FFA3E0F8FF
:0E339600EC3395E0F9FAEDC39BFDEE9CFEEFE3
:0E33A40099FFE89AF89008E9740AF0E4A3F0A3
:0E33B2009008EBE4F0A3F08D828E83C002122F
:0B33C0003AE2D002C00274C6C0E07404
:0C33CB0051C0E07480C0E012486515811C
:0C33D70015811581D002C00274CDC0E049
:0C33E3007451C0E07480C0E01248651511
:0E33EF008115811581D002900647E0FAA3E017
:0E33FD00FBA3E0FCA3E0FD9008E9740AF0E4F5
:0E340B00A3F09008EBE4F0A3F08A828B83C05C
:0C34190002123AE2D002C00274D8C0E0F7
:0C3425007451C0E07480C0E012486515CE
:0E3431008115811581D00290064BE0FAA3E0D0
:0E343F00FB9008E97410F0E4A3F09008EB7421
:0E344D0004F0E4A3F08A828B83C002123AE2FC
:0E345B00D00275820AC002123C7DD002C0026F
:0A34690074E3C0E07451C0E0748009
:0E347300C0E0124865158115811581D00290C8
:0E3481000647E0FAA3E0FBA3E0FCA3E0FD9009
:0E348F00093F7404F0E4A3F0A3F0A3F08A82D6
:0E349D008B838CF0ED1241F1AA82AB83ACF070
:0E34AB00FD9008E9740AF0E4A3F09008EBE449
:0E34B900F0A3F08A828B83C002123AE2D002A6
:0A34C700C00274D8C0E07451C0E0E8
:0E34D1007480C0E0124865158115811581D008
:0E34DF000290064DE0FAA3E0FB9008E974109D
:0E34ED00F0E4A3F09008EB7404F0E4A3F08A7E
:0E34FB00828B83C002123AE2D00275820AC0B0
:0C35090002123C7DD002D0027B007C004E
:0E351500C3EB940EEC648094804003023656A3
:0E352300900966740AF0E4A3F08B828C83C0DA
:0E35310002C003C0041245EAE5828583F0D093
:0E353F0004D003D00245F07021C002C003C0CA
:0A354D000474EEC0E07451C0E07495
:0E35570080C0E0124865158115811581D004F1
:04356500D003D002BD
:0A356900EB2453FDEC3408FE8D82C4
:0E3573008E83E0FFF582C002C003C004C005D5
:0E358100C006123C7DD006D005D004D003D089
:0E358F000275822DC002C003C004C005C00634
:0E359D00123C7DD006D005D004D003D0028DA4
:0E35AB00828E83E0FFC2D575F002EF30E70498
:0435B900B2D5F4048F
:0E35BD00A430D50AF42401C5F0F43400C5F0A2
:0A35CB00244FF582740635F0F583F5
:0E35D500E0FFA3E0F89008E9740AF0E4A3F028
:0E35E3009008EBE4F0A3F08F828883C002C052
:0E35F10003C004C005C006123AE2D006D005A1
:0E35FF00D004D003D002758220C002C003C0E9
:0E360D0004C005C006123C7DD006D005D004D6
:0E361B00D003D0028D828E83E0FDC2D575F003
:0936290002ED30E704B2D5F4040F
:0E363200A430D50AF42401C5F0F43400C5F02C
:0A364000244FF582740635F0F5837F
:09364A00E4F0A3F00BBB00010C3D
:0336530002351528
:0A365600C00274F0C0E07451C0E03F
:0E3660007480C0E0124865158115811581D077
:0D366E0002900851E0FBA3E0FC7D007E000F
:0E367B00C3ED9BEE64808CF063F08095F04010
:0436890003023707FA
:0E368D009009667432F0E4A3F08D828E83C043
:0E369B0002C003C004C005C0061245EAE58265
:0E36A9008583F0D006D005D004D003D00245B2
:0E36B700F0701A75820AC002C003C004C0057C
:0E36C500C006123C7DD006D005D004D003D044
:0136D30002F4
:0E36D40090064BE0FFA3E0F8ED2FF582EE38F4
:0E36E200F583E0FFF582C002C003C004C005FE
:0E36F000C006123C7DD006D005D004D003D019
:0636FE00020DBD00010EEB
:0337040002367B0F
:0A370700C0027405C0E07452C0E077
:0E3711007480C0E0124865158115811581D0C5
:0E371F0002900851E4F0A3F090084FE4F0A3EC
:01372D00F0AB
:05372E00BA3D0280031A
:033733000232312E
:0E37360075820A123C7D90064BE0FAA3E0FB80
:0E3744007C00900851E0FDA3E0FE9008E4ED4B
:0E375200F0A3EEF08A828B838CF0123946755C
:08376000820A123C7D023231A5
:06376800438E0C02314B00
:0A376E007408C0E07452C0E07480DB
:0E377800C0E012486515811581158190000092
:0D3786007480F0E4A3F090086175F000126B
:063793003072900913746E
:0A379900E1F0A37408F0A37400F03F
:0E37A30090086175F000123C9FAA82E583FB3E
:0E37B1003395E0FCFD900647EAF0A3EBF0A391
:0E37BF00ECF0A3EDF0900861E060179008E1D7
:0E37CD00E0FEA3E0FFA3E0F88E828F8388F079
:0637DB00125102FE60180D
:0A37E100744EC0E07452C0E0748022
:0E37EB00C0E012486515811581158102376E08
:0E37F900C3EA9418EB9400EC9400ED64809405
:0E38070080401374409A74069BE49C74808D7C
:08381500F063F08095F0502AE9
:0E381D00900647E0C0E0A3E0C0E0A3E0C0E0FA
:0A382B00A3E0C0E07463C0E0745233
:0E383500C0E07480C0E0124865E58124F9F51A
:043843008102376E59
:0E3847009009257408F0E4A3F0A3F0A3F08A22
:0E385500828B838CF0EDC002C003C004C0055E
:0E386300123F1FAE82AF83A8F0F9D005D0044B
:0E387100D003D002BE000BBF0008B80005B99E
:04387F0000028020A3
:0C388300C002C003C004C0057483C0E094
:0C388F007452C0E07480C0E0124865E58F
:08389B008124F9F58102376E6A
:0D38A3008A828B83124449E5828583F09070
:0E38B000064BF0A3E5F0F0900647E0FAA3E027
:0E38BE00FBA3E0FCA3E0FD90093F7404F0E4DE
:0E38CC00A3F0A3F0A3F08A828B838CF0ED12A0
:0E38DA0041F1AA82AB83ACF0FD124449AA82F0
:0E38E800AB8390064DEAF0A3EBF090064BE0A8
:0B38F600FCA3E0FD4C6004EA4B7044B2
:0E39010090064BE0FAA3E0FB4A600B7C008AC4
:08390F00828B838CF0124055FD
:0E39170090064DE0FAA3E0FB4A600B7C008AAC
:08392500828B838CF0124055E7
:0A392D0074A3C0E07452C0E074807F
:0E393700C0E012486515811581158102376EBA
:01394500225F
:0E394600AAF0AB83E5829008E6F0A3EBF0A3B5
:0A395400EAF074B9C0E07452C0E05C
:0E395E007480C0E012486515811581158190B6
:0C396C0008E6E0FAA3E0FBA3E0FC8A11EF
:053978008B128C13907E
:0B397D0008E4E0F8A3E0F9E4F50FF522
:01398800102E
:0A398900C3E50F98E510648089F093
:0A39930063F08095F04003023ACC87
:0C399D009009667410F0E4A3F0850F821E
:0C39A900851083C002C003C004C000C031
:0E39B500011245EAE5828583F0D001D000D0F2
:0C39C30004D003D00245F06003023A601B
:0E39CF00C000C001C002C003C004C000C0019F
:0A39DD0074EEC0E07451C0E0748085
:0E39E700C0E0124865158115811581D001D010
:0C39F50000D004D003D002E50F2AF8E552
:0C3A0100103BF98C059008E97410F0E40B
:0E3A0D00A3F09008EB7404F0E4A3F088828923
:0E3A1B0083C002C003C004C000C001123AE222
:0E3A2900D001D000D004D003D002C002C003F0
:0B3A3700C004C000C00174EFC0E074C8
:0C3A420052C0E07480C0E012486515819D
:0E3A4E0015811581D001D000D004D003D00224
:043A5C00D001D000C5
:063A6000E50F2511FDE554
:053A6600103512FEAF57
:0C3A6B00138D828E838FF0125102FD3308
:0D3A770095E0FE9008E97410F0E4A3F090D3
:0E3A840008EB7402F0E4A3F08D828E83C00282
:0E3A9200C003C004C000C001123AE2D001D04F
:0E3AA00000D004D003D002758220C002C00303
:0E3AAE00C004C000C001123C7DD001D000D089
:0A3ABC0004D003D002050FE4B50F9B
:033AC600020510E6
:033AC90002398936
:0A3ACC0074EEC0E07451C0E0748095
:0C3AD600C0E012486515811581158122A1
:0E513F00456E74657220636861726163746509
:0E514D00727320666F722073746F72616765F3
:03515B002E0A0019
:0E515E00093D096865782064756D70206F66E4
:0E516C002062756666657220636F6E74656EF4
:04517A0074730A0040
:0E517E00093F097072696E7420737461747356
:0E518C0020616E6420636C656172206275663E
:05519A006665720A00C9
:09519F000A53746F72656420006C
:0E51A800206368617261637465727320696EC2
:0E51B60020627566666572302C207769746819
:0251C4002000C9
:0751C60020667265650A0016
:0B51CD0042756666657220303A2000D3
:0B51D800206279746573206174200070
:0B51E30042756666657220313A2000BC
:0251EE000A00B5
:0E51F0000A0A466C757368696E672062756600
:0751FE006665722E2E2E00E3
:035205000A0A0092
:0E520800456E74657220796F7572206275664E
:0E5216006665722073697A652028696E2074BF
:0E52240068652072616E6765205B3234203150
:0E5232003630305D20616E642061206D756C39
:0E5240007469706C65206F662038293A200072
:0E524E000A4E6F6E2D696E7465676572206979
:07525C006E7075742E0A004C
:0E5263000A56616C7565206F7574206F6620A9
:0E52710072616E6765205B323420313630305A
:04527F005D2E0A0096
:0E5283000A56616C7565206D75737420626546
:0E52910020646976697369626C652062792019
:04529F00382E0A009B
:0E52A3000A416C6C6F636174696F6E20666106
:0852B100696C7572652E0A009C
:0E52B9000A202020202B2030202031202032FF
:0E52C7002020332020342020352020362020C7
:0E52D500372020382020392020412020422080
:0C52E300204320204420204520204600CD
:0352EF003A200062
:0E3AE200AA83E5829008EDF0A3EAF07A007B5B
:013AF00000D5
:0D3AF100C3EA9420EB648094805014EA2412
:0A3AFE00EFF582EB3408F583743015
:083B0800F00ABA00E40B80E1B1
:0E3B10009008EDE0FAA3E0FB30E70675822D89
:033B1E00123C7DD9
:0C3B21009008E9E0FAA3E0FB7C007D00C6
:0E3B2D009008EDE0FEA3E0FF4E7003023BE3C4
:0E3B3B00900966EAF0A3EBF08E828F83C00241
:0E3B4900C003C004C0051245EAAE82AF83D0AF
:0E3B570005D004D003D0028E828F83C002C03E
:0E3B650003C004C00512459EAE82AF83D0059A
:0E3B7300D004D003D002C374898EF063F080BA
:0C3B810095F0400890090F7430F08006A9
:063B8D0090090F7437F0EF
:093B9300EC24EFFFED3408F8907A
:0E3B9C00090FE0F92EFE8F828883F09008ED6D
:0E3BAA00E0FEA3E0FF90096FEAF0A3EBF08EBF
:0E3BB800828F83C002C003C004C005124706FE
:0E3BC600E5828583F0D005D004D003D00290B4
:0C3BD40008EDF0A3E5F0F00CBC00010DC2
:033BE000023B2D78
:0E3BE300900910ECF0A3EDF09008EBE0FAA3CF
:0E3BF100E0FB4A701AEC4D7016758230C0026F
:0E3BFF00C003C004C005123C7DD005D004D028
:033C0D0003D002DF
:0E3C1000C3E49A74808BF063F08095F0501D31
:0E3C1E00C3EA9CEB64808DF063F08095F0505B
:033C2C000280040F
:043C2F008A048B0573
:083C3300900910ECF0A3EDF084
:0D3C3B00900910E0FAA3E0FB1ABAFF011B8C
:0E3C4800900910EAF0A3EBF0900910E0FAA347
:023C5600E0FB91
:0B3C5800EB20E720EA24EFF582EB34BC
:0C3C630008F583E0FCF582C002C00312EB
:0D3C6F003C7DD003D0021ABAFFDF1B80DCC1
:013C7C002225
:0E3C7D00E582900912F0900912E0FABA0A08E6
:053C8B0010990280FB0E
:033C900075990D16
:053C930010990280FB06
:073C9800900912E0F59922EA
:0E3C9F00AAF0AB83E582900916F0A3EBF0A328
:0E3CAD00EAF0900919E4F0A3F090091BE4F08E
:0E3CBB00A3F0900916E0FAA3E0FBA3E0FC8A58
:0D3CC900828B838CF01250AFAA82AB8390E7
:0C3CD600091DEAF0A3EBF0900916E0F5E0
:083CE20014A3E0F515A3E0F5C1
:053CEA0016851482851F
:063CEF0015838516F0129A
:0E3CF5005102FFBF2D5D90091B7401F0E4A386
:0A3D0300F074012514FFE43515F8F3
:0C3D0D00A9168F82888389F01251027081
:0E3D190026900913E0FCA3E0FDA3E0FE8C82DF
:0B3D27008D838EF0E514124585A3E5A6
:063D320015124585A3E512
:083D38001612458590000022DF
:0E3D4000900916EFF0A3E8F0A3E9F01ABAFF1D
:023D4E00011B57
:083D500090091DEAF0A3EBF05D
:0E3D580090091DE0FAA3E0FB900916E0FCA321
:093D6600E0FDA3E0FE7F007800FF
:0E3D6F00C002C003EF2CF9E83DFA8E038982F2
:0E3D7D008A838BF0125102F9D003D002E97054
:043D8B0003023E39B8
:0B3D8F00C3E9648094B05003023E3989
:0D3D9A00C374B989F063F08095F050030206
:023DA7003E39A3
:0E3DA900C004C005C006E93395E0FCE924D053
:0E3DB700F9EC34FFFCEAC39FFDEB98FE1DBD46
:033DC500FF011EDD
:0E3DC80090091FEDF0A3EEF090000AC002C0BB
:0E3DD60003C004C007C000C001123E87AD82CA
:0E3DE400AE83D001D000D007D004D003D002AF
:0E3DF200900964EDF0A3EEF089828C83C0028C
:0E3E0000C003C006C007C0001245CAAC82ADA8
:0E3E0E0083D000D007D006D003D0029009194F
:0E3E1C00E0FEA3E0F9900919EC2EF0ED39A3B9
:063E2A00F00FBF000108CB
:093E3000D006D005D004023D6F5C
:0E3E3900900913E0FAA3E0FBA3E0FC90091649
:0E3E4700E0FDA3E0FEA3E0F9EF2DFDE83EFE56
:0D3E55008A828B838CF0ED124585A3EE125E
:083E62004585A3E91245859096
:0E3E6A00091BE0FAA3E0FB4A6007900919E487
:033E7800F0A3F0C4
:0C3E7B00900919E0FAA3E08A82F5832286
:0E3E8700AA83E582900921F0A3EAF0900923B6
:063E95007401F0E4A3F04B
:0E3E9B0090091FE0FAA3E0FB4A606DEA30E0F8
:0E3EA9002C900921E0FAA3E0FB900923E0FC35
:0E3EB700A3E0FD900964EAF0A3EBF08C828D8D
:0E3EC500831245CAE5828583F0900923F0A39D
:033ED300E5F0F027
:0E3ED60090091FE0FAA3E0FBA2E713CA13CA8B
:0E3EE400FB90091FEAF0A3EBF0900921E0FA31
:0E3EF200A3E0FB900964EAF0A3EBF08A828B58
:0E3F0000831245CAE5828583F0900921F0A363
:053F0E00E5F0F08088E1
:0C3F1300900923E0FAA3E08A82F58322E3
:0E3F1F00AA82AB83ACF0FD900929EAF0A3EB77
:0E3F2D00F0A3ECF0A3EDF0900929E0FAA3E078
:0E3F3B00FBA3E0FCA3E0FD30E70FC3E49AFE19
:0B3F4900E49BFFE49CF8E49DF9800875
:083F54008A068B078C008D0129
:0E3F5C008E028F0388048905900925E0FEA3DC
:0E3F6A00E0FFA3E0F8A3E0F930E713C3E49E04
:093F7800F517E49FF518E498F533
:073F810019E499F51A80080C
:053F88008E178F188860
:033F8D0019891A75
:083F9000900936E517F0A3E5E6
:083F980018F0A3E519F0A3E500
:0C3FA0001AF08A828B838CF0ED1240A88E
:0E3FAC00AA82AB83ACF0FD900929E0FEA3E0F1
:0E3FBA00FFA3E0F8A3E0F930E714C3E49AFE99
:0E3FC800E49BFFE49CF8E49DF98E828F8388D1
:023FD600F022D7
:083FD8008A828B838CF0ED223C
:0E3FE000AA83E58290092FF0A3EAF090092F42
:0C3FEE00E0FAA3E0FB4A700490000022FF
:0E3FFA00EA24FCFAEB34FFFB900953E0FCA331
:0E400800E0FD900931ECF0A3EDF090092DE4FD
:03401600F0A3F024
:0E401900900931E0FCA3E0FD4C6025EAB504FF
:0740270006EBB50502801B4A
:0E402E0090092DECF0A3EDF08C828D83E0FC68
:0D403C00A3E0FD900931ECF0A3EDF080D081
:0C404900900931E0FAA3E08A82F583229E
:0E405500AAF0AB83E582900933F0A3EBF0A351
:0E406300EAF0900933E0FAA3E0FBA3E0FC8A48
:0E407100828B83123FE0AA82AB83EA4B602869
:0E407F0090092DE0FCA3E0FD4C700B8A828BB3
:08408D0083A3A3E4F0A3F022D9
:0E4095008A828B83E0FAA3E0FB8C828D83EAA3
:0440A300F0A3EBF0AB
:0140A70022F6
:0E40A800AA82AB83ACF0FD90093AEAF0A3EBDC
:0D40B600F0A3ECF0A3EDF090093EE4F090D3
:0E40C300093AE0FAA3E0FBA3E0FCA3E0FD7ED7
:0140D10000EE
:0940D200900936E0F528A3E0F5A1
:0840DB0029A3E0F52AA3E0F59A
:0A40E3002BE52B235401FF7078C079
:0A40ED0006E52825E0FFE52933F879
:0940F700E52A33F9E52B33FE90B4
:0E4100000936EFF0A3E8F0A3E9F0A3EEF0908B
:08410E000936E0F528A3E0F5F5
:0841160029A3E0F52AA3E0F55E
:07411E002BC3EA9528EB9585
:0641250029EC952AED953E
:0A412B002BE433D0066029E52BC316
:0741350013F52BE52A13F539
:05413C002AE52913F53E
:0541410029E52813F53B
:0541460028900936E598
:08414B0028F0A3E529F0A3E52B
:084153002AF0A3E52BF080091E
:09415B000E90093EEEF00240D284
:0541640090093EE0FAA5
:0E41690090093AE0FBA3E0FCA3E0FDA3E0FE1A
:09417700900936E0F528A3E0F5FB
:0841800029A3E0F52AA3E0F5F4
:074188002BC3EB9528EC9519
:06418F0029ED952AEE95D2
:094195002B401790093AEBC39589
:09419E0028F0EC9529A3F0ED9541
:0841A7002AA3F0EE952BA3F012
:0E41AF00900936E0FBA3E0FCA3E0FDA3E0FED8
:0D41BD00C313FEED13FDEC13FCEB13FB90A0
:0E41CA000936F0A3ECF0A3EDF0A3EEF08A03AB
:0E41D8001AEB708D90093AE0FAA3E0FBA3E029
:0B41E600FCA3E0FD8A828B838CF0229A
:0E41F100AA82AB83ACF0FD900943EAF0A3EB89
:0E41FF00F0A3ECF0A3EDF0900943E0FAA3E08A
:0E420D00FBA3E0FCA3E0FD30E70FC3E49AFE44
:0B421B00E49BFFE49CF8E49DF98008A0
:084226008A068B078C008D0154
:0E422E008E028F038804890590093FE0FEA3ED
:0C423C00E0FFA3E0F8A3E0F933E433F561
:094248001BE51B6013C3E49EF5A5
:084251001CE49FF51DE498F543
:074259001EE499F51F800827
:054260008E1C8F1D887B
:034265001E891F90
:08426800900947E51CF0A3E5F5
:084270001DF0A3E51EF0A3E51B
:0C4278001FF08A828B838CF0ED1242BC98
:0E428400AA82AB83ACF0FD900943E0FEA3E0FC
:0C429200FFA3E0F8A3E0F933E433651B60
:0E429E006014C3E49AFEE49BFFE49CF8E49DE8
:0842AC00F98E828F8388F02255
:0842B4008A828B838CF0ED225D
:0E42BC00AA82AB83ACF0FD90094BEAF0A3EBB5
:0E42CA00F0A3ECF0A3EDF090094FE4F0A3F0A8
:0E42D800A3F0A3F0900947E0FAA3E0FBA3E0F7
:0742E600FCA3E0FD75282098
:0E42ED0090094BE0FFA3E0F8A3E0F9A3E0FE88
:0C42FB00339200EF2FFFE833F8E933F9AD
:0E430700EE33FE90094BEFF0A3E8F0A3E9F0CF
:0E431500A3EEF090094FE0FEA3E0FFA3E0F856
:0E432300A3E0F9EE2EFEEF33FFE833F8E933A6
:0E433100F990094FEEF0A3EFF0A3E8F0A3E936
:0C433F00F030001E90094FE0FFA3E0F8F2
:0E434B00A3E0F9A3E0FE90094F74014FF0A328
:08435900E8F0A3E9F0A3EEF087
:0E43610090094FE0FEA3E0FFA3E0F8A3E0F90F
:0E436F00C3EE9AEF9BE89CE99D403190094F08
:0E437D00EEC39AF0EF9BA3F0E89CA3F0E99D3D
:0E438B00A3F090094BE0FEA3E0FFA3E0F8A32F
:0E439900E0F990094B74014EF0A3EFF0A3E899
:0443A700F0A3E9F0A6
:0543AB00D5280280038B
:0343B0000242EDD9
:0E43B30090094BE0FAA3E0FBA3E0FCA3E0FDC1
:0743C1008A828B838CF0223D
:06303200E478FFF6D8FD72
:083010007900E94400601B7A1D
:05301800009052FD785C
:03301D00A775A0F4
:0A30200009E493F2A308B8000205CA
:08302A00A0D9F4DAF275A0FF51
:0E43C800AA83E582900957F0A3EAF090095706
:0E43D600E0FAA3E0FB900959EAF0A3EBF0EA4D
:0E43E4004B702090095974012AF0E43BA3F0BD
:0D43F200900955E0FAA3E0FB1ABAFF011B89
:0843FF00900955EAF0A3EBF070
:0E440700900959E0FAA3E0FB900953EAF0A3F4
:0E441500EBF0900955E0FCA3E0FDEC2AFCED75
:0E4423003BFDEC24FEFCED34FFFD8A828B8312
:0E443100ECF0A3EDF08C828D83E4F0A3F08A12
:0A443F00828B83A3A3E4F0A3F02214
:0E444900AA83E58290095BF0A3EAF090095B7C
:0E445700E0FAA3E0FBC374FB9A74FF9B5004D1
:0444650090000022A1
:0E44690090095B74042AF0E43BA3F090095321
:0E447700E0FAA3E0FB90095DEAF0A3EBF09001
:08448500095BE0F528A3E0F556
:01448D002905
:0E448E0090095DE0FCA3E0FD8C828D83E0FED2
:0E449C00A3E0FF8E008F018C028D03E8C39A0F
:0E44AA00F8E99BF98C828D83A3A3E0FAA3E0CE
:0C44B800FBE8C39AF8E99BF9C3E89528DB
:0C44C400E99529400D90095F74042CF06C
:0644D000E43DA3F080238F
:0E44D60090095DEEF0A3EFF090095DE0FAA30F
:0E44E400E0FB8A828B83E0FAA3E0FB4A709C27
:0744F20090095FE4F0A3F064
:0E44F90090095FE0FAA3E0FB4A7003024579E8
:0E45070090095DE0FAA3E0FB74022AFCE43B9D
:0E451500FD8C828D83E0FEA3E0FF4E701390BC
:0E452300095BE0F8A3E0F98C828D83E8F0A339
:04453100E9F08044E9
:0E453500EE2AFEEF3BFF8A828B83E0FCA3E0C0
:0E454300FD8E828F83ECF0A3EDF08A828B83D5
:0D455100EEF0A3EFF074022EFAE43FFB90B1
:0E455E00095BE0FCA3E0FD8A828B83ECF0A3F6
:0D456C00EDF090095F74042EF0E43FA3F021
:0C45790090095FE0FAA3E08A82F583223B
:0E45850020F71030F6118883A88220F507F683
:05459300A88375830000
:014598002200
:03459900F280F7B6
:02459C00F0220B
:0E459E00AA83E582900962F0A3EAF090096218
:0E45AC00E0FAA3E0FB33B3E433FC60068A04BC
:0445BA008B058007E6
:0745BE00C3E49AFCE49BFD3D
:0545C5008C828D8322B1
:0E45CA00AA83AB828BF0900964E0A4F8A9F0FC
:0E45D8008AF0E0A429F98BF0A3E0A429F58372
:0445E6008882222283
:0E45EA00AA83E582900968F0A3EAF0900968C0
:0E45F800E0FAA3E0FB30E709C3E49AFCE49B81
:03460600FD800430
:044609008A048B058F
:0E460D008C028D03900966E0FCA3E0FD30E70F
:0A461B0009C3E49CFEE49DFF800447
:044625008C068D076B
:0D46290090096AEEF0A3EFF08A828B8312F5
:0E4636004658AA82AB83900968E0FCA3E0FD21
:0E46440030E70CC3E49AFCE49BFD8C828D836E
:014652002245
:054653008A828B832226
:0E465800AA83E58290096CF0A3EAF090096E47
:0C466600E4F090096CE0FAA3E0FB7C009B
:0E46720090096AE0FDA3E0FE235401FF7037BB
:0E468000EECD25E0CD33FE90096AEDF0A3EEFD
:0E468E00F090096AE0FDA3E0FEC3EA9DEB9EFA
:0E469C005011EEC313CD13CDFE90096AEDF060
:0546AA00A3EEF0800802
:0846AF000C90096EECF080BBD9
:0546B70090096EE0FA1D
:0E46BC0090096CE0FBA3E0FC90096AE0FDA30E
:0E46CA00E0FEC3EB9DEC9E400B90096CEBC331
:0646D8009DF0EC9EA3F032
:0E46DE0090096AE0FBA3E0FCC313CB13CBFCF6
:0E46EC0090096AEBF0A3ECF08A031AEB70C29F
:0C46FA0090096CE0FAA3E08A82F58322AC
:0E470600AA83E582900971F0A3EAF090097190
:0E471400E0FAA3E0FB30E709C3E49AFCE49B63
:03472200FD800413
:044725008A048B0572
:0E4729008C028D0390096FE0FCA3E0FD33E4E9
:0D47370033FE6009C3E49CFFE49DF880049C
:044744008C078D0051
:0E474800900973EFF0A3E8F08A828B83C0061D
:0E47560012477EAA82AB83D006900971E0FC68
:0E476400A3E0FD33E4336E600CC3E49AFCE482
:074772009BFD8C828D832268
:054779008A828B8322FF
:083038007800E84400600A7909
:033040000075A078
:0630430000E4F309D8FCD3
:0830490078A7E84409600C7946
:0B3051000A900000E4F0A3D8FCD9FABC
:0E477E00AA83E582900975F0A3EAF09009770E
:0E478C00E4F0A3F0900973E0FAA3E0FB7C10C8
:0C479A00900975E0FDA3E0FE339201EEF3
:0E47A600CD25E0CD33FE900975EDF0A3EEF0C9
:0E47B400900977E0FDA3E0FECD25E0CD33FEB9
:0C47C200900977EDF0A3EEF030011290AA
:0E47CE000977E0FDA3E0FE90097774014DF03D
:0347DC00A3EEF059
:0E47DF00900977E0FDA3E0FEC3ED9AEE9B404B
:0D47ED001D900977EDC39AF0EE9BA3F090AC
:0E47FA000975E0FDA3E0FE90097574014DF015
:03480800A3EEF02C
:0E480B00DC8D900975E0FAA3E08A82F5832225
:08481900C027858127AA821245
:054821003C7DD02722C0
:0E482600AAF0AB83E58290097AF0A3EBF0A331
:0E483400EAF090097AE0FAA3E0FBA3E0FC9022
:0E4842000979E0FD90098DE4F0A3F0A3F09059
:0E4850000990EAF0A3EBF0A3ECF0900993EDD1
:07485E00F090481902497EA9
:06486500C027858127E554
:0C486B002724FBFA90098DE4F0A3F0A3D1
:0C487700F0E52724FBF8900990E6F0081B
:0D488300A3E6F008A3E6F0900993EAF09098
:0A489000481912497EAA82AB83D0BA
:02489A002722D3
:0C489C00E582900989F0900989E0FA900B
:0E48A800097FE0C0E0A3E0C0E0A3E0C0E07440
:0848B600CAC0E07448C0E090A4
:0C48BE00097DE0C0E0A3E0C0E08A822297
:0E48CA00158115811581900987E0FAA3E0FBA6
:0C48D80090098774012AF0E43BA3F02251
:0E48E400E58290098AF090098AE0FA74302A81
:0C48F200FA24C6500A74072AFA300203A8
:0348FE0043022052
:054901008A8202489CBF
:0E490600E58290098BF090098BE0FAC4540F03
:0E491400FBF582C0021248E4D00253020F8A63
:04492200820248E4E1
:0E492600E58290098CF0900982E0FAA3E0FB94
:0E493400A3E0FCA3E0FD900986E0FE90098C54
:04494200E0FF7820FA
:0E494600EE2EFEED235401F94206EA2AFAEBAA
:0E49540033FBEC33FCED33FDC3EE9F4007EE6A
:06496200C39FFE430201A9
:0E496800D8DC900982EAF0A3EBF0A3ECF0A3F8
:08497600EDF0900986EEF0223D
:0E497E00AA83E582900994F0A3EAF0900994D0
:0E498C00E0FAA3E0FB90097DEAF0A3EBF090C7
:0E499A00098DE0FAA3E0FBA3E0FC90097FEAA0
:0E49A800F0A3EBF0A3ECF0900987E4F0A3F08D
:0E49B600900990E0FAA3E0FBA3E0FC8A828B5C
:0E49C400838CF0125102FD90099074012AF0CC
:0D49D200E43BA3F0A3ECF0ED70030250A352
:0549DF00BD250280036C
:0349E40002509BE3
:0549E700C203C204C27E
:0449EC0005C206C238
:0449F00007C208C230
:0449F40009C20A905A
:0949F8000996E4F0900997F09093
:0E4A01000998F0900990E0FAA3E0FBA3E0FC16
:0E4A0F008A828B838CF0125102FEA3AA82AB26
:0D4A1D0083900990EAF0A3EBF0A3ECF09079
:0D4A2A00099AEEF0BE25088E8212489C020B
:024A370049B67E
:054A39008E07BF3000F4
:0E4A3E00404A8E07EF24C64043900998E0FFDF
:044A4C00600280295B
:0E4A5000C002C003C004900997E0FA75F00A96
:0E4A5E00A4FAEE24D09009972AF0900997E070
:0C4A6C00FAD004D003D002709AD204806B
:014A780096A7
:0E4A7900EF75F00AA4FFEE24D09009982FF0FC
:034A8700024A0FD1
:0E4A8A0090099AE0FEBE2E08900998E4F00212
:024A98004A0FC3
:0E4A9A008E82C002C003C004C006125122E585
:0C4AA8008224FF9202D006D004D003D07C
:094AB4000230020590099AE4F0B9
:0A4ABD0090099AE0FEBE2002805529
:054AC700BE2B02804B34
:054ACC00BE2D02804137
:054AD100BE4202804B13
:054AD600BE4302805008
:064ADB00BE4403024D1071
:064AE100BE4603024D3247
:064AE700BE4903024D1060
:054AED00BE4C02803404
:064AF200BE4F03024D1A45
:064AF800BE5003024C72E7
:054AFE00BE53028042DE
:064B0300BE5503024D2225
:064B0900BE5803024D2A14
:034B0F00024D361E
:054B1200D203024A0F6E
:054B1700D205024A0F67
:054B1C00D206024A0F61
:054B2100D208024A0F5A
:054B2600D209024A0F54
:0E4B2B00900993E0FA24FEF8900993F08602B8
:0C4B3900088603188A8212489C024D4234
:0E4B4500900993E0FA24FDF8900993F086029F
:0E4B53000886030886041818900982EAF0A369
:0E4B6100EBF0A3ECF0900982E0FAA3E0FBA3D6
:0E4B6F00E0FC8A828B838CF01250AFAA82ABDE
:0A4B7D0083900998E0FB60028005B8
:054B8700900998EAF01E
:0C4B8C00200338900997E0FBC3EA9B501F
:0D4B98002E900997EBC39AF0900997E0FB6F
:0D4BA5008B041B900997EBF0BC0002801000
:0E4BB200758220C002C00312489CD003D002BE
:024BC00080E390
:054BC200900997EBF0E3
:054BC700900998E0FDDB
:0E4BCC00C002900982E0FCA3E0FFA3E0FA8C97
:0E4BDA00828F838AF0125102D00260538D0444
:0E4BE8001DC374808CF063F08095F05044C0C3
:0A4BF60002900982E0F522A3E0F529
:084C000023A3E0F52474012553
:074C080022FBE43523FAACA6
:0C4C0F0024900982EBF0A3EAF0A3ECF083
:074C1B0085228285238385B9
:0C4C220024F0125102FAF582C002C00515
:0B4C2E0012489CD005D002D0028093F9
:064C3900200303024D42BE
:0D4C3F00900997E0FBC3EA9B4003024D4241
:0C4C4C00900997EBC39AF0900997E0FAEA
:0E4C58008A031A900997EAF0BB0003024D3D53
:0C4C6600758220C00212489CD00280E63B
:0E4C7200900993E0FB24FDF8900993F086036F
:0E4C80000886040886071818900982EBF0A336
:0E4C8E00ECF0A3EFF0900984E0FB247F5008C7
:084C9C0090099A7443F0802096
:0D4CA400EB249F500890099A7450F0801383
:0D4CB100EB24BF500890099A7449F080066A
:064CBE0090099A7458F001
:0E4CC40090099AE0FBF582C00312489CD003D1
:0E4CD20075823AC00312489CD003758230C030
:0E4CE0000312489CD003758278C00312489CD2
:074CEE00D003BB4902800F57
:054CF500BB5002800A23
:0A4CFA00900983E0FBF582124906E1
:0C4D0400900982E0FBF582124906803223
:0A4D1000D207900996740AF080287B
:084D1A009009967408F0802056
:084D2200900996740AF0801854
:084D2A009009967410F080104E
:044D3200D20A800C15
:074D36008E8212489C8005EB
:054D3D00900997EAF067
:0C4D4200300A6B900993E0FA24FCF89012
:0E4D4E000993F086020886030886040886068C
:0E4D5C00181818900982EAF0A3EBF0A3ECF00F
:0B4D6A00A3EEF090098274F2F0A37435
:064D750052F0A37480F06F
:0E4D7B00900982E0FBA3E0FCA3E0FD74012B95
:0E4D8900FEE43CFF8D02900982EEF0A3EFF0F5
:0E4D9700A3EAF08B828C838DF0125102FA7029
:044DA500030249B606
:074DA9008A8212489C80CBB6
:0B4DB000900996E0FABA00030249B631
:084DBB009009A174A0F0A3749B
:064DC30009F030084C90DD
:0E4DC9000993E0FA14F8900993F08602EA3399
:0E4DD70095E0FBFCFE900982EAF0A3EBF0A34E
:0B4DE500ECF0A3EEF0300703024E8A52
:0E4DF000900982E0FAA3E0FBA3E0FCA3E0FE42
:0E4DFE007B007C007E00900982EAF0A3EBF0BF
:084E0C00A3ECF0A3EEF08076A8
:0C4E140030092A900993E0FA24FCF89081
:0E4E20000993F08602088603088604088606B9
:0E4E2E00181818900982EAF0A3EBF0A3ECF03C
:054E3C00A3EEF0804927
:0E4E4100900993E0FA24FEF8900993F086029F
:0E4E4F0008860318EB3395E0FCFE900982EA1A
:0C4E5D00F0A3EBF0A3ECF0A3EEF02007B4
:0E4E690020900982E0FAA3E0FBA3E0FCA3E0A6
:0E4E7700FE7C007E00900982EAF0A3EBF0A31F
:054E8500ECF0A3EEF0CB
:0C4E8A0030073E900982E0FAA3E0FBA391
:0E4E9600E0FCA3E0FE30E72B900982E0FAA3D7
:0E4EA400E0FBA3E0FCA3E0FEC3E49AFAE49B6B
:0E4EB200FBE49CFCE49EFE900982EAF0A3EB78
:094EC000F0A3ECF0A3EEF0800277
:024EC900C2071E
:084ECB00D20B900996E0FC7582
:034ED30025A075A2
:044ED60026097D002C
:0E4EDA00900986E4F08C82C004C005124926BF
:0C4EE800D005D004200B32C004900986D5
:0A4EF400E0FFC4FF852582852683B8
:0A4EFE00E0FA42078525828526832D
:0A4F0800EFF0152574FFB525021522
:014F12002678
:084F13009009A1E525F0A3E5DA
:064F1B0026F0D004800C1A
:094F2100900986E0FF85258285D8
:034F2A002683F0EB
:094F2D000D900999EDF0B20B9012
:0E4F36000982E0FFA3E0FAA3E0FEA3E0FBEF98
:0C4F44004A4E4B70919009A1E525F0A3A6
:094F5000E526F0900999EDF090BE
:0C4F59000997E0FA70069009977401F0C7
:0A4F650020042720032474012DFA14
:054F6F00900997E0FB32
:0D4F7400C3EA9B5011758220C002C00312D9
:094F8100489CD003D0021B80EA19
:054F8A00900997EBF017
:0A4F8F0030071275822D12489C9025
:0B4F99000997E0FA14900997F0802FB0
:0C4FA400900999E0FA602830051275822F
:0B4FB0002B12489C900997E0FA149027
:054FBB000997F08013CE
:0A4FC00030061075822012489C9004
:094FCA000997E0FA14900997F030
:094FD30020032F900999E0FA90E7
:044FDC000997E0FB56
:0E4FE0008B041B900997EBF0C3EA9C5036300F
:064FEE0004047C30800287
:024FF4007C201F
:0E4FF6008C82C002C00312489CD003D00280FF
:01500400DBD0
:0E500500900997E0FA900999E0FCC39A5009CF
:09501300900997EAC39CF0800C9F
:07501C00900997E4F0800504
:05502300900997EBF07D
:0D5028009009A1E0FAA3E0FB900999E0FCDB
:0A5035008C061CEE6040B20B200B4D
:06503F00150ABA00010B86
:0E5045008A828B83E0FEC4540FFE900986F031
:02505300800ECD
:0E5055008A828B83E0FE53060F900986EEF0F0
:0E506300900986E0FEF582C002C003C0041270
:0A50710048E4D004D003D00280BA56
:06507B002003030249B608
:05508100900997E0FA20
:095086008A031AEB70030249B61B
:0C508F00758220C00212489CD00280EB09
:08509B008D8212489C0249B607
:0C50A300900987E0FAA3E08A82F58322DE
:0B52F2003C4E4F20464C4F41543E0004
:0E50AF00AAF0AB83E5829009A3F0A3EBF0A377
:0E50BD00EAF07A007B009009A3E0FCA3E0FD7E
:0350CB00A3E0FE61
:0E50CE008C828D838EF0125102FFA3AC82AD56
:0E50DC00839009A3ECF0A3EDF0A3EEF0EF60DB
:0850EA00070ABA00DF0B80DCAD
:0E50F2009009A3ECF0A3EDF0A3EEF08A828B00
:02510000832208
:0330030075812BA9
:0A30060012511EE582600302315BE7
:0E51020020F71430F6148883A88220F507E603
:06511000A8837583002254
:03511600E280F73D
:03511900E49322FA
:02511C00E0228F
:04511E007582002274
:0E512200E5829009A6F09009A6E0FABA6100B5
:0B5130004009EA24854004758201223A
:04513B007582002257
:00000001FF
