:0E305F003098FDAA99C2988A82C00212397276
:05306D00D0028A82225E
:0E307200AAF0AB83E582900002F0A3EBF0A37E
:0E308000EAF0900000E0FAA3E0FBC3E49A74CB
:0E308E00808BF063F08095F040079000007595
:03309C00F000221F
:0C309F00900005E4F0A3F0900002E0F5C2
:0830AB0008A3E0F509A3E0F51C
:0630B3000A1ABAFF011B1E
:0430B9007F0078001C
:0E30BD00C3EF9AE864808BF063F08095F050CA
:0E30CB0053C002C003C007C00012305FA982CC
:0D30D900D000D007D003D002B90A02800356
:0330E600B90D0B16
:0B30E900B90D3375820A123972802B7A
:0A30F400C002C003EF2508FAE8351A
:0A30FE0009FBAC0A8A828B838CF078
:09310800E912427A0FBF00010830
:0E311100900005EFF0A3E8F0D003D002809EFE
:0E311F00900002E0FAA3E0FBA3E0FC900005A4
:0E312D00E0FDA3E0FEED2AFDEE3BFE8C078DDB
:0E313B00828E838FF0E412427A8A828B838C1C
:02314900F02272
:0E314B0090092C7440F0A37406F09000070267
:0231590040BD77
:0330000002300398
:03305C0002315BE3
:05315B0012316080FE4E
:0E31600090084FE4F0A3F0900851E4F0A3F0C3
:0D316E009008537430F09008547431F090C4
:0C317B0008557432F09008567433F09040
:0C31870008577434F09008587435F0902C
:0C31930008597436F090085A7437F09018
:0C319F00085B7438F090085C7439F09004
:0C31AB00085D7446F090085E7445F090DA
:0C31B700085F744DF09008607441F01245
:0631C300366512366B7444
:0A31C900F5C0E0744CC0E07480C053
:0C31D300E012441B158115811581741455
:0B31DF00C0E0744DC0E07480C0E0123E
:0C31EA00441B1581158115817434C0E070
:0C31F600744DC0E07480C0E012441B1552
:0932020081158115817A007B0021
:0E320B00C3EB64809481501E8A04EBCC25E056
:0A321900CC33FDEC244FF582ED34B8
:0C32230006F583E4F0A3F00ABA00DD0B0E
:02322F0080DA43
:0E32310012305FAA8290084FE0FBA3E0FC90F1
:0E323F00084F74012BF0E43CA3F0C2D575F0EB
:09324D0002EA30E704B2D5F404F2
:0E325600A430D50AF42401C5F0F43400C5F00C
:0A326400244FFB740635F0FC8B824A
:0C326E008C83E0FDA3E0FE0DBD00010E0E
:0E327A008B828C83EDF0A3EEF0C3EA648094A7
:0E328800B0400B74B98AF063F08095F05026C8
:0E329600C3EA648094E1400B74FA8AF063F09E
:0532A4008095F05013BD
:0E32A900C3EA648094C1406874DA8AF063F06E
:0532B7008095F0405D70
:0E32BC00C002900851E0FBA3E0FC900647E042
:0932CA00F50BA3E0F50CA3E0F5FF
:0A32D3000DA3E0F50E8B01ECFA33B9
:0A32DD0095E0FDFEC3E9950BEA95AC
:0832E7000CED950DEE648085ED
:0C32EF000EF063F08095F0E433D0026034
:0E32FB001D90064BE0FDA3E0FEEB2DF582ECEE
:0E3309003EF583EAF090085174012BF0E43C8D
:02331700A3F021
:05331900BA3F02800331
:03331E0002362252
:0E332100C002900851E0FBA3E0FC900647E0DC
:09332F00F50BA3E0F50CA3E0F599
:0A3338000DA3E0F50E8B01ECFA3353
:0A33420095E0FDFEE50BC399F9E5E7
:08334C000C9AFAE50D9DFDE568
:0C3354000E9EFEC002C001C002C005C0F9
:0A33600006C003C0047455C0E074F9
:0C336A004DC0E07480C0E012441BE581FF
:0E33760024F7F581D00290064BE0FAA3E0FBAD
:0E3384007C00C002C002C003C004900647E0F7
:0E339200C0E0A3E0C0E0A3E0C0E0A3E0C0E024
:0A33A0007485C0E0744DC0E0748035
:0E33AA00C0E012441BE58124F6F581D00290AC
:0E33B800064DE0FAA3E0FB7C00900647E0FD26
:0E33C600A3E0FEA3E0FFA3E0F8900916740454
:0E33D400F0E4A3F0A3F0A3F08D828E838FF0BF
:0E33E200E8C002C003C004123EE6AD82AE8316
:0E33F000AFF0F8D004D003D002C002C002C07B
:0C33FE0003C004C005C006C007C0007476
:0A340A009FC0E0744DC0E07480C064
:0E341400E012441BE58124F6F581D002D002BF
:043422007B007C00AF
:0E342600C3EB940EEC648094804003023523C7
:0E34340090093B740AF0E4A3F08B828C83C0F5
:0E34420002C003C0041242B3E5828583F0D0BD
:0E34500004D003D00245F07021C002C003C0BA
:0A345E000474BAC0E0744DC0E074BD
:0E34680080C0E012441B158115811581D0042F
:04347600D003D002AD
:0A347A00C002EB2453FDEC3408FE01
:0E3484008D828E83E0FFC2D575F002EF30E737
:0534920004B2D5F404B2
:0E349700A430D50AF42401C5F0F43400C5F0C9
:0A34A500244FF582740635F0F5831C
:0E34AF00E0F8A3E0F9EF3395E0FAC002C003A5
:0E34BD00C004C005C006C000C001C007C002A8
:0A34CB0074BCC0E0744DC0E07480D2
:0E34D500C0E012441BE58124F9F581D006D039
:0E34E30005D004D003D0028D828E83E0FDC29E
:0C34F100D575F002ED30E704B2D5F4040C
:0E34FD00A430D50AF42401C5F0F43400C5F063
:0A350B00244FF582740635F0F583B5
:09351500E4F0A3F00BBB00010C73
:05351E00D0020234267A
:0A352300C00274C3C0E0744DC0E0A4
:0E352D007480C0E012441B158115811581D0F9
:0D353B0002900851E0FBA3E0FC7D007E0043
:0E354800C3ED9BEE64808CF063F08095F04044
:04355600030235FB3C
:0E355A0090093B7432F0E4A3F08D828E83C0A2
:0E35680002C003C004C005C0061242B3E582D3
:0E3576008583F0D006D005D004D003D00245E6
:0E358400F07029C002C003C004C005C0067468
:0A359200BAC0E0744DC0E07480C0C0
:0E359C00E012441B158115811581D006D00563
:0635AA00D004D003D002A2
:0E35B00090064BE0FFA3E0F8ED2FF582EE3819
:0E35BE00F583E0FF3395E0F8C002C003C004BF
:0C35CC00C005C006C007C00074D8C0E0F5
:0C35D800744DC0E07480C0E012441BE59C
:0E35E4008124FBF581D006D005D004D003D0A1
:0635F200020DBD00010EF8
:0335F80002354851
:0A35FB00C00274DBC0E0744DC0E0B4
:0E3605007480C0E012441B158115811581D020
:0E36130002900851E4F0A3F090084FE4F0A3F9
:01362100F0B8
:05362200BA3D02800327
:033627000232313B
:0E362A0090064BE0FAA3E0FB7C00900851E014
:0E363800FDA3E0FE9008E4EDF0A3EEF08A8220
:0C3646008B838CF012384374BAC0E0741F
:0C3652004DC0E07480C0E012441B1581E4
:07365E0015811581023231D4
:06366500438E0C02314B04
:0A366B0074DEC0E0744DC0E074800E
:0E367500C0E012441B158115811581900000E4
:0D3683007480F0E4A3F090086175F000126F
:0636900030729008EA749C
:0A369600E1F0A37408F0A37400F043
:0E36A00090086175F000123994AA82E583FB50
:0E36AE003395E0FCFD900647EAF0A3EBF0A395
:0E36BC00ECF0A3EDF0900861E060179008E1DB
:0E36CA00E0FEA3E0FFA3E0F88E828F8388F07D
:0636D800124CB8FE601860
:0A36DE007424C0E0744EC0E0748054
:0E36E800C0E012441B15811581158102366B5E
:0E36F600C3EA9418EB9400EC9400ED64809409
:0E37040080401374409A74069BE49C74808D80
:08371200F063F08095F0502AED
:0E371A00900647E0C0E0A3E0C0E0A3E0C0E0FE
:0A372800A3E0C0E07439C0E0744E65
:0E373200C0E07480C0E012441BE58124F9F56C
:043740008102366B61
:0E3744009008FC7408F0E4A3F0A3F0A3F08A50
:0E375200828B838CF0EDC002C003C004C00562
:0E376000123C14AE82AF83A8F0F9D005D0045D
:0E376E00D003D002BE000BBF0008B80005B9A2
:04377C0000028020A7
:0C378000C002C003C004C0057459C0E0C2
:0C378C00744EC0E07480C0E012441BE5E5
:083798008124F9F58102366B72
:0D37A0008A828B8312413EE5828583F09082
:0E37AD00064BF0A3E5F0F0900647E0FAA3E02B
:0E37BB00FBA3E0FCA3E0FD9009167404F0E40B
:0E37C900A3F0A3F0A3F08A828B838CF0ED12A4
:0E37D7003EE6AA82AB83ACF0FD12413EAA8210
:0E37E500AB8390064DEAF0A3EBF090064BE0AC
:0B37F300FCA3E0FD4C6004EA4B7044B6
:0E37FE0090064BE0FAA3E0FB4A600B7C008AC9
:08380C00828B838CF0123D4A0F
:0E38140090064DE0FAA3E0FB4A600B7C008AB0
:08382200828B838CF0123D4AF9
:0A382A007479C0E0744EC0E07480B1
:0E383400C0E012441B15811581158102366B10
:013842002263
:0E384300AAF0AB83E5829008E6F0A3EBF0A3B9
:0A385100EAF0748FC0E0744EC0E08E
:0E385B007480C0E012441B1581158115819008
:0C38690008E6E0FAA3E0FBA3E0FC8A11F3
:053875008B128C139082
:0B387A0008E4E0F8A3E0F9E4F50FF526
:013885001032
:0A388600C3E50F98E510648089F097
:0A38900063F08095F0400302395CFC
:0C389A0090093B7410F0E4A3F0850F824D
:0C38A600851083C002C003C004C000C035
:0E38B200011242B3E5828583F0D001D000D030
:0E38C00004D003D00245F07041C000C001E505
:0A38CE000F2AF8E5103BF98C05C045
:0E38D80002C003C004C000C001C000C001C097
:0A38E6000574C5C0E0744EC0E07424
:0E38F00080C0E012441BE58124FAF581D0016E
:0C38FE00D000D004D003D002D001D000D4
:06390A00E50F2511FDE5AB
:05391000103512FEAFAE
:0C391500138D828E838FF0124CB8FD33AE
:0E39210095E0FEC002C003C004C000C001C09B
:0A392F0005C00674CEC0E0744EC05F
:0E393900E07480C0E012441BE58124FBF581A0
:0C394700D001D000D004D003D002050F46
:06395300E4B50F020510AF
:03395900023886AB
:0A395C0074BAC0E0744DC0E074803E
:0C396600C0E012441B1581158115812260
:0E4CF500456E74657220636861726163746558
:0E4D0300727320666F722073746F7261676541
:034D11002E0A0067
:0E4D1400093D096865782064756D70206F6632
:0E4D22002062756666657220636F6E74656E42
:044D300074730A008E
:0E4D3400093F097072696E74207374617473A4
:0E4D420020616E6420636C656172206275668C
:054D50006665720A0017
:0E4D55000A53746F72656420256420636861E0
:0E4D63007261637465727320696E20627566FA
:0E4D7100666572302C207769746820256420F6
:064D7F00667265650A0082
:0E4D850042756666657220303A202564206211
:0C4D9300797465732061742025780A0093
:0E4D9F0042756666657220313A2025642062F6
:0D4DAD00797465732061742025780A0A006E
:024DBA000A00ED
:074DBC0025632D2564200092
:0E4DC3000A0A466C757368696E672062756631
:074DD1006665722E2E2E0014
:034DD80025630050
:034DDB000A0A00C1
:0E4DDE00456E74657220796F7572206275667D
:0E4DEC006665722073697A652028696E2074EE
:0E4DFA0068652072616E6765205B323420317F
:0E4E08003630305D20616E642061206D756C67
:0E4E16007469706C65206F662038293A2000A0
:0E4E24000A4E6F6E2D696E74656765722069A7
:074E32006E7075742E0A007A
:0E4E39000A56616C7565206F7574206F6620D7
:0E4E470072616E6765205B3234203136303088
:044E55005D2E0A00C4
:0E4E59000A56616C7565206D75737420626574
:0E4E670020646976697369626C652062792047
:044E7500382E0A00C9
:0E4E79000A416C6C6F636174696F6E20666134
:084E8700696C7572652E0A00CA
:0E4E8F00202020202020302020312020322022
:0E4E9D002033202034202035202036202037DE
:0E4EAB002020382020392020412020422020C5
:0C4EB900432020442020452020460A0011
:094EC5000A25322E34583A20006F
:074ECE0025322E32582000AE
:0E397200E5829008E9F09008E9E0FABA0A0848
:0539800010990280FB1C
:0339850075990D24
:0539880010990280FB14
:07398D009008E9E0F5992222
:0E399400AAF0AB83E5829008EDF0A3EBF0A360
:0E39A200EAF09008F0E4F0A3F09008F2E4F0F0
:0E39B000A3F09008EDE0FAA3E0FBA3E0FC8A90
:0D39BE00828B838CF0124C65AA82AB839043
:0C39CB0008F4EAF0A3EBF09008EDE0F542
:0839D70014A3E0F515A3E0F5CF
:0539DF0016851482852D
:0639E40015838516F012A8
:0E39EA004CB8FFBF2D5D9008F27401F0E4A30D
:0A39F800F074012514FFE43515F802
:0C3A0200A9168F82888389F0124CB870DE
:0E3A0E00269008EAE0FCA3E0FDA3E0FE8C8217
:0B3A1C008D838EF0E51412427AA3E5C2
:063A27001512427AA3E52E
:083A2D001612427A90000022FB
:0E3A35009008EDEFF0A3E8F0A3E9F01ABAFF55
:023A4300011B65
:083A45009008F4EAF0A3EBF095
:0E3A4D009008F4E0FAA3E0FB9008EDE0FCA383
:093A5B00E0FDA3E0FE7F0078000D
:0E3A6400C002C003EF2CF9E83DFA8E03898200
:0E3A72008A838BF0124CB8F9D003D002E970B1
:043A800003023B2ED4
:0B3A8400C3E9648094B05003023B2EA5
:0D3A8F00C374B989F063F08095F050030214
:023A9C003B2EBF
:0E3A9E00C004C005C006E93395E0FCE924D061
:0E3AAC00F9EC34FFFCEAC39FFDEB98FE1DBD54
:033ABA00FF011EEB
:0E3ABD009008F6EDF0A3EEF090000AC002C0F3
:0E3ACB0003C004C007C000C001123B7CAD82E6
:0E3AD900AE83D001D000D007D004D003D002BD
:0E3AE700900939EDF0A3EEF089828C83C002C5
:0E3AF500C003C006C007C000124293AC82ADF1
:0E3B030083D000D007D006D003D0029008F087
:0E3B1100E0FEA3E0F99008F0EC2EF0ED39A3F1
:063B1F00F00FBF000108D9
:093B2500D006D005D004023A6478
:0E3B2E009008EAE0FAA3E0FBA3E0FC9008EDAB
:0E3B3C00E0FDA3E0FEA3E0F9EF2DFDE83EFE64
:0D3B4A008A828B838CF0ED12427AA3EE127A
:083B5700427AA3E912427A90C0
:0E3B5F0008F2E0FAA3E0FB4A60079008F0E4E9
:033B6D00F0A3F0D2
:0C3B70009008F0E0FAA3E08A82F58322BE
:0E3B7C00AA83E5829008F8F0A3EAF09008FA18
:063B8A007401F0E4A3F059
:0E3B90009008F6E0FAA3E0FB4A606DEA30E030
:0E3B9E002C9008F8E0FAA3E0FB9008FAE0FC97
:0E3BAC00A3E0FD900939EAF0A3EBF08C828DC6
:0E3BBA0083124293E5828583F09008FAF0A30F
:033BC800E5F0F035
:0E3BCB009008F6E0FAA3E0FBA2E713CA13CAC3
:0E3BD900FB9008F6EAF0A3EBF09008F8E0FA93
:0E3BE700A3E0FB900939EAF0A3EBF08A828B91
:0E3BF50083124293E5828583F09008F8F0A3D6
:053C0300E5F0F08088EF
:0C3C08009008FAE0FAA3E08A82F583221B
:0E3C1400AA82AB83ACF0FD900900EAF0A3EBAE
:0E3C2200F0A3ECF0A3EDF0900900E0FAA3E0AF
:0E3C3000FBA3E0FCA3E0FD30E70FC3E49AFE27
:0B3C3E00E49BFFE49CF8E49DF9800883
:083C49008A068B078C008D0137
:0E3C51008E028F03880489059008FCE0FEA314
:0E3C5F00E0FFA3E0F8A3E0F930E713C3E49E12
:093C6D00F517E49FF518E498F541
:073C760019E499F51A80081A
:053C7D008E178F18886E
:033C820019891A83
:083C850090090DE517F0A3E51D
:083C8D0018F0A3E519F0A3E50E
:0C3C95001AF08A828B838CF0ED123D9DAA
:0E3CA100AA82AB83ACF0FD900900E0FEA3E028
:0E3CAF00FFA3E0F8A3E0F930E714C3E49AFEA7
:0E3CBD00E49BFFE49CF8E49DF98E828F8388DF
:023CCB00F022E5
:083CCD008A828B838CF0ED224A
:0E3CD500AA83E582900906F0A3EAF0900906A2
:0C3CE300E0FAA3E0FB4A7004900000220D
:0E3CEF00EA24FCFAEB34FFFB90092AE0FCA368
:0E3CFD00E0FD900908ECF0A3EDF0900904E45E
:033D0B00F0A3F032
:0E3D0E00900908E0FCA3E0FD4C6025EAB50436
:073D1C0006EBB50502801B58
:0E3D2300900904ECF0A3EDF08C828D83E0FC9F
:0D3D3100A3E0FD900908ECF0A3EDF080D0B8
:0C3D3E00900908E0FAA3E08A82F58322D5
:0E3D4A00AAF0AB83E58290090AF0A3EBF0A388
:0E3D5800EAF090090AE0FAA3E0FBA3E0FC8A7F
:0E3D6600828B83123CD5AA82AB83EA4B602885
:0E3D7400900904E0FCA3E0FD4C700B8A828BEA
:083D820083A3A3E4F0A3F022E7
:0E3D8A008A828B83E0FAA3E0FB8C828D83EAB1
:043D9800F0A3EBF0B9
:013D9C002204
:0E3D9D00AA82AB83ACF0FD900911EAF0A3EB13
:0D3DAB00F0A3ECF0A3EDF0900915E4F0900A
:0E3DB8000911E0FAA3E0FBA3E0FCA3E0FD7E0E
:013DC60000FC
:093DC70090090DE0F528A3E0F5D8
:083DD00029A3E0F52AA3E0F5A8
:0A3DD8002BE52B235401FF7078C087
:0A3DE20006E52825E0FFE52933F887
:093DEC00E52A33F9E52B33FE90C2
:0E3DF500090DEFF0A3E8F0A3E9F0A3EEF090C3
:083E0300090DE0F528A3E0F52C
:083E0B0029A3E0F52AA3E0F56C
:073E13002BC3EA9528EB9593
:063E1A0029EC952AED954C
:0A3E20002BE433D0066029E52BC324
:073E2A0013F52BE52A13F547
:053E31002AE52913F54C
:053E360029E52813F549
:053E3B002890090DE5CF
:083E400028F0A3E529F0A3E539
:083E48002AF0A3E52BF080092C
:093E50000E900915EEF0023DC7C9
:053E5900900915E0FADC
:0E3E5E00900911E0FBA3E0FCA3E0FDA3E0FE51
:093E6C0090090DE0F528A3E0F532
:083E750029A3E0F52AA3E0F502
:073E7D002BC3EB9528EC9527
:063E840029ED952AEE95E0
:093E8A002B4017900911EBC395C0
:093E930028F0EC9529A3F0ED954F
:083E9C002AA3F0EE952BA3F020
:0E3EA40090090DE0FBA3E0FCA3E0FDA3E0FE0F
:0D3EB200C313FEED13FDEC13FCEB13FB90AE
:0E3EBF00090DF0A3ECF0A3EDF0A3EEF08A03E2
:0E3ECD001AEB708D900911E0FAA3E0FBA3E060
:0B3EDB00FCA3E0FD8A828B838CF022A8
:0E3EE600AA82AB83ACF0FD90091AEAF0A3EBC0
:0E3EF400F0A3ECF0A3EDF090091AE0FAA3E0C1
:0E3F0200FBA3E0FCA3E0FD30E70FC3E49AFE52
:0B3F1000E49BFFE49CF8E49DF98008AE
:083F1B008A068B078C008D0162
:0E3F23008E028F0388048905900916E0FEA324
:0C3F3100E0FFA3E0F8A3E0F933E433F56F
:093F3D001BE51B6013C3E49EF5B3
:083F46001CE49FF51DE498F551
:073F4E001EE499F51F800835
:053F55008E1C8F1D8889
:033F5A001E891F9E
:083F5D0090091EE51CF0A3E52C
:083F65001DF0A3E51EF0A3E529
:0C3F6D001FF08A828B838CF0ED123FB1B4
:0E3F7900AA82AB83ACF0FD90091AE0FEA3E033
:0C3F8700FFA3E0F8A3E0F933E433651B6E
:0E3F93006014C3E49AFEE49BFFE49CF8E49DF6
:083FA100F98E828F8388F02263
:083FA9008A828B838CF0ED226B
:0E3FB100AA82AB83ACF0FD900922EAF0A3EBEC
:0E3FBF00F0A3ECF0A3EDF0900926E4F0A3F0DF
:0E3FCD00A3F0A3F090091EE0FAA3E0FBA3E02E
:073FDB00FCA3E0FD752820A6
:0E3FE200900922E0FFA3E0F8A3E0F9A3E0FEBF
:0C3FF000339200EF2FFFE833F8E933F9BB
:0E3FFC00EE33FE900922EFF0A3E8F0A3E9F007
:0E400A00A3EEF0900926E0FEA3E0FFA3E0F88D
:0E401800A3E0F9EE2EFEEF33FFE833F8E933B4
:0E402600F9900926EEF0A3EFF0A3E8F0A3E96D
:0C403400F030001E900926E0FFA3E0F829
:0E404000A3E0F9A3E0FE90092674014FF0A35F
:08404E00E8F0A3E9F0A3EEF095
:0E405600900926E0FEA3E0FFA3E0F8A3E0F946
:0E406400C3EE9AEF9BE89CE99D40319009263F
:0E407200EEC39AF0EF9BA3F0E89CA3F0E99D4B
:0E408000A3F0900922E0FEA3E0FFA3E0F8A366
:0E408E00E0F990092274014EF0A3EFF0A3E8D0
:04409C00F0A3E9F0B4
:0540A000D52802800399
:0340A500023FE2F5
:0E40A800900922E0FAA3E0FBA3E0FCA3E0FDF8
:0740B6008A828B838CF0224B
:06303200E478FFF6D8FD72
:083010007900E94400601B7A1D
:0530180000904EE0787D
:03301D007275A029
:0A30200009E493F2A308B8000205CA
:08302A00A0D9F4DAF275A0FF51
:0E40BD00AA83E58290092EF0A3EAF090092E66
:0E40CB00E0FAA3E0FB900930EAF0A3EBF0EA84
:0E40D9004B702090093074012AF0E43BA3F0F4
:0D40E70090092CE0FAA3E0FB1ABAFF011BC0
:0840F40090092CEAF0A3EBF0A7
:0E40FC00900930E0FAA3E0FB90092AEAF0A355
:0E410A00EBF090092CE0FCA3E0FDEC2AFCEDAC
:0E4118003BFDEC24FEFCED34FFFD8A828B8320
:0E412600ECF0A3EDF08C828D83E4F0A3F08A20
:0A413400828B83A3A3E4F0A3F02222
:0E413E00AA83E582900932F0A3EAF0900932DC
:0E414C00E0FAA3E0FBC374FB9A74FF9B5004DF
:04415A0090000022AF
:0E415E0090093274042AF0E43BA3F090092A81
:0E416C00E0FAA3E0FB900934EAF0A3EBF09038
:08417A000932E0F528A3E0F58D
:014182002913
:0E418300900934E0FCA3E0FD8C828D83E0FE09
:0E419100A3E0FF8E008F018C028D03E8C39A1D
:0E419F00F8E99BF98C828D83A3A3E0FAA3E0DC
:0C41AD00FBE8C39AF8E99BF9C3E89528E9
:0C41B900E99529400D90093674042CF0A3
:0641C500E43DA3F080239D
:0E41CB00900934EEF0A3EFF0900934E0FAA36F
:0E41D900E0FB8A828B83E0FAA3E0FB4A709C35
:0741E700900936E4F0A3F09B
:0E41EE00900936E0FAA3E0FB4A700302426E2D
:0E41FC00900934E0FAA3E0FB74022AFCE43BD5
:0E420A00FD8C828D83E0FEA3E0FF4E701390CA
:0E4218000932E0F8A3E0F98C828D83E8F0A370
:04422600E9F08044F7
:0E422A00EE2AFEEF3BFF8A828B83E0FCA3E0CE
:0E423800FD8E828F83ECF0A3EDF08A828B83E3
:0D424600EEF0A3EFF074022EFAE43FFB90BF
:0E4253000932E0FCA3E0FD8A828B83ECF0A32D
:0D426100EDF090093674042EF0E43FA3F058
:0C426E00900936E0FAA3E08A82F5832272
:0E427A0020F71030F6118883A88220F507F691
:05428800A8837583000E
:01428D00220E
:03428E00F280F7C4
:02429100F02219
:0E429300AA83AB828BF0900939E0A4F8A9F061
:0E42A1008AF0E0A429F98BF0A3E0A429F583AC
:0442AF0088822222BD
:0E42B300AA83E58290093DF0A3EAF090093D50
:0E42C100E0FAA3E0FB30E709C3E49AFCE49BBB
:0342CF00FD80046B
:0442D2008A048B05CA
:0E42D6008C028D0390093BE0FCA3E0FD30E775
:0A42E40009C3E49CFEE49DFF800482
:0442EE008C068D07A6
:0D42F20090093FEEF0A3EFF08A828B83125B
:0E42FF004321AA82AB8390093DE0FCA3E0FDC1
:0E430D0030E70CC3E49AFCE49BFD8C828D83A8
:01431B00227F
:05431C008A828B832260
:0E432100AA83E582900941F0A3EAF0900943D7
:0C432F00E4F0900941E0FAA3E0FB7C0000
:0E433B0090093FE0FDA3E0FE235401FF703720
:0E434900EECD25E0CD33FE90093FEDF0A3EE62
:0E435700F090093FE0FDA3E0FEC3EA9DEB9E5F
:0E4365005011EEC313CD13CDFE90093FEDF0C5
:05437300A3EEF080083C
:084378000C900943ECF080BB3E
:05438000900943E0FA82
:0E438500900941E0FBA3E0FC90093FE0FDA39E
:0E439300E0FEC3EB9DEC9E400B900941EBC396
:0643A1009DF0EC9EA3F06C
:0E43A70090093FE0FBA3E0FCC313CB13CBFC5B
:0E43B50090093FEBF0A3ECF08A031AEB70C204
:0C43C300900941E0FAA3E08A82F5832211
:083038007800E84400600A7909
:033040000075A078
:0630430000E4F309D8FCD3
:083049007872E84409600C797B
:0B3051000A900000E4F0A3D8FCD9FABC
:0843CF00C027858127AA821294
:0543D7003972D027221D
:0E43DC00AAF0AB83E582900945F0A3EBF0A3B5
:0E43EA00EAF0900945E0FAA3E0FBA3E0FC90A6
:0E43F8000944E0FD900958E4F0A3F0A3F09012
:0E440600095BEAF0A3EBF0A3ECF090095EED89
:07441400F09043CF02453494
:06441B00C027858127E5A2
:0C4421002724FBFA900958E4F0A3F0A354
:0C442D00F0E52724FBF890095BE6F0089E
:0D443900A3E6F008A3E6F090095EEAF0901B
:0A44460043CF124534AA82AB83D0A5
:02445000272221
:0C445200E582900954F0900954E0FA90C3
:0E445E00094AE0C0E0A3E0C0E0A3E0C0E074C3
:08446C0080C0E07444C0E09040
:0C4474000948E0C0E0A3E0C0E08A82221A
:0E448000158115811581900952E0FAA3E0FB29
:0C448E0090095274012AF0E43BA3F022D4
:0E449A00E582900955F0900955E0FA74302A39
:0C44A800FA24C6500A74072AFA300103F7
:0344B400430220A0
:0544B7008A820244525C
:0E44BC00E582900956F0900956E0FAC4540FBC
:0E44CA00FBF582C00212449AD00253020F8A00
:0444D8008202449A7E
:0E44DC00E582900957F090094DE0FAA3E0FB4D
:0E44EA00A3E0FCA3E0FD900951E0FE9009570D
:0444F800E0FF782049
:0E44FC00EE2EFEED235401F94206EA2AFAEBF9
:0E450A0033FBEC33FCED33FDC3EE9F4007EEB8
:06451800C39FFE430201F7
:0E451E00D8DC90094DEAF0A3EBF0A3ECF0A37B
:08452C00EDF0900951EEF022C0
:0E453400AA83E58290095FF0A3EAF090095F88
:0E454200E0FAA3E0FB900948EAF0A3EBF0904A
:0E4550000958E0FAA3E0FBA3E0FC90094AEA58
:0E455E00F0A3EBF0A3ECF0900952E4F0A3F010
:0E456C0090095BE0FAA3E0FBA3E0FC8A828BDF
:0E457A00838CF0124CB8FD90095B74012AF09E
:0D458800E43BA3F0A3ECF0ED7003024C59EE
:05459500BD25028003BA
:03459A00024C517F
:05459D00C202C203C2CE
:0445A20004C205C288
:0445A60006C207C280
:0445AA0008C20990AA
:0945AE000961E4F0900962F0904B
:0E45B7000963F090095BE0FAA3E0FBA3E0FCCF
:0E45C5008A828B838CF0124CB8FEA3AA82ABC4
:0D45D3008390095BEAF0A3EBF0A3ECF090FD
:0D45E0000965EEF0BE25088E8212445202DD
:0245ED00456C1B
:0545EF008E07BF300043
:0E45F400404A8E07EF24C64043900963E0FF63
:0446020060028029A9
:0E460600C002C003C004900962E0FA75F00A19
:0E461400A4FAEE24D09009622AF0900962E028
:0C462200FAD004D003D002709AD20380BA
:01462E0096F5
:0E462F00EF75F00AA4FFEE24D09009632FF07F
:03463D000245C56E
:0E464000900965E0FEBE2E08900963E4F002CA
:02464E0045C560
:0E4650008E82C002C003C004C006124CD8E522
:0C465E008224FF9201D006D004D003D0CB
:09466A0002300105900965E4F03D
:0A467300900965E0FEBE20028055AC
:05467D00BE2B02804B82
:05468200BE2D02804185
:05468700BE4202804B61
:05468C00BE4302805056
:06469100BE44030248C60E
:06469700BE46030248E8E4
:06469D00BE49030248C6FD
:0546A300BE4C02803452
:0646A800BE4F030248D0E2
:0646AE00BE500302482883
:0546B400BE530280422C
:0646B900BE55030248D8C3
:0646BF00BE58030248E0B2
:0346C5000248ECBC
:0546C800D2020245C50D
:0546CD00D2040245C506
:0546D200D2050245C500
:0546D700D2070245C5F9
:0546DC00D2080245C5F3
:0E46E10090095EE0FA24FEF890095EF0860271
:0C46EF00088603188A821244520248F820
:0E46FB0090095EE0FA24FDF890095EF0860258
:0E470900088603088604181890094DEAF0A3EC
:0E471700EBF0A3ECF090094DE0FAA3E0FBA359
:0E472500E0FC8A828B838CF0124C65AA82AB7A
:0A47330083900963E0FB600280053B
:05473D00900963EAF0A1
:0C474200200238900962E0FBC3EA9B50A3
:0D474E002E900962EBC39AF0900962E0FB27
:0D475B008B041B900962EBF0BC0002801083
:0E476800758220C002C003124452D003D0025A
:0247760080E3DE
:05477800900962EBF066
:05477D00900963E0FD5E
:0E478200C00290094DE0FCA3E0FFA3E0FA8C1A
:0E479000828F838AF0124CB8D00260538D04E1
:0E479E001DC374808CF063F08095F05044C011
:0A47AC000290094DE0F522A3E0F5AC
:0847B60023A3E0F524740125A2
:0747BE0022FBE43523FAACF5
:0C47C5002490094DEBF0A3EAF0A3ECF007
:0747D1008522828523838508
:0C47D80024F0124CB8FAF582C002C005B3
:0B47E400124452D005D002D002809396
:0647EF002002030248F85D
:0D47F500900962E0FBC3EA9B40030248F814
:0C480200900962EBC39AF0900962E0FAA2
:0E480E008A031A900962EAF0BB00030248F325
:0C481C00758220C002124452D00280E6D7
:0E48280090095EE0FB24FDF890095EF0860327
:0E483600088604088607181890094DEBF0A3B9
:0E484400ECF0A3EFF090094FE0FB247F50084A
:084852009009657443F0802019
:0D485A00EB249F50089009657450F0801306
:0D486700EB24BF50089009657449F08006ED
:064874009009657458F084
:0E487A00900965E0FBF582C003124452D003A2
:0E48880075823AC003124452D003758230C0CC
:0E48960003124452D003758278C003124452BC
:0748A400D003BB4902800FA5
:0548AB00BB5002800A71
:0A48B00090094EE0FBF5821244BCB3
:0C48BA0090094DE0FBF5821244BC8032F6
:0A48C600D206900961740AF0802800
:0848D0009009617408F08020DA
:0848D800900961740AF08018D8
:0848E0009009617410F08010D2
:0448E800D209800C65
:0748EC008E82124452800588
:0548F300900962EAF0EB
:0C48F80030096B90095EE0FA24FCF89097
:0E490400095EF086020886030886040886060F
:0E49120018181890094DEAF0A3EBF0A3ECF092
:0B492000A3EEF090094D74D5F0A374D5
:06492B004EF0A37480F0C1
:0E49310090094DE0FBA3E0FCA3E0FD74012B18
:0E493F00FEE43CFF8D0290094DEEF0A3EFF078
:0E494D00A3EAF08B828C838DF0124CB8FA70C6
:04495B000302456CA2
:07495F008A8212445280CB52
:0B496600900961E0FABA000302456C02
:0849710090096C746BF0A37453
:0649790009F030074C902C
:0E497F00095EE0FA14F890095EF08602EA3351
:0E498D0095E0FBFCFE90094DEAF0A3EBF0A3D1
:0B499B00ECF0A3EEF0300603024A40EF
:0E49A60090094DE0FAA3E0FBA3E0FCA3E0FEC5
:0E49B4007B007C007E0090094DEAF0A3EBF042
:0849C200A3ECF0A3EEF08076F7
:0C49CA0030082A90095EE0FA24FCF89006
:0E49D600095EF086020886030886040886063D
:0E49E40018181890094DEAF0A3EBF0A3ECF0C0
:0549F200A3EEF0804976
:0E49F70090095EE0FA24FEF890095EF0860258
:0E4A050008860318EB3395E0FCFE90094DEA9D
:0C4A1300F0A3EBF0A3ECF0A3EEF0200603
:0E4A1F002090094DE0FAA3E0FBA3E0FCA3E029
:0E4A2D00FE7C007E0090094DEAF0A3EBF0A3A2
:054A3B00ECF0A3EEF019
:0C4A400030063E90094DE0FAA3E0FBA315
:0E4A4C00E0FCA3E0FE30E72B90094DE0FAA35A
:0E4A5A00E0FBA3E0FCA3E0FEC3E49AFAE49BB9
:0E4A6800FBE49CFCE49EFE90094DEAF0A3EBFB
:094A7600F0A3ECF0A3EEF08002C5
:024A7F00C2066D
:084A8100D20A900961E0FC7506
:034A8900256B7525
:044A8C0026097D007A
:0E4A9000900951E4F08C82C004C0051244DC91
:0C4A9E00D005D004200A32C00490095159
:0A4AAA00E0FFC4FF85258285268306
:0A4AB400E0FA42078525828526837B
:0A4ABE00EFF0152574FFB525021571
:014AC80026C7
:084AC90090096CE525F0A3E55E
:064AD10026F0D004800C69
:094AD700900951E0FF852582855C
:034AE0002683F03A
:094AE3000D900964EDF0B20A9097
:0E4AEC00094DE0FFA3E0FAA3E0FEA3E0FBEF1C
:0C4AFA004A4E4B709190096CE525F0A32A
:094B0600E526F0900964EDF09041
:0C4B0F000962E0FA70069009627401F07F
:0A4B1B0020032720022474012DFA64
:054B2500900962E0FBB5
:0D4B2A00C3EA9B5011758220C002C0031227
:094B37004452D003D0021B80EAB5
:054B4000900962EBF09A
:0A4B450030061275822D12445290C2
:0B4B4F000962E0FA14900962F0802F68
:0C4B5A00900964E0FA60283004127582B3
:0B4B66002B124452900962E0FA1490F8
:054B71000962F0801351
:0A4B760030051075822012445290A1
:094B80000962E0FA14900962F0E8
:094B890020022F900964E0FA906B
:044B92000962E0FBD9
:0E4B96008B041B900962EBF0C3EA9C50363092
:064BA40003047C308002D6
:024BAA007C206D
:0E4BAC008C82C002C003124452D003D002809B
:014BBA00DB1F
:0E4BBB00900962E0FA900964E0FCC39A500988
:094BC900900962EAC39CF0800C23
:074BD200900962E4F0800588
:054BD900900962EBF001
:0D4BDE0090096CE0FAA3E0FB900964E0FC94
:0A4BEB008C061CEE6040B20A200A9E
:064BF500150ABA00010BD5
:0E4BFB008A828B83E0FEC4540FFE900951F0B5
:024C0900800E1B
:0E4C0B008A828B83E0FE53060F900951EEF073
:0E4C1900900951E0FEF582C002C003C00412F3
:0A4C2700449AD004D003D00280BAF2
:064C310020020302456CA5
:054C3700900962E0FAA3
:094C3C008A031AEB700302456CB7
:0C4C4500758220C002124452D00280EBA5
:084C51008D8212445202456CF1
:0C4C5900900952E0FAA3E08A82F5832261
:0B4ED5003C4E4F20464C4F41543E0025
:0E4C6500AAF0AB83E58290096EF0A3EBF0A3FA
:0E4C7300EAF07A007B0090096EE0FCA3E0FD01
:034C8100A3E0FEAF
:0E4C84008C828D838EF0124CB8FFA3AC82ADF3
:0E4C92008390096EECF0A3EDF0A3EEF0EF605E
:084CA000070ABA00DF0B80DCFB
:0E4CA80090096EECF0A3EDF0A3EEF08A828B83
:024CB600832257
:0330030075812BA9
:0A300600124CD4E582600302315B36
:0E4CB80020F71430F6148883A88220F507E652
:064CC600A88375830022A3
:034CCC00E280F78C
:034CCF00E4932249
:024CD200E022DE
:044CD40075820022C3
:0E4CD800E582900971F0900971E0FABA61006E
:0B4CE6004009EA248540047582012289
:044CF10075820022A6
:00000001FF
