:0E605F003098FDAA99C2988A82C00212632E60
:05606D00D0028A82222E
:0E607200AAF0AB83E582900002F0A3EBF0A34E
:0E608000EAF0900000E0FAA3E0FBC3E49A749B
:0E608E00808BF063F08095F040079000007565
:03609C00F00022EF
:0C609F00900005E4F0A3F0900002E0F592
:0860AB0008A3E0F509A3E0F5EC
:0660B3000A1ABAFF011BEE
:0460B9007F007800EC
:0E60BD00C3EF9AE864808BF063F08095F0509A
:0E60CB0053C002C003C007C00012605FA9826C
:0D60D900D000D007D003D002B90A02800326
:0360E600B90D0BE6
:0B60E900B90D3375820A12632E802B64
:0A60F400C002C003EF2508FAE835EA
:0A60FE0009FBAC0A8A828B838CF048
:09610800E912678D0FBF000108C8
:0E611100900005EFF0A3E8F0D003D002809ECE
:0E611F00900002E0FAA3E0FBA3E0FC90000574
:0E612D00E0FDA3E0FEED2AFDEE3BFE8C078DAB
:0E613B00828E838FF0E412678D8A828B838CB4
:02614900F02242
:0E614B009006857440F0A37406F090000702E1
:0261590065D00F
:0360000002600338
:03605C0002615B83
:05615B0012616080FEEE
:0E61600012605FAA82758220C00212632ED0E8
:0E616E0002EA3395E0FB9006477410F0E4A3BC
:0D617C00F0900649E4F0A3F08A828B8312B4
:0A618900619375820A12632E80CD27
:0E619300AA83E58290064BF0A3EAF07A007B27
:0161A10000FD
:0D61A200C3EA9420EB648094805014EA243A
:0A61AF004DF582EB3406F5837430E1
:0861B900F00ABA00E40B80E1DA
:0E61C10090064BE0FAA3E0FB30E70675822D56
:0361CF0012632E2A
:0C61D200900647E0FAA3E0FB7C007D0093
:0E61DE0090064BE0FEA3E0FF4E7003026294B9
:0E61EC00900696EAF0A3EBF08E828F83C0023D
:0E61FA00C003C004C0051267F2AE82AF83D0AE
:0E62080005D004D003D0028E828F83C002C066
:0E62160003C004C0051267A6AE82AF83D00598
:0E622400D004D003D002C374898EF063F080E2
:0C62320095F0400890066D7430F0800676
:06623E0090066D7437F0BC
:09624400EC244DFFED3406F89046
:0E624D00066DE0F92EFE8F828883F090064BDE
:0E625B00E0FEA3E0FF90069FEAF0A3EBF08EBA
:0E626900828F83C002C003C004C00512690EFC
:0E627700E5828583F0D005D004D003D00290DC
:0C628500064BF0A3E5F0F00CBC00010D8E
:036291000261DEC9
:0E62940090066EECF0A3EDF0900649E0FAA340
:0E62A200E0FB4A701AEC4D7016758230C00297
:0E62B000C003C004C00512632ED005D004D078
:0362BE0003D00208
:0E62C100C3E49A74808BF063F08095F0501D5A
:0E62CF00C3EA9CEB64808DF063F08095F05084
:0362DD0002800438
:0462E0008A048B059C
:0862E40090066EECF0A3EDF052
:0D62EC0090066EE0FAA3E0FB1ABAFF011B5A
:0E62F90090066EEAF0A3EBF090066EE0FAA3BA
:02630700E0FBB9
:0B630900EB20E720EA244DF582EB3486
:0C63140006F583E0FCF582C002C0031215
:0D632000632ED003D0021ABAFFDF1B80DC11
:01632D00224D
:0E632E00E582900670F0900670E0FABA0A0858
:05633C0010990280FB36
:0363410075990D3E
:0563440010990280FB2E
:07634900900670E0F59922B7
:0E635000AAF0AB83E582900674F0A3EBF0A3F5
:0E635E00EAF0900677E4F0A3F0900679E4F000
:0E636C00A3F0900674E0FAA3E0FBA3E0FC8A25
:0D637A00828B838CF0126A21AA82AB839083
:0C638700067BEAF0A3EBF0900674E0F552
:086393000BA3E0F50CA3E0F5FB
:05639B000D850B828559
:0663A0000C83850DF012D4
:0E63A6006A74FFBF2D5D9006797401F0E4A3C8
:0A63B400F07401250BFFE4350CF82E
:0C63BE00A90D8F82888389F0126A747028
:0E63CA0026900671E0FCA3E0FDA3E0FE8C82AD
:0B63D8008D838EF0E50B12678DA3E5AE
:0663E3000C12678DA3E51A
:0863E9000D12678D90000022E7
:0E63F100900674EFF0A3E8F0A3E9F01ABAFFEB
:0263FF00011B80
:0864010090067BEAF0A3EBF02A
:0E64090090067BE0FAA3E0FB900674E0FCA393
:09641700E0FDA3E0FE7F00780027
:0E642000C002C003EF2CF9E83DFA8E0389821A
:0E642E008A838BF0126A74F9D003D002E970F1
:04643C00030264EA09
:0B644000C3E9648094B050030264EADA
:0D644B00C374B989F063F08095F05003022E
:0264580064EAF4
:0E645A00C004C005C006E93395E0FCE924D07B
:0E646800F9EC34FFFCEAC39FFDEB98FE1DBD6E
:03647600FF011E05
:0E64790090067DEDF0A3EEF090000AC002C088
:0E64870003C004C007C000C001126538AD821A
:0E649500AE83D001D000D007D004D003D002D7
:0E64A300900694EDF0A3EEF089828C83C00287
:0E64B100C003C006C007C0001267D2AC82ADA7
:0E64BF0083D000D007D006D003D0029006771D
:0E64CD00E0FEA3E0F9900677EC2EF0ED39A387
:0664DB00F00FBF000108F4
:0964E100D006D005D004026420AD
:0E64EA00900671E0FAA3E0FBA3E0FC900674BC
:0E64F800E0FDA3E0FEA3E0F9EF2DFDE83EFE7F
:0D6506008A828B838CF0ED12678DA3EE125C
:08651300678DA3E912678D906A
:0E651B000679E0FAA3E0FB4A6007900677E4F9
:03652900F0A3F0EC
:0C652C00900677E0FAA3E08A82F5832253
:0E653800AA83E58290067FF0A3EAF090068128
:066546007401F0E4A3F073
:0E654C0090067DE0FAA3E0FB4A606DEA30E0C5
:0E655A002C90067FE0FAA3E0FB900681E0FCA7
:0E656800A3E0FD900694EAF0A3EBF08C828D88
:0E657600831267D2E5828583F0900681F0A340
:03658400E5F0F04F
:0E65870090067DE0FAA3E0FBA2E713CA13CA58
:0E659500FB90067DEAF0A3EBF090067FE0FAA3
:0E65A300A3E0FB900694EAF0A3EBF08A828B53
:0E65B100831267D2E5828583F090067FF0A307
:0565BF00E5F0F080880A
:0C65C400900681E0FAA3E08A82F58322B1
:06603200E478FFF6D8FD42
:086010007900E94400601B7AED
:0560180000906A94787D
:03601D00AC75A0BF
:0A60200006E493F2A308B80002059D
:08602A00A0D9F4DAF275A0FF21
:0E65D000AA83E582900687F0A3EAF090068782
:0E65DE00E0FAA3E0FB900689EAF0A3EBF0EAF6
:0E65EC004B702090068974012AF0E43BA3F066
:0D65FA00900685E0FAA3E0FB1ABAFF011B32
:08660700900685EAF0A3EBF018
:0E660F00900689E0FAA3E0FB900683EAF0A370
:0E661D00EBF0900685E0FCA3E0FDEC2AFCED1E
:0E662B003BFDEC24FEFCED34FFFD8A828B83E8
:0E663900ECF0A3EDF08C828D83E4F0A3F08AE8
:0A664700828B83A3A3E4F0A3F022EA
:0E665100AA83E58290068BF0A3EAF090068BF8
:0E665F00E0FAA3E0FBC374FB9A74FF9B5004A7
:04666D009000002277
:0E66710090068B74042AF0E43BA3F09006839D
:0E667F00E0FAA3E0FB90068DEAF0A3EBF090AA
:08668D00068BE0F50EA3E0F519
:016695000FF5
:0E66960090068DE0FCA3E0FD8C828D83E0FE7B
:0E66A400A3E0FF8E008F018C028D03E8C39AE5
:0E66B200F8E99BF98C828D83A3A3E0FAA3E0A4
:0C66C000FBE8C39AF8E99BF9C3E8950ECB
:0C66CC00E9950F400D90068F74042CF02F
:0666D800E43DA3F0802365
:0E66DE0090068DEEF0A3EFF090068DE0FAA38B
:0E66EC00E0FB8A828B83E0FAA3E0FB4A709CFD
:0766FA0090068FE4F0A3F00D
:0E67010090068FE0FAA3E0FB4A700302678166
:0E670F0090068DE0FAA3E0FB74022AFCE43B46
:0E671D00FD8C828D83E0FEA3E0FF4E70139092
:0E672B00068BE0F8A3E0F98C828D83E8F0A3E2
:04673900E9F08044BF
:0E673D00EE2AFEEF3BFF8A828B83E0FCA3E096
:0E674B00FD8E828F83ECF0A3EDF08A828B83AB
:0D675900EEF0A3EFF074022EFAE43FFB9087
:0E676600068BE0FCA3E0FD8A828B83ECF0A39F
:0D677400EDF090068F74042EF0E43FA3F0CA
:0C67810090068FE0FAA3E08A82F58322E4
:0E678D0020F71030F6118883A88220F507F659
:05679B00A883758300D6
:0167A00022D6
:0367A100F280F78C
:0267A400F022E1
:0E67A600AA83E582900692F0A3EAF090069294
:0E67B400E0FAA3E0FB33B3E433FC60068A0492
:0467C2008B058007BC
:0767C600C3E49AFCE49BFD13
:0567CD008C828D832287
:0E67D200AA83AB828BF0900694E0A4F8A9F0A5
:0E67E0008AF0E0A429F98BF0A3E0A429F58348
:0467EE008882222259
:0E67F200AA83E582900698F0A3EAF09006983C
:0E680000E0FAA3E0FB30E709C3E49AFCE49B56
:03680E00FD800406
:046811008A048B0565
:0E6815008C028D03900696E0FCA3E0FD30E7B8
:0A68230009C3E49CFEE49DFF80041D
:04682D008C068D0741
:0D68310090069AEEF0A3EFF08A828B83129E
:0E683E006860AA82AB83900698E0FCA3E0FDA0
:0E684C0030E70CC3E49AFCE49BFD8C828D8344
:01685A00221B
:05685B008A828B8322FC
:0E686000AA83E58290069CF0A3EAF090069EC3
:0C686E00E4F090069CE0FAA3E0FB7C0044
:0E687A0090069AE0FDA3E0FE235401FF703764
:0E688800EECD25E0CD33FE90069AEDF0A3EEA6
:0E689600F090069AE0FDA3E0FEC3EA9DEB9EA3
:0E68A4005011EEC313CD13CDFE90069AEDF009
:0568B200A3EEF08008D8
:0868B7000C90069EECF080BB82
:0568BF0090069EE0FAC6
:0E68C40090069CE0FBA3E0FC90069AE0FDA38A
:0E68D200E0FEC3EB9DEC9E400B90069CEBC3DA
:0668E0009DF0EC9EA3F008
:0E68E60090069AE0FBA3E0FCC313CB13CBFC9F
:0E68F40090069AEBF0A3ECF08A031AEB70C248
:0C69020090069CE0FAA3E08A82F5832254
:0E690E00AA83E5829006A1F0A3EAF09006A10C
:0E691C00E0FAA3E0FB30E709C3E49AFCE49B39
:03692A00FD8004E9
:04692D008A048B0548
:0E6931008C028D0390069FE0FCA3E0FD33E492
:0D693F0033FE6009C3E49CFFE49DF8800472
:04694C008C078D0027
:0E6950009006A3EFF0A3E8F08A828B83C006C6
:0E695E00126986AA82AB83D0069006A1E0FCE7
:0E696C00A3E0FD33E4336E600CC3E49AFCE458
:07697A009BFD8C828D83223E
:056981008A828B8322D5
:086038007800E84400600A79D9
:036040000075A048
:0660430000E4F309D8FCA3
:0860490078ACE84406600C7914
:0B60510007900000E4F0A3D8FCD9FA8F
:0E698600AA83E5829006A5F0A3EAF09006A78A
:0E699400E4F0A3F09006A3E0FAA3E0FB7C1071
:0C69A2009006A5E0FDA3E0FE339200EE9D
:0E69AE00CD25E0CD33FE9006A5EDF0A3EEF072
:0E69BC009006A7E0FDA3E0FECD25E0CD33FE62
:0C69CA009006A7EDF0A3EEF03000129054
:0E69D60006A7E0FDA3E0FE9006A774014DF0B9
:0369E400A3EEF02F
:0E69E7009006A7E0FDA3E0FEC3ED9AEE9B40F4
:0D69F5001D9006A7EDC39AF0EE9BA3F09055
:0E6A020006A5E0FDA3E0FE9006A574014DF090
:036A1000A3EEF002
:0E6A1300DC8D9006A5E0FAA3E08A82F58322CE
:0E6A2100AAF0AB83E5829006A9F0A3EBF0A3E8
:0E6A2F00EAF07A007B009006A9E0FCA3E0FDEF
:036A3D00A3E0FED5
:0E6A40008C828D838EF0126A74FFA3AC82AD3F
:0E6A4E00839006A9ECF0A3EDF0A3EEF0EF604C
:086A5C00070ABA00DF0B80DC21
:0E6A64009006A9ECF0A3EDF0A3EEF08A828B71
:026A720083227D
:0360030075812084
:0A600600126A90E582600302615BFC
:0E6A740020F71430F6148883A88220F507E678
:066A8200A88375830022C9
:036A8800E280F7B2
:036A8B00E493226F
:026A8E00E02204
:046A900075820022E9
:00000001FF
