:043000000230263242
:01300B003292
:01301300328A
:01301B003282
:033023000230C3B5
:03307F000230829A
:0530820012308780FE02
:0330870012309272
:08308A0075825512312A80F80D
:06305500E478FFF6D8FD4F
:083033007900E94400601B7AFA
:05303B000090318D78CA
:033040000575A073
:0A30430002E493F2A308B8000205AE
:08304D00A0D9F4DAF275A0FF2E
:08305B007800E84400600A79E6
:033063000075A055
:0630660000E4F309D8FCB0
:08306C007805E84402600C79CC
:0B30740003900000E4F0A3D8FCD9FAA0
:0E30920075985075C834D2BC75C83475CBFF24
:0D30A00075CADAC298C299900003E4F0905E
:0830AD000002F0900001F09018
:0630B5000000F0D202D27F
:0430BB0003C201C289
:0430BF0000D2AC226D
:0E30C300C0E0C082C083C0D075D008C2AC107F
:0430D1009802801DC4
:0E30D500900001E0FA90000174012AF0EA2454
:0A30E30004F582E43401F583E59959
:0530ED00F0D200C20357
:0530F200109902802886
:0E30F700900002E0FA900000E0FBEAB50B0644
:06310500D202D201801489
:0C310B0090000274012AF0EA2404F5820E
:08311700E43400F583E0F599B2
:0B311F00D2ACD0D0D083D082D0E03200
:0C312A00E582900204F0900000E0FA90B2
:0C313600000074012AF0EA2404FAE434DA
:0C31420000FB900204E0FC8A828B83F00A
:07314E00C2AC100202800276
:02315500D2990D
:03315700D2AC22D5
:0E315A00900003E0FA90000374012AF0EA24CA
:0A31680004F582E43401F583E0FA77
:0E317200C2AC900003E0FB900001E0FCEBB566
:043180000402D20370
:05318400D2AC8A82229A
:0330260075812091
:0A302900123189E582600302308253
:043189007582002229
:00000001FF
